{
  "transactions": [
    {
      "hash": "0xa4328239c03bf6eeb1f2a1df87b4f31f8e4d617df7d29c9f524e8ab1aa6d239a",
      "transactionType": "CALL",
      "contractName": null,
      "contractAddress": "0x998367e7de460b309500e06cfdabb0c94adb18de",
      "function": "approve(address,uint256)",
      "arguments": [
        "0x1b81D678ffb9C0263b24A97847620C99d213eB14",
        "131200740390247413257"
      ],
      "transaction": {
        "from": "0xb73ebe02d3a29d61cb3ee87a3eede73cb1a3c725",
        "to": "0x998367e7de460b309500e06cfdabb0c94adb18de",
        "gas": "0x106c0",
        "value": "0x0",
        "input": "0x095ea7b30000000000000000000000001b81d678ffb9c0263b24a97847620c99d213eb140000000000000000000000000000000000000000000000071cc6aa40ecf13609",
        "nonce": "0x167",
        "chainId": "0x61"
      },
      "additionalContracts": [],
      "isFixedGasLimit": false
    },
    {
      "hash": "0x5febbbf75a02f4a4d4f44bd640fdbdedc4691436fb2bbcb4c5a6d106aaf3f808",
      "transactionType": "CALL",
      "contractName": null,
      "contractAddress": "0x1b81d678ffb9c0263b24a97847620c99d213eb14",
      "function": "exactInputSingle((address,address,uint24,address,uint256,uint256,uint256,uint160))",
      "arguments": [
        "(0x998367e7De460b309500E06cfDaBb0c94adB18De, 0xE4E93c531697AEB44904f9579C3ccE1034EB4886, 100, 0xB73Ebe02d3A29d61cb3Ee87A3EEdE73cb1A3c725, 1760172468, 131200740390247413257, 0, 0)"
      ],
      "transaction": {
        "from": "0xb73ebe02d3a29d61cb3ee87a3eede73cb1a3c725",
        "to": "0x1b81d678ffb9c0263b24a97847620c99d213eb14",
        "gas": "0x271db",
        "value": "0x0",
        "input": "0x414bf389000000000000000000000000998367e7de460b309500e06cfdabb0c94adb18de000000000000000000000000e4e93c531697aeb44904f9579c3cce1034eb48860000000000000000000000000000000000000000000000000000000000000064000000000000000000000000b73ebe02d3a29d61cb3ee87a3eede73cb1a3c7250000000000000000000000000000000000000000000000000000000068ea19b40000000000000000000000000000000000000000000000071cc6aa40ecf1360900000000000000000000000000000000000000000000000000000000000000000000000000000000000000000000000000000000000000000000000000000000",
        "nonce": "0x168",
        "chainId": "0x61"
      },
      "additionalContracts": [],
      "isFixedGasLimit": false
    },
    {
      "hash": "0x98102b4821636d97674e83905c2018cfc65421ce4caf32fb194a78fc65c00c40",
      "transactionType": "CALL",
      "contractName": null,
      "contractAddress": "0xd20268cb7065d20307b0793f702febddf5d24856",
      "function": "approve(address,uint256)",
      "arguments": [
        "0x1b81D678ffb9C0263b24A97847620C99d213eB14",
        "495386684937273412"
      ],
      "transaction": {
        "from": "0xb73ebe02d3a29d61cb3ee87a3eede73cb1a3c725",
        "to": "0xd20268cb7065d20307b0793f702febddf5d24856",
        "gas": "0x1069d",
        "value": "0x0",
        "input": "0x095ea7b30000000000000000000000001b81d678ffb9c0263b24a97847620c99d213eb1400000000000000000000000000000000000000000000000006dff790b6250044",
        "nonce": "0x169",
        "chainId": "0x61"
      },
      "additionalContracts": [],
      "isFixedGasLimit": false
    },
    {
      "hash": "0x81a85424d6c226affe1403eca63c50f215587298e07599408027cb690796f1f9",
      "transactionType": "CALL",
      "contractName": null,
      "contractAddress": "0x1b81d678ffb9c0263b24a97847620c99d213eb14",
      "function": "exactInputSingle((address,address,uint24,address,uint256,uint256,uint256,uint160))",
      "arguments": [
        "(0xD20268cb7065d20307b0793f702febDDf5d24856, 0xE4E93c531697AEB44904f9579C3ccE1034EB4886, 500, 0xB73Ebe02d3A29d61cb3Ee87A3EEdE73cb1A3c725, 1760172468, 495386684937273412, 0, 0)"
      ],
      "transaction": {
        "from": "0xb73ebe02d3a29d61cb3ee87a3eede73cb1a3c725",
        "to": "0x1b81d678ffb9c0263b24a97847620c99d213eb14",
        "gas": "0x296f9",
        "value": "0x0",
        "input": "0x414bf389000000000000000000000000d20268cb7065d20307b0793f702febddf5d24856000000000000000000000000e4e93c531697aeb44904f9579c3cce1034eb488600000000000000000000000000000000000000000000000000000000000001f4000000000000000000000000b73ebe02d3a29d61cb3ee87a3eede73cb1a3c7250000000000000000000000000000000000000000000000000000000068ea19b400000000000000000000000000000000000000000000000006dff790b625004400000000000000000000000000000000000000000000000000000000000000000000000000000000000000000000000000000000000000000000000000000000",
        "nonce": "0x16a",
        "chainId": "0x61"
      },
      "additionalContracts": [],
      "isFixedGasLimit": false
    },
    {
      "hash": "0x957f1bc7e74a3980de4d03d85c8ffafba7ee0602b735b50019d655c057b5c513",
      "transactionType": "CALL",
      "contractName": null,
      "contractAddress": "0xd81e1ac7f2ccdd106701e484f12b842684719bd3",
      "function": "approve(address,uint256)",
      "arguments": [
        "0x1b81D678ffb9C0263b24A97847620C99d213eB14",
        "2795800370706320497"
      ],
      "transaction": {
        "from": "0xb73ebe02d3a29d61cb3ee87a3eede73cb1a3c725",
        "to": "0xd81e1ac7f2ccdd106701e484f12b842684719bd3",
        "gas": "0xf816",
        "value": "0x0",
        "input": "0x095ea7b30000000000000000000000001b81d678ffb9c0263b24a97847620c99d213eb1400000000000000000000000000000000000000000000000026ccad9fd6db0c71",
        "nonce": "0x16b",
        "chainId": "0x61"
      },
      "additionalContracts": [],
      "isFixedGasLimit": false
    },
    {
      "hash": "0xa5293ecfaf1260fd86b91c0ddcd2d5f2a323d020e85a46832a1b8b119afef21e",
      "transactionType": "CALL",
      "contractName": null,
      "contractAddress": "0x1b81d678ffb9c0263b24a97847620c99d213eb14",
      "function": "exactInputSingle((address,address,uint24,address,uint256,uint256,uint256,uint160))",
      "arguments": [
        "(0xd81e1AC7F2ccdd106701e484f12B842684719bd3, 0xE4E93c531697AEB44904f9579C3ccE1034EB4886, 500, 0xB73Ebe02d3A29d61cb3Ee87A3EEdE73cb1A3c725, 1760172468, 2795800370706320497, 0, 0)"
      ],
      "transaction": {
        "from": "0xb73ebe02d3a29d61cb3ee87a3eede73cb1a3c725",
        "to": "0x1b81d678ffb9c0263b24a97847620c99d213eb14",
        "gas": "0x296ca",
        "value": "0x0",
        "input": "0x414bf389000000000000000000000000d81e1ac7f2ccdd106701e484f12b842684719bd3000000000000000000000000e4e93c531697aeb44904f9579c3cce1034eb488600000000000000000000000000000000000000000000000000000000000001f4000000000000000000000000b73ebe02d3a29d61cb3ee87a3eede73cb1a3c7250000000000000000000000000000000000000000000000000000000068ea19b400000000000000000000000000000000000000000000000026ccad9fd6db0c7100000000000000000000000000000000000000000000000000000000000000000000000000000000000000000000000000000000000000000000000000000000",
        "nonce": "0x16c",
        "chainId": "0x61"
      },
      "additionalContracts": [],
      "isFixedGasLimit": false
    },
    {
      "hash": "0x45b1e7083ab5bdbf2bdc2489e2553a6d6a2dcaa1c412ba5206548e762049ed3c",
      "transactionType": "CALL",
      "contractName": null,
      "contractAddress": "0x8dcd14418995d376e40255dabf55ce58d994bfc4",
      "function": "approve(address,uint256)",
      "arguments": [
        "0x1b81D678ffb9C0263b24A97847620C99d213eB14",
        "20645196220382649280955"
      ],
      "transaction": {
        "from": "0xb73ebe02d3a29d61cb3ee87a3eede73cb1a3c725",
        "to": "0x8dcd14418995d376e40255dabf55ce58d994bfc4",
        "gas": "0xf838",
        "value": "0x0",
        "input": "0x095ea7b30000000000000000000000001b81d678ffb9c0263b24a97847620c99d213eb1400000000000000000000000000000000000000000000045f2da7038020f469bb",
        "nonce": "0x16d",
        "chainId": "0x61"
      },
      "additionalContracts": [],
      "isFixedGasLimit": false
    },
    {
      "hash": "0xaeda44be5cbf5e8b1ffd06979a22ef08013d1c6927bad2da68b7e064783488e9",
      "transactionType": "CALL",
      "contractName": null,
      "contractAddress": "0x1b81d678ffb9c0263b24a97847620c99d213eb14",
      "function": "exactInputSingle((address,address,uint24,address,uint256,uint256,uint256,uint160))",
      "arguments": [
        "(0x8DcD14418995d376e40255dABf55CE58D994BfC4, 0xE4E93c531697AEB44904f9579C3ccE1034EB4886, 2500, 0xB73Ebe02d3A29d61cb3Ee87A3EEdE73cb1A3c725, 1760172468, 20645196220382649280955, 0, 0)"
      ],
      "transaction": {
        "from": "0xb73ebe02d3a29d61cb3ee87a3eede73cb1a3c725",
        "to": "0x1b81d678ffb9c0263b24a97847620c99d213eb14",
        "gas": "0x271f0",
        "value": "0x0",
        "input": "0x414bf3890000000000000000000000008dcd14418995d376e40255dabf55ce58d994bfc4000000000000000000000000e4e93c531697aeb44904f9579c3cce1034eb488600000000000000000000000000000000000000000000000000000000000009c4000000000000000000000000b73ebe02d3a29d61cb3ee87a3eede73cb1a3c7250000000000000000000000000000000000000000000000000000000068ea19b400000000000000000000000000000000000000000000045f2da7038020f469bb00000000000000000000000000000000000000000000000000000000000000000000000000000000000000000000000000000000000000000000000000000000",
        "nonce": "0x16e",
        "chainId": "0x61"
      },
      "additionalContracts": [],
      "isFixedGasLimit": false
    },
    {
      "hash": "0x89b60ff9b19371a8519714cea0a0b2efa36989ba6e602ba3f2ac7c0158b0af66",
      "transactionType": "CALL",
      "contractName": null,
      "contractAddress": "0xe9636149f4ebda9e1d368385e39e74021d7bf53f",
      "function": "approve(address,uint256)",
      "arguments": [
        "0x1b81D678ffb9C0263b24A97847620C99d213eB14",
        "66635491633577846743"
      ],
      "transaction": {
        "from": "0xb73ebe02d3a29d61cb3ee87a3eede73cb1a3c725",
        "to": "0xe9636149f4ebda9e1d368385e39e74021d7bf53f",
        "gas": "0x106c0",
        "value": "0x0",
        "input": "0x095ea7b30000000000000000000000001b81d678ffb9c0263b24a97847620c99d213eb140000000000000000000000000000000000000000000000039cc0d2973cebe7d7",
        "nonce": "0x16f",
        "chainId": "0x61"
      },
      "additionalContracts": [],
      "isFixedGasLimit": false
    },
    {
      "hash": "0x5cb876b6bf3f85b1d8e4a3981f5f9b2ec38a5ca484b3e2cfd005b526c43854c6",
      "transactionType": "CALL",
      "contractName": null,
      "contractAddress": "0x1b81d678ffb9c0263b24a97847620c99d213eb14",
      "function": "exactInputSingle((address,address,uint24,address,uint256,uint256,uint256,uint160))",
      "arguments": [
        "(0xe9636149f4ebdA9e1D368385e39E74021d7Bf53f, 0xE4E93c531697AEB44904f9579C3ccE1034EB4886, 2500, 0xB73Ebe02d3A29d61cb3Ee87A3EEdE73cb1A3c725, 1760172468, 66635491633577846743, 0, 0)"
      ],
      "transaction": {
        "from": "0xb73ebe02d3a29d61cb3ee87a3eede73cb1a3c725",
        "to": "0x1b81d678ffb9c0263b24a97847620c99d213eb14",
        "gas": "0x26d5e",
        "value": "0x0",
        "input": "0x414bf389000000000000000000000000e9636149f4ebda9e1d368385e39e74021d7bf53f000000000000000000000000e4e93c531697aeb44904f9579c3cce1034eb488600000000000000000000000000000000000000000000000000000000000009c4000000000000000000000000b73ebe02d3a29d61cb3ee87a3eede73cb1a3c7250000000000000000000000000000000000000000000000000000000068ea19b40000000000000000000000000000000000000000000000039cc0d2973cebe7d700000000000000000000000000000000000000000000000000000000000000000000000000000000000000000000000000000000000000000000000000000000",
        "nonce": "0x170",
        "chainId": "0x61"
      },
      "additionalContracts": [],
      "isFixedGasLimit": false
    }
  ],
  "receipts": [
    {
      "status": "0x1",
      "cumulativeGasUsed": "0x41f14",
      "logs": [
        {
          "address": "0x998367e7de460b309500e06cfdabb0c94adb18de",
          "topics": [
            "0x8c5be1e5ebec7d5bd14f71427d1e84f3dd0314c0f7b2291e5b200ac8c7c3b925",
            "0x000000000000000000000000b73ebe02d3a29d61cb3ee87a3eede73cb1a3c725",
            "0x0000000000000000000000001b81d678ffb9c0263b24a97847620c99d213eb14"
          ],
          "data": "0x0000000000000000000000000000000000000000000000071cc6aa40ecf13609",
          "blockHash": "0xffb50b3d62f4caebec0e0eb781a421ac084af9a7735de67dd8c435a97c3d8515",
          "blockNumber": "0x4142c86",
          "transactionHash": "0xa4328239c03bf6eeb1f2a1df87b4f31f8e4d617df7d29c9f524e8ab1aa6d239a",
          "transactionIndex": "0x1",
          "logIndex": "0x1",
          "removed": false
        }
      ],
      "logsBloom": "0x00000000000000000000000000008000000000000000000000000400000000000000000000000000000000000000000002000000000000000000000000200000000000000040000000000000000000000000000000000000000000000000000000000000000200002000000000000000000000000000000000000000000001000000400000000000000000000000000000000000000000000000000000000000020000000000000000000000000000000000000000000000000000002000000000000000000000000000000000000000000000000000000000000000000000000010000000000000000000000000000000000000000000000000000000000000",
      "type": "0x2",
      "transactionHash": "0xa4328239c03bf6eeb1f2a1df87b4f31f8e4d617df7d29c9f524e8ab1aa6d239a",
      "transactionIndex": "0x1",
      "blockHash": "0xffb50b3d62f4caebec0e0eb781a421ac084af9a7735de67dd8c435a97c3d8515",
      "blockNumber": "0x4142c86",
      "gasUsed": "0xb3a9",
      "effectiveGasPrice": "0x3b9aca00",
      "from": "0xb73ebe02d3a29d61cb3ee87a3eede73cb1a3c725",
      "to": "0x998367e7de460b309500e06cfdabb0c94adb18de",
      "contractAddress": null
    },
    {
      "status": "0x1",
      "cumulativeGasUsed": "0x5e431",
      "logs": [
        {
          "address": "0xe4e93c531697aeb44904f9579c3cce1034eb4886",
          "topics": [
            "0xddf252ad1be2c89b69c2b068fc378daa952ba7f163c4a11628f55a4df523b3ef",
            "0x000000000000000000000000aa2eecccc51f1f2716fc531e19ec83d3094f437c",
            "0x000000000000000000000000b73ebe02d3a29d61cb3ee87a3eede73cb1a3c725"
          ],
          "data": "0x000000000000000000000000000000000000000000001e9ecdfb76f4384c6979",
          "blockHash": "0xffb50b3d62f4caebec0e0eb781a421ac084af9a7735de67dd8c435a97c3d8515",
          "blockNumber": "0x4142c86",
          "transactionHash": "0x5febbbf75a02f4a4d4f44bd640fdbdedc4691436fb2bbcb4c5a6d106aaf3f808",
          "transactionIndex": "0x2",
          "logIndex": "0x2",
          "removed": false
        },
        {
          "address": "0x998367e7de460b309500e06cfdabb0c94adb18de",
          "topics": [
            "0xddf252ad1be2c89b69c2b068fc378daa952ba7f163c4a11628f55a4df523b3ef",
            "0x000000000000000000000000b73ebe02d3a29d61cb3ee87a3eede73cb1a3c725",
            "0x000000000000000000000000aa2eecccc51f1f2716fc531e19ec83d3094f437c"
          ],
          "data": "0x0000000000000000000000000000000000000000000000071cc6aa40ecf13609",
          "blockHash": "0xffb50b3d62f4caebec0e0eb781a421ac084af9a7735de67dd8c435a97c3d8515",
          "blockNumber": "0x4142c86",
          "transactionHash": "0x5febbbf75a02f4a4d4f44bd640fdbdedc4691436fb2bbcb4c5a6d106aaf3f808",
          "transactionIndex": "0x2",
          "logIndex": "0x3",
          "removed": false
        },
        {
          "address": "0xaa2eecccc51f1f2716fc531e19ec83d3094f437c",
          "topics": [
            "0x19b47279256b2a23a1665c810c8d55a1758940ee09377d4f8d26497a3577dc83",
            "0x0000000000000000000000001b81d678ffb9c0263b24a97847620c99d213eb14",
            "0x000000000000000000000000b73ebe02d3a29d61cb3ee87a3eede73cb1a3c725"
          ],
          "data": "0x0000000000000000000000000000000000000000000000071cc6aa40ecf13609ffffffffffffffffffffffffffffffffffffffffffffe1613204890bc7b39687000000000000000000000000000000000000002111eb68e2bc12d770ff7158b3000000000000000000000000000000000000000000007584ec61d90a37ef2b170000000000000000000000000000000000000000000000000000000000011158000000000000000000000000000000000000000000000000000f61c53e5522540000000000000000000000000000000000000000000000000000000000000000",
          "blockHash": "0xffb50b3d62f4caebec0e0eb781a421ac084af9a7735de67dd8c435a97c3d8515",
          "blockNumber": "0x4142c86",
          "transactionHash": "0x5febbbf75a02f4a4d4f44bd640fdbdedc4691436fb2bbcb4c5a6d106aaf3f808",
          "transactionIndex": "0x2",
          "logIndex": "0x4",
          "removed": false
        }
      ],
      "logsBloom": "0x00000000000000004000000000008000000000000000000000100400000000000000000000000000000000000002000002000000000000000000000000000000040000000040000000000008000000000000000000000001000000000000000000000000000200002000000000000000000000000000000000000010000001000000400000000000000000000000000000000000000000000000000000010000000000000000000000000000000000000000000000000000000000002000000000000002000000240000000000000200000000000000000000000000000000000000000000000000400000000000000000000000010000000000000000000000",
      "type": "0x2",
      "transactionHash": "0x5febbbf75a02f4a4d4f44bd640fdbdedc4691436fb2bbcb4c5a6d106aaf3f808",
      "transactionIndex": "0x2",
      "blockHash": "0xffb50b3d62f4caebec0e0eb781a421ac084af9a7735de67dd8c435a97c3d8515",
      "blockNumber": "0x4142c86",
      "gasUsed": "0x1c51d",
      "effectiveGasPrice": "0x3b9aca00",
      "from": "0xb73ebe02d3a29d61cb3ee87a3eede73cb1a3c725",
      "to": "0x1b81d678ffb9c0263b24a97847620c99d213eb14",
      "contractAddress": null
    },
    {
      "status": "0x1",
      "cumulativeGasUsed": "0x697c2",
      "logs": [
        {
          "address": "0xd20268cb7065d20307b0793f702febddf5d24856",
          "topics": [
            "0x8c5be1e5ebec7d5bd14f71427d1e84f3dd0314c0f7b2291e5b200ac8c7c3b925",
            "0x000000000000000000000000b73ebe02d3a29d61cb3ee87a3eede73cb1a3c725",
            "0x0000000000000000000000001b81d678ffb9c0263b24a97847620c99d213eb14"
          ],
          "data": "0x00000000000000000000000000000000000000000000000006dff790b6250044",
          "blockHash": "0xffb50b3d62f4caebec0e0eb781a421ac084af9a7735de67dd8c435a97c3d8515",
          "blockNumber": "0x4142c86",
          "transactionHash": "0x98102b4821636d97674e83905c2018cfc65421ce4caf32fb194a78fc65c00c40",
          "transactionIndex": "0x3",
          "logIndex": "0x5",
          "removed": false
        }
      ],
      "logsBloom": "0x00000000000000000000000000008000000000000000000000000000000000000000000000000000000000000000000000000000000000000000000000200000400000000040000000000000000000000000000000000000000000000000000000000000000200002000000000000000000000000000000000000000000000000000400000000000000000000000000000000000000000000000000000000000020000000000000000000000100000000000000000000000000000002000000000000000000000000000000000000000000000000000000000000000000000000010000000000000000000000000000000000000000000000000400000000000",
      "type": "0x2",
      "transactionHash": "0x98102b4821636d97674e83905c2018cfc65421ce4caf32fb194a78fc65c00c40",
      "transactionIndex": "0x3",
      "blockHash": "0xffb50b3d62f4caebec0e0eb781a421ac084af9a7735de67dd8c435a97c3d8515",
      "blockNumber": "0x4142c86",
      "gasUsed": "0xb391",
      "effectiveGasPrice": "0x3b9aca00",
      "from": "0xb73ebe02d3a29d61cb3ee87a3eede73cb1a3c725",
      "to": "0xd20268cb7065d20307b0793f702febddf5d24856",
      "contractAddress": null
    },
    {
      "status": "0x1",
      "cumulativeGasUsed": "0x85d13",
      "logs": [
        {
          "address": "0xe4e93c531697aeb44904f9579c3cce1034eb4886",
          "topics": [
            "0xddf252ad1be2c89b69c2b068fc378daa952ba7f163c4a11628f55a4df523b3ef",
            "0x000000000000000000000000757fb48255e0470035a95a28fb9f3cec20a20e1f",
            "0x000000000000000000000000b73ebe02d3a29d61cb3ee87a3eede73cb1a3c725"
          ],
          "data": "0x000000000000000000000000000000000000000000000ba791e965f55b3f8400",
          "blockHash": "0xffb50b3d62f4caebec0e0eb781a421ac084af9a7735de67dd8c435a97c3d8515",
          "blockNumber": "0x4142c86",
          "transactionHash": "0x81a85424d6c226affe1403eca63c50f215587298e07599408027cb690796f1f9",
          "transactionIndex": "0x4",
          "logIndex": "0x6",
          "removed": false
        },
        {
          "address": "0xd20268cb7065d20307b0793f702febddf5d24856",
          "topics": [
            "0xddf252ad1be2c89b69c2b068fc378daa952ba7f163c4a11628f55a4df523b3ef",
            "0x000000000000000000000000b73ebe02d3a29d61cb3ee87a3eede73cb1a3c725",
            "0x000000000000000000000000757fb48255e0470035a95a28fb9f3cec20a20e1f"
          ],
          "data": "0x00000000000000000000000000000000000000000000000006dff790b6250044",
          "blockHash": "0xffb50b3d62f4caebec0e0eb781a421ac084af9a7735de67dd8c435a97c3d8515",
          "blockNumber": "0x4142c86",
          "transactionHash": "0x81a85424d6c226affe1403eca63c50f215587298e07599408027cb690796f1f9",
          "transactionIndex": "0x4",
          "logIndex": "0x7",
          "removed": false
        },
        {
          "address": "0x757fb48255e0470035a95a28fb9f3cec20a20e1f",
          "topics": [
            "0x19b47279256b2a23a1665c810c8d55a1758940ee09377d4f8d26497a3577dc83",
            "0x0000000000000000000000001b81d678ffb9c0263b24a97847620c99d213eb14",
            "0x000000000000000000000000b73ebe02d3a29d61cb3ee87a3eede73cb1a3c725"
          ],
          "data": "0x00000000000000000000000000000000000000000000000006dff790b6250044fffffffffffffffffffffffffffffffffffffffffffff4586e169a0aa4c07c00000000000000000000000000000000000000014ce2be5c73a79bd36c4cbf46d5000000000000000000000000000000000000000000000b579bf2ef127b7e60b2000000000000000000000000000000000000000000000000000000000001c5c100000000000000000000000000000000000000000000000000004c98010e12280000000000000000000000000000000000000000000000000000000000000000",
          "blockHash": "0xffb50b3d62f4caebec0e0eb781a421ac084af9a7735de67dd8c435a97c3d8515",
          "blockNumber": "0x4142c86",
          "transactionHash": "0x81a85424d6c226affe1403eca63c50f215587298e07599408027cb690796f1f9",
          "transactionIndex": "0x4",
          "logIndex": "0x8",
          "removed": false
        }
      ],
      "logsBloom": "0x00000000000000000000000000008000000000000000000000000000000200000000000000000000000000000002010000000000000000000000000000000000440000000040000000000008000000000000000000000000000000800000000000000000000200002000000000000000000000000000000000000010000000000000408000000000000000000000000000000000000000000000000000010000000000000000000000000000100000000000000000000000000000002000000000000002000000040000000000000200000000000000000000002000000000000000100000000000000000000000000000000000000000000000400000000000",
      "type": "0x2",
      "transactionHash": "0x81a85424d6c226affe1403eca63c50f215587298e07599408027cb690796f1f9",
      "transactionIndex": "0x4",
      "blockHash": "0xffb50b3d62f4caebec0e0eb781a421ac084af9a7735de67dd8c435a97c3d8515",
      "blockNumber": "0x4142c86",
      "gasUsed": "0x1c551",
      "effectiveGasPrice": "0x3b9aca00",
      "from": "0xb73ebe02d3a29d61cb3ee87a3eede73cb1a3c725",
      "to": "0x1b81d678ffb9c0263b24a97847620c99d213eb14",
      "contractAddress": null
    },
    {
      "status": "0x1",
      "cumulativeGasUsed": "0x910b0",
      "logs": [
        {
          "address": "0xd81e1ac7f2ccdd106701e484f12b842684719bd3",
          "topics": [
            "0x8c5be1e5ebec7d5bd14f71427d1e84f3dd0314c0f7b2291e5b200ac8c7c3b925",
            "0x000000000000000000000000b73ebe02d3a29d61cb3ee87a3eede73cb1a3c725",
            "0x0000000000000000000000001b81d678ffb9c0263b24a97847620c99d213eb14"
          ],
          "data": "0x00000000000000000000000000000000000000000000000026ccad9fd6db0c71",
          "blockHash": "0xffb50b3d62f4caebec0e0eb781a421ac084af9a7735de67dd8c435a97c3d8515",
          "blockNumber": "0x4142c86",
          "transactionHash": "0x957f1bc7e74a3980de4d03d85c8ffafba7ee0602b735b50019d655c057b5c513",
          "transactionIndex": "0x5",
          "logIndex": "0x9",
          "removed": false
        }
      ],
      "logsBloom": "0x00000000000000000000000000008000000000000000000000000000000000000000000000000000000000000000000000000000000000000000000000200000000000080040000000000000000000000000000000000000000000000000000000000000000200002000000000000000000000000000000000000000000000000000400000000000000000000000000000000000000000000000000000000000022000000000000000000000000000000000000000000000000000002000000000000000000000000000000000000000000000002000000000000000000000000010000000000000000000000000000000000000000000000000000000000000",
      "type": "0x2",
      "transactionHash": "0x957f1bc7e74a3980de4d03d85c8ffafba7ee0602b735b50019d655c057b5c513",
      "transactionIndex": "0x5",
      "blockHash": "0xffb50b3d62f4caebec0e0eb781a421ac084af9a7735de67dd8c435a97c3d8515",
      "blockNumber": "0x4142c86",
      "gasUsed": "0xb39d",
      "effectiveGasPrice": "0x3b9aca00",
      "from": "0xb73ebe02d3a29d61cb3ee87a3eede73cb1a3c725",
      "to": "0xd81e1ac7f2ccdd106701e484f12b842684719bd3",
      "contractAddress": null
    },
    {
      "status": "0x1",
      "cumulativeGasUsed": "0xad5e1",
      "logs": [
        {
          "address": "0xe4e93c531697aeb44904f9579c3cce1034eb4886",
          "topics": [
            "0xddf252ad1be2c89b69c2b068fc378daa952ba7f163c4a11628f55a4df523b3ef",
            "0x000000000000000000000000ab30c22eaf3aa69804b2eca3cccf2d1a2ff434bd",
            "0x000000000000000000000000b73ebe02d3a29d61cb3ee87a3eede73cb1a3c725"
          ],
          "data": "0x00000000000000000000000000000000000000000000026cf30ecccc6ce08ef1",
          "blockHash": "0xffb50b3d62f4caebec0e0eb781a421ac084af9a7735de67dd8c435a97c3d8515",
          "blockNumber": "0x4142c86",
          "transactionHash": "0xa5293ecfaf1260fd86b91c0ddcd2d5f2a323d020e85a46832a1b8b119afef21e",
          "transactionIndex": "0x6",
          "logIndex": "0xa",
          "removed": false
        },
        {
          "address": "0xd81e1ac7f2ccdd106701e484f12b842684719bd3",
          "topics": [
            "0xddf252ad1be2c89b69c2b068fc378daa952ba7f163c4a11628f55a4df523b3ef",
            "0x000000000000000000000000b73ebe02d3a29d61cb3ee87a3eede73cb1a3c725",
            "0x000000000000000000000000ab30c22eaf3aa69804b2eca3cccf2d1a2ff434bd"
          ],
          "data": "0x00000000000000000000000000000000000000000000000026ccad9fd6db0c71",
          "blockHash": "0xffb50b3d62f4caebec0e0eb781a421ac084af9a7735de67dd8c435a97c3d8515",
          "blockNumber": "0x4142c86",
          "transactionHash": "0xa5293ecfaf1260fd86b91c0ddcd2d5f2a323d020e85a46832a1b8b119afef21e",
          "transactionIndex": "0x6",
          "logIndex": "0xb",
          "removed": false
        },
        {
          "address": "0xab30c22eaf3aa69804b2eca3cccf2d1a2ff434bd",
          "topics": [
            "0x19b47279256b2a23a1665c810c8d55a1758940ee09377d4f8d26497a3577dc83",
            "0x0000000000000000000000001b81d678ffb9c0263b24a97847620c99d213eb14",
            "0x000000000000000000000000b73ebe02d3a29d61cb3ee87a3eede73cb1a3c725"
          ],
          "data": "0x00000000000000000000000000000000000000000000000026ccad9fd6db0c71fffffffffffffffffffffffffffffffffffffffffffffd930cf13333931f710f000000000000000000000000000000000000003ffa5642430bcff1a5a267f11d000000000000000000000000000000000000000000001a3a3c0b2dffed23158a00000000000000000000000000000000000000000000000000000000000144e60000000000000000000000000000000000000000000000000001b04528f3f82a0000000000000000000000000000000000000000000000000000000000000000",
          "blockHash": "0xffb50b3d62f4caebec0e0eb781a421ac084af9a7735de67dd8c435a97c3d8515",
          "blockNumber": "0x4142c86",
          "transactionHash": "0xa5293ecfaf1260fd86b91c0ddcd2d5f2a323d020e85a46832a1b8b119afef21e",
          "transactionIndex": "0x6",
          "logIndex": "0xc",
          "removed": false
        }
      ],
      "logsBloom": "0x00000000000000000000000000008000000000000000000000000000000000000020000000000020000000000002000000000000000000000000000000000000040000080040000000000008100000000000000000000000000000000000000000000000000200002000000000000000000000000000000000000010000000000000400000000000000000000200000000000000000000000000000000010000002000000000000000000000000000000000000000000000000000002000000000000002000000040000000200000200000000002000000000000000000008000000000000000000000000000000000000000000000000000000000000000000",
      "type": "0x2",
      "transactionHash": "0xa5293ecfaf1260fd86b91c0ddcd2d5f2a323d020e85a46832a1b8b119afef21e",
      "transactionIndex": "0x6",
      "blockHash": "0xffb50b3d62f4caebec0e0eb781a421ac084af9a7735de67dd8c435a97c3d8515",
      "blockNumber": "0x4142c86",
      "gasUsed": "0x1c531",
      "effectiveGasPrice": "0x3b9aca00",
      "from": "0xb73ebe02d3a29d61cb3ee87a3eede73cb1a3c725",
      "to": "0x1b81d678ffb9c0263b24a97847620c99d213eb14",
      "contractAddress": null
    },
    {
      "status": "0x1",
      "cumulativeGasUsed": "0xb8996",
      "logs": [
        {
          "address": "0x8dcd14418995d376e40255dabf55ce58d994bfc4",
          "topics": [
            "0x8c5be1e5ebec7d5bd14f71427d1e84f3dd0314c0f7b2291e5b200ac8c7c3b925",
            "0x000000000000000000000000b73ebe02d3a29d61cb3ee87a3eede73cb1a3c725",
            "0x0000000000000000000000001b81d678ffb9c0263b24a97847620c99d213eb14"
          ],
          "data": "0x00000000000000000000000000000000000000000000045f2da7038020f469bb",
          "blockHash": "0xffb50b3d62f4caebec0e0eb781a421ac084af9a7735de67dd8c435a97c3d8515",
          "blockNumber": "0x4142c86",
          "transactionHash": "0x45b1e7083ab5bdbf2bdc2489e2553a6d6a2dcaa1c412ba5206548e762049ed3c",
          "transactionIndex": "0x7",
          "logIndex": "0xd",
          "removed": false
        }
      ],
      "logsBloom": "0x00000000000000000000000000008000000000000000000000000000000000000000000000000000000000000000000000000000000000000000000000200000000000000040000000000000000000000000000000000000000000000000000000000000000200002000000400000000000000000000000000000000000000000000400000000000000000000000000000000000000000000000008000000000020000000000000000000000000000000000000000000000000000002400000000000000000000000000000000000000000000000000000000000000000000000010000000000000000000000000000000000000000000000000000000000000",
      "type": "0x2",
      "transactionHash": "0x45b1e7083ab5bdbf2bdc2489e2553a6d6a2dcaa1c412ba5206548e762049ed3c",
      "transactionIndex": "0x7",
      "blockHash": "0xffb50b3d62f4caebec0e0eb781a421ac084af9a7735de67dd8c435a97c3d8515",
      "blockNumber": "0x4142c86",
      "gasUsed": "0xb3b5",
      "effectiveGasPrice": "0x3b9aca00",
      "from": "0xb73ebe02d3a29d61cb3ee87a3eede73cb1a3c725",
      "to": "0x8dcd14418995d376e40255dabf55ce58d994bfc4",
      "contractAddress": null
    },
    {
      "status": "0x1",
      "cumulativeGasUsed": "0xd4ec2",
      "logs": [
        {
          "address": "0xe4e93c531697aeb44904f9579c3cce1034eb4886",
          "topics": [
            "0xddf252ad1be2c89b69c2b068fc378daa952ba7f163c4a11628f55a4df523b3ef",
            "0x000000000000000000000000038df8c35068b9322780f38c61015a6d34e84fed",
            "0x000000000000000000000000b73ebe02d3a29d61cb3ee87a3eede73cb1a3c725"
          ],
          "data": "0x0000000000000000000000000000000000000000000002e3c5723f0ec7fdd6f0",
          "blockHash": "0xffb50b3d62f4caebec0e0eb781a421ac084af9a7735de67dd8c435a97c3d8515",
          "blockNumber": "0x4142c86",
          "transactionHash": "0xaeda44be5cbf5e8b1ffd06979a22ef08013d1c6927bad2da68b7e064783488e9",
          "transactionIndex": "0x8",
          "logIndex": "0xe",
          "removed": false
        },
        {
          "address": "0x8dcd14418995d376e40255dabf55ce58d994bfc4",
          "topics": [
            "0xddf252ad1be2c89b69c2b068fc378daa952ba7f163c4a11628f55a4df523b3ef",
            "0x000000000000000000000000b73ebe02d3a29d61cb3ee87a3eede73cb1a3c725",
            "0x000000000000000000000000038df8c35068b9322780f38c61015a6d34e84fed"
          ],
          "data": "0x00000000000000000000000000000000000000000000045f2da7038020f469bb",
          "blockHash": "0xffb50b3d62f4caebec0e0eb781a421ac084af9a7735de67dd8c435a97c3d8515",
          "blockNumber": "0x4142c86",
          "transactionHash": "0xaeda44be5cbf5e8b1ffd06979a22ef08013d1c6927bad2da68b7e064783488e9",
          "transactionIndex": "0x8",
          "logIndex": "0xf",
          "removed": false
        },
        {
          "address": "0x038df8c35068b9322780f38c61015a6d34e84fed",
          "topics": [
            "0x19b47279256b2a23a1665c810c8d55a1758940ee09377d4f8d26497a3577dc83",
            "0x0000000000000000000000001b81d678ffb9c0263b24a97847620c99d213eb14",
            "0x000000000000000000000000b73ebe02d3a29d61cb3ee87a3eede73cb1a3c725"
          ],
          "data": "0x00000000000000000000000000000000000000000000045f2da7038020f469bbfffffffffffffffffffffffffffffffffffffffffffffd1c3a8dc0f1380229100000000000000000000000000000000000000000cea4f2658c407187d593f2cb00000000000000000000000000000000000000000000d2a9a405720895f43511ffffffffffffffffffffffffffffffffffffffffffffffffffffffffffffef44000000000000000000000000000000000000000000000000e5352d437b50e3000000000000000000000000000000000000000000000000000000000000000000",
          "blockHash": "0xffb50b3d62f4caebec0e0eb781a421ac084af9a7735de67dd8c435a97c3d8515",
          "blockNumber": "0x4142c86",
          "transactionHash": "0xaeda44be5cbf5e8b1ffd06979a22ef08013d1c6927bad2da68b7e064783488e9",
          "transactionIndex": "0x8",
          "logIndex": "0x10",
          "removed": false
        }
      ],
      "logsBloom": "0x00000000000000000000000000008000000000000000000000000000000000000000000000000000000000000002000000000000000000100000000000000000040000000040000000000008000000000000000000000000000000000000000000000000000200002000000400000000000000000000000000000010000000000000400000000080000000000000000000800000000000000000008000010000000400000000000000000000000000000000000000000000000000002400000000000002000000040001000000000200000000000000000000000000000000000000000000010000000000000000000000000000000000000000000000000000",
      "type": "0x2",
      "transactionHash": "0xaeda44be5cbf5e8b1ffd06979a22ef08013d1c6927bad2da68b7e064783488e9",
      "transactionIndex": "0x8",
      "blockHash": "0xffb50b3d62f4caebec0e0eb781a421ac084af9a7735de67dd8c435a97c3d8515",
      "blockNumber": "0x4142c86",
      "gasUsed": "0x1c52c",
      "effectiveGasPrice": "0x3b9aca00",
      "from": "0xb73ebe02d3a29d61cb3ee87a3eede73cb1a3c725",
      "to": "0x1b81d678ffb9c0263b24a97847620c99d213eb14",
      "contractAddress": null
    },
    {
      "status": "0x1",
      "cumulativeGasUsed": "0xe026b",
      "logs": [
        {
          "address": "0xe9636149f4ebda9e1d368385e39e74021d7bf53f",
          "topics": [
            "0x8c5be1e5ebec7d5bd14f71427d1e84f3dd0314c0f7b2291e5b200ac8c7c3b925",
            "0x000000000000000000000000b73ebe02d3a29d61cb3ee87a3eede73cb1a3c725",
            "0x0000000000000000000000001b81d678ffb9c0263b24a97847620c99d213eb14"
          ],
          "data": "0x0000000000000000000000000000000000000000000000039cc0d2973cebe7d7",
          "blockHash": "0xffb50b3d62f4caebec0e0eb781a421ac084af9a7735de67dd8c435a97c3d8515",
          "blockNumber": "0x4142c86",
          "transactionHash": "0x89b60ff9b19371a8519714cea0a0b2efa36989ba6e602ba3f2ac7c0158b0af66",
          "transactionIndex": "0x9",
          "logIndex": "0x11",
          "removed": false
        }
      ],
      "logsBloom": "0x00000000000000004000000000008000000000000000000000000000000000000000000000000000000000000000000000000000000000000000000000200000000000000040000000000000000000000000000000000000000000000000000000000000000200002000000000000000000000000000000000000000000000000000400008000000000000000000000000000000000000000000000000000000020000000000000000000000000000000000000000000000000000002000000000000000000000000000000000000000000000000000000000000000000000000010000000000000000000000000000000000000000000000000000000004000",
      "type": "0x2",
      "transactionHash": "0x89b60ff9b19371a8519714cea0a0b2efa36989ba6e602ba3f2ac7c0158b0af66",
      "transactionIndex": "0x9",
      "blockHash": "0xffb50b3d62f4caebec0e0eb781a421ac084af9a7735de67dd8c435a97c3d8515",
      "blockNumber": "0x4142c86",
      "gasUsed": "0xb3a9",
      "effectiveGasPrice": "0x3b9aca00",
      "from": "0xb73ebe02d3a29d61cb3ee87a3eede73cb1a3c725",
      "to": "0xe9636149f4ebda9e1d368385e39e74021d7bf53f",
      "contractAddress": null
    },
    {
      "status": "0x1",
      "cumulativeGasUsed": "0xfc448",
      "logs": [
        {
          "address": "0xe4e93c531697aeb44904f9579c3cce1034eb4886",
          "topics": [
            "0xddf252ad1be2c89b69c2b068fc378daa952ba7f163c4a11628f55a4df523b3ef",
            "0x000000000000000000000000ed441cca35f387cece32b9dc4a766e93f56f9f2b",
            "0x000000000000000000000000b73ebe02d3a29d61cb3ee87a3eede73cb1a3c725"
          ],
          "data": "0x00000000000000000000000000000000000000000000077d000305c233ae0fe5",
          "blockHash": "0xffb50b3d62f4caebec0e0eb781a421ac084af9a7735de67dd8c435a97c3d8515",
          "blockNumber": "0x4142c86",
          "transactionHash": "0x5cb876b6bf3f85b1d8e4a3981f5f9b2ec38a5ca484b3e2cfd005b526c43854c6",
          "transactionIndex": "0xa",
          "logIndex": "0x12",
          "removed": false
        },
        {
          "address": "0xe9636149f4ebda9e1d368385e39e74021d7bf53f",
          "topics": [
            "0xddf252ad1be2c89b69c2b068fc378daa952ba7f163c4a11628f55a4df523b3ef",
            "0x000000000000000000000000b73ebe02d3a29d61cb3ee87a3eede73cb1a3c725",
            "0x000000000000000000000000ed441cca35f387cece32b9dc4a766e93f56f9f2b"
          ],
          "data": "0x0000000000000000000000000000000000000000000000039cc0d2973cebe7d7",
          "blockHash": "0xffb50b3d62f4caebec0e0eb781a421ac084af9a7735de67dd8c435a97c3d8515",
          "blockNumber": "0x4142c86",
          "transactionHash": "0x5cb876b6bf3f85b1d8e4a3981f5f9b2ec38a5ca484b3e2cfd005b526c43854c6",
          "transactionIndex": "0xa",
          "logIndex": "0x13",
          "removed": false
        },
        {
          "address": "0xed441cca35f387cece32b9dc4a766e93f56f9f2b",
          "topics": [
            "0x19b47279256b2a23a1665c810c8d55a1758940ee09377d4f8d26497a3577dc83",
            "0x0000000000000000000000001b81d678ffb9c0263b24a97847620c99d213eb14",
            "0x000000000000000000000000b73ebe02d3a29d61cb3ee87a3eede73cb1a3c725"
          ],
          "data": "0xfffffffffffffffffffffffffffffffffffffffffffff882fffcfa3dcc51f01b0000000000000000000000000000000000000000000000039cc0d2973cebe7d700000000000000000000000000000000000000000b1f342f15cfe521121120d1000000000000000000000000000000000000000000004e4e04059b1647006112ffffffffffffffffffffffffffffffffffffffffffffffffffffffffffff0af7000000000000000000000000000000000000000000000000000000000000000000000000000000000000000000000000000000000000000000bd63b3869a32c5",
          "blockHash": "0xffb50b3d62f4caebec0e0eb781a421ac084af9a7735de67dd8c435a97c3d8515",
          "blockNumber": "0x4142c86",
          "transactionHash": "0x5cb876b6bf3f85b1d8e4a3981f5f9b2ec38a5ca484b3e2cfd005b526c43854c6",
          "transactionIndex": "0xa",
          "logIndex": "0x14",
          "removed": false
        }
      ],
      "logsBloom": "0x00000000000000004000000400008000000000000000000000000000000000000000000000000000000000000002000000004000000000000000000000000000040000000040000000000008000000000000000000000000000000000000000000000002000200002000000000000000000000000000000000000010000000000000410008000000000000000000000000000000000000000000000010010000000000000000000000000000000000000000000000000000000000002000000000000002000000040000000000000200000000000000000000000000000000000000000000000000000000000000000000000000000000000000000000004004",
      "type": "0x2",
      "transactionHash": "0x5cb876b6bf3f85b1d8e4a3981f5f9b2ec38a5ca484b3e2cfd005b526c43854c6",
      "transactionIndex": "0xa",
      "blockHash": "0xffb50b3d62f4caebec0e0eb781a421ac084af9a7735de67dd8c435a97c3d8515",
      "blockNumber": "0x4142c86",
      "gasUsed": "0x1c1dd",
      "effectiveGasPrice": "0x3b9aca00",
      "from": "0xb73ebe02d3a29d61cb3ee87a3eede73cb1a3c725",
      "to": "0x1b81d678ffb9c0263b24a97847620c99d213eb14",
      "contractAddress": null
    }
  ],
  "libraries": [],
  "pending": [],
  "returns": {},
  "timestamp": 1760168899184,
  "chain": 97,
  "commit": "38fed22"
}