{
  "transactions": [
    {
      "hash": "0x98d1750536743340c81f256a8d67fd4e5dbd52209420b46f4f7bff000c7e4409",
      "transactionType": "CALL",
      "contractName": null,
      "contractAddress": "0x998367e7de460b309500e06cfdabb0c94adb18de",
      "function": "approve(address,uint256)",
      "arguments": [
        "0x1b81D678ffb9C0263b24A97847620C99d213eB14",
        "1100873479814206384331"
      ],
      "transaction": {
        "from": "0xb73ebe02d3a29d61cb3ee87a3eede73cb1a3c725",
        "to": "0x998367e7de460b309500e06cfdabb0c94adb18de",
        "gas": "0x106c0",
        "value": "0x0",
        "input": "0x095ea7b30000000000000000000000001b81d678ffb9c0263b24a97847620c99d213eb1400000000000000000000000000000000000000000000003badb045369deee8cb",
        "nonce": "0x15d",
        "chainId": "0x61"
      },
      "additionalContracts": [],
      "isFixedGasLimit": false
    },
    {
      "hash": "0xec5c07ce1d92bd92f11e3d1a39bd583d4f76225cc9753da5aa39def3ffcb4726",
      "transactionType": "CALL",
      "contractName": null,
      "contractAddress": "0x1b81d678ffb9c0263b24a97847620c99d213eb14",
      "function": "exactInputSingle((address,address,uint24,address,uint256,uint256,uint256,uint160))",
      "arguments": [
        "(0x998367e7De460b309500E06cfDaBb0c94adB18De, 0xE4E93c531697AEB44904f9579C3ccE1034EB4886, 100, 0xB73Ebe02d3A29d61cb3Ee87A3EEdE73cb1A3c725, 1760172284, 1100873479814206384331, 0, 0)"
      ],
      "transaction": {
        "from": "0xb73ebe02d3a29d61cb3ee87a3eede73cb1a3c725",
        "to": "0x1b81d678ffb9c0263b24a97847620c99d213eb14",
        "gas": "0x426fa",
        "value": "0x0",
        "input": "0x414bf389000000000000000000000000998367e7de460b309500e06cfdabb0c94adb18de000000000000000000000000e4e93c531697aeb44904f9579c3cce1034eb48860000000000000000000000000000000000000000000000000000000000000064000000000000000000000000b73ebe02d3a29d61cb3ee87a3eede73cb1a3c7250000000000000000000000000000000000000000000000000000000068ea18fc00000000000000000000000000000000000000000000003badb045369deee8cb00000000000000000000000000000000000000000000000000000000000000000000000000000000000000000000000000000000000000000000000000000000",
        "nonce": "0x15e",
        "chainId": "0x61"
      },
      "additionalContracts": [],
      "isFixedGasLimit": false
    },
    {
      "hash": "0x4db937910672a3b147397607ada63b48b7b06049429596655aa8be627f5d98b2",
      "transactionType": "CALL",
      "contractName": null,
      "contractAddress": "0xd20268cb7065d20307b0793f702febddf5d24856",
      "function": "approve(address,uint256)",
      "arguments": [
        "0x1b81D678ffb9C0263b24A97847620C99d213eB14",
        "6843229348238931552"
      ],
      "transaction": {
        "from": "0xb73ebe02d3a29d61cb3ee87a3eede73cb1a3c725",
        "to": "0xd20268cb7065d20307b0793f702febddf5d24856",
        "gas": "0xf816",
        "value": "0x0",
        "input": "0x095ea7b30000000000000000000000001b81d678ffb9c0263b24a97847620c99d213eb140000000000000000000000000000000000000000000000005ef808d5d24f3660",
        "nonce": "0x15f",
        "chainId": "0x61"
      },
      "additionalContracts": [],
      "isFixedGasLimit": false
    },
    {
      "hash": "0xc48d133290e8062c0eb0472e52a77a471740840dbd13632f01d24079d6615bbb",
      "transactionType": "CALL",
      "contractName": null,
      "contractAddress": "0x1b81d678ffb9c0263b24a97847620c99d213eb14",
      "function": "exactInputSingle((address,address,uint24,address,uint256,uint256,uint256,uint160))",
      "arguments": [
        "(0xD20268cb7065d20307b0793f702febDDf5d24856, 0xE4E93c531697AEB44904f9579C3ccE1034EB4886, 500, 0xB73Ebe02d3A29d61cb3Ee87A3EEdE73cb1A3c725, 1760172284, 6843229348238931552, 0, 0)"
      ],
      "transaction": {
        "from": "0xb73ebe02d3a29d61cb3ee87a3eede73cb1a3c725",
        "to": "0x1b81d678ffb9c0263b24a97847620c99d213eb14",
        "gas": "0x3253f",
        "value": "0x0",
        "input": "0x414bf389000000000000000000000000d20268cb7065d20307b0793f702febddf5d24856000000000000000000000000e4e93c531697aeb44904f9579c3cce1034eb488600000000000000000000000000000000000000000000000000000000000001f4000000000000000000000000b73ebe02d3a29d61cb3ee87a3eede73cb1a3c7250000000000000000000000000000000000000000000000000000000068ea18fc0000000000000000000000000000000000000000000000005ef808d5d24f366000000000000000000000000000000000000000000000000000000000000000000000000000000000000000000000000000000000000000000000000000000000",
        "nonce": "0x160",
        "chainId": "0x61"
      },
      "additionalContracts": [],
      "isFixedGasLimit": false
    },
    {
      "hash": "0x961a580bae5aeaa4971725e4b8e690035adf96c3e5081e3e2c7032ac209dfa97",
      "transactionType": "CALL",
      "contractName": null,
      "contractAddress": "0xd81e1ac7f2ccdd106701e484f12b842684719bd3",
      "function": "approve(address,uint256)",
      "arguments": [
        "0x1b81D678ffb9C0263b24A97847620C99d213eB14",
        "57364813063662647139"
      ],
      "transaction": {
        "from": "0xb73ebe02d3a29d61cb3ee87a3eede73cb1a3c725",
        "to": "0xd81e1ac7f2ccdd106701e484f12b842684719bd3",
        "gas": "0x106c0",
        "value": "0x0",
        "input": "0x095ea7b30000000000000000000000001b81d678ffb9c0263b24a97847620c99d213eb140000000000000000000000000000000000000000000000031c18c18cb24cb763",
        "nonce": "0x161",
        "chainId": "0x61"
      },
      "additionalContracts": [],
      "isFixedGasLimit": false
    },
    {
      "hash": "0x9e18d8369066fb09f6564cc3535997ba5d4fd9999e57014e22dff2d4aa6ad921",
      "transactionType": "CALL",
      "contractName": null,
      "contractAddress": "0x1b81d678ffb9c0263b24a97847620c99d213eb14",
      "function": "exactInputSingle((address,address,uint24,address,uint256,uint256,uint256,uint160))",
      "arguments": [
        "(0xd81e1AC7F2ccdd106701e484f12B842684719bd3, 0xE4E93c531697AEB44904f9579C3ccE1034EB4886, 500, 0xB73Ebe02d3A29d61cb3Ee87A3EEdE73cb1A3c725, 1760172284, 57364813063662647139, 0, 0)"
      ],
      "transaction": {
        "from": "0xb73ebe02d3a29d61cb3ee87a3eede73cb1a3c725",
        "to": "0x1b81d678ffb9c0263b24a97847620c99d213eb14",
        "gas": "0x359f1",
        "value": "0x0",
        "input": "0x414bf389000000000000000000000000d81e1ac7f2ccdd106701e484f12b842684719bd3000000000000000000000000e4e93c531697aeb44904f9579c3cce1034eb488600000000000000000000000000000000000000000000000000000000000001f4000000000000000000000000b73ebe02d3a29d61cb3ee87a3eede73cb1a3c7250000000000000000000000000000000000000000000000000000000068ea18fc0000000000000000000000000000000000000000000000031c18c18cb24cb76300000000000000000000000000000000000000000000000000000000000000000000000000000000000000000000000000000000000000000000000000000000",
        "nonce": "0x162",
        "chainId": "0x61"
      },
      "additionalContracts": [],
      "isFixedGasLimit": false
    },
    {
      "hash": "0x5b60286669c77afa464bc1fcd028be25cda37c95b1c39e5f8e0d68260c5287b6",
      "transactionType": "CALL",
      "contractName": null,
      "contractAddress": "0x8dcd14418995d376e40255dabf55ce58d994bfc4",
      "function": "approve(address,uint256)",
      "arguments": [
        "0x1b81D678ffb9C0263b24A97847620C99d213eB14",
        "112619598830715587898641"
      ],
      "transaction": {
        "from": "0xb73ebe02d3a29d61cb3ee87a3eede73cb1a3c725",
        "to": "0x8dcd14418995d376e40255dabf55ce58d994bfc4",
        "gas": "0xf838",
        "value": "0x0",
        "input": "0x095ea7b30000000000000000000000001b81d678ffb9c0263b24a97847620c99d213eb140000000000000000000000000000000000000000000017d91ee544541801ad11",
        "nonce": "0x163",
        "chainId": "0x61"
      },
      "additionalContracts": [],
      "isFixedGasLimit": false
    },
    {
      "hash": "0x64173bf61d389914a54dd342dfb17ee4d48fc568e032c413ba2eed61ad19c67b",
      "transactionType": "CALL",
      "contractName": null,
      "contractAddress": "0x1b81d678ffb9c0263b24a97847620c99d213eb14",
      "function": "exactInputSingle((address,address,uint24,address,uint256,uint256,uint256,uint160))",
      "arguments": [
        "(0x8DcD14418995d376e40255dABf55CE58D994BfC4, 0xE4E93c531697AEB44904f9579C3ccE1034EB4886, 2500, 0xB73Ebe02d3A29d61cb3Ee87A3EEdE73cb1A3c725, 1760172284, 112619598830715587898641, 0, 0)"
      ],
      "transaction": {
        "from": "0xb73ebe02d3a29d61cb3ee87a3eede73cb1a3c725",
        "to": "0x1b81d678ffb9c0263b24a97847620c99d213eb14",
        "gas": "0x32a88",
        "value": "0x0",
        "input": "0x414bf3890000000000000000000000008dcd14418995d376e40255dabf55ce58d994bfc4000000000000000000000000e4e93c531697aeb44904f9579c3cce1034eb488600000000000000000000000000000000000000000000000000000000000009c4000000000000000000000000b73ebe02d3a29d61cb3ee87a3eede73cb1a3c7250000000000000000000000000000000000000000000000000000000068ea18fc0000000000000000000000000000000000000000000017d91ee544541801ad1100000000000000000000000000000000000000000000000000000000000000000000000000000000000000000000000000000000000000000000000000000000",
        "nonce": "0x164",
        "chainId": "0x61"
      },
      "additionalContracts": [],
      "isFixedGasLimit": false
    },
    {
      "hash": "0x3cfe7d1879d797322a7b4444c92496745129c705e7dd6a65c0f04cb1f84da81c",
      "transactionType": "CALL",
      "contractName": null,
      "contractAddress": "0xe9636149f4ebda9e1d368385e39e74021d7bf53f",
      "function": "approve(address,uint256)",
      "arguments": [
        "0x1b81D678ffb9C0263b24A97847620C99d213eB14",
        "777375087420366590622"
      ],
      "transaction": {
        "from": "0xb73ebe02d3a29d61cb3ee87a3eede73cb1a3c725",
        "to": "0xe9636149f4ebda9e1d368385e39e74021d7bf53f",
        "gas": "0x106c0",
        "value": "0x0",
        "input": "0x095ea7b30000000000000000000000001b81d678ffb9c0263b24a97847620c99d213eb1400000000000000000000000000000000000000000000002a243f1b4c912f129e",
        "nonce": "0x165",
        "chainId": "0x61"
      },
      "additionalContracts": [],
      "isFixedGasLimit": false
    },
    {
      "hash": "0x1e97dcf049482ac06c3bbf5a3ec5ae31c614e02ccc309c476d9170553c77f309",
      "transactionType": "CALL",
      "contractName": null,
      "contractAddress": "0x1b81d678ffb9c0263b24a97847620c99d213eb14",
      "function": "exactInputSingle((address,address,uint24,address,uint256,uint256,uint256,uint160))",
      "arguments": [
        "(0xe9636149f4ebdA9e1D368385e39E74021d7Bf53f, 0xE4E93c531697AEB44904f9579C3ccE1034EB4886, 2500, 0xB73Ebe02d3A29d61cb3Ee87A3EEdE73cb1A3c725, 1760172284, 777375087420366590622, 0, 0)"
      ],
      "transaction": {
        "from": "0xb73ebe02d3a29d61cb3ee87a3eede73cb1a3c725",
        "to": "0x1b81d678ffb9c0263b24a97847620c99d213eb14",
        "gas": "0x320d8",
        "value": "0x0",
        "input": "0x414bf389000000000000000000000000e9636149f4ebda9e1d368385e39e74021d7bf53f000000000000000000000000e4e93c531697aeb44904f9579c3cce1034eb488600000000000000000000000000000000000000000000000000000000000009c4000000000000000000000000b73ebe02d3a29d61cb3ee87a3eede73cb1a3c7250000000000000000000000000000000000000000000000000000000068ea18fc00000000000000000000000000000000000000000000002a243f1b4c912f129e00000000000000000000000000000000000000000000000000000000000000000000000000000000000000000000000000000000000000000000000000000000",
        "nonce": "0x166",
        "chainId": "0x61"
      },
      "additionalContracts": [],
      "isFixedGasLimit": false
    }
  ],
  "receipts": [
    {
      "status": "0x1",
      "cumulativeGasUsed": "0x41f38",
      "logs": [
        {
          "address": "0x998367e7de460b309500e06cfdabb0c94adb18de",
          "topics": [
            "0x8c5be1e5ebec7d5bd14f71427d1e84f3dd0314c0f7b2291e5b200ac8c7c3b925",
            "0x000000000000000000000000b73ebe02d3a29d61cb3ee87a3eede73cb1a3c725",
            "0x0000000000000000000000001b81d678ffb9c0263b24a97847620c99d213eb14"
          ],
          "data": "0x00000000000000000000000000000000000000000000003badb045369deee8cb",
          "blockHash": "0xeced8dd8b09203efb145a341ccaabccd8115ccfad90b1f59b60ff4c516889c94",
          "blockNumber": "0x4142b8e",
          "transactionHash": "0x98d1750536743340c81f256a8d67fd4e5dbd52209420b46f4f7bff000c7e4409",
          "transactionIndex": "0x1",
          "logIndex": "0x1",
          "removed": false
        }
      ],
      "logsBloom": "0x00000000000000000000000000008000000000000000000000000400000000000000000000000000000000000000000002000000000000000000000000200000000000000040000000000000000000000000000000000000000000000000000000000000000200002000000000000000000000000000000000000000000001000000400000000000000000000000000000000000000000000000000000000000020000000000000000000000000000000000000000000000000000002000000000000000000000000000000000000000000000000000000000000000000000000010000000000000000000000000000000000000000000000000000000000000",
      "type": "0x2",
      "transactionHash": "0x98d1750536743340c81f256a8d67fd4e5dbd52209420b46f4f7bff000c7e4409",
      "transactionIndex": "0x1",
      "blockHash": "0xeced8dd8b09203efb145a341ccaabccd8115ccfad90b1f59b60ff4c516889c94",
      "blockNumber": "0x4142b8e",
      "gasUsed": "0xb3a9",
      "effectiveGasPrice": "0x4190ab00",
      "from": "0xb73ebe02d3a29d61cb3ee87a3eede73cb1a3c725",
      "to": "0x998367e7de460b309500e06cfdabb0c94adb18de",
      "contractAddress": null
    },
    {
      "status": "0x1",
      "cumulativeGasUsed": "0x720cc",
      "logs": [
        {
          "address": "0xe4e93c531697aeb44904f9579c3cce1034eb4886",
          "topics": [
            "0xddf252ad1be2c89b69c2b068fc378daa952ba7f163c4a11628f55a4df523b3ef",
            "0x000000000000000000000000aa2eecccc51f1f2716fc531e19ec83d3094f437c",
            "0x000000000000000000000000b73ebe02d3a29d61cb3ee87a3eede73cb1a3c725"
          ],
          "data": "0x00000000000000000000000000000000000000000001154885377256c61b4dfe",
          "blockHash": "0xeced8dd8b09203efb145a341ccaabccd8115ccfad90b1f59b60ff4c516889c94",
          "blockNumber": "0x4142b8e",
          "transactionHash": "0xec5c07ce1d92bd92f11e3d1a39bd583d4f76225cc9753da5aa39def3ffcb4726",
          "transactionIndex": "0x2",
          "logIndex": "0x2",
          "removed": false
        },
        {
          "address": "0x998367e7de460b309500e06cfdabb0c94adb18de",
          "topics": [
            "0xddf252ad1be2c89b69c2b068fc378daa952ba7f163c4a11628f55a4df523b3ef",
            "0x000000000000000000000000b73ebe02d3a29d61cb3ee87a3eede73cb1a3c725",
            "0x000000000000000000000000aa2eecccc51f1f2716fc531e19ec83d3094f437c"
          ],
          "data": "0x00000000000000000000000000000000000000000000003badb045369deee8cb",
          "blockHash": "0xeced8dd8b09203efb145a341ccaabccd8115ccfad90b1f59b60ff4c516889c94",
          "blockNumber": "0x4142b8e",
          "transactionHash": "0xec5c07ce1d92bd92f11e3d1a39bd583d4f76225cc9753da5aa39def3ffcb4726",
          "transactionIndex": "0x2",
          "logIndex": "0x3",
          "removed": false
        },
        {
          "address": "0xaa2eecccc51f1f2716fc531e19ec83d3094f437c",
          "topics": [
            "0x19b47279256b2a23a1665c810c8d55a1758940ee09377d4f8d26497a3577dc83",
            "0x0000000000000000000000001b81d678ffb9c0263b24a97847620c99d213eb14",
            "0x000000000000000000000000b73ebe02d3a29d61cb3ee87a3eede73cb1a3c725"
          ],
          "data": "0x00000000000000000000000000000000000000000000003badb045369deee8cbfffffffffffffffffffffffffffffffffffffffffffeeab77ac88da939e4b2020000000000000000000000000000000000000021549f33afa7a31ec3b765ba44000000000000000000000000000000000000000000007584ec61d90a37ef2b1700000000000000000000000000000000000000000000000000000000000111f4000000000000000000000000000000000000000000000000008110dfab5484080000000000000000000000000000000000000000000000000000000000000000",
          "blockHash": "0xeced8dd8b09203efb145a341ccaabccd8115ccfad90b1f59b60ff4c516889c94",
          "blockNumber": "0x4142b8e",
          "transactionHash": "0xec5c07ce1d92bd92f11e3d1a39bd583d4f76225cc9753da5aa39def3ffcb4726",
          "transactionIndex": "0x2",
          "logIndex": "0x4",
          "removed": false
        }
      ],
      "logsBloom": "0x00000000000000004000000000008000000000000000000000100400000000000000000000000000000000000002000002000000000000000000000000000000040000000040000000000008000000000000000000000001000000000000000000000000000200002000000000000000000000000000000000000010000001000000400000000000000000000000000000000000000000000000000000010000000000000000000000000000000000000000000000000000000000002000000000000002000000240000000000000200000000000000000000000000000000000000000000000000400000000000000000000000010000000000000000000000",
      "type": "0x2",
      "transactionHash": "0xec5c07ce1d92bd92f11e3d1a39bd583d4f76225cc9753da5aa39def3ffcb4726",
      "transactionIndex": "0x2",
      "blockHash": "0xeced8dd8b09203efb145a341ccaabccd8115ccfad90b1f59b60ff4c516889c94",
      "blockNumber": "0x4142b8e",
      "gasUsed": "0x30194",
      "effectiveGasPrice": "0x4190ab00",
      "from": "0xb73ebe02d3a29d61cb3ee87a3eede73cb1a3c725",
      "to": "0x1b81d678ffb9c0263b24a97847620c99d213eb14",
      "contractAddress": null
    },
    {
      "status": "0x1",
      "cumulativeGasUsed": "0x7d469",
      "logs": [
        {
          "address": "0xd20268cb7065d20307b0793f702febddf5d24856",
          "topics": [
            "0x8c5be1e5ebec7d5bd14f71427d1e84f3dd0314c0f7b2291e5b200ac8c7c3b925",
            "0x000000000000000000000000b73ebe02d3a29d61cb3ee87a3eede73cb1a3c725",
            "0x0000000000000000000000001b81d678ffb9c0263b24a97847620c99d213eb14"
          ],
          "data": "0x0000000000000000000000000000000000000000000000005ef808d5d24f3660",
          "blockHash": "0xeced8dd8b09203efb145a341ccaabccd8115ccfad90b1f59b60ff4c516889c94",
          "blockNumber": "0x4142b8e",
          "transactionHash": "0x4db937910672a3b147397607ada63b48b7b06049429596655aa8be627f5d98b2",
          "transactionIndex": "0x3",
          "logIndex": "0x5",
          "removed": false
        }
      ],
      "logsBloom": "0x00000000000000000000000000008000000000000000000000000000000000000000000000000000000000000000000000000000000000000000000000200000400000000040000000000000000000000000000000000000000000000000000000000000000200002000000000000000000000000000000000000000000000000000400000000000000000000000000000000000000000000000000000000000020000000000000000000000100000000000000000000000000000002000000000000000000000000000000000000000000000000000000000000000000000000010000000000000000000000000000000000000000000000000400000000000",
      "type": "0x2",
      "transactionHash": "0x4db937910672a3b147397607ada63b48b7b06049429596655aa8be627f5d98b2",
      "transactionIndex": "0x3",
      "blockHash": "0xeced8dd8b09203efb145a341ccaabccd8115ccfad90b1f59b60ff4c516889c94",
      "blockNumber": "0x4142b8e",
      "gasUsed": "0xb39d",
      "effectiveGasPrice": "0x4190ab00",
      "from": "0xb73ebe02d3a29d61cb3ee87a3eede73cb1a3c725",
      "to": "0xd20268cb7065d20307b0793f702febddf5d24856",
      "contractAddress": null
    },
    {
      "status": "0x1",
      "cumulativeGasUsed": "0xa1b66",
      "logs": [
        {
          "address": "0xe4e93c531697aeb44904f9579c3cce1034eb4886",
          "topics": [
            "0xddf252ad1be2c89b69c2b068fc378daa952ba7f163c4a11628f55a4df523b3ef",
            "0x000000000000000000000000757fb48255e0470035a95a28fb9f3cec20a20e1f",
            "0x000000000000000000000000b73ebe02d3a29d61cb3ee87a3eede73cb1a3c725"
          ],
          "data": "0x00000000000000000000000000000000000000000000a8af596d5a5e384287e6",
          "blockHash": "0xeced8dd8b09203efb145a341ccaabccd8115ccfad90b1f59b60ff4c516889c94",
          "blockNumber": "0x4142b8e",
          "transactionHash": "0xc48d133290e8062c0eb0472e52a77a471740840dbd13632f01d24079d6615bbb",
          "transactionIndex": "0x4",
          "logIndex": "0x6",
          "removed": false
        },
        {
          "address": "0xd20268cb7065d20307b0793f702febddf5d24856",
          "topics": [
            "0xddf252ad1be2c89b69c2b068fc378daa952ba7f163c4a11628f55a4df523b3ef",
            "0x000000000000000000000000b73ebe02d3a29d61cb3ee87a3eede73cb1a3c725",
            "0x000000000000000000000000757fb48255e0470035a95a28fb9f3cec20a20e1f"
          ],
          "data": "0x0000000000000000000000000000000000000000000000005ef808d5d24f3660",
          "blockHash": "0xeced8dd8b09203efb145a341ccaabccd8115ccfad90b1f59b60ff4c516889c94",
          "blockNumber": "0x4142b8e",
          "transactionHash": "0xc48d133290e8062c0eb0472e52a77a471740840dbd13632f01d24079d6615bbb",
          "transactionIndex": "0x4",
          "logIndex": "0x7",
          "removed": false
        },
        {
          "address": "0x757fb48255e0470035a95a28fb9f3cec20a20e1f",
          "topics": [
            "0x19b47279256b2a23a1665c810c8d55a1758940ee09377d4f8d26497a3577dc83",
            "0x0000000000000000000000001b81d678ffb9c0263b24a97847620c99d213eb14",
            "0x000000000000000000000000b73ebe02d3a29d61cb3ee87a3eede73cb1a3c725"
          ],
          "data": "0x0000000000000000000000000000000000000000000000005ef808d5d24f3660ffffffffffffffffffffffffffffffffffffffffffff5750a692a5a1c7bd781a000000000000000000000000000000000000014de9cb1e5fcc4ebfcb315333ee000000000000000000000000000000000000000000000b579bf2ef127b7e60b2000000000000000000000000000000000000000000000000000000000001c5ff0000000000000000000000000000000000000000000000000004220f4b4048ea0000000000000000000000000000000000000000000000000000000000000000",
          "blockHash": "0xeced8dd8b09203efb145a341ccaabccd8115ccfad90b1f59b60ff4c516889c94",
          "blockNumber": "0x4142b8e",
          "transactionHash": "0xc48d133290e8062c0eb0472e52a77a471740840dbd13632f01d24079d6615bbb",
          "transactionIndex": "0x4",
          "logIndex": "0x8",
          "removed": false
        }
      ],
      "logsBloom": "0x00000000000000000000000000008000000000000000000000000000000200000000000000000000000000000002010000000000000000000000000000000000440000000040000000000008000000000000000000000000000000800000000000000000000200002000000000000000000000000000000000000010000000000000408000000000000000000000000000000000000000000000000000010000000000000000000000000000100000000000000000000000000000002000000000000002000000040000000000000200000000000000000000002000000000000000100000000000000000000000000000000000000000000000400000000000",
      "type": "0x2",
      "transactionHash": "0xc48d133290e8062c0eb0472e52a77a471740840dbd13632f01d24079d6615bbb",
      "transactionIndex": "0x4",
      "blockHash": "0xeced8dd8b09203efb145a341ccaabccd8115ccfad90b1f59b60ff4c516889c94",
      "blockNumber": "0x4142b8e",
      "gasUsed": "0x246fd",
      "effectiveGasPrice": "0x4190ab00",
      "from": "0xb73ebe02d3a29d61cb3ee87a3eede73cb1a3c725",
      "to": "0x1b81d678ffb9c0263b24a97847620c99d213eb14",
      "contractAddress": null
    },
    {
      "status": "0x1",
      "cumulativeGasUsed": "0xacf0f",
      "logs": [
        {
          "address": "0xd81e1ac7f2ccdd106701e484f12b842684719bd3",
          "topics": [
            "0x8c5be1e5ebec7d5bd14f71427d1e84f3dd0314c0f7b2291e5b200ac8c7c3b925",
            "0x000000000000000000000000b73ebe02d3a29d61cb3ee87a3eede73cb1a3c725",
            "0x0000000000000000000000001b81d678ffb9c0263b24a97847620c99d213eb14"
          ],
          "data": "0x0000000000000000000000000000000000000000000000031c18c18cb24cb763",
          "blockHash": "0xeced8dd8b09203efb145a341ccaabccd8115ccfad90b1f59b60ff4c516889c94",
          "blockNumber": "0x4142b8e",
          "transactionHash": "0x961a580bae5aeaa4971725e4b8e690035adf96c3e5081e3e2c7032ac209dfa97",
          "transactionIndex": "0x5",
          "logIndex": "0x9",
          "removed": false
        }
      ],
      "logsBloom": "0x00000000000000000000000000008000000000000000000000000000000000000000000000000000000000000000000000000000000000000000000000200000000000080040000000000000000000000000000000000000000000000000000000000000000200002000000000000000000000000000000000000000000000000000400000000000000000000000000000000000000000000000000000000000022000000000000000000000000000000000000000000000000000002000000000000000000000000000000000000000000000002000000000000000000000000010000000000000000000000000000000000000000000000000000000000000",
      "type": "0x2",
      "transactionHash": "0x961a580bae5aeaa4971725e4b8e690035adf96c3e5081e3e2c7032ac209dfa97",
      "transactionIndex": "0x5",
      "blockHash": "0xeced8dd8b09203efb145a341ccaabccd8115ccfad90b1f59b60ff4c516889c94",
      "blockNumber": "0x4142b8e",
      "gasUsed": "0xb3a9",
      "effectiveGasPrice": "0x4190ab00",
      "from": "0xb73ebe02d3a29d61cb3ee87a3eede73cb1a3c725",
      "to": "0xd81e1ac7f2ccdd106701e484f12b842684719bd3",
      "contractAddress": null
    },
    {
      "status": "0x1",
      "cumulativeGasUsed": "0xd19b0",
      "logs": [
        {
          "address": "0xe4e93c531697aeb44904f9579c3cce1034eb4886",
          "topics": [
            "0xddf252ad1be2c89b69c2b068fc378daa952ba7f163c4a11628f55a4df523b3ef",
            "0x000000000000000000000000ab30c22eaf3aa69804b2eca3cccf2d1a2ff434bd",
            "0x000000000000000000000000b73ebe02d3a29d61cb3ee87a3eede73cb1a3c725"
          ],
          "data": "0x00000000000000000000000000000000000000000000335d30bd6189fe61f1d6",
          "blockHash": "0xeced8dd8b09203efb145a341ccaabccd8115ccfad90b1f59b60ff4c516889c94",
          "blockNumber": "0x4142b8e",
          "transactionHash": "0x9e18d8369066fb09f6564cc3535997ba5d4fd9999e57014e22dff2d4aa6ad921",
          "transactionIndex": "0x6",
          "logIndex": "0xa",
          "removed": false
        },
        {
          "address": "0xd81e1ac7f2ccdd106701e484f12b842684719bd3",
          "topics": [
            "0xddf252ad1be2c89b69c2b068fc378daa952ba7f163c4a11628f55a4df523b3ef",
            "0x000000000000000000000000b73ebe02d3a29d61cb3ee87a3eede73cb1a3c725",
            "0x000000000000000000000000ab30c22eaf3aa69804b2eca3cccf2d1a2ff434bd"
          ],
          "data": "0x0000000000000000000000000000000000000000000000031c18c18cb24cb763",
          "blockHash": "0xeced8dd8b09203efb145a341ccaabccd8115ccfad90b1f59b60ff4c516889c94",
          "blockNumber": "0x4142b8e",
          "transactionHash": "0x9e18d8369066fb09f6564cc3535997ba5d4fd9999e57014e22dff2d4aa6ad921",
          "transactionIndex": "0x6",
          "logIndex": "0xb",
          "removed": false
        },
        {
          "address": "0xab30c22eaf3aa69804b2eca3cccf2d1a2ff434bd",
          "topics": [
            "0x19b47279256b2a23a1665c810c8d55a1758940ee09377d4f8d26497a3577dc83",
            "0x0000000000000000000000001b81d678ffb9c0263b24a97847620c99d213eb14",
            "0x000000000000000000000000b73ebe02d3a29d61cb3ee87a3eede73cb1a3c725"
          ],
          "data": "0x0000000000000000000000000000000000000000000000031c18c18cb24cb763ffffffffffffffffffffffffffffffffffffffffffffcca2cf429e76019e0e2a0000000000000000000000000000000000000040120331c2c74c84abdf25839e000000000000000000000000000000000000000000001a3a3c0b2dffed23158a00000000000000000000000000000000000000000000000000000000000145030000000000000000000000000000000000000000000000000022a568ade5307a0000000000000000000000000000000000000000000000000000000000000000",
          "blockHash": "0xeced8dd8b09203efb145a341ccaabccd8115ccfad90b1f59b60ff4c516889c94",
          "blockNumber": "0x4142b8e",
          "transactionHash": "0x9e18d8369066fb09f6564cc3535997ba5d4fd9999e57014e22dff2d4aa6ad921",
          "transactionIndex": "0x6",
          "logIndex": "0xc",
          "removed": false
        }
      ],
      "logsBloom": "0x00000000000000000000000000008000000000000000000000000000000000000020000000000020000000000002000000000000000000000000000000000000040000080040000000000008100000000000000000000000000000000000000000000000000200002000000000000000000000000000000000000010000000000000400000000000000000000200000000000000000000000000000000010000002000000000000000000000000000000000000000000000000000002000000000000002000000040000000200000200000000002000000000000000000008000000000000000000000000000000000000000000000000000000000000000000",
      "type": "0x2",
      "transactionHash": "0x9e18d8369066fb09f6564cc3535997ba5d4fd9999e57014e22dff2d4aa6ad921",
      "transactionIndex": "0x6",
      "blockHash": "0xeced8dd8b09203efb145a341ccaabccd8115ccfad90b1f59b60ff4c516889c94",
      "blockNumber": "0x4142b8e",
      "gasUsed": "0x24aa1",
      "effectiveGasPrice": "0x4190ab00",
      "from": "0xb73ebe02d3a29d61cb3ee87a3eede73cb1a3c725",
      "to": "0x1b81d678ffb9c0263b24a97847620c99d213eb14",
      "contractAddress": null
    },
    {
      "status": "0x1",
      "cumulativeGasUsed": "0xdcd65",
      "logs": [
        {
          "address": "0x8dcd14418995d376e40255dabf55ce58d994bfc4",
          "topics": [
            "0x8c5be1e5ebec7d5bd14f71427d1e84f3dd0314c0f7b2291e5b200ac8c7c3b925",
            "0x000000000000000000000000b73ebe02d3a29d61cb3ee87a3eede73cb1a3c725",
            "0x0000000000000000000000001b81d678ffb9c0263b24a97847620c99d213eb14"
          ],
          "data": "0x0000000000000000000000000000000000000000000017d91ee544541801ad11",
          "blockHash": "0xeced8dd8b09203efb145a341ccaabccd8115ccfad90b1f59b60ff4c516889c94",
          "blockNumber": "0x4142b8e",
          "transactionHash": "0x5b60286669c77afa464bc1fcd028be25cda37c95b1c39e5f8e0d68260c5287b6",
          "transactionIndex": "0x7",
          "logIndex": "0xd",
          "removed": false
        }
      ],
      "logsBloom": "0x00000000000000000000000000008000000000000000000000000000000000000000000000000000000000000000000000000000000000000000000000200000000000000040000000000000000000000000000000000000000000000000000000000000000200002000000400000000000000000000000000000000000000000000400000000000000000000000000000000000000000000000008000000000020000000000000000000000000000000000000000000000000000002400000000000000000000000000000000000000000000000000000000000000000000000010000000000000000000000000000000000000000000000000000000000000",
      "type": "0x2",
      "transactionHash": "0x5b60286669c77afa464bc1fcd028be25cda37c95b1c39e5f8e0d68260c5287b6",
      "transactionIndex": "0x7",
      "blockHash": "0xeced8dd8b09203efb145a341ccaabccd8115ccfad90b1f59b60ff4c516889c94",
      "blockNumber": "0x4142b8e",
      "gasUsed": "0xb3b5",
      "effectiveGasPrice": "0x4190ab00",
      "from": "0xb73ebe02d3a29d61cb3ee87a3eede73cb1a3c725",
      "to": "0x8dcd14418995d376e40255dabf55ce58d994bfc4",
      "contractAddress": null
    },
    {
      "status": "0x1",
      "cumulativeGasUsed": "0x24ad0",
      "logs": [
        {
          "address": "0xe4e93c531697aeb44904f9579c3cce1034eb4886",
          "topics": [
            "0xddf252ad1be2c89b69c2b068fc378daa952ba7f163c4a11628f55a4df523b3ef",
            "0x000000000000000000000000038df8c35068b9322780f38c61015a6d34e84fed",
            "0x000000000000000000000000b73ebe02d3a29d61cb3ee87a3eede73cb1a3c725"
          ],
          "data": "0x0000000000000000000000000000000000000000000011ab58dea970780d0766",
          "blockHash": "0x2f7e8cfef7b3f4da0a0bff23c8bfd4c7809d4e0e4fb4c87a4f8e1dcffe9dccb6",
          "blockNumber": "0x4142b8f",
          "transactionHash": "0x64173bf61d389914a54dd342dfb17ee4d48fc568e032c413ba2eed61ad19c67b",
          "transactionIndex": "0x0",
          "logIndex": "0x0",
          "removed": false
        },
        {
          "address": "0x8dcd14418995d376e40255dabf55ce58d994bfc4",
          "topics": [
            "0xddf252ad1be2c89b69c2b068fc378daa952ba7f163c4a11628f55a4df523b3ef",
            "0x000000000000000000000000b73ebe02d3a29d61cb3ee87a3eede73cb1a3c725",
            "0x000000000000000000000000038df8c35068b9322780f38c61015a6d34e84fed"
          ],
          "data": "0x0000000000000000000000000000000000000000000017d91ee544541801ad11",
          "blockHash": "0x2f7e8cfef7b3f4da0a0bff23c8bfd4c7809d4e0e4fb4c87a4f8e1dcffe9dccb6",
          "blockNumber": "0x4142b8f",
          "transactionHash": "0x64173bf61d389914a54dd342dfb17ee4d48fc568e032c413ba2eed61ad19c67b",
          "transactionIndex": "0x0",
          "logIndex": "0x1",
          "removed": false
        },
        {
          "address": "0x038df8c35068b9322780f38c61015a6d34e84fed",
          "topics": [
            "0x19b47279256b2a23a1665c810c8d55a1758940ee09377d4f8d26497a3577dc83",
            "0x0000000000000000000000001b81d678ffb9c0263b24a97847620c99d213eb14",
            "0x000000000000000000000000b73ebe02d3a29d61cb3ee87a3eede73cb1a3c725"
          ],
          "data": "0x0000000000000000000000000000000000000000000017d91ee544541801ad11ffffffffffffffffffffffffffffffffffffffffffffee54a721568f87f2f89a0000000000000000000000000000000000000000d227ed30c3406076f60b5f1a00000000000000000000000000000000000000000000d2a9a405720895f43511fffffffffffffffffffffffffffffffffffffffffffffffffffffffffffff095000000000000000000000000000000000000000000000004e25426c30970a42f0000000000000000000000000000000000000000000000000000000000000000",
          "blockHash": "0x2f7e8cfef7b3f4da0a0bff23c8bfd4c7809d4e0e4fb4c87a4f8e1dcffe9dccb6",
          "blockNumber": "0x4142b8f",
          "transactionHash": "0x64173bf61d389914a54dd342dfb17ee4d48fc568e032c413ba2eed61ad19c67b",
          "transactionIndex": "0x0",
          "logIndex": "0x2",
          "removed": false
        }
      ],
      "logsBloom": "0x00000000000000000000000000008000000000000000000000000000000000000000000000000000000000000002000000000000000000100000000000000000040000000040000000000008000000000000000000000000000000000000000000000000000200002000000400000000000000000000000000000010000000000000400000000080000000000000000000800000000000000000008000010000000400000000000000000000000000000000000000000000000000002400000000000002000000040001000000000200000000000000000000000000000000000000000000010000000000000000000000000000000000000000000000000000",
      "type": "0x2",
      "transactionHash": "0x64173bf61d389914a54dd342dfb17ee4d48fc568e032c413ba2eed61ad19c67b",
      "transactionIndex": "0x0",
      "blockHash": "0x2f7e8cfef7b3f4da0a0bff23c8bfd4c7809d4e0e4fb4c87a4f8e1dcffe9dccb6",
      "blockNumber": "0x4142b8f",
      "gasUsed": "0x24ad0",
      "effectiveGasPrice": "0x4190ab00",
      "from": "0xb73ebe02d3a29d61cb3ee87a3eede73cb1a3c725",
      "to": "0x1b81d678ffb9c0263b24a97847620c99d213eb14",
      "contractAddress": null
    },
    {
      "status": "0x1",
      "cumulativeGasUsed": "0x2fe79",
      "logs": [
        {
          "address": "0xe9636149f4ebda9e1d368385e39e74021d7bf53f",
          "topics": [
            "0x8c5be1e5ebec7d5bd14f71427d1e84f3dd0314c0f7b2291e5b200ac8c7c3b925",
            "0x000000000000000000000000b73ebe02d3a29d61cb3ee87a3eede73cb1a3c725",
            "0x0000000000000000000000001b81d678ffb9c0263b24a97847620c99d213eb14"
          ],
          "data": "0x00000000000000000000000000000000000000000000002a243f1b4c912f129e",
          "blockHash": "0x2f7e8cfef7b3f4da0a0bff23c8bfd4c7809d4e0e4fb4c87a4f8e1dcffe9dccb6",
          "blockNumber": "0x4142b8f",
          "transactionHash": "0x3cfe7d1879d797322a7b4444c92496745129c705e7dd6a65c0f04cb1f84da81c",
          "transactionIndex": "0x1",
          "logIndex": "0x3",
          "removed": false
        }
      ],
      "logsBloom": "0x00000000000000004000000000008000000000000000000000000000000000000000000000000000000000000000000000000000000000000000000000200000000000000040000000000000000000000000000000000000000000000000000000000000000200002000000000000000000000000000000000000000000000000000400008000000000000000000000000000000000000000000000000000000020000000000000000000000000000000000000000000000000000002000000000000000000000000000000000000000000000000000000000000000000000000010000000000000000000000000000000000000000000000000000000004000",
      "type": "0x2",
      "transactionHash": "0x3cfe7d1879d797322a7b4444c92496745129c705e7dd6a65c0f04cb1f84da81c",
      "transactionIndex": "0x1",
      "blockHash": "0x2f7e8cfef7b3f4da0a0bff23c8bfd4c7809d4e0e4fb4c87a4f8e1dcffe9dccb6",
      "blockNumber": "0x4142b8f",
      "gasUsed": "0xb3a9",
      "effectiveGasPrice": "0x4190ab00",
      "from": "0xb73ebe02d3a29d61cb3ee87a3eede73cb1a3c725",
      "to": "0xe9636149f4ebda9e1d368385e39e74021d7bf53f",
      "contractAddress": null
    },
    {
      "status": "0x1",
      "cumulativeGasUsed": "0x54246",
      "logs": [
        {
          "address": "0xe4e93c531697aeb44904f9579c3cce1034eb4886",
          "topics": [
            "0xddf252ad1be2c89b69c2b068fc378daa952ba7f163c4a11628f55a4df523b3ef",
            "0x000000000000000000000000ed441cca35f387cece32b9dc4a766e93f56f9f2b",
            "0x000000000000000000000000b73ebe02d3a29d61cb3ee87a3eede73cb1a3c725"
          ],
          "data": "0x000000000000000000000000000000000000000000005c30ad62c0bd097d5ca2",
          "blockHash": "0x2f7e8cfef7b3f4da0a0bff23c8bfd4c7809d4e0e4fb4c87a4f8e1dcffe9dccb6",
          "blockNumber": "0x4142b8f",
          "transactionHash": "0x1e97dcf049482ac06c3bbf5a3ec5ae31c614e02ccc309c476d9170553c77f309",
          "transactionIndex": "0x2",
          "logIndex": "0x4",
          "removed": false
        },
        {
          "address": "0xe9636149f4ebda9e1d368385e39e74021d7bf53f",
          "topics": [
            "0xddf252ad1be2c89b69c2b068fc378daa952ba7f163c4a11628f55a4df523b3ef",
            "0x000000000000000000000000b73ebe02d3a29d61cb3ee87a3eede73cb1a3c725",
            "0x000000000000000000000000ed441cca35f387cece32b9dc4a766e93f56f9f2b"
          ],
          "data": "0x00000000000000000000000000000000000000000000002a243f1b4c912f129e",
          "blockHash": "0x2f7e8cfef7b3f4da0a0bff23c8bfd4c7809d4e0e4fb4c87a4f8e1dcffe9dccb6",
          "blockNumber": "0x4142b8f",
          "transactionHash": "0x1e97dcf049482ac06c3bbf5a3ec5ae31c614e02ccc309c476d9170553c77f309",
          "transactionIndex": "0x2",
          "logIndex": "0x5",
          "removed": false
        },
        {
          "address": "0xed441cca35f387cece32b9dc4a766e93f56f9f2b",
          "topics": [
            "0x19b47279256b2a23a1665c810c8d55a1758940ee09377d4f8d26497a3577dc83",
            "0x0000000000000000000000001b81d678ffb9c0263b24a97847620c99d213eb14",
            "0x000000000000000000000000b73ebe02d3a29d61cb3ee87a3eede73cb1a3c725"
          ],
          "data": "0xffffffffffffffffffffffffffffffffffffffffffffa3cf529d3f42f682a35e00000000000000000000000000000000000000000000002a243f1b4c912f129e00000000000000000000000000000000000000000b136c777940c2055c321663000000000000000000000000000000000000000000004e4e04059b1647006112ffffffffffffffffffffffffffffffffffffffffffffffffffffffffffff0aa4000000000000000000000000000000000000000000000000000000000000000000000000000000000000000000000000000000000000000008a16ed19257e598",
          "blockHash": "0x2f7e8cfef7b3f4da0a0bff23c8bfd4c7809d4e0e4fb4c87a4f8e1dcffe9dccb6",
          "blockNumber": "0x4142b8f",
          "transactionHash": "0x1e97dcf049482ac06c3bbf5a3ec5ae31c614e02ccc309c476d9170553c77f309",
          "transactionIndex": "0x2",
          "logIndex": "0x6",
          "removed": false
        }
      ],
      "logsBloom": "0x00000000000000004000000400008000000000000000000000000000000000000000000000000000000000000002000000004000000000000000000000000000040000000040000000000008000000000000000000000000000000000000000000000002000200002000000000000000000000000000000000000010000000000000410008000000000000000000000000000000000000000000000010010000000000000000000000000000000000000000000000000000000000002000000000000002000000040000000000000200000000000000000000000000000000000000000000000000000000000000000000000000000000000000000000004004",
      "type": "0x2",
      "transactionHash": "0x1e97dcf049482ac06c3bbf5a3ec5ae31c614e02ccc309c476d9170553c77f309",
      "transactionIndex": "0x2",
      "blockHash": "0x2f7e8cfef7b3f4da0a0bff23c8bfd4c7809d4e0e4fb4c87a4f8e1dcffe9dccb6",
      "blockNumber": "0x4142b8f",
      "gasUsed": "0x243cd",
      "effectiveGasPrice": "0x4190ab00",
      "from": "0xb73ebe02d3a29d61cb3ee87a3eede73cb1a3c725",
      "to": "0x1b81d678ffb9c0263b24a97847620c99d213eb14",
      "contractAddress": null
    }
  ],
  "libraries": [],
  "pending": [],
  "returns": {},
  "timestamp": 1760168713289,
  "chain": 97,
  "commit": "38fed22"
}