{
  "transactions": [
    {
      "hash": "0xcf85950c544d0c7d1f613330d2388f9cb3241204b9ce9c9208a03cc58c5b8cc6",
      "transactionType": "CALL",
      "contractName": null,
      "contractAddress": "0xfadc475b03e3bd7813a71446369204271a0a9843",
      "function": "approve(address,uint256)",
      "arguments": [
        "0x1b81D678ffb9C0263b24A97847620C99d213eB14",
        "2705631426464368368"
      ],
      "transaction": {
        "from": "0xb73ebe02d3a29d61cb3ee87a3eede73cb1a3c725",
        "to": "0xfadc475b03e3bd7813a71446369204271a0a9843",
        "gas": "0xa4fe",
        "value": "0x0",
        "input": "0x095ea7b30000000000000000000000001b81d678ffb9c0263b24a97847620c99d213eb14000000000000000000000000000000000000000000000000258c5572838ac6f0",
        "nonce": "0x12e",
        "chainId": "0x61"
      },
      "additionalContracts": [],
      "isFixedGasLimit": false
    },
    {
      "hash": "0x9a9e28f3c1c23257d2e5a06e6812e999d836151bfc463c884f083250a86eb498",
      "transactionType": "CALL",
      "contractName": null,
      "contractAddress": "0x1b81d678ffb9c0263b24a97847620c99d213eb14",
      "function": "exactInputSingle((address,address,uint24,address,uint256,uint256,uint256,uint160))",
      "arguments": [
        "(0xFaDc475b03E3bd7813a71446369204271a0a9843, 0xe364204ad025bbcDFF6DCb4291f89F532b0a8C35, 2500, 0xB73Ebe02d3A29d61cb3Ee87A3EEdE73cb1A3c725, 1760073254, 2705631426464368368, 0, 0)"
      ],
      "transaction": {
        "from": "0xb73ebe02d3a29d61cb3ee87a3eede73cb1a3c725",
        "to": "0x1b81d678ffb9c0263b24a97847620c99d213eb14",
        "gas": "0x353f6",
        "value": "0x0",
        "input": "0x414bf389000000000000000000000000fadc475b03e3bd7813a71446369204271a0a9843000000000000000000000000e364204ad025bbcdff6dcb4291f89f532b0a8c3500000000000000000000000000000000000000000000000000000000000009c4000000000000000000000000b73ebe02d3a29d61cb3ee87a3eede73cb1a3c7250000000000000000000000000000000000000000000000000000000068e89626000000000000000000000000000000000000000000000000258c5572838ac6f000000000000000000000000000000000000000000000000000000000000000000000000000000000000000000000000000000000000000000000000000000000",
        "nonce": "0x12f",
        "chainId": "0x61"
      },
      "additionalContracts": [],
      "isFixedGasLimit": false
    },
    {
      "hash": "0xfddeb91d2910908939a4afe41523d2d6c14d07f3d8ba58a418bc02c747b8409a",
      "transactionType": "CALL",
      "contractName": null,
      "contractAddress": "0x15ab97353bfb6c6f07b3354a2ea1615eb2f45941",
      "function": "approve(address,uint256)",
      "arguments": [
        "0x1b81D678ffb9C0263b24A97847620C99d213eB14",
        "4424990705971200"
      ],
      "transaction": {
        "from": "0xb73ebe02d3a29d61cb3ee87a3eede73cb1a3c725",
        "to": "0x15ab97353bfb6c6f07b3354a2ea1615eb2f45941",
        "gas": "0xf7f5",
        "value": "0x0",
        "input": "0x095ea7b30000000000000000000000001b81d678ffb9c0263b24a97847620c99d213eb14000000000000000000000000000000000000000000000000000fb8816f29f000",
        "nonce": "0x130",
        "chainId": "0x61"
      },
      "additionalContracts": [],
      "isFixedGasLimit": false
    },
    {
      "hash": "0xb3c159e550f354be25cba86c1252f3cb0408427db7d7e19f0e15d750864677f9",
      "transactionType": "CALL",
      "contractName": null,
      "contractAddress": "0x1b81d678ffb9c0263b24a97847620c99d213eb14",
      "function": "exactInputSingle((address,address,uint24,address,uint256,uint256,uint256,uint160))",
      "arguments": [
        "(0x15Ab97353bfb6C6F07B3354A2ea1615eB2F45941, 0xe364204ad025bbcDFF6DCb4291f89F532b0a8C35, 2500, 0xB73Ebe02d3A29d61cb3Ee87A3EEdE73cb1A3c725, 1760073254, 4424990705971200, 0, 0)"
      ],
      "transaction": {
        "from": "0xb73ebe02d3a29d61cb3ee87a3eede73cb1a3c725",
        "to": "0x1b81d678ffb9c0263b24a97847620c99d213eb14",
        "gas": "0x325c5",
        "value": "0x0",
        "input": "0x414bf38900000000000000000000000015ab97353bfb6c6f07b3354a2ea1615eb2f45941000000000000000000000000e364204ad025bbcdff6dcb4291f89f532b0a8c3500000000000000000000000000000000000000000000000000000000000009c4000000000000000000000000b73ebe02d3a29d61cb3ee87a3eede73cb1a3c7250000000000000000000000000000000000000000000000000000000068e89626000000000000000000000000000000000000000000000000000fb8816f29f00000000000000000000000000000000000000000000000000000000000000000000000000000000000000000000000000000000000000000000000000000000000",
        "nonce": "0x131",
        "chainId": "0x61"
      },
      "additionalContracts": [],
      "isFixedGasLimit": false
    },
    {
      "hash": "0x307887e0d78ba859fbc9ddf45fd15d7af1bbe1a57c233217873caf620d968e90",
      "transactionType": "CALL",
      "contractName": null,
      "contractAddress": "0x1cd44ec6cfb99132531793a397220c84216c5eed",
      "function": "approve(address,uint256)",
      "arguments": [
        "0x1b81D678ffb9C0263b24A97847620C99d213eB14",
        "1000488233664389120"
      ],
      "transaction": {
        "from": "0xb73ebe02d3a29d61cb3ee87a3eede73cb1a3c725",
        "to": "0x1cd44ec6cfb99132531793a397220c84216c5eed",
        "gas": "0x9bc2",
        "value": "0x0",
        "input": "0x095ea7b30000000000000000000000001b81d678ffb9c0263b24a97847620c99d213eb140000000000000000000000000000000000000000000000000de272bf69862000",
        "nonce": "0x132",
        "chainId": "0x61"
      },
      "additionalContracts": [],
      "isFixedGasLimit": false
    },
    {
      "hash": "0xbdf1b562db05fe99b01f42e5f2acc0582817e967a3db29fc88bd126e9a454d0d",
      "transactionType": "CALL",
      "contractName": null,
      "contractAddress": "0x1b81d678ffb9c0263b24a97847620c99d213eb14",
      "function": "exactInputSingle((address,address,uint24,address,uint256,uint256,uint256,uint160))",
      "arguments": [
        "(0x1cd44EC6CFb99132531793a397220C84216C5eeD, 0xe364204ad025bbcDFF6DCb4291f89F532b0a8C35, 2500, 0xB73Ebe02d3A29d61cb3Ee87A3EEdE73cb1A3c725, 1760073254, 1000488233664389120, 0, 0)"
      ],
      "transaction": {
        "from": "0xb73ebe02d3a29d61cb3ee87a3eede73cb1a3c725",
        "to": "0x1b81d678ffb9c0263b24a97847620c99d213eb14",
        "gas": "0x325bd",
        "value": "0x0",
        "input": "0x414bf3890000000000000000000000001cd44ec6cfb99132531793a397220c84216c5eed000000000000000000000000e364204ad025bbcdff6dcb4291f89f532b0a8c3500000000000000000000000000000000000000000000000000000000000009c4000000000000000000000000b73ebe02d3a29d61cb3ee87a3eede73cb1a3c7250000000000000000000000000000000000000000000000000000000068e896260000000000000000000000000000000000000000000000000de272bf6986200000000000000000000000000000000000000000000000000000000000000000000000000000000000000000000000000000000000000000000000000000000000",
        "nonce": "0x133",
        "chainId": "0x61"
      },
      "additionalContracts": [],
      "isFixedGasLimit": false
    },
    {
      "hash": "0xc0d3f8835e1c8a29ec5fd7de97d3af4782c017b0aefb7b6641400eae15d61477",
      "transactionType": "CALL",
      "contractName": null,
      "contractAddress": "0xbe1bf5c613c64b2a5f2ded08b4a26dd2082fa2cb",
      "function": "approve(address,uint256)",
      "arguments": [
        "0x1b81D678ffb9C0263b24A97847620C99d213eB14",
        "145987974654713975503"
      ],
      "transaction": {
        "from": "0xb73ebe02d3a29d61cb3ee87a3eede73cb1a3c725",
        "to": "0xbe1bf5c613c64b2a5f2ded08b4a26dd2082fa2cb",
        "gas": "0x106c0",
        "value": "0x0",
        "input": "0x095ea7b30000000000000000000000001b81d678ffb9c0263b24a97847620c99d213eb14000000000000000000000000000000000000000000000007e9fd797894f4d2cf",
        "nonce": "0x134",
        "chainId": "0x61"
      },
      "additionalContracts": [],
      "isFixedGasLimit": false
    },
    {
      "hash": "0x3033312c188252b7d78a2017d761a55a89f62a797a2cafca12ae839ce3d51775",
      "transactionType": "CALL",
      "contractName": null,
      "contractAddress": "0x1b81d678ffb9c0263b24a97847620c99d213eb14",
      "function": "exactInputSingle((address,address,uint24,address,uint256,uint256,uint256,uint160))",
      "arguments": [
        "(0xBE1Bf5C613C64B2a5F2dEd08B4A26dd2082Fa2cB, 0xe364204ad025bbcDFF6DCb4291f89F532b0a8C35, 500, 0xB73Ebe02d3A29d61cb3Ee87A3EEdE73cb1A3c725, 1760073254, 145987974654713975503, 0, 0)"
      ],
      "transaction": {
        "from": "0xb73ebe02d3a29d61cb3ee87a3eede73cb1a3c725",
        "to": "0x1b81d678ffb9c0263b24a97847620c99d213eb14",
        "gas": "0x305e1",
        "value": "0x0",
        "input": "0x414bf389000000000000000000000000be1bf5c613c64b2a5f2ded08b4a26dd2082fa2cb000000000000000000000000e364204ad025bbcdff6dcb4291f89f532b0a8c3500000000000000000000000000000000000000000000000000000000000001f4000000000000000000000000b73ebe02d3a29d61cb3ee87a3eede73cb1a3c7250000000000000000000000000000000000000000000000000000000068e89626000000000000000000000000000000000000000000000007e9fd797894f4d2cf00000000000000000000000000000000000000000000000000000000000000000000000000000000000000000000000000000000000000000000000000000000",
        "nonce": "0x135",
        "chainId": "0x61"
      },
      "additionalContracts": [],
      "isFixedGasLimit": false
    },
    {
      "hash": "0xd2ce35452b797c9de3cc2572faac6e4a091cf96a750a6286db8a4b5dec7b1bfb",
      "transactionType": "CALL",
      "contractName": null,
      "contractAddress": "0xe364204ad025bbcdff6dcb4291f89f532b0a8c35",
      "function": "approve(address,uint256)",
      "arguments": [
        "0x1b81D678ffb9C0263b24A97847620C99d213eB14",
        "2420000000000000000000"
      ],
      "transaction": {
        "from": "0xb73ebe02d3a29d61cb3ee87a3eede73cb1a3c725",
        "to": "0xe364204ad025bbcdff6dcb4291f89f532b0a8c35",
        "gas": "0x9bc2",
        "value": "0x0",
        "input": "0x095ea7b30000000000000000000000001b81d678ffb9c0263b24a97847620c99d213eb14000000000000000000000000000000000000000000000083303f1a4a5d500000",
        "nonce": "0x136",
        "chainId": "0x61"
      },
      "additionalContracts": [],
      "isFixedGasLimit": false
    },
    {
      "hash": "0x69e45ad61d7db1d0f17b89b0f537a8891a6148d727157809f242b20e12ad9a6a",
      "transactionType": "CALL",
      "contractName": null,
      "contractAddress": "0x1b81d678ffb9c0263b24a97847620c99d213eb14",
      "function": "exactInputSingle((address,address,uint24,address,uint256,uint256,uint256,uint160))",
      "arguments": [
        "(0xe364204ad025bbcDFF6DCb4291f89F532b0a8C35, 0x1aB580a59da516F068F43EFCac10CC33862A7E88, 500, 0xB73Ebe02d3A29d61cb3Ee87A3EEdE73cb1A3c725, 1760073254, 2420000000000000000000, 0, 0)"
      ],
      "transaction": {
        "from": "0xb73ebe02d3a29d61cb3ee87a3eede73cb1a3c725",
        "to": "0x1b81d678ffb9c0263b24a97847620c99d213eb14",
        "gas": "0x832d4",
        "value": "0x0",
        "input": "0x414bf389000000000000000000000000e364204ad025bbcdff6dcb4291f89f532b0a8c350000000000000000000000001ab580a59da516f068f43efcac10cc33862a7e8800000000000000000000000000000000000000000000000000000000000001f4000000000000000000000000b73ebe02d3a29d61cb3ee87a3eede73cb1a3c7250000000000000000000000000000000000000000000000000000000068e89626000000000000000000000000000000000000000000000083303f1a4a5d50000000000000000000000000000000000000000000000000000000000000000000000000000000000000000000000000000000000000000000000000000000000000",
        "nonce": "0x137",
        "chainId": "0x61"
      },
      "additionalContracts": [],
      "isFixedGasLimit": false
    }
  ],
  "receipts": [
    {
      "status": "0x1",
      "cumulativeGasUsed": "0x70d1",
      "logs": [
        {
          "address": "0xfadc475b03e3bd7813a71446369204271a0a9843",
          "topics": [
            "0x8c5be1e5ebec7d5bd14f71427d1e84f3dd0314c0f7b2291e5b200ac8c7c3b925",
            "0x000000000000000000000000b73ebe02d3a29d61cb3ee87a3eede73cb1a3c725",
            "0x0000000000000000000000001b81d678ffb9c0263b24a97847620c99d213eb14"
          ],
          "data": "0x000000000000000000000000000000000000000000000000258c5572838ac6f0",
          "blockHash": "0x6025593d86d3235d16df2f969ac0795d6ab4cb3e00cfe1c962b523993f2b7920",
          "blockNumber": "0x41227e3",
          "transactionHash": "0xcf85950c544d0c7d1f613330d2388f9cb3241204b9ce9c9208a03cc58c5b8cc6",
          "transactionIndex": "0x0",
          "logIndex": "0x0",
          "removed": false
        }
      ],
      "logsBloom": "0x00000000000000000000000000008000000000000000000000000000000000000000000000000000000000000000000000000000000000000000000000200000000000000040000000000000000000000000000000000000000000000000000000000000000200002000000000000000400000000000000000000000000000000000400000000000000000000000000000000000000000000000000000000000020000000400800000000000000000000000000000000000000000002000000000000000000000000000000000000000000000000000000000000000000000000010000000000000000000000000000000000000000000000000000000000000",
      "type": "0x2",
      "transactionHash": "0xcf85950c544d0c7d1f613330d2388f9cb3241204b9ce9c9208a03cc58c5b8cc6",
      "transactionIndex": "0x0",
      "blockHash": "0x6025593d86d3235d16df2f969ac0795d6ab4cb3e00cfe1c962b523993f2b7920",
      "blockNumber": "0x41227e3",
      "gasUsed": "0x70d1",
      "effectiveGasPrice": "0x4190ab00",
      "from": "0xb73ebe02d3a29d61cb3ee87a3eede73cb1a3c725",
      "to": "0xfadc475b03e3bd7813a71446369204271a0a9843",
      "contractAddress": null
    },
    {
      "status": "0x1",
      "cumulativeGasUsed": "0x2b75b",
      "logs": [
        {
          "address": "0xe364204ad025bbcdff6dcb4291f89f532b0a8c35",
          "topics": [
            "0xddf252ad1be2c89b69c2b068fc378daa952ba7f163c4a11628f55a4df523b3ef",
            "0x000000000000000000000000c0abc31fef2747b54fbfb44c176ef3d775928fe7",
            "0x000000000000000000000000b73ebe02d3a29d61cb3ee87a3eede73cb1a3c725"
          ],
          "data": "0x00000000000000000000000000000000000000000000000000074944a3bfee3a",
          "blockHash": "0x6025593d86d3235d16df2f969ac0795d6ab4cb3e00cfe1c962b523993f2b7920",
          "blockNumber": "0x41227e3",
          "transactionHash": "0x9a9e28f3c1c23257d2e5a06e6812e999d836151bfc463c884f083250a86eb498",
          "transactionIndex": "0x1",
          "logIndex": "0x1",
          "removed": false
        },
        {
          "address": "0xfadc475b03e3bd7813a71446369204271a0a9843",
          "topics": [
            "0xddf252ad1be2c89b69c2b068fc378daa952ba7f163c4a11628f55a4df523b3ef",
            "0x000000000000000000000000b73ebe02d3a29d61cb3ee87a3eede73cb1a3c725",
            "0x000000000000000000000000c0abc31fef2747b54fbfb44c176ef3d775928fe7"
          ],
          "data": "0x000000000000000000000000000000000000000000000000258c5572838ac6f0",
          "blockHash": "0x6025593d86d3235d16df2f969ac0795d6ab4cb3e00cfe1c962b523993f2b7920",
          "blockNumber": "0x41227e3",
          "transactionHash": "0x9a9e28f3c1c23257d2e5a06e6812e999d836151bfc463c884f083250a86eb498",
          "transactionIndex": "0x1",
          "logIndex": "0x2",
          "removed": false
        },
        {
          "address": "0xc0abc31fef2747b54fbfb44c176ef3d775928fe7",
          "topics": [
            "0x19b47279256b2a23a1665c810c8d55a1758940ee09377d4f8d26497a3577dc83",
            "0x0000000000000000000000001b81d678ffb9c0263b24a97847620c99d213eb14",
            "0x000000000000000000000000b73ebe02d3a29d61cb3ee87a3eede73cb1a3c725"
          ],
          "data": "0xfffffffffffffffffffffffffffffffffffffffffffffffffff8b6bb5c4011c6000000000000000000000000000000000000000000000000258c5572838ac6f00000000000000000000000000000000000000024474e2fcbee4dfa30cb4fd7e500000000000000000000000000000000000000000000001da59ccb906ddef078000000000000000000000000000000000000000000000000000000000001189400000000000000000000000000000000000000000000000000000000000000000000000000000000000000000000000000000000000000000007b09b200dd526",
          "blockHash": "0x6025593d86d3235d16df2f969ac0795d6ab4cb3e00cfe1c962b523993f2b7920",
          "blockNumber": "0x41227e3",
          "transactionHash": "0x9a9e28f3c1c23257d2e5a06e6812e999d836151bfc463c884f083250a86eb498",
          "transactionIndex": "0x1",
          "logIndex": "0x3",
          "removed": false
        }
      ],
      "logsBloom": "0x00000000000000000000000000008000000000000000000000000000000000000000000000000000000000000002000000000008000000040000000000000000040000008040000000000008000000000000000000000000000000000000000000000000000200002000000000000000400000000000000000000010000480000000400000000020000000000080000000000000200000000000000000000000000000000400800000000000000000000000000000000000000000002000000000000002000000400000000000000000000000000000000000000000000000000000000000000000000000000000000000000000000000000000000000000000",
      "type": "0x2",
      "transactionHash": "0x9a9e28f3c1c23257d2e5a06e6812e999d836151bfc463c884f083250a86eb498",
      "transactionIndex": "0x1",
      "blockHash": "0x6025593d86d3235d16df2f969ac0795d6ab4cb3e00cfe1c962b523993f2b7920",
      "blockNumber": "0x41227e3",
      "gasUsed": "0x2468a",
      "effectiveGasPrice": "0x4190ab00",
      "from": "0xb73ebe02d3a29d61cb3ee87a3eede73cb1a3c725",
      "to": "0x1b81d678ffb9c0263b24a97847620c99d213eb14",
      "contractAddress": null
    },
    {
      "status": "0x1",
      "cumulativeGasUsed": "0x36ae0",
      "logs": [
        {
          "address": "0x15ab97353bfb6c6f07b3354a2ea1615eb2f45941",
          "topics": [
            "0x8c5be1e5ebec7d5bd14f71427d1e84f3dd0314c0f7b2291e5b200ac8c7c3b925",
            "0x000000000000000000000000b73ebe02d3a29d61cb3ee87a3eede73cb1a3c725",
            "0x0000000000000000000000001b81d678ffb9c0263b24a97847620c99d213eb14"
          ],
          "data": "0x000000000000000000000000000000000000000000000000000fb8816f29f000",
          "blockHash": "0x6025593d86d3235d16df2f969ac0795d6ab4cb3e00cfe1c962b523993f2b7920",
          "blockNumber": "0x41227e3",
          "transactionHash": "0xfddeb91d2910908939a4afe41523d2d6c14d07f3d8ba58a418bc02c747b8409a",
          "transactionIndex": "0x2",
          "logIndex": "0x4",
          "removed": false
        }
      ],
      "logsBloom": "0x00000000000000000000000000008000000000000000000000000000000000000000000000000000000000000000000000000000000000000000000000200000000000000040000000000000000000000000000000000000000000000000000000000004000200002000000000800000000000000000000000000000000000000000400000000000000000000000000000000000000000000000000000000000020000000000000000000000000000000000000000000000000000002000000000000000000000000000000000000000000000000000000000000000000000000010000000000000000200000000000000000000000000000000000000000000",
      "type": "0x2",
      "transactionHash": "0xfddeb91d2910908939a4afe41523d2d6c14d07f3d8ba58a418bc02c747b8409a",
      "transactionIndex": "0x2",
      "blockHash": "0x6025593d86d3235d16df2f969ac0795d6ab4cb3e00cfe1c962b523993f2b7920",
      "blockNumber": "0x41227e3",
      "gasUsed": "0xb385",
      "effectiveGasPrice": "0x4190ab00",
      "from": "0xb73ebe02d3a29d61cb3ee87a3eede73cb1a3c725",
      "to": "0x15ab97353bfb6c6f07b3354a2ea1615eb2f45941",
      "contractAddress": null
    },
    {
      "status": "0x1",
      "cumulativeGasUsed": "0x5b23e",
      "logs": [
        {
          "address": "0xe364204ad025bbcdff6dcb4291f89f532b0a8c35",
          "topics": [
            "0xddf252ad1be2c89b69c2b068fc378daa952ba7f163c4a11628f55a4df523b3ef",
            "0x0000000000000000000000008c9004dcaf0ddeac935a173ac1763935c5d2b0fb",
            "0x000000000000000000000000b73ebe02d3a29d61cb3ee87a3eede73cb1a3c725"
          ],
          "data": "0x00000000000000000000000000000000000000000000000000000008698e9431",
          "blockHash": "0x6025593d86d3235d16df2f969ac0795d6ab4cb3e00cfe1c962b523993f2b7920",
          "blockNumber": "0x41227e3",
          "transactionHash": "0xb3c159e550f354be25cba86c1252f3cb0408427db7d7e19f0e15d750864677f9",
          "transactionIndex": "0x3",
          "logIndex": "0x5",
          "removed": false
        },
        {
          "address": "0x15ab97353bfb6c6f07b3354a2ea1615eb2f45941",
          "topics": [
            "0xddf252ad1be2c89b69c2b068fc378daa952ba7f163c4a11628f55a4df523b3ef",
            "0x000000000000000000000000b73ebe02d3a29d61cb3ee87a3eede73cb1a3c725",
            "0x0000000000000000000000008c9004dcaf0ddeac935a173ac1763935c5d2b0fb"
          ],
          "data": "0x000000000000000000000000000000000000000000000000000fb8816f29f000",
          "blockHash": "0x6025593d86d3235d16df2f969ac0795d6ab4cb3e00cfe1c962b523993f2b7920",
          "blockNumber": "0x41227e3",
          "transactionHash": "0xb3c159e550f354be25cba86c1252f3cb0408427db7d7e19f0e15d750864677f9",
          "transactionIndex": "0x3",
          "logIndex": "0x6",
          "removed": false
        },
        {
          "address": "0x8c9004dcaf0ddeac935a173ac1763935c5d2b0fb",
          "topics": [
            "0x19b47279256b2a23a1665c810c8d55a1758940ee09377d4f8d26497a3577dc83",
            "0x0000000000000000000000001b81d678ffb9c0263b24a97847620c99d213eb14",
            "0x000000000000000000000000b73ebe02d3a29d61cb3ee87a3eede73cb1a3c725"
          ],
          "data": "0x000000000000000000000000000000000000000000000000000fb8816f29f000fffffffffffffffffffffffffffffffffffffffffffffffffffffff796716bcf000000000000000000000000000000000000000000bb669fdd0ee726c8fa822c0000000000000000000000000000000000000000000000000029ab248dbfd1b4fffffffffffffffffffffffffffffffffffffffffffffffffffffffffffe36640000000000000000000000000000000000000000000000000000033837ffd4280000000000000000000000000000000000000000000000000000000000000000",
          "blockHash": "0x6025593d86d3235d16df2f969ac0795d6ab4cb3e00cfe1c962b523993f2b7920",
          "blockNumber": "0x41227e3",
          "transactionHash": "0xb3c159e550f354be25cba86c1252f3cb0408427db7d7e19f0e15d750864677f9",
          "transactionIndex": "0x3",
          "logIndex": "0x7",
          "removed": false
        }
      ],
      "logsBloom": "0x00000400000000000000000000008000000000000000000000000000000000000000000000000000000000000002000000000000000000000000000000010000040000000041000000000008000000000000000020000000000000000000000000000004000200002000000000800000000000000000000000000010000400000000400000000020000000000000000000000000000000000000000000000000000000000000000000000000000000000000000000000000000000002000000000000002000000400000100000000000000000000000000000000000000000000000000000000000000200000000000000000000000000800000000000000000",
      "type": "0x2",
      "transactionHash": "0xb3c159e550f354be25cba86c1252f3cb0408427db7d7e19f0e15d750864677f9",
      "transactionIndex": "0x3",
      "blockHash": "0x6025593d86d3235d16df2f969ac0795d6ab4cb3e00cfe1c962b523993f2b7920",
      "blockNumber": "0x41227e3",
      "gasUsed": "0x2475e",
      "effectiveGasPrice": "0x4190ab00",
      "from": "0xb73ebe02d3a29d61cb3ee87a3eede73cb1a3c725",
      "to": "0x1b81d678ffb9c0263b24a97847620c99d213eb14",
      "contractAddress": null
    },
    {
      "status": "0x1",
      "cumulativeGasUsed": "0x62303",
      "logs": [
        {
          "address": "0x1cd44ec6cfb99132531793a397220c84216c5eed",
          "topics": [
            "0x8c5be1e5ebec7d5bd14f71427d1e84f3dd0314c0f7b2291e5b200ac8c7c3b925",
            "0x000000000000000000000000b73ebe02d3a29d61cb3ee87a3eede73cb1a3c725",
            "0x0000000000000000000000001b81d678ffb9c0263b24a97847620c99d213eb14"
          ],
          "data": "0x0000000000000000000000000000000000000000000000000de272bf69862000",
          "blockHash": "0x6025593d86d3235d16df2f969ac0795d6ab4cb3e00cfe1c962b523993f2b7920",
          "blockNumber": "0x41227e3",
          "transactionHash": "0x307887e0d78ba859fbc9ddf45fd15d7af1bbe1a57c233217873caf620d968e90",
          "transactionIndex": "0x4",
          "logIndex": "0x8",
          "removed": false
        }
      ],
      "logsBloom": "0x00000000000000000000000000008000000000000000000000000000000000000000000000000000000000000000000000000000000000000000000000200000000000000040000000000000000000000000000000000000000000000000000000000000000200022000000000010000000000000000000000000000000000000000400000000000000000000000000000000020000000000000000000000000020000000000000000000000000000000000000000000000000000002000000000000000000000000000000000000000000000000000000000000000000000000010000000000000000000000000000000000000000000000000000000000000",
      "type": "0x2",
      "transactionHash": "0x307887e0d78ba859fbc9ddf45fd15d7af1bbe1a57c233217873caf620d968e90",
      "transactionIndex": "0x4",
      "blockHash": "0x6025593d86d3235d16df2f969ac0795d6ab4cb3e00cfe1c962b523993f2b7920",
      "blockNumber": "0x41227e3",
      "gasUsed": "0x70c5",
      "effectiveGasPrice": "0x4190ab00",
      "from": "0xb73ebe02d3a29d61cb3ee87a3eede73cb1a3c725",
      "to": "0x1cd44ec6cfb99132531793a397220c84216c5eed",
      "contractAddress": null
    },
    {
      "status": "0x1",
      "cumulativeGasUsed": "0x86a5b",
      "logs": [
        {
          "address": "0xe364204ad025bbcdff6dcb4291f89f532b0a8c35",
          "topics": [
            "0xddf252ad1be2c89b69c2b068fc378daa952ba7f163c4a11628f55a4df523b3ef",
            "0x000000000000000000000000ad7e45981973026ef7d296aa158836b44379192a",
            "0x000000000000000000000000b73ebe02d3a29d61cb3ee87a3eede73cb1a3c725"
          ],
          "data": "0x0000000000000000000000000000000000000000000000000000c63a693917a8",
          "blockHash": "0x6025593d86d3235d16df2f969ac0795d6ab4cb3e00cfe1c962b523993f2b7920",
          "blockNumber": "0x41227e3",
          "transactionHash": "0xbdf1b562db05fe99b01f42e5f2acc0582817e967a3db29fc88bd126e9a454d0d",
          "transactionIndex": "0x5",
          "logIndex": "0x9",
          "removed": false
        },
        {
          "address": "0x1cd44ec6cfb99132531793a397220c84216c5eed",
          "topics": [
            "0xddf252ad1be2c89b69c2b068fc378daa952ba7f163c4a11628f55a4df523b3ef",
            "0x000000000000000000000000b73ebe02d3a29d61cb3ee87a3eede73cb1a3c725",
            "0x000000000000000000000000ad7e45981973026ef7d296aa158836b44379192a"
          ],
          "data": "0x0000000000000000000000000000000000000000000000000de272bf69862000",
          "blockHash": "0x6025593d86d3235d16df2f969ac0795d6ab4cb3e00cfe1c962b523993f2b7920",
          "blockNumber": "0x41227e3",
          "transactionHash": "0xbdf1b562db05fe99b01f42e5f2acc0582817e967a3db29fc88bd126e9a454d0d",
          "transactionIndex": "0x5",
          "logIndex": "0xa",
          "removed": false
        },
        {
          "address": "0xad7e45981973026ef7d296aa158836b44379192a",
          "topics": [
            "0x19b47279256b2a23a1665c810c8d55a1758940ee09377d4f8d26497a3577dc83",
            "0x0000000000000000000000001b81d678ffb9c0263b24a97847620c99d213eb14",
            "0x000000000000000000000000b73ebe02d3a29d61cb3ee87a3eede73cb1a3c725"
          ],
          "data": "0x0000000000000000000000000000000000000000000000000de272bf69862000ffffffffffffffffffffffffffffffffffffffffffffffffffff39c596c6e858000000000000000000000000000000000000000003c42503d4976577ec0de44000000000000000000000000000000000000000000000000016b32e78ace1343cfffffffffffffffffffffffffffffffffffffffffffffffffffffffffffeb65d0000000000000000000000000000000000000000000000000002d7f3749d99370000000000000000000000000000000000000000000000000000000000000000",
          "blockHash": "0x6025593d86d3235d16df2f969ac0795d6ab4cb3e00cfe1c962b523993f2b7920",
          "blockNumber": "0x41227e3",
          "transactionHash": "0xbdf1b562db05fe99b01f42e5f2acc0582817e967a3db29fc88bd126e9a454d0d",
          "transactionIndex": "0x5",
          "logIndex": "0xb",
          "removed": false
        }
      ],
      "logsBloom": "0x00000000000000000000000000008000000000000000000000000000000000000000000000000000000000000002000000000000000000000000000000000000040000000040000000000008000000000000000000000000000000800000000000000010000200022000000000010000000000000000000000000010000400000000400000000020000000000000000000000020000000000000000000000000000000000000000080000000000000000000400000000000000000002000000000000002000000400000000000000000000000000000000000000000000000000000000000000000000000002000000000000000000000000000000004000000",
      "type": "0x2",
      "transactionHash": "0xbdf1b562db05fe99b01f42e5f2acc0582817e967a3db29fc88bd126e9a454d0d",
      "transactionIndex": "0x5",
      "blockHash": "0x6025593d86d3235d16df2f969ac0795d6ab4cb3e00cfe1c962b523993f2b7920",
      "blockNumber": "0x41227e3",
      "gasUsed": "0x24758",
      "effectiveGasPrice": "0x4190ab00",
      "from": "0xb73ebe02d3a29d61cb3ee87a3eede73cb1a3c725",
      "to": "0x1b81d678ffb9c0263b24a97847620c99d213eb14",
      "contractAddress": null
    },
    {
      "status": "0x1",
      "cumulativeGasUsed": "0x91e04",
      "logs": [
        {
          "address": "0xbe1bf5c613c64b2a5f2ded08b4a26dd2082fa2cb",
          "topics": [
            "0x8c5be1e5ebec7d5bd14f71427d1e84f3dd0314c0f7b2291e5b200ac8c7c3b925",
            "0x000000000000000000000000b73ebe02d3a29d61cb3ee87a3eede73cb1a3c725",
            "0x0000000000000000000000001b81d678ffb9c0263b24a97847620c99d213eb14"
          ],
          "data": "0x000000000000000000000000000000000000000000000007e9fd797894f4d2cf",
          "blockHash": "0x6025593d86d3235d16df2f969ac0795d6ab4cb3e00cfe1c962b523993f2b7920",
          "blockNumber": "0x41227e3",
          "transactionHash": "0xc0d3f8835e1c8a29ec5fd7de97d3af4782c017b0aefb7b6641400eae15d61477",
          "transactionIndex": "0x6",
          "logIndex": "0xc",
          "removed": false
        }
      ],
      "logsBloom": "0x00000000000000000000000000008000000000000000000000000000000000000000000000000000000000000000000000000000000110000000000000200020000000000040000000000000000000000000000000000000000000000000000000000000000200002000000000000000000000000000000000000000000000000000400000000000000000000000000000000000000000000000000000000000020000000000000000000000000000000000000000000000000000002000000000000000000000000000000000000000000000000000000000000000000000000010000000000000000000000000000000000000000000000000000000000000",
      "type": "0x2",
      "transactionHash": "0xc0d3f8835e1c8a29ec5fd7de97d3af4782c017b0aefb7b6641400eae15d61477",
      "transactionIndex": "0x6",
      "blockHash": "0x6025593d86d3235d16df2f969ac0795d6ab4cb3e00cfe1c962b523993f2b7920",
      "blockNumber": "0x41227e3",
      "gasUsed": "0xb3a9",
      "effectiveGasPrice": "0x4190ab00",
      "from": "0xb73ebe02d3a29d61cb3ee87a3eede73cb1a3c725",
      "to": "0xbe1bf5c613c64b2a5f2ded08b4a26dd2082fa2cb",
      "contractAddress": null
    },
    {
      "status": "0x1",
      "cumulativeGasUsed": "0x23047",
      "logs": [
        {
          "address": "0xe364204ad025bbcdff6dcb4291f89f532b0a8c35",
          "topics": [
            "0xddf252ad1be2c89b69c2b068fc378daa952ba7f163c4a11628f55a4df523b3ef",
            "0x000000000000000000000000de40e85e517bb99db0de0d2d17e7a13d63bf0319",
            "0x000000000000000000000000b73ebe02d3a29d61cb3ee87a3eede73cb1a3c725"
          ],
          "data": "0x0000000000000000000000000000000000000000000000099f839f5818a66f2b",
          "blockHash": "0xb637b742b60bd779404b5281b9a57030bf9274cc49f4499099d1851340bb1961",
          "blockNumber": "0x41227e4",
          "transactionHash": "0x3033312c188252b7d78a2017d761a55a89f62a797a2cafca12ae839ce3d51775",
          "transactionIndex": "0x0",
          "logIndex": "0x0",
          "removed": false
        },
        {
          "address": "0xbe1bf5c613c64b2a5f2ded08b4a26dd2082fa2cb",
          "topics": [
            "0xddf252ad1be2c89b69c2b068fc378daa952ba7f163c4a11628f55a4df523b3ef",
            "0x000000000000000000000000b73ebe02d3a29d61cb3ee87a3eede73cb1a3c725",
            "0x000000000000000000000000de40e85e517bb99db0de0d2d17e7a13d63bf0319"
          ],
          "data": "0x000000000000000000000000000000000000000000000007e9fd797894f4d2cf",
          "blockHash": "0xb637b742b60bd779404b5281b9a57030bf9274cc49f4499099d1851340bb1961",
          "blockNumber": "0x41227e4",
          "transactionHash": "0x3033312c188252b7d78a2017d761a55a89f62a797a2cafca12ae839ce3d51775",
          "transactionIndex": "0x0",
          "logIndex": "0x1",
          "removed": false
        },
        {
          "address": "0xde40e85e517bb99db0de0d2d17e7a13d63bf0319",
          "topics": [
            "0x19b47279256b2a23a1665c810c8d55a1758940ee09377d4f8d26497a3577dc83",
            "0x0000000000000000000000001b81d678ffb9c0263b24a97847620c99d213eb14",
            "0x000000000000000000000000b73ebe02d3a29d61cb3ee87a3eede73cb1a3c725"
          ],
          "data": "0x000000000000000000000000000000000000000000000007e9fd797894f4d2cffffffffffffffffffffffffffffffffffffffffffffffff6607c60a7e75990d500000000000000000000000000000000000000011a5ccb4a5ba6d1b6f674f54b000000000000000000000000000000000000000000402ac9043bd1af6f021f5300000000000000000000000000000000000000000000000000000000000007a800000000000000000000000000000000000000000000000000582bcc990809ff0000000000000000000000000000000000000000000000000000000000000000",
          "blockHash": "0xb637b742b60bd779404b5281b9a57030bf9274cc49f4499099d1851340bb1961",
          "blockNumber": "0x41227e4",
          "transactionHash": "0x3033312c188252b7d78a2017d761a55a89f62a797a2cafca12ae839ce3d51775",
          "transactionIndex": "0x0",
          "logIndex": "0x2",
          "removed": false
        }
      ],
      "logsBloom": "0x00000000000000000000000004008000000000000000000000000000000000000000000000000000000000000002000000000000000110000000100000000020040000000040000000000008000000000000000000000000001000000000000000000000000200002000000000000000000000000020000000000010000400000000400000000020000000000000000000000000000000000000000000000000000000000000000000000000000000000000000000000000000000002000000000000002000000400000000000000000000000000000000000000000000000000000000000000000000000400000000000000008000000000000000000000000",
      "type": "0x2",
      "transactionHash": "0x3033312c188252b7d78a2017d761a55a89f62a797a2cafca12ae839ce3d51775",
      "transactionIndex": "0x0",
      "blockHash": "0xb637b742b60bd779404b5281b9a57030bf9274cc49f4499099d1851340bb1961",
      "blockNumber": "0x41227e4",
      "gasUsed": "0x23047",
      "effectiveGasPrice": "0x4190ab00",
      "from": "0xb73ebe02d3a29d61cb3ee87a3eede73cb1a3c725",
      "to": "0x1b81d678ffb9c0263b24a97847620c99d213eb14",
      "contractAddress": null
    },
    {
      "status": "0x1",
      "cumulativeGasUsed": "0x2a10c",
      "logs": [
        {
          "address": "0xe364204ad025bbcdff6dcb4291f89f532b0a8c35",
          "topics": [
            "0x8c5be1e5ebec7d5bd14f71427d1e84f3dd0314c0f7b2291e5b200ac8c7c3b925",
            "0x000000000000000000000000b73ebe02d3a29d61cb3ee87a3eede73cb1a3c725",
            "0x0000000000000000000000001b81d678ffb9c0263b24a97847620c99d213eb14"
          ],
          "data": "0x000000000000000000000000000000000000000000000083303f1a4a5d500000",
          "blockHash": "0xb637b742b60bd779404b5281b9a57030bf9274cc49f4499099d1851340bb1961",
          "blockNumber": "0x41227e4",
          "transactionHash": "0xd2ce35452b797c9de3cc2572faac6e4a091cf96a750a6286db8a4b5dec7b1bfb",
          "transactionIndex": "0x1",
          "logIndex": "0x3",
          "removed": false
        }
      ],
      "logsBloom": "0x00000000000000000000000000008000000000000000000000000000000000000000000000000000000000000000000000000000000000000000000000200000000000000040000000000000000000000000000000000000000000000000000000000000000200002000000000000000000000000000000000000000000400000000400000000020000000000000000000000000000000000000000000000000020000000000000000000000000000000000000000000000000000002000000000000000000000400000000000000000000000000000000000000000000000000010000000000000000000000000000000000000000000000000000000000000",
      "type": "0x2",
      "transactionHash": "0xd2ce35452b797c9de3cc2572faac6e4a091cf96a750a6286db8a4b5dec7b1bfb",
      "transactionIndex": "0x1",
      "blockHash": "0xb637b742b60bd779404b5281b9a57030bf9274cc49f4499099d1851340bb1961",
      "blockNumber": "0x41227e4",
      "gasUsed": "0x70c5",
      "effectiveGasPrice": "0x4190ab00",
      "from": "0xb73ebe02d3a29d61cb3ee87a3eede73cb1a3c725",
      "to": "0xe364204ad025bbcdff6dcb4291f89f532b0a8c35",
      "contractAddress": null
    },
    {
      "status": "0x1",
      "cumulativeGasUsed": "0x83c25",
      "logs": [
        {
          "address": "0x1ab580a59da516f068f43efcac10cc33862a7e88",
          "topics": [
            "0xddf252ad1be2c89b69c2b068fc378daa952ba7f163c4a11628f55a4df523b3ef",
            "0x000000000000000000000000f0e84c2dda797cd9ab7b206a7cdd4acc3cabadcf",
            "0x000000000000000000000000b73ebe02d3a29d61cb3ee87a3eede73cb1a3c725"
          ],
          "data": "0x0000000000000000000000000000000000000000000000f84193aea258c061fa",
          "blockHash": "0xb637b742b60bd779404b5281b9a57030bf9274cc49f4499099d1851340bb1961",
          "blockNumber": "0x41227e4",
          "transactionHash": "0x69e45ad61d7db1d0f17b89b0f537a8891a6148d727157809f242b20e12ad9a6a",
          "transactionIndex": "0x2",
          "logIndex": "0x4",
          "removed": false
        },
        {
          "address": "0xe364204ad025bbcdff6dcb4291f89f532b0a8c35",
          "topics": [
            "0xddf252ad1be2c89b69c2b068fc378daa952ba7f163c4a11628f55a4df523b3ef",
            "0x000000000000000000000000b73ebe02d3a29d61cb3ee87a3eede73cb1a3c725",
            "0x000000000000000000000000f0e84c2dda797cd9ab7b206a7cdd4acc3cabadcf"
          ],
          "data": "0x000000000000000000000000000000000000000000000083303f1a4a5d500000",
          "blockHash": "0xb637b742b60bd779404b5281b9a57030bf9274cc49f4499099d1851340bb1961",
          "blockNumber": "0x41227e4",
          "transactionHash": "0x69e45ad61d7db1d0f17b89b0f537a8891a6148d727157809f242b20e12ad9a6a",
          "transactionIndex": "0x2",
          "logIndex": "0x5",
          "removed": false
        },
        {
          "address": "0xf0e84c2dda797cd9ab7b206a7cdd4acc3cabadcf",
          "topics": [
            "0x19b47279256b2a23a1665c810c8d55a1758940ee09377d4f8d26497a3577dc83",
            "0x0000000000000000000000001b81d678ffb9c0263b24a97847620c99d213eb14",
            "0x000000000000000000000000b73ebe02d3a29d61cb3ee87a3eede73cb1a3c725"
          ],
          "data": "0xffffffffffffffffffffffffffffffffffffffffffffff07be6c515da73f9e06000000000000000000000000000000000000000000000083303f1a4a5d5000000000000000000000000000000000000000000000d0fd23b60a7f89fdb22d5bf7000000000000000000000000000000000000000000000d7d9e91f57bcb13eb51fffffffffffffffffffffffffffffffffffffffffffffffffffffffffffff025000000000000000000000000000000000000000000000000000000000000000000000000000000000000000000000000000000000000000005b5961ecc987ff5",
          "blockHash": "0xb637b742b60bd779404b5281b9a57030bf9274cc49f4499099d1851340bb1961",
          "blockNumber": "0x41227e4",
          "transactionHash": "0x69e45ad61d7db1d0f17b89b0f537a8891a6148d727157809f242b20e12ad9a6a",
          "transactionIndex": "0x2",
          "logIndex": "0x6",
          "removed": false
        }
      ],
      "logsBloom": "0x00000000400000000000000000008001000000000002000000000000000000000000000000000000000000000002000000000000000000000000000000000000040000000040000000000008000000400000000000000000000000000000000000000000000200002000000000000000000000000004000000000010000400000000400000000020000000000002000000000000000000000000000000000000000000000000040000000004000000000000000000000000000000002000000000000002000000400000000000000000000000000000000000000000000000000000000000000400000000000000000000000000000000000000000000000000",
      "type": "0x2",
      "transactionHash": "0x69e45ad61d7db1d0f17b89b0f537a8891a6148d727157809f242b20e12ad9a6a",
      "transactionIndex": "0x2",
      "blockHash": "0xb637b742b60bd779404b5281b9a57030bf9274cc49f4499099d1851340bb1961",
      "blockNumber": "0x41227e4",
      "gasUsed": "0x59b19",
      "effectiveGasPrice": "0x4190ab00",
      "from": "0xb73ebe02d3a29d61cb3ee87a3eede73cb1a3c725",
      "to": "0x1b81d678ffb9c0263b24a97847620c99d213eb14",
      "contractAddress": null
    }
  ],
  "libraries": [],
  "pending": [],
  "returns": {},
  "timestamp": 1760069687396,
  "chain": 97,
  "commit": "5797003"
}