{
  "transactions": [
    {
      "hash": "0x15d909f65df0bd4a78a0079b9b7cf17457e4a011158cf3ee7b6b0bbbf90dd817",
      "transactionType": "CREATE",
      "contractName": "MockPriceOracle",
      "contractAddress": "0xd8c69efd97e933836d2ebd6b79d7c9a1df255200",
      "function": null,
      "arguments": null,
      "transaction": {
        "from": "0xb73ebe02d3a29d61cb3ee87a3eede73cb1a3c725",
        "gas": "0x8209f",
        "value": "0x0",
        "input": "0x608080604052346071573315605e575f8054336001600160a01b0319821681178355916001600160a01b03909116907f8be0079c531659141344cd1fd0a4f28419497f9722a3daafe3b4186f6b6457e09080a36105fd90816100768239f35b631e4fbdf760e01b5f525f60045260245ffd5b5f80fdfe60806040526004361015610011575f80fd5b5f3560e01c8062e4768b1461042657806316345f18146103d357806341976e09146103905780634352fa9f1461022957806348c87c51146101bc578063715018a6146101655780638da5cb5b1461013e578063a3b9b74b146101045763f2fde38b1461007b575f80fd5b34610100576020366003190112610100576100946104aa565b61009c6105a1565b6001600160a01b031680156100ed575f80546001600160a01b03198116831782556001600160a01b0316907f8be0079c531659141344cd1fd0a4f28419497f9722a3daafe3b4186f6b6457e09080a3005b631e4fbdf760e01b5f525f60045260245ffd5b5f80fd5b34610100576020366003190112610100576001600160a01b036101256104aa565b165f526001602052602060405f20541515604051908152f35b34610100575f366003190112610100575f546040516001600160a01b039091168152602090f35b34610100575f3660031901126101005761017d6105a1565b5f80546001600160a01b0319811682556001600160a01b03167f8be0079c531659141344cd1fd0a4f28419497f9722a3daafe3b4186f6b6457e08280a3005b34610100576020366003190112610100576001600160a01b036101dd6104aa565b16805f5260026020526101f560405f2054151561052d565b5f52600260205260405f2054420342811161021557602090604051908152f35b634e487b7160e01b5f52601160045260245ffd5b346101005760403660031901126101005760043567ffffffffffffffff81116101005761025a9036906004016104c0565b60243567ffffffffffffffff81116101005761027a9036906004016104c0565b916102836105a1565b828103610359575f5b81811061029557005b806102ae6102a66001938787610569565b3515156104f1565b6102b9818686610569565b35828060a01b036102d36102ce84878b610569565b61058d565b165f528260205260405f2055818060a01b036102f36102ce83868a610569565b165f5260026020524260405f205561030f6102ce828589610569565b7fb556fac599c3c70efb9ab1fa725ecace6c81cc48d1455f886607def065f3e0c0604061033d848989610569565b35928151938452426020850152858060a01b031692a20161028c565b60405162461bcd60e51b815260206004820152600f60248201526e098cadccee8d040dad2e6dac2e8c6d608b1b6044820152606490fd5b34610100576020366003190112610100576001600160a01b036103b16104aa565b165f526001602052602060405f20546103cb81151561052d565b604051908152f35b346101005760203660031901126101005760406001600160a01b036103f66104aa565b16805f526001602052815f20549061040f82151561052d565b5f526002602052815f205482519182526020820152f35b346101005760403660031901126101005761043f6104aa565b7fb556fac599c3c70efb9ab1fa725ecace6c81cc48d1455f886607def065f3e0c060406024359261046e6105a1565b6104798415156104f1565b60018060a01b031692835f52600160205280825f2055835f52600260205242825f20558151908152426020820152a2005b600435906001600160a01b038216820361010057565b9181601f840112156101005782359167ffffffffffffffff8311610100576020808501948460051b01011161010057565b156104f857565b60405162461bcd60e51b815260206004820152600d60248201526c496e76616c696420707269636560981b6044820152606490fd5b1561053457565b60405162461bcd60e51b815260206004820152600d60248201526c141c9a58d9481b9bdd081cd95d609a1b6044820152606490fd5b91908110156105795760051b0190565b634e487b7160e01b5f52603260045260245ffd5b356001600160a01b03811681036101005790565b5f546001600160a01b031633036105b457565b63118cdaa760e01b5f523360045260245ffdfea26469706673582212201545685d9fd9d15ef8455e0e6848cafef32c1d4983e420ea921c2b4765efe85e64736f6c634300081c0033",
        "nonce": "0xac",
        "chainId": "0x61"
      },
      "additionalContracts": [],
      "isFixedGasLimit": false
    },
    {
      "hash": "0x8b0f97046d1662af8e1a46cd9fe846b67d0139b66fa8a074ae53436e984f1bc4",
      "transactionType": "CALL",
      "contractName": "MockPriceOracle",
      "contractAddress": "0xd8c69efd97e933836d2ebd6b79d7c9a1df255200",
      "function": "setPrices(address[],uint256[])",
      "arguments": [
        "[0x2213C47AF15f5F4cf4BeDc33AaC6362f1669Fcb2, 0x650B1D054C8a5A42A306D4dd43efc9077c11A26d, 0xc5B16CEBeC6BbB91398056C8dEd5d4A4e90f21F2, 0xb5fD81a624796aA82041181E7DCf46C554CCc1dA, 0x6101df7948eE4b8DEfa087ED30Bca81Cb14D6de6, 0x8868cD0b06210a7cdFc974c6231Aae8563C48a56]",
        "[600000000000000000000, 95000000000000000000000, 3400000000000000000000, 2500000000000000000, 190000000000000000000, 1000000000000000000]"
      ],
      "transaction": {
        "from": "0xb73ebe02d3a29d61cb3ee87a3eede73cb1a3c725",
        "to": "0xd8c69efd97e933836d2ebd6b79d7c9a1df255200",
        "gas": "0x68182",
        "value": "0x0",
        "input": "0x4352fa9f0000000000000000000000000000000000000000000000000000000000000040000000000000000000000000000000000000000000000000000000000000012000000000000000000000000000000000000000000000000000000000000000060000000000000000000000002213c47af15f5f4cf4bedc33aac6362f1669fcb2000000000000000000000000650b1d054c8a5a42a306d4dd43efc9077c11a26d000000000000000000000000c5b16cebec6bbb91398056c8ded5d4a4e90f21f2000000000000000000000000b5fd81a624796aa82041181e7dcf46c554ccc1da0000000000000000000000006101df7948ee4b8defa087ed30bca81cb14d6de60000000000000000000000008868cd0b06210a7cdfc974c6231aae8563c48a56000000000000000000000000000000000000000000000000000000000000000600000000000000000000000000000000000000000000002086ac35105260000000000000000000000000000000000000000000000000141df5d77c6d9d6000000000000000000000000000000000000000000000000000b8507a82072820000000000000000000000000000000000000000000000000000022b1c8c1227a000000000000000000000000000000000000000000000000000a4cc799563c3800000000000000000000000000000000000000000000000000000de0b6b3a7640000",
        "nonce": "0xad",
        "chainId": "0x61"
      },
      "additionalContracts": [],
      "isFixedGasLimit": false
    }
  ],
  "receipts": [
    {
      "status": "0x1",
      "cumulativeGasUsed": "0x6407b",
      "logs": [
        {
          "address": "0xd8c69efd97e933836d2ebd6b79d7c9a1df255200",
          "topics": [
            "0x8be0079c531659141344cd1fd0a4f28419497f9722a3daafe3b4186f6b6457e0",
            "0x0000000000000000000000000000000000000000000000000000000000000000",
            "0x000000000000000000000000b73ebe02d3a29d61cb3ee87a3eede73cb1a3c725"
          ],
          "data": "0x",
          "blockHash": "0x995acca6ff01ece3dbc2a0bb81e3fc523ebd166fd6cef1c221df108acc801710",
          "blockNumber": "0x40e984c",
          "transactionHash": "0x15d909f65df0bd4a78a0079b9b7cf17457e4a011158cf3ee7b6b0bbbf90dd817",
          "transactionIndex": "0x0",
          "logIndex": "0x0",
          "removed": false
        }
      ],
      "logsBloom": "0x00000000000000000000000000008000000000000000000000800000000000000000000000000000000000000000002000000000000000000000000000000000000000000040000000000000000000000001000000000000000000000000000000000000020000002000000000000800000000000000000000000000000000400000000000000000000000000000000000000000010000000000000000000000000000000000000000000000000000000000000000000000000000000000000000000000000000000000000000000000000000000100000000000000000020000000000000000000000000000000000000000000000000000000000000000000",
      "type": "0x2",
      "transactionHash": "0x15d909f65df0bd4a78a0079b9b7cf17457e4a011158cf3ee7b6b0bbbf90dd817",
      "transactionIndex": "0x0",
      "blockHash": "0x995acca6ff01ece3dbc2a0bb81e3fc523ebd166fd6cef1c221df108acc801710",
      "blockNumber": "0x40e984c",
      "gasUsed": "0x6407b",
      "effectiveGasPrice": "0x5f5e100",
      "from": "0xb73ebe02d3a29d61cb3ee87a3eede73cb1a3c725",
      "to": null,
      "contractAddress": "0xd8c69efd97e933836d2ebd6b79d7c9a1df255200"
    },
    {
      "status": "0x1",
      "cumulativeGasUsed": "0xaf648",
      "logs": [
        {
          "address": "0xd8c69efd97e933836d2ebd6b79d7c9a1df255200",
          "topics": [
            "0xb556fac599c3c70efb9ab1fa725ecace6c81cc48d1455f886607def065f3e0c0",
            "0x0000000000000000000000002213c47af15f5f4cf4bedc33aac6362f1669fcb2"
          ],
          "data": "0x00000000000000000000000000000000000000000000002086ac3510526000000000000000000000000000000000000000000000000000000000000068e5dc79",
          "blockHash": "0x995acca6ff01ece3dbc2a0bb81e3fc523ebd166fd6cef1c221df108acc801710",
          "blockNumber": "0x40e984c",
          "transactionHash": "0x8b0f97046d1662af8e1a46cd9fe846b67d0139b66fa8a074ae53436e984f1bc4",
          "transactionIndex": "0x1",
          "logIndex": "0x1",
          "removed": false
        },
        {
          "address": "0xd8c69efd97e933836d2ebd6b79d7c9a1df255200",
          "topics": [
            "0xb556fac599c3c70efb9ab1fa725ecace6c81cc48d1455f886607def065f3e0c0",
            "0x000000000000000000000000650b1d054c8a5a42a306d4dd43efc9077c11a26d"
          ],
          "data": "0x00000000000000000000000000000000000000000000141df5d77c6d9d6000000000000000000000000000000000000000000000000000000000000068e5dc79",
          "blockHash": "0x995acca6ff01ece3dbc2a0bb81e3fc523ebd166fd6cef1c221df108acc801710",
          "blockNumber": "0x40e984c",
          "transactionHash": "0x8b0f97046d1662af8e1a46cd9fe846b67d0139b66fa8a074ae53436e984f1bc4",
          "transactionIndex": "0x1",
          "logIndex": "0x2",
          "removed": false
        },
        {
          "address": "0xd8c69efd97e933836d2ebd6b79d7c9a1df255200",
          "topics": [
            "0xb556fac599c3c70efb9ab1fa725ecace6c81cc48d1455f886607def065f3e0c0",
            "0x000000000000000000000000c5b16cebec6bbb91398056c8ded5d4a4e90f21f2"
          ],
          "data": "0x0000000000000000000000000000000000000000000000b8507a8207282000000000000000000000000000000000000000000000000000000000000068e5dc79",
          "blockHash": "0x995acca6ff01ece3dbc2a0bb81e3fc523ebd166fd6cef1c221df108acc801710",
          "blockNumber": "0x40e984c",
          "transactionHash": "0x8b0f97046d1662af8e1a46cd9fe846b67d0139b66fa8a074ae53436e984f1bc4",
          "transactionIndex": "0x1",
          "logIndex": "0x3",
          "removed": false
        },
        {
          "address": "0xd8c69efd97e933836d2ebd6b79d7c9a1df255200",
          "topics": [
            "0xb556fac599c3c70efb9ab1fa725ecace6c81cc48d1455f886607def065f3e0c0",
            "0x000000000000000000000000b5fd81a624796aa82041181e7dcf46c554ccc1da"
          ],
          "data": "0x00000000000000000000000000000000000000000000000022b1c8c1227a00000000000000000000000000000000000000000000000000000000000068e5dc79",
          "blockHash": "0x995acca6ff01ece3dbc2a0bb81e3fc523ebd166fd6cef1c221df108acc801710",
          "blockNumber": "0x40e984c",
          "transactionHash": "0x8b0f97046d1662af8e1a46cd9fe846b67d0139b66fa8a074ae53436e984f1bc4",
          "transactionIndex": "0x1",
          "logIndex": "0x4",
          "removed": false
        },
        {
          "address": "0xd8c69efd97e933836d2ebd6b79d7c9a1df255200",
          "topics": [
            "0xb556fac599c3c70efb9ab1fa725ecace6c81cc48d1455f886607def065f3e0c0",
            "0x0000000000000000000000006101df7948ee4b8defa087ed30bca81cb14d6de6"
          ],
          "data": "0x00000000000000000000000000000000000000000000000a4cc799563c3800000000000000000000000000000000000000000000000000000000000068e5dc79",
          "blockHash": "0x995acca6ff01ece3dbc2a0bb81e3fc523ebd166fd6cef1c221df108acc801710",
          "blockNumber": "0x40e984c",
          "transactionHash": "0x8b0f97046d1662af8e1a46cd9fe846b67d0139b66fa8a074ae53436e984f1bc4",
          "transactionIndex": "0x1",
          "logIndex": "0x5",
          "removed": false
        },
        {
          "address": "0xd8c69efd97e933836d2ebd6b79d7c9a1df255200",
          "topics": [
            "0xb556fac599c3c70efb9ab1fa725ecace6c81cc48d1455f886607def065f3e0c0",
            "0x0000000000000000000000008868cd0b06210a7cdfc974c6231aae8563c48a56"
          ],
          "data": "0x0000000000000000000000000000000000000000000000000de0b6b3a76400000000000000000000000000000000000000000000000000000000000068e5dc79",
          "blockHash": "0x995acca6ff01ece3dbc2a0bb81e3fc523ebd166fd6cef1c221df108acc801710",
          "blockNumber": "0x40e984c",
          "transactionHash": "0x8b0f97046d1662af8e1a46cd9fe846b67d0139b66fa8a074ae53436e984f1bc4",
          "transactionIndex": "0x1",
          "logIndex": "0x6",
          "removed": false
        }
      ],
      "logsBloom": "0x00000000000000000000000110000000000000080000000000000000001000000000000000000000400000000000002000000008000000000020000000000000008000000000008000000000040000000000000000000080000000000000000000000000008480000200000100000000000006000000000000000000000000000000000000000000000000000000000000000000010000000000000000000000000000000000000100000000000000000000000000000000000000000000000000000000000000000000000000002000000000000100000000000000000000000000000000000000000000000000004000000000000000000000000000000000",
      "type": "0x2",
      "transactionHash": "0x8b0f97046d1662af8e1a46cd9fe846b67d0139b66fa8a074ae53436e984f1bc4",
      "transactionIndex": "0x1",
      "blockHash": "0x995acca6ff01ece3dbc2a0bb81e3fc523ebd166fd6cef1c221df108acc801710",
      "blockNumber": "0x40e984c",
      "gasUsed": "0x4b5cd",
      "effectiveGasPrice": "0x5f5e100",
      "from": "0xb73ebe02d3a29d61cb3ee87a3eede73cb1a3c725",
      "to": "0xd8c69efd97e933836d2ebd6b79d7c9a1df255200",
      "contractAddress": null
    }
  ],
  "libraries": [],
  "pending": [],
  "returns": {},
  "timestamp": 1759894650686,
  "chain": 97,
  "commit": "d939628"
}