{
  "transactions": [
    {
      "hash": "0x661a9391dcb8e4682a27b84961235ef7957024cf7a94e4a5a0f433c86fd145e8",
      "transactionType": "CALL",
      "contractName": null,
      "contractAddress": "0xfadc475b03e3bd7813a71446369204271a0a9843",
      "function": "approve(address,uint256)",
      "arguments": [
        "0x862aDe3291CA93ed9cAC581a96A03B9F82Aaf84f",
        "17447728772932613"
      ],
      "transaction": {
        "from": "0xb73ebe02d3a29d61cb3ee87a3eede73cb1a3c725",
        "to": "0xfadc475b03e3bd7813a71446369204271a0a9843",
        "gas": "0x1069d",
        "value": "0x0",
        "input": "0x095ea7b3000000000000000000000000862ade3291ca93ed9cac581a96a03b9f82aaf84f000000000000000000000000000000000000000000000000003dfc9deba5e405",
        "nonce": "0x11d",
        "chainId": "0x61"
      },
      "additionalContracts": [],
      "isFixedGasLimit": false
    },
    {
      "hash": "0xc72835375c2f926215356f168cc16468d0d1e211040d74016ecf736966307bb6",
      "transactionType": "CALL",
      "contractName": null,
      "contractAddress": "0x15ab97353bfb6c6f07b3354a2ea1615eb2f45941",
      "function": "approve(address,uint256)",
      "arguments": [
        "0x862aDe3291CA93ed9cAC581a96A03B9F82Aaf84f",
        "181259538478260"
      ],
      "transaction": {
        "from": "0xb73ebe02d3a29d61cb3ee87a3eede73cb1a3c725",
        "to": "0x15ab97353bfb6c6f07b3354a2ea1615eb2f45941",
        "gas": "0xf7f5",
        "value": "0x0",
        "input": "0x095ea7b3000000000000000000000000862ade3291ca93ed9cac581a96a03b9f82aaf84f0000000000000000000000000000000000000000000000000000a4dac66734b4",
        "nonce": "0x11e",
        "chainId": "0x61"
      },
      "additionalContracts": [],
      "isFixedGasLimit": false
    },
    {
      "hash": "0xec6420bf95aabba428f4ec19dc0ea41f8af1e3c4e543944b0399ff9cef76214d",
      "transactionType": "CALL",
      "contractName": null,
      "contractAddress": "0x1cd44ec6cfb99132531793a397220c84216c5eed",
      "function": "approve(address,uint256)",
      "arguments": [
        "0x862aDe3291CA93ed9cAC581a96A03B9F82Aaf84f",
        "5079061282466196"
      ],
      "transaction": {
        "from": "0xb73ebe02d3a29d61cb3ee87a3eede73cb1a3c725",
        "to": "0x1cd44ec6cfb99132531793a397220c84216c5eed",
        "gas": "0x1069d",
        "value": "0x0",
        "input": "0x095ea7b3000000000000000000000000862ade3291ca93ed9cac581a96a03b9f82aaf84f00000000000000000000000000000000000000000000000000120b611b88a994",
        "nonce": "0x11f",
        "chainId": "0x61"
      },
      "additionalContracts": [],
      "isFixedGasLimit": false
    },
    {
      "hash": "0x140792a6138219094b6ed61610184e4dceaa5a32ca1c16a95a343f92f395e036",
      "transactionType": "CALL",
      "contractName": null,
      "contractAddress": "0xbe1bf5c613c64b2a5f2ded08b4a26dd2082fa2cb",
      "function": "approve(address,uint256)",
      "arguments": [
        "0x862aDe3291CA93ed9cAC581a96A03B9F82Aaf84f",
        "26796948558385069714"
      ],
      "transaction": {
        "from": "0xb73ebe02d3a29d61cb3ee87a3eede73cb1a3c725",
        "to": "0xbe1bf5c613c64b2a5f2ded08b4a26dd2082fa2cb",
        "gas": "0x106c0",
        "value": "0x0",
        "input": "0x095ea7b3000000000000000000000000862ade3291ca93ed9cac581a96a03b9f82aaf84f00000000000000000000000000000000000000000000000173e1e2bccef53e92",
        "nonce": "0x120",
        "chainId": "0x61"
      },
      "additionalContracts": [],
      "isFixedGasLimit": false
    },
    {
      "hash": "0xbdbe9cdf81d16d47d13cafb446ebe503e7301eba2271f90973b7ede1ad124f18",
      "transactionType": "CALL",
      "contractName": null,
      "contractAddress": "0x1ab580a59da516f068f43efcac10cc33862a7e88",
      "function": "approve(address,uint256)",
      "arguments": [
        "0x862aDe3291CA93ed9cAC581a96A03B9F82Aaf84f",
        "36616228422285441"
      ],
      "transaction": {
        "from": "0xb73ebe02d3a29d61cb3ee87a3eede73cb1a3c725",
        "to": "0x1ab580a59da516f068f43efcac10cc33862a7e88",
        "gas": "0x1069d",
        "value": "0x0",
        "input": "0x095ea7b3000000000000000000000000862ade3291ca93ed9cac581a96a03b9f82aaf84f00000000000000000000000000000000000000000000000000821644081ff881",
        "nonce": "0x121",
        "chainId": "0x61"
      },
      "additionalContracts": [],
      "isFixedGasLimit": false
    },
    {
      "hash": "0xd9dafd4e0dbca59b79c8649bacceb35910dabda3ef240be02f7c4e7b8a00511f",
      "transactionType": "CALL",
      "contractName": null,
      "contractAddress": "0x862ade3291ca93ed9cac581a96a03b9f82aaf84f",
      "function": "initialize(address[],uint32[],uint256)",
      "arguments": [
        "[0xFaDc475b03E3bd7813a71446369204271a0a9843, 0x15Ab97353bfb6C6F07B3354A2ea1615eB2F45941, 0x1cd44EC6CFb99132531793a397220C84216C5eeD, 0xBE1Bf5C613C64B2a5F2dEd08B4A26dd2082Fa2cB, 0x1aB580a59da516F068F43EFCac10CC33862A7E88]",
        "[2000, 2000, 2000, 2000, 2000]",
        "100000000000000000000"
      ],
      "transaction": {
        "from": "0xb73ebe02d3a29d61cb3ee87a3eede73cb1a3c725",
        "to": "0x862ade3291ca93ed9cac581a96a03b9f82aaf84f",
        "gas": "0x155627",
        "value": "0x0",
        "input": "0xda8efc0a000000000000000000000000000000000000000000000000000000000000006000000000000000000000000000000000000000000000000000000000000001200000000000000000000000000000000000000000000000056bc75e2d631000000000000000000000000000000000000000000000000000000000000000000005000000000000000000000000fadc475b03e3bd7813a71446369204271a0a984300000000000000000000000015ab97353bfb6c6f07b3354a2ea1615eb2f459410000000000000000000000001cd44ec6cfb99132531793a397220c84216c5eed000000000000000000000000be1bf5c613c64b2a5f2ded08b4a26dd2082fa2cb0000000000000000000000001ab580a59da516f068f43efcac10cc33862a7e88000000000000000000000000000000000000000000000000000000000000000500000000000000000000000000000000000000000000000000000000000007d000000000000000000000000000000000000000000000000000000000000007d000000000000000000000000000000000000000000000000000000000000007d000000000000000000000000000000000000000000000000000000000000007d000000000000000000000000000000000000000000000000000000000000007d0",
        "nonce": "0x122",
        "chainId": "0x61"
      },
      "additionalContracts": [],
      "isFixedGasLimit": false
    }
  ],
  "receipts": [
    {
      "status": "0x1",
      "cumulativeGasUsed": "0xb391",
      "logs": [
        {
          "address": "0xfadc475b03e3bd7813a71446369204271a0a9843",
          "topics": [
            "0x8c5be1e5ebec7d5bd14f71427d1e84f3dd0314c0f7b2291e5b200ac8c7c3b925",
            "0x000000000000000000000000b73ebe02d3a29d61cb3ee87a3eede73cb1a3c725",
            "0x000000000000000000000000862ade3291ca93ed9cac581a96a03b9f82aaf84f"
          ],
          "data": "0x000000000000000000000000000000000000000000000000003dfc9deba5e405",
          "blockHash": "0xf3c4dab1d93fb018c2207f0241a36d594675850c32c41d4a3af49b4596ae6c9a",
          "blockNumber": "0x4121d4b",
          "transactionHash": "0x661a9391dcb8e4682a27b84961235ef7957024cf7a94e4a5a0f433c86fd145e8",
          "transactionIndex": "0x0",
          "logIndex": "0x0",
          "removed": false
        }
      ],
      "logsBloom": "0x00000000000000000000000000008000000000000000000000000000000000000000000000000000000000000000000000000000000000000000000000200000000000000040000000000000000000000000000000000001000000000000000000000000000000002000000000000000400000000000000000000000000000000000000000000000000000000000000000000000000000000000000000000002020000000400800000000000000000000000000000000000000000000000000000000000000000000000000000000000000000000000000000000000000000000010000000000000000000000000000000000000000000000000400000000000",
      "type": "0x2",
      "transactionHash": "0x661a9391dcb8e4682a27b84961235ef7957024cf7a94e4a5a0f433c86fd145e8",
      "transactionIndex": "0x0",
      "blockHash": "0xf3c4dab1d93fb018c2207f0241a36d594675850c32c41d4a3af49b4596ae6c9a",
      "blockNumber": "0x4121d4b",
      "gasUsed": "0xb391",
      "effectiveGasPrice": "0x5f5e100",
      "from": "0xb73ebe02d3a29d61cb3ee87a3eede73cb1a3c725",
      "to": "0xfadc475b03e3bd7813a71446369204271a0a9843",
      "contractAddress": null
    },
    {
      "status": "0x1",
      "cumulativeGasUsed": "0x16716",
      "logs": [
        {
          "address": "0x15ab97353bfb6c6f07b3354a2ea1615eb2f45941",
          "topics": [
            "0x8c5be1e5ebec7d5bd14f71427d1e84f3dd0314c0f7b2291e5b200ac8c7c3b925",
            "0x000000000000000000000000b73ebe02d3a29d61cb3ee87a3eede73cb1a3c725",
            "0x000000000000000000000000862ade3291ca93ed9cac581a96a03b9f82aaf84f"
          ],
          "data": "0x0000000000000000000000000000000000000000000000000000a4dac66734b4",
          "blockHash": "0xf3c4dab1d93fb018c2207f0241a36d594675850c32c41d4a3af49b4596ae6c9a",
          "blockNumber": "0x4121d4b",
          "transactionHash": "0xc72835375c2f926215356f168cc16468d0d1e211040d74016ecf736966307bb6",
          "transactionIndex": "0x1",
          "logIndex": "0x1",
          "removed": false
        }
      ],
      "logsBloom": "0x00000000000000000000000000008000000000000000000000000000000000000000000000000000000000000000000000000000000000000000000000200000000000000040000000000000000000000000000000000001000000000000000000000004000000002000000000800000000000000000000000000000000000000000000000000000000000000000000000000000000000000000000000000002020000000000000000000000000000000000000000000000000000000000000000000000000000000000000000000000000000000000000000000000000000000010000000000000000200000000000000000000000000000000400000000000",
      "type": "0x2",
      "transactionHash": "0xc72835375c2f926215356f168cc16468d0d1e211040d74016ecf736966307bb6",
      "transactionIndex": "0x1",
      "blockHash": "0xf3c4dab1d93fb018c2207f0241a36d594675850c32c41d4a3af49b4596ae6c9a",
      "blockNumber": "0x4121d4b",
      "gasUsed": "0xb385",
      "effectiveGasPrice": "0x5f5e100",
      "from": "0xb73ebe02d3a29d61cb3ee87a3eede73cb1a3c725",
      "to": "0x15ab97353bfb6c6f07b3354a2ea1615eb2f45941",
      "contractAddress": null
    },
    {
      "status": "0x1",
      "cumulativeGasUsed": "0x21aa7",
      "logs": [
        {
          "address": "0x1cd44ec6cfb99132531793a397220c84216c5eed",
          "topics": [
            "0x8c5be1e5ebec7d5bd14f71427d1e84f3dd0314c0f7b2291e5b200ac8c7c3b925",
            "0x000000000000000000000000b73ebe02d3a29d61cb3ee87a3eede73cb1a3c725",
            "0x000000000000000000000000862ade3291ca93ed9cac581a96a03b9f82aaf84f"
          ],
          "data": "0x00000000000000000000000000000000000000000000000000120b611b88a994",
          "blockHash": "0xf3c4dab1d93fb018c2207f0241a36d594675850c32c41d4a3af49b4596ae6c9a",
          "blockNumber": "0x4121d4b",
          "transactionHash": "0xec6420bf95aabba428f4ec19dc0ea41f8af1e3c4e543944b0399ff9cef76214d",
          "transactionIndex": "0x2",
          "logIndex": "0x2",
          "removed": false
        }
      ],
      "logsBloom": "0x00000000000000000000000000008000000000000000000000000000000000000000000000000000000000000000000000000000000000000000000000200000000000000040000000000000000000000000000000000001000000000000000000000000000000022000000000010000000000000000000000000000000000000000000000000000000000000000000000000020000000000000000000000002020000000000000000000000000000000000000000000000000000000000000000000000000000000000000000000000000000000000000000000000000000000010000000000000000000000000000000000000000000000000400000000000",
      "type": "0x2",
      "transactionHash": "0xec6420bf95aabba428f4ec19dc0ea41f8af1e3c4e543944b0399ff9cef76214d",
      "transactionIndex": "0x2",
      "blockHash": "0xf3c4dab1d93fb018c2207f0241a36d594675850c32c41d4a3af49b4596ae6c9a",
      "blockNumber": "0x4121d4b",
      "gasUsed": "0xb391",
      "effectiveGasPrice": "0x5f5e100",
      "from": "0xb73ebe02d3a29d61cb3ee87a3eede73cb1a3c725",
      "to": "0x1cd44ec6cfb99132531793a397220c84216c5eed",
      "contractAddress": null
    },
    {
      "status": "0x1",
      "cumulativeGasUsed": "0x2ce50",
      "logs": [
        {
          "address": "0xbe1bf5c613c64b2a5f2ded08b4a26dd2082fa2cb",
          "topics": [
            "0x8c5be1e5ebec7d5bd14f71427d1e84f3dd0314c0f7b2291e5b200ac8c7c3b925",
            "0x000000000000000000000000b73ebe02d3a29d61cb3ee87a3eede73cb1a3c725",
            "0x000000000000000000000000862ade3291ca93ed9cac581a96a03b9f82aaf84f"
          ],
          "data": "0x00000000000000000000000000000000000000000000000173e1e2bccef53e92",
          "blockHash": "0xf3c4dab1d93fb018c2207f0241a36d594675850c32c41d4a3af49b4596ae6c9a",
          "blockNumber": "0x4121d4b",
          "transactionHash": "0x140792a6138219094b6ed61610184e4dceaa5a32ca1c16a95a343f92f395e036",
          "transactionIndex": "0x3",
          "logIndex": "0x3",
          "removed": false
        }
      ],
      "logsBloom": "0x00000000000000000000000000008000000000000000000000000000000000000000000000000000000000000000000000000000000110000000000000200020000000000040000000000000000000000000000000000001000000000000000000000000000000002000000000000000000000000000000000000000000000000000000000000000000000000000000000000000000000000000000000000002020000000000000000000000000000000000000000000000000000000000000000000000000000000000000000000000000000000000000000000000000000000010000000000000000000000000000000000000000000000000400000000000",
      "type": "0x2",
      "transactionHash": "0x140792a6138219094b6ed61610184e4dceaa5a32ca1c16a95a343f92f395e036",
      "transactionIndex": "0x3",
      "blockHash": "0xf3c4dab1d93fb018c2207f0241a36d594675850c32c41d4a3af49b4596ae6c9a",
      "blockNumber": "0x4121d4b",
      "gasUsed": "0xb3a9",
      "effectiveGasPrice": "0x5f5e100",
      "from": "0xb73ebe02d3a29d61cb3ee87a3eede73cb1a3c725",
      "to": "0xbe1bf5c613c64b2a5f2ded08b4a26dd2082fa2cb",
      "contractAddress": null
    },
    {
      "status": "0x1",
      "cumulativeGasUsed": "0x381e1",
      "logs": [
        {
          "address": "0x1ab580a59da516f068f43efcac10cc33862a7e88",
          "topics": [
            "0x8c5be1e5ebec7d5bd14f71427d1e84f3dd0314c0f7b2291e5b200ac8c7c3b925",
            "0x000000000000000000000000b73ebe02d3a29d61cb3ee87a3eede73cb1a3c725",
            "0x000000000000000000000000862ade3291ca93ed9cac581a96a03b9f82aaf84f"
          ],
          "data": "0x00000000000000000000000000000000000000000000000000821644081ff881",
          "blockHash": "0xf3c4dab1d93fb018c2207f0241a36d594675850c32c41d4a3af49b4596ae6c9a",
          "blockNumber": "0x4121d4b",
          "transactionHash": "0xbdbe9cdf81d16d47d13cafb446ebe503e7301eba2271f90973b7ede1ad124f18",
          "transactionIndex": "0x4",
          "logIndex": "0x4",
          "removed": false
        }
      ],
      "logsBloom": "0x00000000000000000000000000008000000000000000000000000000000000000000000000000000000000000000000000000000000000000000000000200000000000000040000000000000000000400000000000000001000000000000000000000000000000002000000000000000000000000000000000000000000000000000000000000000000000000000000000000000000000000000000000000002020000000000000000000004000000000000000000000000000000000000000000000000000000000000000000000000000000000000000000000000000000000010000000000400000000000000000000000000000000000000400000000000",
      "type": "0x2",
      "transactionHash": "0xbdbe9cdf81d16d47d13cafb446ebe503e7301eba2271f90973b7ede1ad124f18",
      "transactionIndex": "0x4",
      "blockHash": "0xf3c4dab1d93fb018c2207f0241a36d594675850c32c41d4a3af49b4596ae6c9a",
      "blockNumber": "0x4121d4b",
      "gasUsed": "0xb391",
      "effectiveGasPrice": "0x5f5e100",
      "from": "0xb73ebe02d3a29d61cb3ee87a3eede73cb1a3c725",
      "to": "0x1ab580a59da516f068f43efcac10cc33862a7e88",
      "contractAddress": null
    },
    {
      "status": "0x1",
      "cumulativeGasUsed": "0x12f461",
      "logs": [
        {
          "address": "0xfadc475b03e3bd7813a71446369204271a0a9843",
          "topics": [
            "0xddf252ad1be2c89b69c2b068fc378daa952ba7f163c4a11628f55a4df523b3ef",
            "0x000000000000000000000000b73ebe02d3a29d61cb3ee87a3eede73cb1a3c725",
            "0x000000000000000000000000862ade3291ca93ed9cac581a96a03b9f82aaf84f"
          ],
          "data": "0x00000000000000000000000000000000000000000000000000385a03ed7f8979",
          "blockHash": "0xf3c4dab1d93fb018c2207f0241a36d594675850c32c41d4a3af49b4596ae6c9a",
          "blockNumber": "0x4121d4b",
          "transactionHash": "0xd9dafd4e0dbca59b79c8649bacceb35910dabda3ef240be02f7c4e7b8a00511f",
          "transactionIndex": "0x5",
          "logIndex": "0x5",
          "removed": false
        },
        {
          "address": "0x15ab97353bfb6c6f07b3354a2ea1615eb2f45941",
          "topics": [
            "0xddf252ad1be2c89b69c2b068fc378daa952ba7f163c4a11628f55a4df523b3ef",
            "0x000000000000000000000000b73ebe02d3a29d61cb3ee87a3eede73cb1a3c725",
            "0x000000000000000000000000862ade3291ca93ed9cac581a96a03b9f82aaf84f"
          ],
          "data": "0x000000000000000000000000000000000000000000000000000095de28baea18",
          "blockHash": "0xf3c4dab1d93fb018c2207f0241a36d594675850c32c41d4a3af49b4596ae6c9a",
          "blockNumber": "0x4121d4b",
          "transactionHash": "0xd9dafd4e0dbca59b79c8649bacceb35910dabda3ef240be02f7c4e7b8a00511f",
          "transactionIndex": "0x5",
          "logIndex": "0x6",
          "removed": false
        },
        {
          "address": "0x1cd44ec6cfb99132531793a397220c84216c5eed",
          "topics": [
            "0xddf252ad1be2c89b69c2b068fc378daa952ba7f163c4a11628f55a4df523b3ef",
            "0x000000000000000000000000b73ebe02d3a29d61cb3ee87a3eede73cb1a3c725",
            "0x000000000000000000000000862ade3291ca93ed9cac581a96a03b9f82aaf84f"
          ],
          "data": "0x0000000000000000000000000000000000000000000000000010676f8d64f741",
          "blockHash": "0xf3c4dab1d93fb018c2207f0241a36d594675850c32c41d4a3af49b4596ae6c9a",
          "blockNumber": "0x4121d4b",
          "transactionHash": "0xd9dafd4e0dbca59b79c8649bacceb35910dabda3ef240be02f7c4e7b8a00511f",
          "transactionIndex": "0x5",
          "logIndex": "0x7",
          "removed": false
        },
        {
          "address": "0xbe1bf5c613c64b2a5f2ded08b4a26dd2082fa2cb",
          "topics": [
            "0xddf252ad1be2c89b69c2b068fc378daa952ba7f163c4a11628f55a4df523b3ef",
            "0x000000000000000000000000b73ebe02d3a29d61cb3ee87a3eede73cb1a3c725",
            "0x000000000000000000000000862ade3291ca93ed9cac581a96a03b9f82aaf84f"
          ],
          "data": "0x00000000000000000000000000000000000000000000000152132b3747c7ad3f",
          "blockHash": "0xf3c4dab1d93fb018c2207f0241a36d594675850c32c41d4a3af49b4596ae6c9a",
          "blockNumber": "0x4121d4b",
          "transactionHash": "0xd9dafd4e0dbca59b79c8649bacceb35910dabda3ef240be02f7c4e7b8a00511f",
          "transactionIndex": "0x5",
          "logIndex": "0x8",
          "removed": false
        },
        {
          "address": "0x1ab580a59da516f068f43efcac10cc33862a7e88",
          "topics": [
            "0xddf252ad1be2c89b69c2b068fc378daa952ba7f163c4a11628f55a4df523b3ef",
            "0x000000000000000000000000b73ebe02d3a29d61cb3ee87a3eede73cb1a3c725",
            "0x000000000000000000000000862ade3291ca93ed9cac581a96a03b9f82aaf84f"
          ],
          "data": "0x000000000000000000000000000000000000000000000000007642c97bbff930",
          "blockHash": "0xf3c4dab1d93fb018c2207f0241a36d594675850c32c41d4a3af49b4596ae6c9a",
          "blockNumber": "0x4121d4b",
          "transactionHash": "0xd9dafd4e0dbca59b79c8649bacceb35910dabda3ef240be02f7c4e7b8a00511f",
          "transactionIndex": "0x5",
          "logIndex": "0x9",
          "removed": false
        },
        {
          "address": "0x862ade3291ca93ed9cac581a96a03b9f82aaf84f",
          "topics": [
            "0xddf252ad1be2c89b69c2b068fc378daa952ba7f163c4a11628f55a4df523b3ef",
            "0x0000000000000000000000000000000000000000000000000000000000000000",
            "0x0000000000000000000000000000000000000000000000000000000000000001"
          ],
          "data": "0x00000000000000000000000000000000000000000000000000000000000003e8",
          "blockHash": "0xf3c4dab1d93fb018c2207f0241a36d594675850c32c41d4a3af49b4596ae6c9a",
          "blockNumber": "0x4121d4b",
          "transactionHash": "0xd9dafd4e0dbca59b79c8649bacceb35910dabda3ef240be02f7c4e7b8a00511f",
          "transactionIndex": "0x5",
          "logIndex": "0xa",
          "removed": false
        },
        {
          "address": "0x862ade3291ca93ed9cac581a96a03b9f82aaf84f",
          "topics": [
            "0xddf252ad1be2c89b69c2b068fc378daa952ba7f163c4a11628f55a4df523b3ef",
            "0x0000000000000000000000000000000000000000000000000000000000000000",
            "0x000000000000000000000000b73ebe02d3a29d61cb3ee87a3eede73cb1a3c725"
          ],
          "data": "0x0000000000000000000000000000000000000000000000056bc75e2d630ffc18",
          "blockHash": "0xf3c4dab1d93fb018c2207f0241a36d594675850c32c41d4a3af49b4596ae6c9a",
          "blockNumber": "0x4121d4b",
          "transactionHash": "0xd9dafd4e0dbca59b79c8649bacceb35910dabda3ef240be02f7c4e7b8a00511f",
          "transactionIndex": "0x5",
          "logIndex": "0xb",
          "removed": false
        },
        {
          "address": "0x862ade3291ca93ed9cac581a96a03b9f82aaf84f",
          "topics": [
            "0xff7e11a5a7b2a6f505d1223063f963c8080882019afa5e2dd21c09ceff1ffac2"
          ],
          "data": "0x00000000000000000000000000000000000000000000000000000000000000a0000000000000000000000000000000000000000000000000000000000000016000000000000000000000000000000000000000000000000000000000000002200000000000000000000000000000000000000000000000056bc75e2d631000000000000000000000000000000000000000000000000000056bc75e2d630f83470000000000000000000000000000000000000000000000000000000000000005000000000000000000000000fadc475b03e3bd7813a71446369204271a0a984300000000000000000000000015ab97353bfb6c6f07b3354a2ea1615eb2f459410000000000000000000000001cd44ec6cfb99132531793a397220c84216c5eed000000000000000000000000be1bf5c613c64b2a5f2ded08b4a26dd2082fa2cb0000000000000000000000001ab580a59da516f068f43efcac10cc33862a7e88000000000000000000000000000000000000000000000000000000000000000500000000000000000000000000000000000000000000000000000000000007d000000000000000000000000000000000000000000000000000000000000007d000000000000000000000000000000000000000000000000000000000000007d000000000000000000000000000000000000000000000000000000000000007d000000000000000000000000000000000000000000000000000000000000007d0000000000000000000000000000000000000000000000000000000000000000500000000000000000000000000000000000000000000000000385a03ed7f8979000000000000000000000000000000000000000000000000000095de28baea180000000000000000000000000000000000000000000000000010676f8d64f74100000000000000000000000000000000000000000000000152132b3747c7ad3f000000000000000000000000000000000000000000000000007642c97bbff930",
          "blockHash": "0xf3c4dab1d93fb018c2207f0241a36d594675850c32c41d4a3af49b4596ae6c9a",
          "blockNumber": "0x4121d4b",
          "transactionHash": "0xd9dafd4e0dbca59b79c8649bacceb35910dabda3ef240be02f7c4e7b8a00511f",
          "transactionIndex": "0x5",
          "logIndex": "0xc",
          "removed": false
        }
      ],
      "logsBloom": "0x00000000100000000000000000008002000000000000000000000000000000000000000000000000000000000000008000000000000110000000000000040020000000000040000000000008000000400000000000040001000000000000000000000004020000022000000000810800400000000000010000000010000000800000000000000000000000000000000000000020000000000000000000000002000000000400800000000004000000000000000000002000000000000000000000000002000000000000000000000000000000000000000000000000000060000000000000000400000200000000000000000000000000000000400000000000",
      "type": "0x2",
      "transactionHash": "0xd9dafd4e0dbca59b79c8649bacceb35910dabda3ef240be02f7c4e7b8a00511f",
      "transactionIndex": "0x5",
      "blockHash": "0xf3c4dab1d93fb018c2207f0241a36d594675850c32c41d4a3af49b4596ae6c9a",
      "blockNumber": "0x4121d4b",
      "gasUsed": "0xf7280",
      "effectiveGasPrice": "0x5f5e100",
      "from": "0xb73ebe02d3a29d61cb3ee87a3eede73cb1a3c725",
      "to": "0x862ade3291ca93ed9cac581a96a03b9f82aaf84f",
      "contractAddress": null
    }
  ],
  "libraries": [],
  "pending": [],
  "returns": {},
  "timestamp": 1760067652558,
  "chain": 97,
  "commit": "5797003"
}