{
  "transactions": [
    {
      "hash": "0x4307ee9607afcfa3d45d1208fc5cd5b4af8eda972dab55c18ea3bbe7bc3bd9cb",
      "transactionType": "CALL",
      "contractName": null,
      "contractAddress": "0x998367e7de460b309500e06cfdabb0c94adb18de",
      "function": "approve(address,uint256)",
      "arguments": [
        "0xa63E59DEf7Ab22C17030467E75829C7F90f44d0C",
        "17400729265757850"
      ],
      "transaction": {
        "from": "0xb73ebe02d3a29d61cb3ee87a3eede73cb1a3c725",
        "to": "0x998367e7de460b309500e06cfdabb0c94adb18de",
        "gas": "0x1069d",
        "value": "0x0",
        "input": "0x095ea7b3000000000000000000000000a63e59def7ab22c17030467e75829c7f90f44d0c000000000000000000000000000000000000000000000000003dd1defeb7de9a",
        "nonce": "0x157",
        "chainId": "0x61"
      },
      "additionalContracts": [],
      "isFixedGasLimit": false
    },
    {
      "hash": "0x2006cdfa9a3f2ea84ca914d314bb116fd3207fb6e3751f28374da42a07aeee7b",
      "transactionType": "CALL",
      "contractName": null,
      "contractAddress": "0xd20268cb7065d20307b0793f702febddf5d24856",
      "function": "approve(address,uint256)",
      "arguments": [
        "0xa63E59DEf7Ab22C17030467E75829C7F90f44d0C",
        "181285935301521"
      ],
      "transaction": {
        "from": "0xb73ebe02d3a29d61cb3ee87a3eede73cb1a3c725",
        "to": "0xd20268cb7065d20307b0793f702febddf5d24856",
        "gas": "0xf7f5",
        "value": "0x0",
        "input": "0x095ea7b3000000000000000000000000a63e59def7ab22c17030467e75829c7f90f44d0c0000000000000000000000000000000000000000000000000000a4e0ebc6c391",
        "nonce": "0x158",
        "chainId": "0x61"
      },
      "additionalContracts": [],
      "isFixedGasLimit": false
    },
    {
      "hash": "0xc0753a85b25035ddb26ce7a4eb27efc9567400ff3eb38fd31897bffc81391598",
      "transactionType": "CALL",
      "contractName": null,
      "contractAddress": "0xd81e1ac7f2ccdd106701e484f12b842684719bd3",
      "function": "approve(address,uint256)",
      "arguments": [
        "0xa63E59DEf7Ab22C17030467E75829C7F90f44d0C",
        "5079061282466196"
      ],
      "transaction": {
        "from": "0xb73ebe02d3a29d61cb3ee87a3eede73cb1a3c725",
        "to": "0xd81e1ac7f2ccdd106701e484f12b842684719bd3",
        "gas": "0x1069d",
        "value": "0x0",
        "input": "0x095ea7b3000000000000000000000000a63e59def7ab22c17030467e75829c7f90f44d0c00000000000000000000000000000000000000000000000000120b611b88a994",
        "nonce": "0x159",
        "chainId": "0x61"
      },
      "additionalContracts": [],
      "isFixedGasLimit": false
    },
    {
      "hash": "0xeb85d61d46881c7fd2eccae981786cce813b84439ad2b827a10a27f9568f7d24",
      "transactionType": "CALL",
      "contractName": null,
      "contractAddress": "0x8dcd14418995d376e40255dabf55ce58d994bfc4",
      "function": "approve(address,uint256)",
      "arguments": [
        "0xa63E59DEf7Ab22C17030467E75829C7F90f44d0C",
        "27071059069050888668"
      ],
      "transaction": {
        "from": "0xb73ebe02d3a29d61cb3ee87a3eede73cb1a3c725",
        "to": "0x8dcd14418995d376e40255dabf55ce58d994bfc4",
        "gas": "0x106c0",
        "value": "0x0",
        "input": "0x095ea7b3000000000000000000000000a63e59def7ab22c17030467e75829c7f90f44d0c00000000000000000000000000000000000000000000000177afb8cb706521dc",
        "nonce": "0x15a",
        "chainId": "0x61"
      },
      "additionalContracts": [],
      "isFixedGasLimit": false
    },
    {
      "hash": "0xeb196c7c203eae7e9c2b2cb8f9406a0d91903cb28958ef790e975a653c8ba0b1",
      "transactionType": "CALL",
      "contractName": null,
      "contractAddress": "0xe9636149f4ebda9e1d368385e39e74021d7bf53f",
      "function": "approve(address,uint256)",
      "arguments": [
        "0xa63E59DEf7Ab22C17030467E75829C7F90f44d0C",
        "37485986394327992"
      ],
      "transaction": {
        "from": "0xb73ebe02d3a29d61cb3ee87a3eede73cb1a3c725",
        "to": "0xe9636149f4ebda9e1d368385e39e74021d7bf53f",
        "gas": "0x1069d",
        "value": "0x0",
        "input": "0x095ea7b3000000000000000000000000a63e59def7ab22c17030467e75829c7f90f44d0c00000000000000000000000000000000000000000000000000852d4e5716cbb8",
        "nonce": "0x15b",
        "chainId": "0x61"
      },
      "additionalContracts": [],
      "isFixedGasLimit": false
    },
    {
      "hash": "0x6d4b51ec5e67423031b68c8af91f890d18487701c6d91945cf6c27e9ede8a5be",
      "transactionType": "CALL",
      "contractName": null,
      "contractAddress": "0xa63e59def7ab22c17030467e75829c7f90f44d0c",
      "function": "initialize(address[],uint32[],uint256)",
      "arguments": [
        "[0x998367e7De460b309500E06cfDaBb0c94adB18De, 0xD20268cb7065d20307b0793f702febDDf5d24856, 0xd81e1AC7F2ccdd106701e484f12B842684719bd3, 0x8DcD14418995d376e40255dABf55CE58D994BfC4, 0xe9636149f4ebdA9e1D368385e39E74021d7Bf53f]",
        "[2000, 2000, 2000, 2000, 2000]",
        "100000000000000000000"
      ],
      "transaction": {
        "from": "0xb73ebe02d3a29d61cb3ee87a3eede73cb1a3c725",
        "to": "0xa63e59def7ab22c17030467e75829c7f90f44d0c",
        "gas": "0x155616",
        "value": "0x0",
        "input": "0xda8efc0a000000000000000000000000000000000000000000000000000000000000006000000000000000000000000000000000000000000000000000000000000001200000000000000000000000000000000000000000000000056bc75e2d631000000000000000000000000000000000000000000000000000000000000000000005000000000000000000000000998367e7de460b309500e06cfdabb0c94adb18de000000000000000000000000d20268cb7065d20307b0793f702febddf5d24856000000000000000000000000d81e1ac7f2ccdd106701e484f12b842684719bd30000000000000000000000008dcd14418995d376e40255dabf55ce58d994bfc4000000000000000000000000e9636149f4ebda9e1d368385e39e74021d7bf53f000000000000000000000000000000000000000000000000000000000000000500000000000000000000000000000000000000000000000000000000000007d000000000000000000000000000000000000000000000000000000000000007d000000000000000000000000000000000000000000000000000000000000007d000000000000000000000000000000000000000000000000000000000000007d000000000000000000000000000000000000000000000000000000000000007d0",
        "nonce": "0x15c",
        "chainId": "0x61"
      },
      "additionalContracts": [],
      "isFixedGasLimit": false
    }
  ],
  "receipts": [
    {
      "status": "0x1",
      "cumulativeGasUsed": "0xb391",
      "logs": [
        {
          "address": "0x998367e7de460b309500e06cfdabb0c94adb18de",
          "topics": [
            "0x8c5be1e5ebec7d5bd14f71427d1e84f3dd0314c0f7b2291e5b200ac8c7c3b925",
            "0x000000000000000000000000b73ebe02d3a29d61cb3ee87a3eede73cb1a3c725",
            "0x000000000000000000000000a63e59def7ab22c17030467e75829c7f90f44d0c"
          ],
          "data": "0x000000000000000000000000000000000000000000000000003dd1defeb7de9a",
          "blockHash": "0x256d926809d5a119b4fb89c636b6efa7cfe1fe3da5042e9e133ff9f8992de1d8",
          "blockNumber": "0x4126b6c",
          "transactionHash": "0x4307ee9607afcfa3d45d1208fc5cd5b4af8eda972dab55c18ea3bbe7bc3bd9cb",
          "transactionIndex": "0x0",
          "logIndex": "0x0",
          "removed": false
        }
      ],
      "logsBloom": "0x0000000080000000000000000000a000000000000000000000000400000000000000000000000000000000000000000002000000000000000000000000200000000000000040000000000000000000000000000000000000000000000000000000000000000000002000000000000000000000000000000000000000000001000000000000000000000000000000000000000000000000000000000000000000020000000000000000000000000000000000008000000000000000000000000000000000000000000000000000000000000000000000000000000000000000000010000000000000000000000000000000000000000000000000000000000000",
      "type": "0x2",
      "transactionHash": "0x4307ee9607afcfa3d45d1208fc5cd5b4af8eda972dab55c18ea3bbe7bc3bd9cb",
      "transactionIndex": "0x0",
      "blockHash": "0x256d926809d5a119b4fb89c636b6efa7cfe1fe3da5042e9e133ff9f8992de1d8",
      "blockNumber": "0x4126b6c",
      "gasUsed": "0xb391",
      "effectiveGasPrice": "0x4190ab00",
      "from": "0xb73ebe02d3a29d61cb3ee87a3eede73cb1a3c725",
      "to": "0x998367e7de460b309500e06cfdabb0c94adb18de",
      "contractAddress": null
    },
    {
      "status": "0x1",
      "cumulativeGasUsed": "0x16716",
      "logs": [
        {
          "address": "0xd20268cb7065d20307b0793f702febddf5d24856",
          "topics": [
            "0x8c5be1e5ebec7d5bd14f71427d1e84f3dd0314c0f7b2291e5b200ac8c7c3b925",
            "0x000000000000000000000000b73ebe02d3a29d61cb3ee87a3eede73cb1a3c725",
            "0x000000000000000000000000a63e59def7ab22c17030467e75829c7f90f44d0c"
          ],
          "data": "0x0000000000000000000000000000000000000000000000000000a4e0ebc6c391",
          "blockHash": "0x256d926809d5a119b4fb89c636b6efa7cfe1fe3da5042e9e133ff9f8992de1d8",
          "blockNumber": "0x4126b6c",
          "transactionHash": "0x2006cdfa9a3f2ea84ca914d314bb116fd3207fb6e3751f28374da42a07aeee7b",
          "transactionIndex": "0x1",
          "logIndex": "0x1",
          "removed": false
        }
      ],
      "logsBloom": "0x0000000080000000000000000000a000000000000000000000000000000000000000000000000000000000000000000000000000000000000000000000200000400000000040000000000000000000000000000000000000000000000000000000000000000000002000000000000000000000000000000000000000000000000000000000000000000000000000000000000000000000000000000000000000020000000000000000000000100000000000008000000000000000000000000000000000000000000000000000000000000000000000000000000000000000000010000000000000000000000000000000000000000000000000400000000000",
      "type": "0x2",
      "transactionHash": "0x2006cdfa9a3f2ea84ca914d314bb116fd3207fb6e3751f28374da42a07aeee7b",
      "transactionIndex": "0x1",
      "blockHash": "0x256d926809d5a119b4fb89c636b6efa7cfe1fe3da5042e9e133ff9f8992de1d8",
      "blockNumber": "0x4126b6c",
      "gasUsed": "0xb385",
      "effectiveGasPrice": "0x4190ab00",
      "from": "0xb73ebe02d3a29d61cb3ee87a3eede73cb1a3c725",
      "to": "0xd20268cb7065d20307b0793f702febddf5d24856",
      "contractAddress": null
    },
    {
      "status": "0x1",
      "cumulativeGasUsed": "0x21aa7",
      "logs": [
        {
          "address": "0xd81e1ac7f2ccdd106701e484f12b842684719bd3",
          "topics": [
            "0x8c5be1e5ebec7d5bd14f71427d1e84f3dd0314c0f7b2291e5b200ac8c7c3b925",
            "0x000000000000000000000000b73ebe02d3a29d61cb3ee87a3eede73cb1a3c725",
            "0x000000000000000000000000a63e59def7ab22c17030467e75829c7f90f44d0c"
          ],
          "data": "0x00000000000000000000000000000000000000000000000000120b611b88a994",
          "blockHash": "0x256d926809d5a119b4fb89c636b6efa7cfe1fe3da5042e9e133ff9f8992de1d8",
          "blockNumber": "0x4126b6c",
          "transactionHash": "0xc0753a85b25035ddb26ce7a4eb27efc9567400ff3eb38fd31897bffc81391598",
          "transactionIndex": "0x2",
          "logIndex": "0x2",
          "removed": false
        }
      ],
      "logsBloom": "0x0000000080000000000000000000a000000000000000000000000000000000000000000000000000000000000000000000000000000000000000000000200000000000080040000000000000000000000000000000000000000000000000000000000000000000002000000000000000000000000000000000000000000000000000000000000000000000000000000000000000000000000000000000000000022000000000000000000000000000000000008000000000000000000000000000000000000000000000000000000000000000002000000000000000000000000010000000000000000000000000000000000000000000000000000000000000",
      "type": "0x2",
      "transactionHash": "0xc0753a85b25035ddb26ce7a4eb27efc9567400ff3eb38fd31897bffc81391598",
      "transactionIndex": "0x2",
      "blockHash": "0x256d926809d5a119b4fb89c636b6efa7cfe1fe3da5042e9e133ff9f8992de1d8",
      "blockNumber": "0x4126b6c",
      "gasUsed": "0xb391",
      "effectiveGasPrice": "0x4190ab00",
      "from": "0xb73ebe02d3a29d61cb3ee87a3eede73cb1a3c725",
      "to": "0xd81e1ac7f2ccdd106701e484f12b842684719bd3",
      "contractAddress": null
    },
    {
      "status": "0x1",
      "cumulativeGasUsed": "0x2ce50",
      "logs": [
        {
          "address": "0x8dcd14418995d376e40255dabf55ce58d994bfc4",
          "topics": [
            "0x8c5be1e5ebec7d5bd14f71427d1e84f3dd0314c0f7b2291e5b200ac8c7c3b925",
            "0x000000000000000000000000b73ebe02d3a29d61cb3ee87a3eede73cb1a3c725",
            "0x000000000000000000000000a63e59def7ab22c17030467e75829c7f90f44d0c"
          ],
          "data": "0x00000000000000000000000000000000000000000000000177afb8cb706521dc",
          "blockHash": "0x256d926809d5a119b4fb89c636b6efa7cfe1fe3da5042e9e133ff9f8992de1d8",
          "blockNumber": "0x4126b6c",
          "transactionHash": "0xeb85d61d46881c7fd2eccae981786cce813b84439ad2b827a10a27f9568f7d24",
          "transactionIndex": "0x3",
          "logIndex": "0x3",
          "removed": false
        }
      ],
      "logsBloom": "0x0000000080000000000000000000a000000000000000000000000000000000000000000000000000000000000000000000000000000000000000000000200000000000000040000000000000000000000000000000000000000000000000000000000000000000002000000400000000000000000000000000000000000000000000000000000000000000000000000000000000000000000000008000000000020000000000000000000000000000000000008000000000000000000400000000000000000000000000000000000000000000000000000000000000000000000010000000000000000000000000000000000000000000000000000000000000",
      "type": "0x2",
      "transactionHash": "0xeb85d61d46881c7fd2eccae981786cce813b84439ad2b827a10a27f9568f7d24",
      "transactionIndex": "0x3",
      "blockHash": "0x256d926809d5a119b4fb89c636b6efa7cfe1fe3da5042e9e133ff9f8992de1d8",
      "blockNumber": "0x4126b6c",
      "gasUsed": "0xb3a9",
      "effectiveGasPrice": "0x4190ab00",
      "from": "0xb73ebe02d3a29d61cb3ee87a3eede73cb1a3c725",
      "to": "0x8dcd14418995d376e40255dabf55ce58d994bfc4",
      "contractAddress": null
    },
    {
      "status": "0x1",
      "cumulativeGasUsed": "0x381e1",
      "logs": [
        {
          "address": "0xe9636149f4ebda9e1d368385e39e74021d7bf53f",
          "topics": [
            "0x8c5be1e5ebec7d5bd14f71427d1e84f3dd0314c0f7b2291e5b200ac8c7c3b925",
            "0x000000000000000000000000b73ebe02d3a29d61cb3ee87a3eede73cb1a3c725",
            "0x000000000000000000000000a63e59def7ab22c17030467e75829c7f90f44d0c"
          ],
          "data": "0x00000000000000000000000000000000000000000000000000852d4e5716cbb8",
          "blockHash": "0x256d926809d5a119b4fb89c636b6efa7cfe1fe3da5042e9e133ff9f8992de1d8",
          "blockNumber": "0x4126b6c",
          "transactionHash": "0xeb196c7c203eae7e9c2b2cb8f9406a0d91903cb28958ef790e975a653c8ba0b1",
          "transactionIndex": "0x4",
          "logIndex": "0x4",
          "removed": false
        }
      ],
      "logsBloom": "0x0000000080000000400000000000a000000000000000000000000000000000000000000000000000000000000000000000000000000000000000000000200000000000000040000000000000000000000000000000000000000000000000000000000000000000002000000000000000000000000000000000000000000000000000000008000000000000000000000000000000000000000000000000000000020000000000000000000000000000000000008000000000000000000000000000000000000000000000000000000000000000000000000000000000000000000010000000000000000000000000000000000000000000000000000000004000",
      "type": "0x2",
      "transactionHash": "0xeb196c7c203eae7e9c2b2cb8f9406a0d91903cb28958ef790e975a653c8ba0b1",
      "transactionIndex": "0x4",
      "blockHash": "0x256d926809d5a119b4fb89c636b6efa7cfe1fe3da5042e9e133ff9f8992de1d8",
      "blockNumber": "0x4126b6c",
      "gasUsed": "0xb391",
      "effectiveGasPrice": "0x4190ab00",
      "from": "0xb73ebe02d3a29d61cb3ee87a3eede73cb1a3c725",
      "to": "0xe9636149f4ebda9e1d368385e39e74021d7bf53f",
      "contractAddress": null
    },
    {
      "status": "0x1",
      "cumulativeGasUsed": "0x12f455",
      "logs": [
        {
          "address": "0x998367e7de460b309500e06cfdabb0c94adb18de",
          "topics": [
            "0xddf252ad1be2c89b69c2b068fc378daa952ba7f163c4a11628f55a4df523b3ef",
            "0x000000000000000000000000b73ebe02d3a29d61cb3ee87a3eede73cb1a3c725",
            "0x000000000000000000000000a63e59def7ab22c17030467e75829c7f90f44d0c"
          ],
          "data": "0x00000000000000000000000000000000000000000000000000383327d04a102f",
          "blockHash": "0x256d926809d5a119b4fb89c636b6efa7cfe1fe3da5042e9e133ff9f8992de1d8",
          "blockNumber": "0x4126b6c",
          "transactionHash": "0x6d4b51ec5e67423031b68c8af91f890d18487701c6d91945cf6c27e9ede8a5be",
          "transactionIndex": "0x5",
          "logIndex": "0x5",
          "removed": false
        },
        {
          "address": "0xd20268cb7065d20307b0793f702febddf5d24856",
          "topics": [
            "0xddf252ad1be2c89b69c2b068fc378daa952ba7f163c4a11628f55a4df523b3ef",
            "0x000000000000000000000000b73ebe02d3a29d61cb3ee87a3eede73cb1a3c725",
            "0x000000000000000000000000a63e59def7ab22c17030467e75829c7f90f44d0c"
          ],
          "data": "0x000000000000000000000000000000000000000000000000000095e3bf11c910",
          "blockHash": "0x256d926809d5a119b4fb89c636b6efa7cfe1fe3da5042e9e133ff9f8992de1d8",
          "blockNumber": "0x4126b6c",
          "transactionHash": "0x6d4b51ec5e67423031b68c8af91f890d18487701c6d91945cf6c27e9ede8a5be",
          "transactionIndex": "0x5",
          "logIndex": "0x6",
          "removed": false
        },
        {
          "address": "0xd81e1ac7f2ccdd106701e484f12b842684719bd3",
          "topics": [
            "0xddf252ad1be2c89b69c2b068fc378daa952ba7f163c4a11628f55a4df523b3ef",
            "0x000000000000000000000000b73ebe02d3a29d61cb3ee87a3eede73cb1a3c725",
            "0x000000000000000000000000a63e59def7ab22c17030467e75829c7f90f44d0c"
          ],
          "data": "0x0000000000000000000000000000000000000000000000000010676f8d64f741",
          "blockHash": "0x256d926809d5a119b4fb89c636b6efa7cfe1fe3da5042e9e133ff9f8992de1d8",
          "blockNumber": "0x4126b6c",
          "transactionHash": "0x6d4b51ec5e67423031b68c8af91f890d18487701c6d91945cf6c27e9ede8a5be",
          "transactionIndex": "0x5",
          "logIndex": "0x7",
          "removed": false
        },
        {
          "address": "0x8dcd14418995d376e40255dabf55ce58d994bfc4",
          "topics": [
            "0xddf252ad1be2c89b69c2b068fc378daa952ba7f163c4a11628f55a4df523b3ef",
            "0x000000000000000000000000b73ebe02d3a29d61cb3ee87a3eede73cb1a3c725",
            "0x000000000000000000000000a63e59def7ab22c17030467e75829c7f90f44d0c"
          ],
          "data": "0x00000000000000000000000000000000000000000000000155887973205bf03d",
          "blockHash": "0x256d926809d5a119b4fb89c636b6efa7cfe1fe3da5042e9e133ff9f8992de1d8",
          "blockNumber": "0x4126b6c",
          "transactionHash": "0x6d4b51ec5e67423031b68c8af91f890d18487701c6d91945cf6c27e9ede8a5be",
          "transactionIndex": "0x5",
          "logIndex": "0x8",
          "removed": false
        },
        {
          "address": "0xe9636149f4ebda9e1d368385e39e74021d7bf53f",
          "topics": [
            "0xddf252ad1be2c89b69c2b068fc378daa952ba7f163c4a11628f55a4df523b3ef",
            "0x000000000000000000000000b73ebe02d3a29d61cb3ee87a3eede73cb1a3c725",
            "0x000000000000000000000000a63e59def7ab22c17030467e75829c7f90f44d0c"
          ],
          "data": "0x000000000000000000000000000000000000000000000000007911ea20a05c1c",
          "blockHash": "0x256d926809d5a119b4fb89c636b6efa7cfe1fe3da5042e9e133ff9f8992de1d8",
          "blockNumber": "0x4126b6c",
          "transactionHash": "0x6d4b51ec5e67423031b68c8af91f890d18487701c6d91945cf6c27e9ede8a5be",
          "transactionIndex": "0x5",
          "logIndex": "0x9",
          "removed": false
        },
        {
          "address": "0xa63e59def7ab22c17030467e75829c7f90f44d0c",
          "topics": [
            "0xddf252ad1be2c89b69c2b068fc378daa952ba7f163c4a11628f55a4df523b3ef",
            "0x0000000000000000000000000000000000000000000000000000000000000000",
            "0x0000000000000000000000000000000000000000000000000000000000000001"
          ],
          "data": "0x00000000000000000000000000000000000000000000000000000000000003e8",
          "blockHash": "0x256d926809d5a119b4fb89c636b6efa7cfe1fe3da5042e9e133ff9f8992de1d8",
          "blockNumber": "0x4126b6c",
          "transactionHash": "0x6d4b51ec5e67423031b68c8af91f890d18487701c6d91945cf6c27e9ede8a5be",
          "transactionIndex": "0x5",
          "logIndex": "0xa",
          "removed": false
        },
        {
          "address": "0xa63e59def7ab22c17030467e75829c7f90f44d0c",
          "topics": [
            "0xddf252ad1be2c89b69c2b068fc378daa952ba7f163c4a11628f55a4df523b3ef",
            "0x0000000000000000000000000000000000000000000000000000000000000000",
            "0x000000000000000000000000b73ebe02d3a29d61cb3ee87a3eede73cb1a3c725"
          ],
          "data": "0x0000000000000000000000000000000000000000000000056bc75e2d630ffc18",
          "blockHash": "0x256d926809d5a119b4fb89c636b6efa7cfe1fe3da5042e9e133ff9f8992de1d8",
          "blockNumber": "0x4126b6c",
          "transactionHash": "0x6d4b51ec5e67423031b68c8af91f890d18487701c6d91945cf6c27e9ede8a5be",
          "transactionIndex": "0x5",
          "logIndex": "0xb",
          "removed": false
        },
        {
          "address": "0xa63e59def7ab22c17030467e75829c7f90f44d0c",
          "topics": [
            "0xff7e11a5a7b2a6f505d1223063f963c8080882019afa5e2dd21c09ceff1ffac2"
          ],
          "data": "0x00000000000000000000000000000000000000000000000000000000000000a0000000000000000000000000000000000000000000000000000000000000016000000000000000000000000000000000000000000000000000000000000002200000000000000000000000000000000000000000000000056bc75e2d631000000000000000000000000000000000000000000000000000056bc75e2d630fa2a00000000000000000000000000000000000000000000000000000000000000005000000000000000000000000998367e7de460b309500e06cfdabb0c94adb18de000000000000000000000000d20268cb7065d20307b0793f702febddf5d24856000000000000000000000000d81e1ac7f2ccdd106701e484f12b842684719bd30000000000000000000000008dcd14418995d376e40255dabf55ce58d994bfc4000000000000000000000000e9636149f4ebda9e1d368385e39e74021d7bf53f000000000000000000000000000000000000000000000000000000000000000500000000000000000000000000000000000000000000000000000000000007d000000000000000000000000000000000000000000000000000000000000007d000000000000000000000000000000000000000000000000000000000000007d000000000000000000000000000000000000000000000000000000000000007d000000000000000000000000000000000000000000000000000000000000007d0000000000000000000000000000000000000000000000000000000000000000500000000000000000000000000000000000000000000000000383327d04a102f000000000000000000000000000000000000000000000000000095e3bf11c9100000000000000000000000000000000000000000000000000010676f8d64f74100000000000000000000000000000000000000000000000155887973205bf03d000000000000000000000000000000000000000000000000007911ea20a05c1c",
          "blockHash": "0x256d926809d5a119b4fb89c636b6efa7cfe1fe3da5042e9e133ff9f8992de1d8",
          "blockNumber": "0x4126b6c",
          "transactionHash": "0x6d4b51ec5e67423031b68c8af91f890d18487701c6d91945cf6c27e9ede8a5be",
          "transactionIndex": "0x5",
          "logIndex": "0xc",
          "removed": false
        }
      ],
      "logsBloom": "0x0000000090000000400000004000a002000000000000000000000400000000000000000000000000000000000000000002000000000000000000000000040000400000080040000000000008000000000000000000040000000002000000000000000000020000002000000400000800020000000000000000000010000001000000000008000000000000000000000000000000000000000000008000000000002000000000000000000000100000000000008000002000000000000400000000000002000000000000000000000000000000002000000000000000000060000000000000000000000000000000000000000000000000000000400000004000",
      "type": "0x2",
      "transactionHash": "0x6d4b51ec5e67423031b68c8af91f890d18487701c6d91945cf6c27e9ede8a5be",
      "transactionIndex": "0x5",
      "blockHash": "0x256d926809d5a119b4fb89c636b6efa7cfe1fe3da5042e9e133ff9f8992de1d8",
      "blockNumber": "0x4126b6c",
      "gasUsed": "0xf7274",
      "effectiveGasPrice": "0x4190ab00",
      "from": "0xb73ebe02d3a29d61cb3ee87a3eede73cb1a3c725",
      "to": "0xa63e59def7ab22c17030467e75829c7f90f44d0c",
      "contractAddress": null
    }
  ],
  "libraries": [],
  "pending": [],
  "returns": {},
  "timestamp": 1760082658799,
  "chain": 97,
  "commit": "7170902"
}