{
  "transactions": [
    {
      "hash": "0xfae3c4c20929267bc5412f7bd4924afb51df08a32dc26e5b3d62bf343971e7d8",
      "transactionType": "CALL",
      "contractName": null,
      "contractAddress": "0x959922be3caee4b8cd9a407cc3ac1c251c2007b1",
      "function": "startSession(uint16)",
      "arguments": [
        "2"
      ],
      "transaction": {
        "from": "0x70997970c51812dc3a010c7d01b50e0d17dc79c8",
        "to": "0x959922be3caee4b8cd9a407cc3ac1c251c2007b1",
        "gas": "0x1302b",
        "value": "0x16345785d8a0000",
        "input": "0xf0ac79f90000000000000000000000000000000000000000000000000000000000000002",
        "nonce": "0x0",
        "chainId": "0x7a69"
      },
      "additionalContracts": [],
      "isFixedGasLimit": false
    }
  ],
  "receipts": [
    {
      "status": "0x1",
      "cumulativeGasUsed": "0xcffb",
      "logs": [
        {
          "address": "0x959922be3caee4b8cd9a407cc3ac1c251c2007b1",
          "topics": [
            "0x6a2ac78d2ba0a9135e9259a9c18819ad78c3c3776d1b645ad45c3c7676e92394",
            "0x00000000000000000000000070997970c51812dc3a010c7d01b50e0d17dc79c8"
          ],
          "data": "0x000000000000000000000000000000000000000000000000016345785d8a000000000000000000000000000000000000000000000000000000000000000000020000000000000000000000000000000000000000000000000000000068f48aa5",
          "blockHash": "0x79787d224c87a92bb4dfc73b6acbb7da2f5f0378ab5e33e40a95f10dabb1e92c",
          "blockNumber": "0x1b",
          "blockTimestamp": "0x68f48aa5",
          "transactionHash": "0xfae3c4c20929267bc5412f7bd4924afb51df08a32dc26e5b3d62bf343971e7d8",
          "transactionIndex": "0x0",
          "logIndex": "0x0",
          "removed": false
        }
      ],
      "logsBloom": "0x00000000000000000002000000000000000000000000000000000000000000000000000000000000000000000000000000000000000000000000000000000000000000000000000000000000000000000000000000000000000000000000000100000800000000000020000000000004000000000000000000000000000000000000000000000000000000000000000000000000000000000000000000000000000000000000000000200000000000000000000000000000000000000000000000000000000000000000000000000000000000000000000000000000000000000000000000000000010000000000000001000000000000010000000000000000",
      "type": "0x2",
      "transactionHash": "0xfae3c4c20929267bc5412f7bd4924afb51df08a32dc26e5b3d62bf343971e7d8",
      "transactionIndex": "0x0",
      "blockHash": "0x79787d224c87a92bb4dfc73b6acbb7da2f5f0378ab5e33e40a95f10dabb1e92c",
      "blockNumber": "0x1b",
      "gasUsed": "0xcffb",
      "effectiveGasPrice": "0x227865e",
      "blobGasPrice": "0x1",
      "from": "0x70997970c51812dc3a010c7d01b50e0d17dc79c8",
      "to": "0x959922be3caee4b8cd9a407cc3ac1c251c2007b1",
      "contractAddress": null
    }
  ],
  "libraries": [],
  "pending": [],
  "returns": {},
  "timestamp": 1760856742004,
  "chain": 31337,
  "commit": "f1f421e"
}