{
  "transactions": [
    {
      "hash": "0x5f9bafbdcb62486a042e18d91025d7eef77aec190cbdf82ff6af1f76cc1a3ad7",
      "transactionType": "CALL",
      "contractName": null,
      "contractAddress": "0xe364204ad025bbcdff6dcb4291f89f532b0a8c35",
      "function": "mint(address,uint256)",
      "arguments": [
        "0xB73Ebe02d3A29d61cb3Ee87A3EEdE73cb1A3c725",
        "250000000000000000000000000"
      ],
      "transaction": {
        "from": "0xb73ebe02d3a29d61cb3ee87a3eede73cb1a3c725",
        "to": "0xe364204ad025bbcdff6dcb4291f89f532b0a8c35",
        "gas": "0xce2c",
        "value": "0x0",
        "input": "0x40c10f19000000000000000000000000b73ebe02d3a29d61cb3ee87a3eede73cb1a3c725000000000000000000000000000000000000000000cecb8f27f4200f3a000000",
        "nonce": "0xf6",
        "chainId": "0x61"
      },
      "additionalContracts": [],
      "isFixedGasLimit": false
    },
    {
      "hash": "0xf33d2ab5676b44a7a8989c99ab6a6016d507cdb16e9f1fc567f4e977fdc8b5a7",
      "transactionType": "CALL",
      "contractName": null,
      "contractAddress": "0xfadc475b03e3bd7813a71446369204271a0a9843",
      "function": "mint(address,uint256)",
      "arguments": [
        "0xB73Ebe02d3A29d61cb3Ee87A3EEdE73cb1A3c725",
        "38068003465636026317474"
      ],
      "transaction": {
        "from": "0xb73ebe02d3a29d61cb3ee87a3eede73cb1a3c725",
        "to": "0xfadc475b03e3bd7813a71446369204271a0a9843",
        "gas": "0xce4f",
        "value": "0x0",
        "input": "0x40c10f19000000000000000000000000b73ebe02d3a29d61cb3ee87a3eede73cb1a3c72500000000000000000000000000000000000000000000080fabaca311c694faa2",
        "nonce": "0xf7",
        "chainId": "0x61"
      },
      "additionalContracts": [],
      "isFixedGasLimit": false
    },
    {
      "hash": "0x061745d7a401b615c36734af3ed1699db348d85f6a5c18d7ff4b8ffc1c619ead",
      "transactionType": "CALL",
      "contractName": null,
      "contractAddress": "0x15ab97353bfb6c6f07b3354a2ea1615eb2f45941",
      "function": "mint(address,uint256)",
      "arguments": [
        "0xB73Ebe02d3A29d61cb3Ee87A3EEdE73cb1A3c725",
        "409721386340827733986"
      ],
      "transaction": {
        "from": "0xb73ebe02d3a29d61cb3ee87a3eede73cb1a3c725",
        "to": "0x15ab97353bfb6c6f07b3354a2ea1615eb2f45941",
        "gas": "0xc2c8",
        "value": "0x0",
        "input": "0x40c10f19000000000000000000000000b73ebe02d3a29d61cb3ee87a3eede73cb1a3c7250000000000000000000000000000000000000000000000163606c6147d9f1fe2",
        "nonce": "0xf8",
        "chainId": "0x61"
      },
      "additionalContracts": [],
      "isFixedGasLimit": false
    },
    {
      "hash": "0xe35b91f77d1da7edffcf38fc19389e1c7cc54035169800ffaf0f2ccd99803715",
      "transactionType": "CALL",
      "contractName": null,
      "contractAddress": "0x1cd44ec6cfb99132531793a397220c84216c5eed",
      "function": "mint(address,uint256)",
      "arguments": [
        "0xB73Ebe02d3A29d61cb3Ee87A3EEdE73cb1A3c725",
        "11018593661639530839992"
      ],
      "transaction": {
        "from": "0xb73ebe02d3a29d61cb3ee87a3eede73cb1a3c725",
        "to": "0x1cd44ec6cfb99132531793a397220c84216c5eed",
        "gas": "0xce4f",
        "value": "0x0",
        "input": "0x40c10f19000000000000000000000000b73ebe02d3a29d61cb3ee87a3eede73cb1a3c72500000000000000000000000000000000000000000000025551b46c3ffaeaffb8",
        "nonce": "0xf9",
        "chainId": "0x61"
      },
      "additionalContracts": [],
      "isFixedGasLimit": false
    },
    {
      "hash": "0x034096c6ef1f1e1e921f73b2430ab862a0d31d76bcc8a7f6f44e15608bd7e5a4",
      "transactionType": "CALL",
      "contractName": null,
      "contractAddress": "0xbe1bf5c613c64b2a5f2ded08b4a26dd2082fa2cb",
      "function": "mint(address,uint256)",
      "arguments": [
        "0xB73Ebe02d3A29d61cb3Ee87A3EEdE73cb1A3c725",
        "60828322873964043478090020"
      ],
      "transaction": {
        "from": "0xb73ebe02d3a29d61cb3ee87a3eede73cb1a3c725",
        "to": "0xbe1bf5c613c64b2a5f2ded08b4a26dd2082fa2cb",
        "gas": "0xc2e8",
        "value": "0x0",
        "input": "0x40c10f19000000000000000000000000b73ebe02d3a29d61cb3ee87a3eede73cb1a3c7250000000000000000000000000000000000000000003250e5fd8cd3511b41c124",
        "nonce": "0xfa",
        "chainId": "0x61"
      },
      "additionalContracts": [],
      "isFixedGasLimit": false
    },
    {
      "hash": "0x894198a75f4c3c4a408d10596fbc45a1313958d41021ae8d103280049c27cd48",
      "transactionType": "CALL",
      "contractName": null,
      "contractAddress": "0x1ab580a59da516f068f43efcac10cc33862a7e88",
      "function": "mint(address,uint256)",
      "arguments": [
        "0xB73Ebe02d3A29d61cb3Ee87A3EEdE73cb1A3c725",
        "86271185939144082203206"
      ],
      "transaction": {
        "from": "0xb73ebe02d3a29d61cb3ee87a3eede73cb1a3c725",
        "to": "0x1ab580a59da516f068f43efcac10cc33862a7e88",
        "gas": "0xce4f",
        "value": "0x0",
        "input": "0x40c10f19000000000000000000000000b73ebe02d3a29d61cb3ee87a3eede73cb1a3c725000000000000000000000000000000000000000000001244c5365f5195782246",
        "nonce": "0xfb",
        "chainId": "0x61"
      },
      "additionalContracts": [],
      "isFixedGasLimit": false
    },
    {
      "hash": "0x0e763ddbca335756de1fed4b63650269241a19097ee76077cb586af1e80305db",
      "transactionType": "CALL",
      "contractName": null,
      "contractAddress": "0xe364204ad025bbcdff6dcb4291f89f532b0a8c35",
      "function": "approve(address,uint256)",
      "arguments": [
        "0x427bF5b37357632377eCbEC9de3626C71A5396c1",
        "115792089237316195423570985008687907853269984665640564039457584007913129639935"
      ],
      "transaction": {
        "from": "0xb73ebe02d3a29d61cb3ee87a3eede73cb1a3c725",
        "to": "0xe364204ad025bbcdff6dcb4291f89f532b0a8c35",
        "gas": "0xa6a3",
        "value": "0x0",
        "input": "0x095ea7b3000000000000000000000000427bf5b37357632377ecbec9de3626c71a5396c1ffffffffffffffffffffffffffffffffffffffffffffffffffffffffffffffff",
        "nonce": "0xfc",
        "chainId": "0x61"
      },
      "additionalContracts": [],
      "isFixedGasLimit": false
    },
    {
      "hash": "0x28a34511238b6ed22bef95ffbba7fc3dba102e073fba1d3889cbf2532fe252f5",
      "transactionType": "CALL",
      "contractName": null,
      "contractAddress": "0xfadc475b03e3bd7813a71446369204271a0a9843",
      "function": "approve(address,uint256)",
      "arguments": [
        "0x427bF5b37357632377eCbEC9de3626C71A5396c1",
        "115792089237316195423570985008687907853269984665640564039457584007913129639935"
      ],
      "transaction": {
        "from": "0xb73ebe02d3a29d61cb3ee87a3eede73cb1a3c725",
        "to": "0xfadc475b03e3bd7813a71446369204271a0a9843",
        "gas": "0xa6a3",
        "value": "0x0",
        "input": "0x095ea7b3000000000000000000000000427bf5b37357632377ecbec9de3626c71a5396c1ffffffffffffffffffffffffffffffffffffffffffffffffffffffffffffffff",
        "nonce": "0xfd",
        "chainId": "0x61"
      },
      "additionalContracts": [],
      "isFixedGasLimit": false
    },
    {
      "hash": "0x85be368416aa854cd8ba7504b7899dead058ac06abe804e73ae4f7ebe594fe26",
      "transactionType": "CALL",
      "contractName": null,
      "contractAddress": "0x15ab97353bfb6c6f07b3354a2ea1615eb2f45941",
      "function": "approve(address,uint256)",
      "arguments": [
        "0x427bF5b37357632377eCbEC9de3626C71A5396c1",
        "115792089237316195423570985008687907853269984665640564039457584007913129639935"
      ],
      "transaction": {
        "from": "0xb73ebe02d3a29d61cb3ee87a3eede73cb1a3c725",
        "to": "0x15ab97353bfb6c6f07b3354a2ea1615eb2f45941",
        "gas": "0xa6a3",
        "value": "0x0",
        "input": "0x095ea7b3000000000000000000000000427bf5b37357632377ecbec9de3626c71a5396c1ffffffffffffffffffffffffffffffffffffffffffffffffffffffffffffffff",
        "nonce": "0xfe",
        "chainId": "0x61"
      },
      "additionalContracts": [],
      "isFixedGasLimit": false
    },
    {
      "hash": "0x098f60c9755b5251ddded1aa0e4d8ac67c60d44306c4532ce573f2697d57b871",
      "transactionType": "CALL",
      "contractName": null,
      "contractAddress": "0x1cd44ec6cfb99132531793a397220c84216c5eed",
      "function": "approve(address,uint256)",
      "arguments": [
        "0x427bF5b37357632377eCbEC9de3626C71A5396c1",
        "115792089237316195423570985008687907853269984665640564039457584007913129639935"
      ],
      "transaction": {
        "from": "0xb73ebe02d3a29d61cb3ee87a3eede73cb1a3c725",
        "to": "0x1cd44ec6cfb99132531793a397220c84216c5eed",
        "gas": "0xa6a3",
        "value": "0x0",
        "input": "0x095ea7b3000000000000000000000000427bf5b37357632377ecbec9de3626c71a5396c1ffffffffffffffffffffffffffffffffffffffffffffffffffffffffffffffff",
        "nonce": "0xff",
        "chainId": "0x61"
      },
      "additionalContracts": [],
      "isFixedGasLimit": false
    },
    {
      "hash": "0x94a754181ace59c38d1be01349d510a0ae8ca41e700f7cf5cb77d11f643c441f",
      "transactionType": "CALL",
      "contractName": null,
      "contractAddress": "0xbe1bf5c613c64b2a5f2ded08b4a26dd2082fa2cb",
      "function": "approve(address,uint256)",
      "arguments": [
        "0x427bF5b37357632377eCbEC9de3626C71A5396c1",
        "115792089237316195423570985008687907853269984665640564039457584007913129639935"
      ],
      "transaction": {
        "from": "0xb73ebe02d3a29d61cb3ee87a3eede73cb1a3c725",
        "to": "0xbe1bf5c613c64b2a5f2ded08b4a26dd2082fa2cb",
        "gas": "0xa6a3",
        "value": "0x0",
        "input": "0x095ea7b3000000000000000000000000427bf5b37357632377ecbec9de3626c71a5396c1ffffffffffffffffffffffffffffffffffffffffffffffffffffffffffffffff",
        "nonce": "0x100",
        "chainId": "0x61"
      },
      "additionalContracts": [],
      "isFixedGasLimit": false
    },
    {
      "hash": "0x393eec61f3991d8f7f19fa92574be10580bbc97ec177a35a802c795be62ef970",
      "transactionType": "CALL",
      "contractName": null,
      "contractAddress": "0x1ab580a59da516f068f43efcac10cc33862a7e88",
      "function": "approve(address,uint256)",
      "arguments": [
        "0x427bF5b37357632377eCbEC9de3626C71A5396c1",
        "115792089237316195423570985008687907853269984665640564039457584007913129639935"
      ],
      "transaction": {
        "from": "0xb73ebe02d3a29d61cb3ee87a3eede73cb1a3c725",
        "to": "0x1ab580a59da516f068f43efcac10cc33862a7e88",
        "gas": "0xa6a3",
        "value": "0x0",
        "input": "0x095ea7b3000000000000000000000000427bf5b37357632377ecbec9de3626c71a5396c1ffffffffffffffffffffffffffffffffffffffffffffffffffffffffffffffff",
        "nonce": "0x101",
        "chainId": "0x61"
      },
      "additionalContracts": [],
      "isFixedGasLimit": false
    },
    {
      "hash": "0x9dd9e307092b02b1628f597936014a87816945490e7ffa3344e90a5da8107825",
      "transactionType": "CALL",
      "contractName": null,
      "contractAddress": "0x427bf5b37357632377ecbec9de3626c71a5396c1",
      "function": "mint((address,address,uint24,int24,int24,uint256,uint256,uint256,uint256,address,uint256))",
      "arguments": [
        "(0xe364204ad025bbcDFF6DCb4291f89F532b0a8C35, 0xFaDc475b03E3bd7813a71446369204271a0a9843, 500, -5000, 10000, 25000000000000000000000000, 19034001732818013158737, 0, 0, 0xB73Ebe02d3A29d61cb3Ee87A3EEdE73cb1A3c725, 1759995470)"
      ],
      "transaction": {
        "from": "0xb73ebe02d3a29d61cb3ee87a3eede73cb1a3c725",
        "to": "0x427bf5b37357632377ecbec9de3626c71a5396c1",
        "gas": "0x98c4f",
        "value": "0x0",
        "input": "0x88316456000000000000000000000000e364204ad025bbcdff6dcb4291f89f532b0a8c35000000000000000000000000fadc475b03e3bd7813a71446369204271a0a984300000000000000000000000000000000000000000000000000000000000001f4ffffffffffffffffffffffffffffffffffffffffffffffffffffffffffffec78000000000000000000000000000000000000000000000000000000000000271000000000000000000000000000000000000000000014adf4b7320334b9000000000000000000000000000000000000000000000000000407d5d65188e34a7d5100000000000000000000000000000000000000000000000000000000000000000000000000000000000000000000000000000000000000000000000000000000000000000000000000000000b73ebe02d3a29d61cb3ee87a3eede73cb1a3c7250000000000000000000000000000000000000000000000000000000068e7664e",
        "nonce": "0x102",
        "chainId": "0x61"
      },
      "additionalContracts": [],
      "isFixedGasLimit": false
    },
    {
      "hash": "0xb1ffa74433895e9f42f1490cca087809f46e27dad08bcb4502176668781f1f4b",
      "transactionType": "CALL",
      "contractName": null,
      "contractAddress": "0x427bf5b37357632377ecbec9de3626c71a5396c1",
      "function": "mint((address,address,uint24,int24,int24,uint256,uint256,uint256,uint256,address,uint256))",
      "arguments": [
        "(0x15Ab97353bfb6C6F07B3354A2ea1615eB2F45941, 0xe364204ad025bbcDFF6DCb4291f89F532b0a8C35, 2500, -5000, 10000, 204860693170413866993, 25000000000000000000000000, 0, 0, 0xB73Ebe02d3A29d61cb3Ee87A3EEdE73cb1A3c725, 1759995470)"
      ],
      "transaction": {
        "from": "0xb73ebe02d3a29d61cb3ee87a3eede73cb1a3c725",
        "to": "0x427bf5b37357632377ecbec9de3626c71a5396c1",
        "gas": "0x8ff0b",
        "value": "0x0",
        "input": "0x8831645600000000000000000000000015ab97353bfb6c6f07b3354a2ea1615eb2f45941000000000000000000000000e364204ad025bbcdff6dcb4291f89f532b0a8c3500000000000000000000000000000000000000000000000000000000000009c4ffffffffffffffffffffffffffffffffffffffffffffffffffffffffffffec78000000000000000000000000000000000000000000000000000000000000271000000000000000000000000000000000000000000000000b1b03630a3ecf8ff100000000000000000000000000000000000000000014adf4b7320334b900000000000000000000000000000000000000000000000000000000000000000000000000000000000000000000000000000000000000000000000000000000000000000000000000000000000000b73ebe02d3a29d61cb3ee87a3eede73cb1a3c7250000000000000000000000000000000000000000000000000000000068e7664e",
        "nonce": "0x103",
        "chainId": "0x61"
      },
      "additionalContracts": [],
      "isFixedGasLimit": false
    },
    {
      "hash": "0x980df527365485b27bbf662f67f5a43b2e087689417b1daf1e1c615a060f0914",
      "transactionType": "CALL",
      "contractName": null,
      "contractAddress": "0x427bf5b37357632377ecbec9de3626c71a5396c1",
      "function": "mint((address,address,uint24,int24,int24,uint256,uint256,uint256,uint256,address,uint256))",
      "arguments": [
        "(0x1cd44EC6CFb99132531793a397220C84216C5eeD, 0xe364204ad025bbcDFF6DCb4291f89F532b0a8C35, 2500, -5000, 10000, 5509296830819765419996, 25000000000000000000000000, 0, 0, 0xB73Ebe02d3A29d61cb3Ee87A3EEdE73cb1A3c725, 1759995470)"
      ],
      "transaction": {
        "from": "0xb73ebe02d3a29d61cb3ee87a3eede73cb1a3c725",
        "to": "0x427bf5b37357632377ecbec9de3626c71a5396c1",
        "gas": "0x98697",
        "value": "0x0",
        "input": "0x883164560000000000000000000000001cd44ec6cfb99132531793a397220c84216c5eed000000000000000000000000e364204ad025bbcdff6dcb4291f89f532b0a8c3500000000000000000000000000000000000000000000000000000000000009c4ffffffffffffffffffffffffffffffffffffffffffffffffffffffffffffec78000000000000000000000000000000000000000000000000000000000000271000000000000000000000000000000000000000000000012aa8da361ffd757fdc00000000000000000000000000000000000000000014adf4b7320334b900000000000000000000000000000000000000000000000000000000000000000000000000000000000000000000000000000000000000000000000000000000000000000000000000000000000000b73ebe02d3a29d61cb3ee87a3eede73cb1a3c7250000000000000000000000000000000000000000000000000000000068e7664e",
        "nonce": "0x104",
        "chainId": "0x61"
      },
      "additionalContracts": [],
      "isFixedGasLimit": false
    },
    {
      "hash": "0x8130f208b44470b5b027565fc387c20ee9bf9f8ee17b315fcd9250f3d35174f9",
      "transactionType": "CALL",
      "contractName": null,
      "contractAddress": "0x427bf5b37357632377ecbec9de3626c71a5396c1",
      "function": "mint((address,address,uint24,int24,int24,uint256,uint256,uint256,uint256,address,uint256))",
      "arguments": [
        "(0xBE1Bf5C613C64B2a5F2dEd08B4A26dd2082Fa2cB, 0xe364204ad025bbcDFF6DCb4291f89F532b0a8C35, 500, -5000, 10000, 30414161436982021739045010, 25000000000000000000000000, 0, 0, 0xB73Ebe02d3A29d61cb3Ee87A3EEdE73cb1A3c725, 1759995470)"
      ],
      "transaction": {
        "from": "0xb73ebe02d3a29d61cb3ee87a3eede73cb1a3c725",
        "to": "0x427bf5b37357632377ecbec9de3626c71a5396c1",
        "gas": "0x9aa8c",
        "value": "0x0",
        "input": "0x88316456000000000000000000000000be1bf5c613c64b2a5f2ded08b4a26dd2082fa2cb000000000000000000000000e364204ad025bbcdff6dcb4291f89f532b0a8c3500000000000000000000000000000000000000000000000000000000000001f4ffffffffffffffffffffffffffffffffffffffffffffffffffffffffffffec780000000000000000000000000000000000000000000000000000000000002710000000000000000000000000000000000000000000192872fec669a88da0e09200000000000000000000000000000000000000000014adf4b7320334b900000000000000000000000000000000000000000000000000000000000000000000000000000000000000000000000000000000000000000000000000000000000000000000000000000000000000b73ebe02d3a29d61cb3ee87a3eede73cb1a3c7250000000000000000000000000000000000000000000000000000000068e7664e",
        "nonce": "0x105",
        "chainId": "0x61"
      },
      "additionalContracts": [],
      "isFixedGasLimit": false
    },
    {
      "hash": "0x10e3a22705f0c57f1a8d00068d76d3dac5535cc8c1b935cb6832feb24c3eb6cd",
      "transactionType": "CALL",
      "contractName": null,
      "contractAddress": "0x427bf5b37357632377ecbec9de3626c71a5396c1",
      "function": "mint((address,address,uint24,int24,int24,uint256,uint256,uint256,uint256,address,uint256))",
      "arguments": [
        "(0x1aB580a59da516F068F43EFCac10CC33862A7E88, 0xe364204ad025bbcDFF6DCb4291f89F532b0a8C35, 500, -5000, 10000, 43135592969572041101603, 25000000000000000000000000, 0, 0, 0xB73Ebe02d3A29d61cb3Ee87A3EEdE73cb1A3c725, 1759995470)"
      ],
      "transaction": {
        "from": "0xb73ebe02d3a29d61cb3ee87a3eede73cb1a3c725",
        "to": "0x427bf5b37357632377ecbec9de3626c71a5396c1",
        "gas": "0x98697",
        "value": "0x0",
        "input": "0x883164560000000000000000000000001ab580a59da516f068f43efcac10cc33862a7e88000000000000000000000000e364204ad025bbcdff6dcb4291f89f532b0a8c3500000000000000000000000000000000000000000000000000000000000001f4ffffffffffffffffffffffffffffffffffffffffffffffffffffffffffffec780000000000000000000000000000000000000000000000000000000000002710000000000000000000000000000000000000000000000922629b2fa8cabc112300000000000000000000000000000000000000000014adf4b7320334b900000000000000000000000000000000000000000000000000000000000000000000000000000000000000000000000000000000000000000000000000000000000000000000000000000000000000b73ebe02d3a29d61cb3ee87a3eede73cb1a3c7250000000000000000000000000000000000000000000000000000000068e7664e",
        "nonce": "0x106",
        "chainId": "0x61"
      },
      "additionalContracts": [],
      "isFixedGasLimit": false
    }
  ],
  "receipts": [
    {
      "status": "0x1",
      "cumulativeGasUsed": "0x1d156",
      "logs": [
        {
          "address": "0xe364204ad025bbcdff6dcb4291f89f532b0a8c35",
          "topics": [
            "0xddf252ad1be2c89b69c2b068fc378daa952ba7f163c4a11628f55a4df523b3ef",
            "0x0000000000000000000000000000000000000000000000000000000000000000",
            "0x000000000000000000000000b73ebe02d3a29d61cb3ee87a3eede73cb1a3c725"
          ],
          "data": "0x000000000000000000000000000000000000000000cecb8f27f4200f3a000000",
          "blockHash": "0x9fd0603378c33e8babbb8a92331ad35bc59290e72bf04066eee855006ae20070",
          "blockNumber": "0x41092fd",
          "transactionHash": "0x5f9bafbdcb62486a042e18d91025d7eef77aec190cbdf82ff6af1f76cc1a3ad7",
          "transactionIndex": "0x3",
          "logIndex": "0x3",
          "removed": false
        }
      ],
      "logsBloom": "0x00000000000000000000000000008000000000000000000000000000000000000000000000000000000000000000000000000000000000000000000000000000000000000040000000000008000000000000000000000000000000000000000000000000020000002000000000000800000000000000000000000010000400000000000000000020000000000000000000000000000000000000000000000000000000000000000000000000000000000000000000000000000000000000000000000002000000400000000000000000000000000000000000000000000020000000000000000000000000000000000000000000000000000000000000000000",
      "type": "0x2",
      "transactionHash": "0x5f9bafbdcb62486a042e18d91025d7eef77aec190cbdf82ff6af1f76cc1a3ad7",
      "transactionIndex": "0x3",
      "blockHash": "0x9fd0603378c33e8babbb8a92331ad35bc59290e72bf04066eee855006ae20070",
      "blockNumber": "0x41092fd",
      "gasUsed": "0x8cf9",
      "effectiveGasPrice": "0x5f5e100",
      "from": "0xb73ebe02d3a29d61cb3ee87a3eede73cb1a3c725",
      "to": "0xe364204ad025bbcdff6dcb4291f89f532b0a8c35",
      "contractAddress": null
    },
    {
      "status": "0x1",
      "cumulativeGasUsed": "0x25e67",
      "logs": [
        {
          "address": "0xfadc475b03e3bd7813a71446369204271a0a9843",
          "topics": [
            "0xddf252ad1be2c89b69c2b068fc378daa952ba7f163c4a11628f55a4df523b3ef",
            "0x0000000000000000000000000000000000000000000000000000000000000000",
            "0x000000000000000000000000b73ebe02d3a29d61cb3ee87a3eede73cb1a3c725"
          ],
          "data": "0x00000000000000000000000000000000000000000000080fabaca311c694faa2",
          "blockHash": "0x9fd0603378c33e8babbb8a92331ad35bc59290e72bf04066eee855006ae20070",
          "blockNumber": "0x41092fd",
          "transactionHash": "0xf33d2ab5676b44a7a8989c99ab6a6016d507cdb16e9f1fc567f4e977fdc8b5a7",
          "transactionIndex": "0x4",
          "logIndex": "0x4",
          "removed": false
        }
      ],
      "logsBloom": "0x00000000000000000000000000008000000000000000000000000000000000000000000000000000000000000000000000000000000000000000000000000000000000000040000000000008000000000000000000000000000000000000000000000000020000002000000000000800400000000000000000000010000000000000000000000000000000000000000000000000000000000000000000000000000000000400800000000000000000000000000000000000000000000000000000000002000000000000000000000000000000000000000000000000000020000000000000000000000000000000000000000000000000000000000000000000",
      "type": "0x2",
      "transactionHash": "0xf33d2ab5676b44a7a8989c99ab6a6016d507cdb16e9f1fc567f4e977fdc8b5a7",
      "transactionIndex": "0x4",
      "blockHash": "0x9fd0603378c33e8babbb8a92331ad35bc59290e72bf04066eee855006ae20070",
      "blockNumber": "0x41092fd",
      "gasUsed": "0x8d11",
      "effectiveGasPrice": "0x5f5e100",
      "from": "0xb73ebe02d3a29d61cb3ee87a3eede73cb1a3c725",
      "to": "0xfadc475b03e3bd7813a71446369204271a0a9843",
      "contractAddress": null
    },
    {
      "status": "0x1",
      "cumulativeGasUsed": "0x2eb6c",
      "logs": [
        {
          "address": "0x15ab97353bfb6c6f07b3354a2ea1615eb2f45941",
          "topics": [
            "0xddf252ad1be2c89b69c2b068fc378daa952ba7f163c4a11628f55a4df523b3ef",
            "0x0000000000000000000000000000000000000000000000000000000000000000",
            "0x000000000000000000000000b73ebe02d3a29d61cb3ee87a3eede73cb1a3c725"
          ],
          "data": "0x0000000000000000000000000000000000000000000000163606c6147d9f1fe2",
          "blockHash": "0x9fd0603378c33e8babbb8a92331ad35bc59290e72bf04066eee855006ae20070",
          "blockNumber": "0x41092fd",
          "transactionHash": "0x061745d7a401b615c36734af3ed1699db348d85f6a5c18d7ff4b8ffc1c619ead",
          "transactionIndex": "0x5",
          "logIndex": "0x5",
          "removed": false
        }
      ],
      "logsBloom": "0x00000000000000000000000000008000000000000000000000000000000000000000000000000000000000000000000000000000000000000000000000000000000000000040000000000008000000000000000000000000000000000000000000000004020000002000000000800800000000000000000000000010000000000000000000000000000000000000000000000000000000000000000000000000000000000000000000000000000000000000000000000000000000000000000000000002000000000000000000000000000000000000000000000000000020000000000000000000000200000000000000000000000000000000000000000000",
      "type": "0x2",
      "transactionHash": "0x061745d7a401b615c36734af3ed1699db348d85f6a5c18d7ff4b8ffc1c619ead",
      "transactionIndex": "0x5",
      "blockHash": "0x9fd0603378c33e8babbb8a92331ad35bc59290e72bf04066eee855006ae20070",
      "blockNumber": "0x41092fd",
      "gasUsed": "0x8d05",
      "effectiveGasPrice": "0x5f5e100",
      "from": "0xb73ebe02d3a29d61cb3ee87a3eede73cb1a3c725",
      "to": "0x15ab97353bfb6c6f07b3354a2ea1615eb2f45941",
      "contractAddress": null
    },
    {
      "status": "0x1",
      "cumulativeGasUsed": "0x3787d",
      "logs": [
        {
          "address": "0x1cd44ec6cfb99132531793a397220c84216c5eed",
          "topics": [
            "0xddf252ad1be2c89b69c2b068fc378daa952ba7f163c4a11628f55a4df523b3ef",
            "0x0000000000000000000000000000000000000000000000000000000000000000",
            "0x000000000000000000000000b73ebe02d3a29d61cb3ee87a3eede73cb1a3c725"
          ],
          "data": "0x00000000000000000000000000000000000000000000025551b46c3ffaeaffb8",
          "blockHash": "0x9fd0603378c33e8babbb8a92331ad35bc59290e72bf04066eee855006ae20070",
          "blockNumber": "0x41092fd",
          "transactionHash": "0xe35b91f77d1da7edffcf38fc19389e1c7cc54035169800ffaf0f2ccd99803715",
          "transactionIndex": "0x6",
          "logIndex": "0x6",
          "removed": false
        }
      ],
      "logsBloom": "0x00000000000000000000000000008000000000000000000000000000000000000000000000000000000000000000000000000000000000000000000000000000000000000040000000000008000000000000000000000000000000000000000000000000020000022000000000010800000000000000000000000010000000000000000000000000000000000000000000000020000000000000000000000000000000000000000000000000000000000000000000000000000000000000000000000002000000000000000000000000000000000000000000000000000020000000000000000000000000000000000000000000000000000000000000000000",
      "type": "0x2",
      "transactionHash": "0xe35b91f77d1da7edffcf38fc19389e1c7cc54035169800ffaf0f2ccd99803715",
      "transactionIndex": "0x6",
      "blockHash": "0x9fd0603378c33e8babbb8a92331ad35bc59290e72bf04066eee855006ae20070",
      "blockNumber": "0x41092fd",
      "gasUsed": "0x8d11",
      "effectiveGasPrice": "0x5f5e100",
      "from": "0xb73ebe02d3a29d61cb3ee87a3eede73cb1a3c725",
      "to": "0x1cd44ec6cfb99132531793a397220c84216c5eed",
      "contractAddress": null
    },
    {
      "status": "0x1",
      "cumulativeGasUsed": "0x4059a",
      "logs": [
        {
          "address": "0xbe1bf5c613c64b2a5f2ded08b4a26dd2082fa2cb",
          "topics": [
            "0xddf252ad1be2c89b69c2b068fc378daa952ba7f163c4a11628f55a4df523b3ef",
            "0x0000000000000000000000000000000000000000000000000000000000000000",
            "0x000000000000000000000000b73ebe02d3a29d61cb3ee87a3eede73cb1a3c725"
          ],
          "data": "0x0000000000000000000000000000000000000000003250e5fd8cd3511b41c124",
          "blockHash": "0x9fd0603378c33e8babbb8a92331ad35bc59290e72bf04066eee855006ae20070",
          "blockNumber": "0x41092fd",
          "transactionHash": "0x034096c6ef1f1e1e921f73b2430ab862a0d31d76bcc8a7f6f44e15608bd7e5a4",
          "transactionIndex": "0x7",
          "logIndex": "0x7",
          "removed": false
        }
      ],
      "logsBloom": "0x00000000000000000000000000008000000000000000000000000000000000000000000000000000000000000000000000000000000110000000000000000020000000000040000000000008000000000000000000000000000000000000000000000000020000002000000000000800000000000000000000000010000000000000000000000000000000000000000000000000000000000000000000000000000000000000000000000000000000000000000000000000000000000000000000000002000000000000000000000000000000000000000000000000000020000000000000000000000000000000000000000000000000000000000000000000",
      "type": "0x2",
      "transactionHash": "0x034096c6ef1f1e1e921f73b2430ab862a0d31d76bcc8a7f6f44e15608bd7e5a4",
      "transactionIndex": "0x7",
      "blockHash": "0x9fd0603378c33e8babbb8a92331ad35bc59290e72bf04066eee855006ae20070",
      "blockNumber": "0x41092fd",
      "gasUsed": "0x8d1d",
      "effectiveGasPrice": "0x5f5e100",
      "from": "0xb73ebe02d3a29d61cb3ee87a3eede73cb1a3c725",
      "to": "0xbe1bf5c613c64b2a5f2ded08b4a26dd2082fa2cb",
      "contractAddress": null
    },
    {
      "status": "0x1",
      "cumulativeGasUsed": "0x492ab",
      "logs": [
        {
          "address": "0x1ab580a59da516f068f43efcac10cc33862a7e88",
          "topics": [
            "0xddf252ad1be2c89b69c2b068fc378daa952ba7f163c4a11628f55a4df523b3ef",
            "0x0000000000000000000000000000000000000000000000000000000000000000",
            "0x000000000000000000000000b73ebe02d3a29d61cb3ee87a3eede73cb1a3c725"
          ],
          "data": "0x000000000000000000000000000000000000000000001244c5365f5195782246",
          "blockHash": "0x9fd0603378c33e8babbb8a92331ad35bc59290e72bf04066eee855006ae20070",
          "blockNumber": "0x41092fd",
          "transactionHash": "0x894198a75f4c3c4a408d10596fbc45a1313958d41021ae8d103280049c27cd48",
          "transactionIndex": "0x8",
          "logIndex": "0x8",
          "removed": false
        }
      ],
      "logsBloom": "0x00000000000000000000000000008000000000000000000000000000000000000000000000000000000000000000000000000000000000000000000000000000000000000040000000000008000000400000000000000000000000000000000000000000020000002000000000000800000000000000000000000010000000000000000000000000000000000000000000000000000000000000000000000000000000000000000000000004000000000000000000000000000000000000000000000002000000000000000000000000000000000000000000000000000020000000000000000400000000000000000000000000000000000000000000000000",
      "type": "0x2",
      "transactionHash": "0x894198a75f4c3c4a408d10596fbc45a1313958d41021ae8d103280049c27cd48",
      "transactionIndex": "0x8",
      "blockHash": "0x9fd0603378c33e8babbb8a92331ad35bc59290e72bf04066eee855006ae20070",
      "blockNumber": "0x41092fd",
      "gasUsed": "0x8d11",
      "effectiveGasPrice": "0x5f5e100",
      "from": "0xb73ebe02d3a29d61cb3ee87a3eede73cb1a3c725",
      "to": "0x1ab580a59da516f068f43efcac10cc33862a7e88",
      "contractAddress": null
    },
    {
      "status": "0x1",
      "cumulativeGasUsed": "0x5049c",
      "logs": [
        {
          "address": "0xe364204ad025bbcdff6dcb4291f89f532b0a8c35",
          "topics": [
            "0x8c5be1e5ebec7d5bd14f71427d1e84f3dd0314c0f7b2291e5b200ac8c7c3b925",
            "0x000000000000000000000000b73ebe02d3a29d61cb3ee87a3eede73cb1a3c725",
            "0x000000000000000000000000427bf5b37357632377ecbec9de3626c71a5396c1"
          ],
          "data": "0xffffffffffffffffffffffffffffffffffffffffffffffffffffffffffffffff",
          "blockHash": "0x9fd0603378c33e8babbb8a92331ad35bc59290e72bf04066eee855006ae20070",
          "blockNumber": "0x41092fd",
          "transactionHash": "0x0e763ddbca335756de1fed4b63650269241a19097ee76077cb586af1e80305db",
          "transactionIndex": "0x9",
          "logIndex": "0x9",
          "removed": false
        }
      ],
      "logsBloom": "0x00000000000000000000000000008000000000000000000000000000000000000000000000000000000000000000000000000000000000000000000000200000000000000040000800000000000000000000000000000000000000000000000000000000000000002000000000000000000000000000000000040000000400000000000000000020000000000001000000000000000000000000000000000000020000000000000000000000000000000000000000000000000000000000000000000000000000400000000000000000000000000000000000000000000000000010000000000000000000000000000000000000000000000000000000000000",
      "type": "0x2",
      "transactionHash": "0x0e763ddbca335756de1fed4b63650269241a19097ee76077cb586af1e80305db",
      "transactionIndex": "0x9",
      "blockHash": "0x9fd0603378c33e8babbb8a92331ad35bc59290e72bf04066eee855006ae20070",
      "blockNumber": "0x41092fd",
      "gasUsed": "0x71f1",
      "effectiveGasPrice": "0x5f5e100",
      "from": "0xb73ebe02d3a29d61cb3ee87a3eede73cb1a3c725",
      "to": "0xe364204ad025bbcdff6dcb4291f89f532b0a8c35",
      "contractAddress": null
    },
    {
      "status": "0x1",
      "cumulativeGasUsed": "0x5768d",
      "logs": [
        {
          "address": "0xfadc475b03e3bd7813a71446369204271a0a9843",
          "topics": [
            "0x8c5be1e5ebec7d5bd14f71427d1e84f3dd0314c0f7b2291e5b200ac8c7c3b925",
            "0x000000000000000000000000b73ebe02d3a29d61cb3ee87a3eede73cb1a3c725",
            "0x000000000000000000000000427bf5b37357632377ecbec9de3626c71a5396c1"
          ],
          "data": "0xffffffffffffffffffffffffffffffffffffffffffffffffffffffffffffffff",
          "blockHash": "0x9fd0603378c33e8babbb8a92331ad35bc59290e72bf04066eee855006ae20070",
          "blockNumber": "0x41092fd",
          "transactionHash": "0x28a34511238b6ed22bef95ffbba7fc3dba102e073fba1d3889cbf2532fe252f5",
          "transactionIndex": "0xa",
          "logIndex": "0xa",
          "removed": false
        }
      ],
      "logsBloom": "0x00000000000000000000000000008000000000000000000000000000000000000000000000000000000000000000000000000000000000000000000000200000000000000040000800000000000000000000000000000000000000000000000000000000000000002000000000000000400000000000000000040000000000000000000000000000000000000001000000000000000000000000000000000000020000000400800000000000000000000000000000000000000000000000000000000000000000000000000000000000000000000000000000000000000000000010000000000000000000000000000000000000000000000000000000000000",
      "type": "0x2",
      "transactionHash": "0x28a34511238b6ed22bef95ffbba7fc3dba102e073fba1d3889cbf2532fe252f5",
      "transactionIndex": "0xa",
      "blockHash": "0x9fd0603378c33e8babbb8a92331ad35bc59290e72bf04066eee855006ae20070",
      "blockNumber": "0x41092fd",
      "gasUsed": "0x71f1",
      "effectiveGasPrice": "0x5f5e100",
      "from": "0xb73ebe02d3a29d61cb3ee87a3eede73cb1a3c725",
      "to": "0xfadc475b03e3bd7813a71446369204271a0a9843",
      "contractAddress": null
    },
    {
      "status": "0x1",
      "cumulativeGasUsed": "0x5e87e",
      "logs": [
        {
          "address": "0x15ab97353bfb6c6f07b3354a2ea1615eb2f45941",
          "topics": [
            "0x8c5be1e5ebec7d5bd14f71427d1e84f3dd0314c0f7b2291e5b200ac8c7c3b925",
            "0x000000000000000000000000b73ebe02d3a29d61cb3ee87a3eede73cb1a3c725",
            "0x000000000000000000000000427bf5b37357632377ecbec9de3626c71a5396c1"
          ],
          "data": "0xffffffffffffffffffffffffffffffffffffffffffffffffffffffffffffffff",
          "blockHash": "0x9fd0603378c33e8babbb8a92331ad35bc59290e72bf04066eee855006ae20070",
          "blockNumber": "0x41092fd",
          "transactionHash": "0x85be368416aa854cd8ba7504b7899dead058ac06abe804e73ae4f7ebe594fe26",
          "transactionIndex": "0xb",
          "logIndex": "0xb",
          "removed": false
        }
      ],
      "logsBloom": "0x00000000000000000000000000008000000000000000000000000000000000000000000000000000000000000000000000000000000000000000000000200000000000000040000800000000000000000000000000000000000000000000000000000004000000002000000000800000000000000000000000040000000000000000000000000000000000000001000000000000000000000000000000000000020000000000000000000000000000000000000000000000000000000000000000000000000000000000000000000000000000000000000000000000000000000010000000000000000200000000000000000000000000000000000000000000",
      "type": "0x2",
      "transactionHash": "0x85be368416aa854cd8ba7504b7899dead058ac06abe804e73ae4f7ebe594fe26",
      "transactionIndex": "0xb",
      "blockHash": "0x9fd0603378c33e8babbb8a92331ad35bc59290e72bf04066eee855006ae20070",
      "blockNumber": "0x41092fd",
      "gasUsed": "0x71f1",
      "effectiveGasPrice": "0x5f5e100",
      "from": "0xb73ebe02d3a29d61cb3ee87a3eede73cb1a3c725",
      "to": "0x15ab97353bfb6c6f07b3354a2ea1615eb2f45941",
      "contractAddress": null
    },
    {
      "status": "0x1",
      "cumulativeGasUsed": "0x65a6f",
      "logs": [
        {
          "address": "0x1cd44ec6cfb99132531793a397220c84216c5eed",
          "topics": [
            "0x8c5be1e5ebec7d5bd14f71427d1e84f3dd0314c0f7b2291e5b200ac8c7c3b925",
            "0x000000000000000000000000b73ebe02d3a29d61cb3ee87a3eede73cb1a3c725",
            "0x000000000000000000000000427bf5b37357632377ecbec9de3626c71a5396c1"
          ],
          "data": "0xffffffffffffffffffffffffffffffffffffffffffffffffffffffffffffffff",
          "blockHash": "0x9fd0603378c33e8babbb8a92331ad35bc59290e72bf04066eee855006ae20070",
          "blockNumber": "0x41092fd",
          "transactionHash": "0x098f60c9755b5251ddded1aa0e4d8ac67c60d44306c4532ce573f2697d57b871",
          "transactionIndex": "0xc",
          "logIndex": "0xc",
          "removed": false
        }
      ],
      "logsBloom": "0x00000000000000000000000000008000000000000000000000000000000000000000000000000000000000000000000000000000000000000000000000200000000000000040000800000000000000000000000000000000000000000000000000000000000000022000000000010000000000000000000000040000000000000000000000000000000000000001000000000020000000000000000000000000020000000000000000000000000000000000000000000000000000000000000000000000000000000000000000000000000000000000000000000000000000000010000000000000000000000000000000000000000000000000000000000000",
      "type": "0x2",
      "transactionHash": "0x098f60c9755b5251ddded1aa0e4d8ac67c60d44306c4532ce573f2697d57b871",
      "transactionIndex": "0xc",
      "blockHash": "0x9fd0603378c33e8babbb8a92331ad35bc59290e72bf04066eee855006ae20070",
      "blockNumber": "0x41092fd",
      "gasUsed": "0x71f1",
      "effectiveGasPrice": "0x5f5e100",
      "from": "0xb73ebe02d3a29d61cb3ee87a3eede73cb1a3c725",
      "to": "0x1cd44ec6cfb99132531793a397220c84216c5eed",
      "contractAddress": null
    },
    {
      "status": "0x1",
      "cumulativeGasUsed": "0x7387f",
      "logs": [
        {
          "address": "0xbe1bf5c613c64b2a5f2ded08b4a26dd2082fa2cb",
          "topics": [
            "0x8c5be1e5ebec7d5bd14f71427d1e84f3dd0314c0f7b2291e5b200ac8c7c3b925",
            "0x000000000000000000000000b73ebe02d3a29d61cb3ee87a3eede73cb1a3c725",
            "0x000000000000000000000000427bf5b37357632377ecbec9de3626c71a5396c1"
          ],
          "data": "0xffffffffffffffffffffffffffffffffffffffffffffffffffffffffffffffff",
          "blockHash": "0x9fd0603378c33e8babbb8a92331ad35bc59290e72bf04066eee855006ae20070",
          "blockNumber": "0x41092fd",
          "transactionHash": "0x94a754181ace59c38d1be01349d510a0ae8ca41e700f7cf5cb77d11f643c441f",
          "transactionIndex": "0xe",
          "logIndex": "0xe",
          "removed": false
        }
      ],
      "logsBloom": "0x00000000000000000000000000008000000000000000000000000000000000000000000000000000000000000000000000000000000110000000000000200020000000000040000800000000000000000000000000000000000000000000000000000000000000002000000000000000000000000000000000040000000000000000000000000000000000000001000000000000000000000000000000000000020000000000000000000000000000000000000000000000000000000000000000000000000000000000000000000000000000000000000000000000000000000010000000000000000000000000000000000000000000000000000000000000",
      "type": "0x2",
      "transactionHash": "0x94a754181ace59c38d1be01349d510a0ae8ca41e700f7cf5cb77d11f643c441f",
      "transactionIndex": "0xe",
      "blockHash": "0x9fd0603378c33e8babbb8a92331ad35bc59290e72bf04066eee855006ae20070",
      "blockNumber": "0x41092fd",
      "gasUsed": "0x71f1",
      "effectiveGasPrice": "0x5f5e100",
      "from": "0xb73ebe02d3a29d61cb3ee87a3eede73cb1a3c725",
      "to": "0xbe1bf5c613c64b2a5f2ded08b4a26dd2082fa2cb",
      "contractAddress": null
    },
    {
      "status": "0x1",
      "cumulativeGasUsed": "0x7aa70",
      "logs": [
        {
          "address": "0x1ab580a59da516f068f43efcac10cc33862a7e88",
          "topics": [
            "0x8c5be1e5ebec7d5bd14f71427d1e84f3dd0314c0f7b2291e5b200ac8c7c3b925",
            "0x000000000000000000000000b73ebe02d3a29d61cb3ee87a3eede73cb1a3c725",
            "0x000000000000000000000000427bf5b37357632377ecbec9de3626c71a5396c1"
          ],
          "data": "0xffffffffffffffffffffffffffffffffffffffffffffffffffffffffffffffff",
          "blockHash": "0x9fd0603378c33e8babbb8a92331ad35bc59290e72bf04066eee855006ae20070",
          "blockNumber": "0x41092fd",
          "transactionHash": "0x393eec61f3991d8f7f19fa92574be10580bbc97ec177a35a802c795be62ef970",
          "transactionIndex": "0xf",
          "logIndex": "0xf",
          "removed": false
        }
      ],
      "logsBloom": "0x00000000000000000000000000008000000000000000000000000000000000000000000000000000000000000000000000000000000000000000000000200000000000000040000800000000000000400000000000000000000000000000000000000000000000002000000000000000000000000000000000040000000000000000000000000000000000000001000000000000000000000000000000000000020000000000000000000004000000000000000000000000000000000000000000000000000000000000000000000000000000000000000000000000000000000010000000000400000000000000000000000000000000000000000000000000",
      "type": "0x2",
      "transactionHash": "0x393eec61f3991d8f7f19fa92574be10580bbc97ec177a35a802c795be62ef970",
      "transactionIndex": "0xf",
      "blockHash": "0x9fd0603378c33e8babbb8a92331ad35bc59290e72bf04066eee855006ae20070",
      "blockNumber": "0x41092fd",
      "gasUsed": "0x71f1",
      "effectiveGasPrice": "0x5f5e100",
      "from": "0xb73ebe02d3a29d61cb3ee87a3eede73cb1a3c725",
      "to": "0x1ab580a59da516f068f43efcac10cc33862a7e88",
      "contractAddress": null
    },
    {
      "status": "0x1",
      "cumulativeGasUsed": "0xe31c3",
      "logs": [
        {
          "address": "0xfadc475b03e3bd7813a71446369204271a0a9843",
          "topics": [
            "0xddf252ad1be2c89b69c2b068fc378daa952ba7f163c4a11628f55a4df523b3ef",
            "0x000000000000000000000000b73ebe02d3a29d61cb3ee87a3eede73cb1a3c725",
            "0x0000000000000000000000005b57e2f915e4463f732dd787a04e8235dae2e61a"
          ],
          "data": "0x000000000000000000000000000000000000000000000407d5d65188e34a7d51",
          "blockHash": "0x9fd0603378c33e8babbb8a92331ad35bc59290e72bf04066eee855006ae20070",
          "blockNumber": "0x41092fd",
          "transactionHash": "0x9dd9e307092b02b1628f597936014a87816945490e7ffa3344e90a5da8107825",
          "transactionIndex": "0x10",
          "logIndex": "0x10",
          "removed": false
        },
        {
          "address": "0x5b57e2f915e4463f732dd787a04e8235dae2e61a",
          "topics": [
            "0x7a53080ba414158be7ec69b987b5fb7d07dee101fe85488f0853ae16239d0bde",
            "0x000000000000000000000000427bf5b37357632377ecbec9de3626c71a5396c1",
            "0xffffffffffffffffffffffffffffffffffffffffffffffffffffffffffffec78",
            "0x0000000000000000000000000000000000000000000000000000000000002710"
          ],
          "data": "0x000000000000000000000000427bf5b37357632377ecbec9de3626c71a5396c10000000000000000000000000000000000000000000004a23209fbb49c6d97d10000000000000000000000000000000000000000000000000000000000000000000000000000000000000000000000000000000000000407d5d65188e34a7d51",
          "blockHash": "0x9fd0603378c33e8babbb8a92331ad35bc59290e72bf04066eee855006ae20070",
          "blockNumber": "0x41092fd",
          "transactionHash": "0x9dd9e307092b02b1628f597936014a87816945490e7ffa3344e90a5da8107825",
          "transactionIndex": "0x10",
          "logIndex": "0x11",
          "removed": false
        },
        {
          "address": "0x427bf5b37357632377ecbec9de3626c71a5396c1",
          "topics": [
            "0xddf252ad1be2c89b69c2b068fc378daa952ba7f163c4a11628f55a4df523b3ef",
            "0x0000000000000000000000000000000000000000000000000000000000000000",
            "0x000000000000000000000000b73ebe02d3a29d61cb3ee87a3eede73cb1a3c725",
            "0x0000000000000000000000000000000000000000000000000000000000006068"
          ],
          "data": "0x",
          "blockHash": "0x9fd0603378c33e8babbb8a92331ad35bc59290e72bf04066eee855006ae20070",
          "blockNumber": "0x41092fd",
          "transactionHash": "0x9dd9e307092b02b1628f597936014a87816945490e7ffa3344e90a5da8107825",
          "transactionIndex": "0x10",
          "logIndex": "0x12",
          "removed": false
        },
        {
          "address": "0x427bf5b37357632377ecbec9de3626c71a5396c1",
          "topics": [
            "0x3067048beee31b25b2f1681f88dac838c8bba36af25bfb2b7cf7473a5847e35f",
            "0x0000000000000000000000000000000000000000000000000000000000006068"
          ],
          "data": "0x0000000000000000000000000000000000000000000004a23209fbb49c6d97d10000000000000000000000000000000000000000000000000000000000000000000000000000000000000000000000000000000000000407d5d65188e34a7d51",
          "blockHash": "0x9fd0603378c33e8babbb8a92331ad35bc59290e72bf04066eee855006ae20070",
          "blockNumber": "0x41092fd",
          "transactionHash": "0x9dd9e307092b02b1628f597936014a87816945490e7ffa3344e90a5da8107825",
          "transactionIndex": "0x10",
          "logIndex": "0x13",
          "removed": false
        }
      ],
      "logsBloom": "0x00000000000000010100100040008000000000000000000000000000000000000000000000000000000000000000000000002000000000000400000000000000000000000040000800040008800000000000000000000040000000000000000000000000020000002000000000000800400040000800000000040010000000000000000008000000000000000001088000000010000000000000004000000000000000000400800000000000001000000000000000000000001000000000000000000002000000000000480040000000000000000000000000000000000020000000000000000000000000000000010400000000000000000000000000000800",
      "type": "0x2",
      "transactionHash": "0x9dd9e307092b02b1628f597936014a87816945490e7ffa3344e90a5da8107825",
      "transactionIndex": "0x10",
      "blockHash": "0x9fd0603378c33e8babbb8a92331ad35bc59290e72bf04066eee855006ae20070",
      "blockNumber": "0x41092fd",
      "gasUsed": "0x68753",
      "effectiveGasPrice": "0x5f5e100",
      "from": "0xb73ebe02d3a29d61cb3ee87a3eede73cb1a3c725",
      "to": "0x427bf5b37357632377ecbec9de3626c71a5396c1",
      "contractAddress": null
    },
    {
      "status": "0x1",
      "cumulativeGasUsed": "0x14b521",
      "logs": [
        {
          "address": "0x15ab97353bfb6c6f07b3354a2ea1615eb2f45941",
          "topics": [
            "0xddf252ad1be2c89b69c2b068fc378daa952ba7f163c4a11628f55a4df523b3ef",
            "0x000000000000000000000000b73ebe02d3a29d61cb3ee87a3eede73cb1a3c725",
            "0x0000000000000000000000008c9004dcaf0ddeac935a173ac1763935c5d2b0fb"
          ],
          "data": "0x00000000000000000000000000000000000000000000000b1b03630a3ecf8ff1",
          "blockHash": "0x9fd0603378c33e8babbb8a92331ad35bc59290e72bf04066eee855006ae20070",
          "blockNumber": "0x41092fd",
          "transactionHash": "0xb1ffa74433895e9f42f1490cca087809f46e27dad08bcb4502176668781f1f4b",
          "transactionIndex": "0x11",
          "logIndex": "0x14",
          "removed": false
        },
        {
          "address": "0x8c9004dcaf0ddeac935a173ac1763935c5d2b0fb",
          "topics": [
            "0x7a53080ba414158be7ec69b987b5fb7d07dee101fe85488f0853ae16239d0bde",
            "0x000000000000000000000000427bf5b37357632377ecbec9de3626c71a5396c1",
            "0xffffffffffffffffffffffffffffffffffffffffffffffffffffffffffffec78",
            "0x0000000000000000000000000000000000000000000000000000000000002710"
          ],
          "data": "0x000000000000000000000000427bf5b37357632377ecbec9de3626c71a5396c1000000000000000000000000000000000000000000000010648e27f3bc97c7a300000000000000000000000000000000000000000000000b1b03630a3ecf8ff10000000000000000000000000000000000000000000000000000000000000000",
          "blockHash": "0x9fd0603378c33e8babbb8a92331ad35bc59290e72bf04066eee855006ae20070",
          "blockNumber": "0x41092fd",
          "transactionHash": "0xb1ffa74433895e9f42f1490cca087809f46e27dad08bcb4502176668781f1f4b",
          "transactionIndex": "0x11",
          "logIndex": "0x15",
          "removed": false
        },
        {
          "address": "0x427bf5b37357632377ecbec9de3626c71a5396c1",
          "topics": [
            "0xddf252ad1be2c89b69c2b068fc378daa952ba7f163c4a11628f55a4df523b3ef",
            "0x0000000000000000000000000000000000000000000000000000000000000000",
            "0x000000000000000000000000b73ebe02d3a29d61cb3ee87a3eede73cb1a3c725",
            "0x0000000000000000000000000000000000000000000000000000000000006069"
          ],
          "data": "0x",
          "blockHash": "0x9fd0603378c33e8babbb8a92331ad35bc59290e72bf04066eee855006ae20070",
          "blockNumber": "0x41092fd",
          "transactionHash": "0xb1ffa74433895e9f42f1490cca087809f46e27dad08bcb4502176668781f1f4b",
          "transactionIndex": "0x11",
          "logIndex": "0x16",
          "removed": false
        },
        {
          "address": "0x427bf5b37357632377ecbec9de3626c71a5396c1",
          "topics": [
            "0x3067048beee31b25b2f1681f88dac838c8bba36af25bfb2b7cf7473a5847e35f",
            "0x0000000000000000000000000000000000000000000000000000000000006069"
          ],
          "data": "0x000000000000000000000000000000000000000000000010648e27f3bc97c7a300000000000000000000000000000000000000000000000b1b03630a3ecf8ff10000000000000000000000000000000000000000000000000000000000000000",
          "blockHash": "0x9fd0603378c33e8babbb8a92331ad35bc59290e72bf04066eee855006ae20070",
          "blockNumber": "0x41092fd",
          "transactionHash": "0xb1ffa74433895e9f42f1490cca087809f46e27dad08bcb4502176668781f1f4b",
          "transactionIndex": "0x11",
          "logIndex": "0x17",
          "removed": false
        }
      ],
      "logsBloom": "0x00000400000000010100100000008000000000000000000000000000000000000000000000000000000000000000000000002000000000000400000000010000000000000041220800000008000000000000000020000040000000000000000000000004020000002000000000800800000040000800000000040010000000000000000008000000000000000001008000000010000000000000000000000000000000000000000000000000001000000000000000000000000000000000000000000002000000000000180000000000000000000000000000000000000020000000000000000000000200000000010000000000000000800000000000000800",
      "type": "0x2",
      "transactionHash": "0xb1ffa74433895e9f42f1490cca087809f46e27dad08bcb4502176668781f1f4b",
      "transactionIndex": "0x11",
      "blockHash": "0x9fd0603378c33e8babbb8a92331ad35bc59290e72bf04066eee855006ae20070",
      "blockNumber": "0x41092fd",
      "gasUsed": "0x6835e",
      "effectiveGasPrice": "0x5f5e100",
      "from": "0xb73ebe02d3a29d61cb3ee87a3eede73cb1a3c725",
      "to": "0x427bf5b37357632377ecbec9de3626c71a5396c1",
      "contractAddress": null
    },
    {
      "status": "0x1",
      "cumulativeGasUsed": "0x6836a",
      "logs": [
        {
          "address": "0x1cd44ec6cfb99132531793a397220c84216c5eed",
          "topics": [
            "0xddf252ad1be2c89b69c2b068fc378daa952ba7f163c4a11628f55a4df523b3ef",
            "0x000000000000000000000000b73ebe02d3a29d61cb3ee87a3eede73cb1a3c725",
            "0x000000000000000000000000ad7e45981973026ef7d296aa158836b44379192a"
          ],
          "data": "0x00000000000000000000000000000000000000000000012aa8da361ffd757fdc",
          "blockHash": "0x65b297cc80a4085f0f9446efc615863cdc5ea36d4593b39271fa9e7efefa97c5",
          "blockNumber": "0x41092fe",
          "transactionHash": "0x980df527365485b27bbf662f67f5a43b2e087689417b1daf1e1c615a060f0914",
          "transactionIndex": "0x0",
          "logIndex": "0x0",
          "removed": false
        },
        {
          "address": "0xad7e45981973026ef7d296aa158836b44379192a",
          "topics": [
            "0x7a53080ba414158be7ec69b987b5fb7d07dee101fe85488f0853ae16239d0bde",
            "0x000000000000000000000000427bf5b37357632377ecbec9de3626c71a5396c1",
            "0xffffffffffffffffffffffffffffffffffffffffffffffffffffffffffffec78",
            "0x0000000000000000000000000000000000000000000000000000000000002710"
          ],
          "data": "0x000000000000000000000000427bf5b37357632377ecbec9de3626c71a5396c10000000000000000000000000000000000000000000001b8d983e5e1e2149a3500000000000000000000000000000000000000000000012aa8da361ffd757fdc0000000000000000000000000000000000000000000000000000000000000000",
          "blockHash": "0x65b297cc80a4085f0f9446efc615863cdc5ea36d4593b39271fa9e7efefa97c5",
          "blockNumber": "0x41092fe",
          "transactionHash": "0x980df527365485b27bbf662f67f5a43b2e087689417b1daf1e1c615a060f0914",
          "transactionIndex": "0x0",
          "logIndex": "0x1",
          "removed": false
        },
        {
          "address": "0x427bf5b37357632377ecbec9de3626c71a5396c1",
          "topics": [
            "0xddf252ad1be2c89b69c2b068fc378daa952ba7f163c4a11628f55a4df523b3ef",
            "0x0000000000000000000000000000000000000000000000000000000000000000",
            "0x000000000000000000000000b73ebe02d3a29d61cb3ee87a3eede73cb1a3c725",
            "0x000000000000000000000000000000000000000000000000000000000000606a"
          ],
          "data": "0x",
          "blockHash": "0x65b297cc80a4085f0f9446efc615863cdc5ea36d4593b39271fa9e7efefa97c5",
          "blockNumber": "0x41092fe",
          "transactionHash": "0x980df527365485b27bbf662f67f5a43b2e087689417b1daf1e1c615a060f0914",
          "transactionIndex": "0x0",
          "logIndex": "0x2",
          "removed": false
        },
        {
          "address": "0x427bf5b37357632377ecbec9de3626c71a5396c1",
          "topics": [
            "0x3067048beee31b25b2f1681f88dac838c8bba36af25bfb2b7cf7473a5847e35f",
            "0x000000000000000000000000000000000000000000000000000000000000606a"
          ],
          "data": "0x0000000000000000000000000000000000000000000001b8d983e5e1e2149a3500000000000000000000000000000000000000000000012aa8da361ffd757fdc0000000000000000000000000000000000000000000000000000000000000000",
          "blockHash": "0x65b297cc80a4085f0f9446efc615863cdc5ea36d4593b39271fa9e7efefa97c5",
          "blockNumber": "0x41092fe",
          "transactionHash": "0x980df527365485b27bbf662f67f5a43b2e087689417b1daf1e1c615a060f0914",
          "transactionIndex": "0x0",
          "logIndex": "0x3",
          "removed": false
        }
      ],
      "logsBloom": "0x00000000000000010100100000008000080000000000000000000000000000000000000000000000000000000000000000002000000000000400000000000000000000000040000800000008000000000000000000000040000000800000000000000010020040022000000000010800000040000800000000040010000000000000000008000000000000000001008000000030000000000000000000000000000000000000000080000000001000000000400000000000000000000000000000000102000000000000080000000000000000000000000000000000000020000000000000000000000000002000010000000000000000000000000004000800",
      "type": "0x2",
      "transactionHash": "0x980df527365485b27bbf662f67f5a43b2e087689417b1daf1e1c615a060f0914",
      "transactionIndex": "0x0",
      "blockHash": "0x65b297cc80a4085f0f9446efc615863cdc5ea36d4593b39271fa9e7efefa97c5",
      "blockNumber": "0x41092fe",
      "gasUsed": "0x6836a",
      "effectiveGasPrice": "0x5f5e100",
      "from": "0xb73ebe02d3a29d61cb3ee87a3eede73cb1a3c725",
      "to": "0x427bf5b37357632377ecbec9de3626c71a5396c1",
      "contractAddress": null
    },
    {
      "status": "0x1",
      "cumulativeGasUsed": "0xd82f2",
      "logs": [
        {
          "address": "0xbe1bf5c613c64b2a5f2ded08b4a26dd2082fa2cb",
          "topics": [
            "0xddf252ad1be2c89b69c2b068fc378daa952ba7f163c4a11628f55a4df523b3ef",
            "0x000000000000000000000000b73ebe02d3a29d61cb3ee87a3eede73cb1a3c725",
            "0x000000000000000000000000de40e85e517bb99db0de0d2d17e7a13d63bf0319"
          ],
          "data": "0x0000000000000000000000000000000000000000001324ae220abc52b4df7cb7",
          "blockHash": "0x65b297cc80a4085f0f9446efc615863cdc5ea36d4593b39271fa9e7efefa97c5",
          "blockNumber": "0x41092fe",
          "transactionHash": "0x8130f208b44470b5b027565fc387c20ee9bf9f8ee17b315fcd9250f3d35174f9",
          "transactionIndex": "0x1",
          "logIndex": "0x4",
          "removed": false
        },
        {
          "address": "0xe364204ad025bbcdff6dcb4291f89f532b0a8c35",
          "topics": [
            "0xddf252ad1be2c89b69c2b068fc378daa952ba7f163c4a11628f55a4df523b3ef",
            "0x000000000000000000000000b73ebe02d3a29d61cb3ee87a3eede73cb1a3c725",
            "0x000000000000000000000000de40e85e517bb99db0de0d2d17e7a13d63bf0319"
          ],
          "data": "0x00000000000000000000000000000000000000000014adf4b7320334b9000000",
          "blockHash": "0x65b297cc80a4085f0f9446efc615863cdc5ea36d4593b39271fa9e7efefa97c5",
          "blockNumber": "0x41092fe",
          "transactionHash": "0x8130f208b44470b5b027565fc387c20ee9bf9f8ee17b315fcd9250f3d35174f9",
          "transactionIndex": "0x1",
          "logIndex": "0x5",
          "removed": false
        },
        {
          "address": "0xde40e85e517bb99db0de0d2d17e7a13d63bf0319",
          "topics": [
            "0x7a53080ba414158be7ec69b987b5fb7d07dee101fe85488f0853ae16239d0bde",
            "0x000000000000000000000000427bf5b37357632377ecbec9de3626c71a5396c1",
            "0xffffffffffffffffffffffffffffffffffffffffffffffffffffffffffffec78",
            "0x0000000000000000000000000000000000000000000000000000000000002710"
          ],
          "data": "0x000000000000000000000000427bf5b37357632377ecbec9de3626c71a5396c10000000000000000000000000000000000000000003fcacaa5f1cf8fe51e39c90000000000000000000000000000000000000000001324ae220abc52b4df7cb700000000000000000000000000000000000000000014adf4b7320334b9000000",
          "blockHash": "0x65b297cc80a4085f0f9446efc615863cdc5ea36d4593b39271fa9e7efefa97c5",
          "blockNumber": "0x41092fe",
          "transactionHash": "0x8130f208b44470b5b027565fc387c20ee9bf9f8ee17b315fcd9250f3d35174f9",
          "transactionIndex": "0x1",
          "logIndex": "0x6",
          "removed": false
        },
        {
          "address": "0x427bf5b37357632377ecbec9de3626c71a5396c1",
          "topics": [
            "0xddf252ad1be2c89b69c2b068fc378daa952ba7f163c4a11628f55a4df523b3ef",
            "0x0000000000000000000000000000000000000000000000000000000000000000",
            "0x000000000000000000000000b73ebe02d3a29d61cb3ee87a3eede73cb1a3c725",
            "0x000000000000000000000000000000000000000000000000000000000000606b"
          ],
          "data": "0x",
          "blockHash": "0x65b297cc80a4085f0f9446efc615863cdc5ea36d4593b39271fa9e7efefa97c5",
          "blockNumber": "0x41092fe",
          "transactionHash": "0x8130f208b44470b5b027565fc387c20ee9bf9f8ee17b315fcd9250f3d35174f9",
          "transactionIndex": "0x1",
          "logIndex": "0x7",
          "removed": false
        },
        {
          "address": "0x427bf5b37357632377ecbec9de3626c71a5396c1",
          "topics": [
            "0x3067048beee31b25b2f1681f88dac838c8bba36af25bfb2b7cf7473a5847e35f",
            "0x000000000000000000000000000000000000000000000000000000000000606b"
          ],
          "data": "0x0000000000000000000000000000000000000000003fcacaa5f1cf8fe51e39c90000000000000000000000000000000000000000001324ae220abc52b4df7cb700000000000000000000000000000000000000000014adf4b7320334b9000000",
          "blockHash": "0x65b297cc80a4085f0f9446efc615863cdc5ea36d4593b39271fa9e7efefa97c5",
          "blockNumber": "0x41092fe",
          "transactionHash": "0x8130f208b44470b5b027565fc387c20ee9bf9f8ee17b315fcd9250f3d35174f9",
          "transactionIndex": "0x1",
          "logIndex": "0x8",
          "removed": false
        }
      ],
      "logsBloom": "0x00000000000000010100100004008000000000000000000000000000000000000000000000000000000000000000000000002000000110000400100000000020000000000040000800000008000000000000000000000040001000000000000000000000030000002000002000000800000040000820000000040010000400000000000008000020000000000001008000000010000000000000000000000000000000000000000000000000001000000000000000000000000000000000000000000002000000400000080000000000000000000000000000000000000020000000000000000000000000400000010000000008000000000001000000000800",
      "type": "0x2",
      "transactionHash": "0x8130f208b44470b5b027565fc387c20ee9bf9f8ee17b315fcd9250f3d35174f9",
      "transactionIndex": "0x1",
      "blockHash": "0x65b297cc80a4085f0f9446efc615863cdc5ea36d4593b39271fa9e7efefa97c5",
      "blockNumber": "0x41092fe",
      "gasUsed": "0x6ff88",
      "effectiveGasPrice": "0x5f5e100",
      "from": "0xb73ebe02d3a29d61cb3ee87a3eede73cb1a3c725",
      "to": "0x427bf5b37357632377ecbec9de3626c71a5396c1",
      "contractAddress": null
    },
    {
      "status": "0x1",
      "cumulativeGasUsed": "0x14065c",
      "logs": [
        {
          "address": "0x1ab580a59da516f068f43efcac10cc33862a7e88",
          "topics": [
            "0xddf252ad1be2c89b69c2b068fc378daa952ba7f163c4a11628f55a4df523b3ef",
            "0x000000000000000000000000b73ebe02d3a29d61cb3ee87a3eede73cb1a3c725",
            "0x000000000000000000000000f0e84c2dda797cd9ab7b206a7cdd4acc3cabadcf"
          ],
          "data": "0x000000000000000000000000000000000000000000000922629b2fa8cabc1123",
          "blockHash": "0x65b297cc80a4085f0f9446efc615863cdc5ea36d4593b39271fa9e7efefa97c5",
          "blockNumber": "0x41092fe",
          "transactionHash": "0x10e3a22705f0c57f1a8d00068d76d3dac5535cc8c1b935cb6832feb24c3eb6cd",
          "transactionIndex": "0x2",
          "logIndex": "0x9",
          "removed": false
        },
        {
          "address": "0xf0e84c2dda797cd9ab7b206a7cdd4acc3cabadcf",
          "topics": [
            "0x7a53080ba414158be7ec69b987b5fb7d07dee101fe85488f0853ae16239d0bde",
            "0x000000000000000000000000427bf5b37357632377ecbec9de3626c71a5396c1",
            "0xffffffffffffffffffffffffffffffffffffffffffffffffffffffffffffec78",
            "0x0000000000000000000000000000000000000000000000000000000000002710"
          ],
          "data": "0x000000000000000000000000427bf5b37357632377ecbec9de3626c71a5396c1000000000000000000000000000000000000000000000d7bad40a33abea23e8a000000000000000000000000000000000000000000000922629b2fa8cabc11230000000000000000000000000000000000000000000000000000000000000000",
          "blockHash": "0x65b297cc80a4085f0f9446efc615863cdc5ea36d4593b39271fa9e7efefa97c5",
          "blockNumber": "0x41092fe",
          "transactionHash": "0x10e3a22705f0c57f1a8d00068d76d3dac5535cc8c1b935cb6832feb24c3eb6cd",
          "transactionIndex": "0x2",
          "logIndex": "0xa",
          "removed": false
        },
        {
          "address": "0x427bf5b37357632377ecbec9de3626c71a5396c1",
          "topics": [
            "0xddf252ad1be2c89b69c2b068fc378daa952ba7f163c4a11628f55a4df523b3ef",
            "0x0000000000000000000000000000000000000000000000000000000000000000",
            "0x000000000000000000000000b73ebe02d3a29d61cb3ee87a3eede73cb1a3c725",
            "0x000000000000000000000000000000000000000000000000000000000000606c"
          ],
          "data": "0x",
          "blockHash": "0x65b297cc80a4085f0f9446efc615863cdc5ea36d4593b39271fa9e7efefa97c5",
          "blockNumber": "0x41092fe",
          "transactionHash": "0x10e3a22705f0c57f1a8d00068d76d3dac5535cc8c1b935cb6832feb24c3eb6cd",
          "transactionIndex": "0x2",
          "logIndex": "0xb",
          "removed": false
        },
        {
          "address": "0x427bf5b37357632377ecbec9de3626c71a5396c1",
          "topics": [
            "0x3067048beee31b25b2f1681f88dac838c8bba36af25bfb2b7cf7473a5847e35f",
            "0x000000000000000000000000000000000000000000000000000000000000606c"
          ],
          "data": "0x000000000000000000000000000000000000000000000d7bad40a33abea23e8a000000000000000000000000000000000000000000000922629b2fa8cabc11230000000000000000000000000000000000000000000000000000000000000000",
          "blockHash": "0x65b297cc80a4085f0f9446efc615863cdc5ea36d4593b39271fa9e7efefa97c5",
          "blockNumber": "0x41092fe",
          "transactionHash": "0x10e3a22705f0c57f1a8d00068d76d3dac5535cc8c1b935cb6832feb24c3eb6cd",
          "transactionIndex": "0x2",
          "logIndex": "0xc",
          "removed": false
        }
      ],
      "logsBloom": "0x00020000400000010100100000108001000000000002000000000000000000000000000000000000000000000000000000002000000000000400000000000000000000000040000800000008000000400000000000000040000000000000000000000000020000002000000000000800008040000804000000040010000000000000000008000000000000000003008000000010000000000000000000000000000000000000040000000004001000000000000000000000000000000000000000000002000000000000080000000000000000000000000000000000000020000000000000000400000000000000010000000000000000000000000000000800",
      "type": "0x2",
      "transactionHash": "0x10e3a22705f0c57f1a8d00068d76d3dac5535cc8c1b935cb6832feb24c3eb6cd",
      "transactionIndex": "0x2",
      "blockHash": "0x65b297cc80a4085f0f9446efc615863cdc5ea36d4593b39271fa9e7efefa97c5",
      "blockNumber": "0x41092fe",
      "gasUsed": "0x6836a",
      "effectiveGasPrice": "0x5f5e100",
      "from": "0xb73ebe02d3a29d61cb3ee87a3eede73cb1a3c725",
      "to": "0x427bf5b37357632377ecbec9de3626c71a5396c1",
      "contractAddress": null
    }
  ],
  "libraries": [],
  "pending": [],
  "returns": {},
  "timestamp": 1759991942065,
  "chain": 97,
  "commit": "2b7982d"
}