{
  "transactions": [
    {
      "hash": "0x34ed235ac7c5e539a808dcef8fc628956b7ed6633292b7b20554dec62464b73c",
      "transactionType": "CALL",
      "contractName": null,
      "contractAddress": "0x959922be3caee4b8cd9a407cc3ac1c251c2007b1",
      "function": "setBaseFeeUsdc(uint256)",
      "arguments": [
        "10000000"
      ],
      "transaction": {
        "from": "0xf39fd6e51aad88f6f4ce6ab8827279cfffb92266",
        "to": "0x959922be3caee4b8cd9a407cc3ac1c251c2007b1",
        "gas": "0xa953",
        "value": "0x0",
        "input": "0x125e60210000000000000000000000000000000000000000000000000000000000989680",
        "nonce": "0x13",
        "chainId": "0x7a69"
      },
      "additionalContracts": [],
      "isFixedGasLimit": false
    },
    {
      "hash": "0xd2d6846be5d46f08d07eed6e87958fb873432ea787e0bf573dd139b6cc42905d",
      "transactionType": "CALL",
      "contractName": null,
      "contractAddress": "0x959922be3caee4b8cd9a407cc3ac1c251c2007b1",
      "function": "setBaseFeeFocus(uint256)",
      "arguments": [
        "100000000000000000000"
      ],
      "transaction": {
        "from": "0xf39fd6e51aad88f6f4ce6ab8827279cfffb92266",
        "to": "0x959922be3caee4b8cd9a407cc3ac1c251c2007b1",
        "gas": "0xa9b2",
        "value": "0x0",
        "input": "0x314d2e330000000000000000000000000000000000000000000000056bc75e2d63100000",
        "nonce": "0x14",
        "chainId": "0x7a69"
      },
      "additionalContracts": [],
      "isFixedGasLimit": false
    }
  ],
  "receipts": [
    {
      "status": "0x1",
      "cumulativeGasUsed": "0x7a97",
      "logs": [
        {
          "address": "0x959922be3caee4b8cd9a407cc3ac1c251c2007b1",
          "topics": [
            "0x12c9dccd129ff783f1c8228eacdfa8e334ddecb7ec5c9a79ec662a4aed3d012a"
          ],
          "data": "0x00000000000000000000000000000000000000000000000000000000000000400000000000000000000000000000000000000000000000000000000000989680000000000000000000000000000000000000000000000000000000000000000b6261736546656555736463000000000000000000000000000000000000000000",
          "blockHash": "0x69f90919778482d469ceb431fea04b16c27e78fa7f6b794214ff5e6da13d4aa7",
          "blockNumber": "0x11",
          "blockTimestamp": "0x68f4892d",
          "transactionHash": "0x34ed235ac7c5e539a808dcef8fc628956b7ed6633292b7b20554dec62464b73c",
          "transactionIndex": "0x0",
          "logIndex": "0x0",
          "removed": false
        }
      ],
      "logsBloom": "0x00000000000000000000000000000000000000000000000000000000000000000000000000000010000000000000000000000000000000000000040000000000000000000000000000000000000000000000000000000000000000000000000000000000000000000020000000000000000000000000000000000000000000000000000000000000000000000000000000000000000000000000000000000000000000000000000000200000000000000000000000000000000000000000000000000000000000000000000000000000000000000000004000000000000000000000000000000000010000000000000000000000000000000000000000000000",
      "type": "0x2",
      "transactionHash": "0x34ed235ac7c5e539a808dcef8fc628956b7ed6633292b7b20554dec62464b73c",
      "transactionIndex": "0x0",
      "blockHash": "0x69f90919778482d469ceb431fea04b16c27e78fa7f6b794214ff5e6da13d4aa7",
      "blockNumber": "0x11",
      "gasUsed": "0x7a97",
      "effectiveGasPrice": "0x828d0c4",
      "blobGasPrice": "0x1",
      "from": "0xf39fd6e51aad88f6f4ce6ab8827279cfffb92266",
      "to": "0x959922be3caee4b8cd9a407cc3ac1c251c2007b1",
      "contractAddress": null
    },
    {
      "status": "0x1",
      "cumulativeGasUsed": "0x7adc",
      "logs": [
        {
          "address": "0x959922be3caee4b8cd9a407cc3ac1c251c2007b1",
          "topics": [
            "0x12c9dccd129ff783f1c8228eacdfa8e334ddecb7ec5c9a79ec662a4aed3d012a"
          ],
          "data": "0x00000000000000000000000000000000000000000000000000000000000000400000000000000000000000000000000000000000000000056bc75e2d63100000000000000000000000000000000000000000000000000000000000000000000c62617365466565466f6375730000000000000000000000000000000000000000",
          "blockHash": "0xe02f5363b5c21e75de33d3d1f8e365f0a9adb1d19408876ef0b9eb563c55a61a",
          "blockNumber": "0x12",
          "blockTimestamp": "0x68f4892d",
          "transactionHash": "0xd2d6846be5d46f08d07eed6e87958fb873432ea787e0bf573dd139b6cc42905d",
          "transactionIndex": "0x0",
          "logIndex": "0x0",
          "removed": false
        }
      ],
      "logsBloom": "0x00000000000000000000000000000000000000000000000000000000000000000000000000000010000000000000000000000000000000000000040000000000000000000000000000000000000000000000000000000000000000000000000000000000000000000020000000000000000000000000000000000000000000000000000000000000000000000000000000000000000000000000000000000000000000000000000000200000000000000000000000000000000000000000000000000000000000000000000000000000000000000000004000000000000000000000000000000000010000000000000000000000000000000000000000000000",
      "type": "0x2",
      "transactionHash": "0xd2d6846be5d46f08d07eed6e87958fb873432ea787e0bf573dd139b6cc42905d",
      "transactionIndex": "0x0",
      "blockHash": "0xe02f5363b5c21e75de33d3d1f8e365f0a9adb1d19408876ef0b9eb563c55a61a",
      "blockNumber": "0x12",
      "gasUsed": "0x7adc",
      "effectiveGasPrice": "0x7244285",
      "blobGasPrice": "0x1",
      "from": "0xf39fd6e51aad88f6f4ce6ab8827279cfffb92266",
      "to": "0x959922be3caee4b8cd9a407cc3ac1c251c2007b1",
      "contractAddress": null
    }
  ],
  "libraries": [],
  "pending": [],
  "returns": {},
  "timestamp": 1760856365359,
  "chain": 31337,
  "commit": "f1f421e"
}