{
  "transactions": [
    {
      "hash": "0x17f24a03cb9c83fd7ef0af076a45fdfe8d00f59b90a5ff80db66eed735639810",
      "transactionType": "CALL",
      "contractName": null,
      "contractAddress": "0x9e545e3c0baab3e08cdfd552c960a1050f373042",
      "function": "setBaseFeeUsdc(uint256)",
      "arguments": [
        "10000000"
      ],
      "transaction": {
        "from": "0xf39fd6e51aad88f6f4ce6ab8827279cfffb92266",
        "to": "0x9e545e3c0baab3e08cdfd552c960a1050f373042",
        "gas": "0xa953",
        "value": "0x0",
        "input": "0x125e60210000000000000000000000000000000000000000000000000000000000989680",
        "nonce": "0x27",
        "chainId": "0x7a69"
      },
      "additionalContracts": [],
      "isFixedGasLimit": false
    },
    {
      "hash": "0x9d96258f570a4a6ada8189991b0afdd911715b0c7160be1c1014567e4edd07ca",
      "transactionType": "CALL",
      "contractName": null,
      "contractAddress": "0x9e545e3c0baab3e08cdfd552c960a1050f373042",
      "function": "setBaseFeeFocus(uint256)",
      "arguments": [
        "100000000000000000000"
      ],
      "transaction": {
        "from": "0xf39fd6e51aad88f6f4ce6ab8827279cfffb92266",
        "to": "0x9e545e3c0baab3e08cdfd552c960a1050f373042",
        "gas": "0xa9b2",
        "value": "0x0",
        "input": "0x314d2e330000000000000000000000000000000000000000000000056bc75e2d63100000",
        "nonce": "0x28",
        "chainId": "0x7a69"
      },
      "additionalContracts": [],
      "isFixedGasLimit": false
    }
  ],
  "receipts": [
    {
      "status": "0x1",
      "cumulativeGasUsed": "0x7a97",
      "logs": [
        {
          "address": "0x9e545e3c0baab3e08cdfd552c960a1050f373042",
          "topics": [
            "0x12c9dccd129ff783f1c8228eacdfa8e334ddecb7ec5c9a79ec662a4aed3d012a"
          ],
          "data": "0x00000000000000000000000000000000000000000000000000000000000000400000000000000000000000000000000000000000000000000000000000989680000000000000000000000000000000000000000000000000000000000000000b6261736546656555736463000000000000000000000000000000000000000000",
          "blockHash": "0x324b1fbba69e55a469d4542bbecbd7d5b3d4c9ea1fd694579f63461b58ca7ac3",
          "blockNumber": "0x26",
          "blockTimestamp": "0x68f48e81",
          "transactionHash": "0x17f24a03cb9c83fd7ef0af076a45fdfe8d00f59b90a5ff80db66eed735639810",
          "transactionIndex": "0x0",
          "logIndex": "0x0",
          "removed": false
        }
      ],
      "logsBloom": "0x00000000000000000000000000000000000000000000000000000000000000000000000000000010000000000000000000000000000000000000040000000000000000000000000000000000000001000000000000000000000000000000000000000000000000000000000000000000000000000000000000000000000000000000000000000000000000040000000000000000000000000000000000000000000000000000000000000000000000000000000000000000000000000000000000000000000000000000000000000000000000000000004000000000000000000000000000000000000000000000000000000000000000000000008000000000",
      "type": "0x2",
      "transactionHash": "0x17f24a03cb9c83fd7ef0af076a45fdfe8d00f59b90a5ff80db66eed735639810",
      "transactionIndex": "0x0",
      "blockHash": "0x324b1fbba69e55a469d4542bbecbd7d5b3d4c9ea1fd694579f63461b58ca7ac3",
      "blockNumber": "0x26",
      "gasUsed": "0x7a97",
      "effectiveGasPrice": "0x892db2",
      "blobGasPrice": "0x1",
      "from": "0xf39fd6e51aad88f6f4ce6ab8827279cfffb92266",
      "to": "0x9e545e3c0baab3e08cdfd552c960a1050f373042",
      "contractAddress": null
    },
    {
      "status": "0x1",
      "cumulativeGasUsed": "0x7adc",
      "logs": [
        {
          "address": "0x9e545e3c0baab3e08cdfd552c960a1050f373042",
          "topics": [
            "0x12c9dccd129ff783f1c8228eacdfa8e334ddecb7ec5c9a79ec662a4aed3d012a"
          ],
          "data": "0x00000000000000000000000000000000000000000000000000000000000000400000000000000000000000000000000000000000000000056bc75e2d63100000000000000000000000000000000000000000000000000000000000000000000c62617365466565466f6375730000000000000000000000000000000000000000",
          "blockHash": "0xa210127fa928086ec54722a7cbd6ca6c4d41e501feb74af2404b45b36329e0f5",
          "blockNumber": "0x27",
          "blockTimestamp": "0x68f48e81",
          "transactionHash": "0x9d96258f570a4a6ada8189991b0afdd911715b0c7160be1c1014567e4edd07ca",
          "transactionIndex": "0x0",
          "logIndex": "0x0",
          "removed": false
        }
      ],
      "logsBloom": "0x00000000000000000000000000000000000000000000000000000000000000000000000000000010000000000000000000000000000000000000040000000000000000000000000000000000000001000000000000000000000000000000000000000000000000000000000000000000000000000000000000000000000000000000000000000000000000040000000000000000000000000000000000000000000000000000000000000000000000000000000000000000000000000000000000000000000000000000000000000000000000000000004000000000000000000000000000000000000000000000000000000000000000000000008000000000",
      "type": "0x2",
      "transactionHash": "0x9d96258f570a4a6ada8189991b0afdd911715b0c7160be1c1014567e4edd07ca",
      "transactionIndex": "0x0",
      "blockHash": "0xa210127fa928086ec54722a7cbd6ca6c4d41e501feb74af2404b45b36329e0f5",
      "blockNumber": "0x27",
      "gasUsed": "0x7adc",
      "effectiveGasPrice": "0x78112c",
      "blobGasPrice": "0x1",
      "from": "0xf39fd6e51aad88f6f4ce6ab8827279cfffb92266",
      "to": "0x9e545e3c0baab3e08cdfd552c960a1050f373042",
      "contractAddress": null
    }
  ],
  "libraries": [],
  "pending": [],
  "returns": {},
  "timestamp": 1760857729553,
  "chain": 31337,
  "commit": "f1f421e"
}