{
  "transactions": [
    {
      "hash": "0x8e527ef7b829d8505892d279ee881e95126e44dcae445bff36cd326880fba471",
      "transactionType": "CALL",
      "contractName": null,
      "contractAddress": "0x9fe46736679d2d9a65f0992f2272de9f3c7fa6e0",
      "function": "setBaseFeeUsdc(uint256)",
      "arguments": [
        "10000000"
      ],
      "transaction": {
        "from": "0xf39fd6e51aad88f6f4ce6ab8827279cfffb92266",
        "to": "0x9fe46736679d2d9a65f0992f2272de9f3c7fa6e0",
        "gas": "0xa953",
        "value": "0x0",
        "input": "0x125e60210000000000000000000000000000000000000000000000000000000000989680",
        "nonce": "0x5",
        "chainId": "0x7a69"
      },
      "additionalContracts": [],
      "isFixedGasLimit": false
    },
    {
      "hash": "0x3ccecff5f74be13d5004f1e2874886d99678a5dbd0980c803c34640ae0ede6b9",
      "transactionType": "CALL",
      "contractName": null,
      "contractAddress": "0x9fe46736679d2d9a65f0992f2272de9f3c7fa6e0",
      "function": "setBaseFeeFocus(uint256)",
      "arguments": [
        "100000000000000000000"
      ],
      "transaction": {
        "from": "0xf39fd6e51aad88f6f4ce6ab8827279cfffb92266",
        "to": "0x9fe46736679d2d9a65f0992f2272de9f3c7fa6e0",
        "gas": "0xa9b2",
        "value": "0x0",
        "input": "0x314d2e330000000000000000000000000000000000000000000000056bc75e2d63100000",
        "nonce": "0x6",
        "chainId": "0x7a69"
      },
      "additionalContracts": [],
      "isFixedGasLimit": false
    }
  ],
  "receipts": [
    {
      "status": "0x1",
      "cumulativeGasUsed": "0x7a97",
      "logs": [
        {
          "address": "0x9fe46736679d2d9a65f0992f2272de9f3c7fa6e0",
          "topics": [
            "0x12c9dccd129ff783f1c8228eacdfa8e334ddecb7ec5c9a79ec662a4aed3d012a"
          ],
          "data": "0x00000000000000000000000000000000000000000000000000000000000000400000000000000000000000000000000000000000000000000000000000989680000000000000000000000000000000000000000000000000000000000000000b6261736546656555736463000000000000000000000000000000000000000000",
          "blockHash": "0x82a66bf676ba9fe915d13e60ff2ab7944deaa741a8fdbb97f37265af011c86ec",
          "blockNumber": "0x3",
          "blockTimestamp": "0x68f48ff7",
          "transactionHash": "0x8e527ef7b829d8505892d279ee881e95126e44dcae445bff36cd326880fba471",
          "transactionIndex": "0x0",
          "logIndex": "0x0",
          "removed": false
        }
      ],
      "logsBloom": "0x00000000000000000000000000000000000000000000000000000000000000000000000000000010000000000000000000000000000040200000040000000000000000000000000000000000000000000000000000000000000000000000000000000000000000000000000000000000000000000000000000000000000000000000000000000000000000000000000000000000000000000000000000000000000000000000000000000000000000000000000000000000000000000000000000000000000000000000000000000000000000000000004000000000000000000000000000000000000000000000000000000000000000400000000000000000",
      "type": "0x2",
      "transactionHash": "0x8e527ef7b829d8505892d279ee881e95126e44dcae445bff36cd326880fba471",
      "transactionIndex": "0x0",
      "blockHash": "0x82a66bf676ba9fe915d13e60ff2ab7944deaa741a8fdbb97f37265af011c86ec",
      "blockNumber": "0x3",
      "gasUsed": "0x7a97",
      "effectiveGasPrice": "0x311bf021",
      "blobGasPrice": "0x1",
      "from": "0xf39fd6e51aad88f6f4ce6ab8827279cfffb92266",
      "to": "0x9fe46736679d2d9a65f0992f2272de9f3c7fa6e0",
      "contractAddress": null
    },
    {
      "status": "0x1",
      "cumulativeGasUsed": "0x7adc",
      "logs": [
        {
          "address": "0x9fe46736679d2d9a65f0992f2272de9f3c7fa6e0",
          "topics": [
            "0x12c9dccd129ff783f1c8228eacdfa8e334ddecb7ec5c9a79ec662a4aed3d012a"
          ],
          "data": "0x00000000000000000000000000000000000000000000000000000000000000400000000000000000000000000000000000000000000000056bc75e2d63100000000000000000000000000000000000000000000000000000000000000000000c62617365466565466f6375730000000000000000000000000000000000000000",
          "blockHash": "0x65d9008c96e90e652b0532079cc6c7ff1fa18da906d44d13408088b72c24f0d0",
          "blockNumber": "0x4",
          "blockTimestamp": "0x68f48ff7",
          "transactionHash": "0x3ccecff5f74be13d5004f1e2874886d99678a5dbd0980c803c34640ae0ede6b9",
          "transactionIndex": "0x0",
          "logIndex": "0x0",
          "removed": false
        }
      ],
      "logsBloom": "0x00000000000000000000000000000000000000000000000000000000000000000000000000000010000000000000000000000000000040200000040000000000000000000000000000000000000000000000000000000000000000000000000000000000000000000000000000000000000000000000000000000000000000000000000000000000000000000000000000000000000000000000000000000000000000000000000000000000000000000000000000000000000000000000000000000000000000000000000000000000000000000000004000000000000000000000000000000000000000000000000000000000000000400000000000000000",
      "type": "0x2",
      "transactionHash": "0x3ccecff5f74be13d5004f1e2874886d99678a5dbd0980c803c34640ae0ede6b9",
      "transactionIndex": "0x0",
      "blockHash": "0x65d9008c96e90e652b0532079cc6c7ff1fa18da906d44d13408088b72c24f0d0",
      "blockNumber": "0x4",
      "gasUsed": "0x7adc",
      "effectiveGasPrice": "0x2afbbbd0",
      "blobGasPrice": "0x1",
      "from": "0xf39fd6e51aad88f6f4ce6ab8827279cfffb92266",
      "to": "0x9fe46736679d2d9a65f0992f2272de9f3c7fa6e0",
      "contractAddress": null
    }
  ],
  "libraries": [],
  "pending": [],
  "returns": {},
  "timestamp": 1760858103387,
  "chain": 31337,
  "commit": "f1f421e"
}