{
  "transactions": [
    {
      "hash": "0x6f17315fdfae562a6d3c727b33c3684d2d5d2c1bc99dd19a47ca1a609746aea5",
      "transactionType": "CALL",
      "contractName": null,
      "contractAddress": "0x9fe46736679d2d9a65f0992f2272de9f3c7fa6e0",
      "function": "setBaseFeeUsdc(uint256)",
      "arguments": [
        "10000000"
      ],
      "transaction": {
        "from": "0xf39fd6e51aad88f6f4ce6ab8827279cfffb92266",
        "to": "0x9fe46736679d2d9a65f0992f2272de9f3c7fa6e0",
        "gas": "0xb329",
        "value": "0x0",
        "input": "0x125e60210000000000000000000000000000000000000000000000000000000000989680",
        "nonce": "0x5",
        "chainId": "0x7a69"
      },
      "additionalContracts": [],
      "isFixedGasLimit": false
    },
    {
      "hash": "0xd0c750841c7016498a45053c99cb8ceae9249efab01f7eb052f86b79586bbb06",
      "transactionType": "CALL",
      "contractName": null,
      "contractAddress": "0x9fe46736679d2d9a65f0992f2272de9f3c7fa6e0",
      "function": "setBaseFeeFocus(uint256)",
      "arguments": [
        "100000000000000000000"
      ],
      "transaction": {
        "from": "0xf39fd6e51aad88f6f4ce6ab8827279cfffb92266",
        "to": "0x9fe46736679d2d9a65f0992f2272de9f3c7fa6e0",
        "gas": "0xa976",
        "value": "0x0",
        "input": "0x314d2e330000000000000000000000000000000000000000000000056bc75e2d63100000",
        "nonce": "0x6",
        "chainId": "0x7a69"
      },
      "additionalContracts": [],
      "isFixedGasLimit": false
    }
  ],
  "receipts": [
    {
      "status": "0x1",
      "cumulativeGasUsed": "0x7a81",
      "logs": [
        {
          "address": "0x9fe46736679d2d9a65f0992f2272de9f3c7fa6e0",
          "topics": [
            "0x12c9dccd129ff783f1c8228eacdfa8e334ddecb7ec5c9a79ec662a4aed3d012a"
          ],
          "data": "0x00000000000000000000000000000000000000000000000000000000000000400000000000000000000000000000000000000000000000000000000000989680000000000000000000000000000000000000000000000000000000000000000b6261736546656555736463000000000000000000000000000000000000000000",
          "blockHash": "0x0df11a77e8513758af0d6e3ca04d6e68acedf3d02933a29ee036244d3d20cafd",
          "blockNumber": "0x4",
          "blockTimestamp": "0x68f4f5a1",
          "transactionHash": "0x6f17315fdfae562a6d3c727b33c3684d2d5d2c1bc99dd19a47ca1a609746aea5",
          "transactionIndex": "0x0",
          "logIndex": "0x0",
          "removed": false
        }
      ],
      "logsBloom": "0x00000000000000000000000000000000000000000000000000000000000000000000000000000010000000000000000000000000000040200000040000000000000000000000000000000000000000000000000000000000000000000000000000000000000000000000000000000000000000000000000000000000000000000000000000000000000000000000000000000000000000000000000000000000000000000000000000000000000000000000000000000000000000000000000000000000000000000000000000000000000000000000004000000000000000000000000000000000000000000000000000000000000000400000000000000000",
      "type": "0x2",
      "transactionHash": "0x6f17315fdfae562a6d3c727b33c3684d2d5d2c1bc99dd19a47ca1a609746aea5",
      "transactionIndex": "0x0",
      "blockHash": "0x0df11a77e8513758af0d6e3ca04d6e68acedf3d02933a29ee036244d3d20cafd",
      "blockNumber": "0x4",
      "gasUsed": "0x7a81",
      "effectiveGasPrice": "0x2afc00f8",
      "blobGasPrice": "0x1",
      "from": "0xf39fd6e51aad88f6f4ce6ab8827279cfffb92266",
      "to": "0x9fe46736679d2d9a65f0992f2272de9f3c7fa6e0",
      "contractAddress": null
    },
    {
      "status": "0x1",
      "cumulativeGasUsed": "0x7ab0",
      "logs": [
        {
          "address": "0x9fe46736679d2d9a65f0992f2272de9f3c7fa6e0",
          "topics": [
            "0x12c9dccd129ff783f1c8228eacdfa8e334ddecb7ec5c9a79ec662a4aed3d012a"
          ],
          "data": "0x00000000000000000000000000000000000000000000000000000000000000400000000000000000000000000000000000000000000000056bc75e2d63100000000000000000000000000000000000000000000000000000000000000000000c62617365466565466f6375730000000000000000000000000000000000000000",
          "blockHash": "0x396ff566434d8c281b0a0bb6c42bfdc91a2c1dab1e17805d01bc419c149c5c9f",
          "blockNumber": "0x5",
          "blockTimestamp": "0x68f4f5a1",
          "transactionHash": "0xd0c750841c7016498a45053c99cb8ceae9249efab01f7eb052f86b79586bbb06",
          "transactionIndex": "0x0",
          "logIndex": "0x0",
          "removed": false
        }
      ],
      "logsBloom": "0x00000000000000000000000000000000000000000000000000000000000000000000000000000010000000000000000000000000000040200000040000000000000000000000000000000000000000000000000000000000000000000000000000000000000000000000000000000000000000000000000000000000000000000000000000000000000000000000000000000000000000000000000000000000000000000000000000000000000000000000000000000000000000000000000000000000000000000000000000000000000000000000004000000000000000000000000000000000000000000000000000000000000000400000000000000000",
      "type": "0x2",
      "transactionHash": "0xd0c750841c7016498a45053c99cb8ceae9249efab01f7eb052f86b79586bbb06",
      "transactionIndex": "0x0",
      "blockHash": "0x396ff566434d8c281b0a0bb6c42bfdc91a2c1dab1e17805d01bc419c149c5c9f",
      "blockNumber": "0x5",
      "gasUsed": "0x7ab0",
      "effectiveGasPrice": "0x259f610e",
      "blobGasPrice": "0x1",
      "from": "0xf39fd6e51aad88f6f4ce6ab8827279cfffb92266",
      "to": "0x9fe46736679d2d9a65f0992f2272de9f3c7fa6e0",
      "contractAddress": null
    }
  ],
  "libraries": [],
  "pending": [],
  "returns": {},
  "timestamp": 1760884129645,
  "chain": 31337,
  "commit": "6d8a876"
}