{
  "transactions": [
    {
      "hash": "0xa8be1557fa920910262d51230e9998a3923627e6ad07ecf2bb516b21a4cd096c",
      "transactionType": "CALL",
      "contractName": null,
      "contractAddress": "0x959922be3caee4b8cd9a407cc3ac1c251c2007b1",
      "function": "setBaseFeeUsdc(uint256)",
      "arguments": [
        "10000000"
      ],
      "transaction": {
        "from": "0xf39fd6e51aad88f6f4ce6ab8827279cfffb92266",
        "to": "0x959922be3caee4b8cd9a407cc3ac1c251c2007b1",
        "gas": "0x9a37",
        "value": "0x0",
        "input": "0x125e60210000000000000000000000000000000000000000000000000000000000989680",
        "nonce": "0x1c",
        "chainId": "0x7a69"
      },
      "additionalContracts": [],
      "isFixedGasLimit": false
    },
    {
      "hash": "0x24e3db297decedf32becb894f1395d7fdf74530acbe836909acd5f026d382710",
      "transactionType": "CALL",
      "contractName": null,
      "contractAddress": "0x959922be3caee4b8cd9a407cc3ac1c251c2007b1",
      "function": "setBaseFeeFocus(uint256)",
      "arguments": [
        "100000000000000000000"
      ],
      "transaction": {
        "from": "0xf39fd6e51aad88f6f4ce6ab8827279cfffb92266",
        "to": "0x959922be3caee4b8cd9a407cc3ac1c251c2007b1",
        "gas": "0x9a96",
        "value": "0x0",
        "input": "0x314d2e330000000000000000000000000000000000000000000000056bc75e2d63100000",
        "nonce": "0x1d",
        "chainId": "0x7a69"
      },
      "additionalContracts": [],
      "isFixedGasLimit": false
    }
  ],
  "receipts": [
    {
      "status": "0x1",
      "cumulativeGasUsed": "0x6fa7",
      "logs": [
        {
          "address": "0x959922be3caee4b8cd9a407cc3ac1c251c2007b1",
          "topics": [
            "0x12c9dccd129ff783f1c8228eacdfa8e334ddecb7ec5c9a79ec662a4aed3d012a"
          ],
          "data": "0x00000000000000000000000000000000000000000000000000000000000000400000000000000000000000000000000000000000000000000000000000989680000000000000000000000000000000000000000000000000000000000000000b6261736546656555736463000000000000000000000000000000000000000000",
          "blockHash": "0x800224b67f853dd0440a3d570c5224909b6c8ecd0e89a3620dc3ae7acedf3685",
          "blockNumber": "0x19",
          "blockTimestamp": "0x68f48a60",
          "transactionHash": "0xa8be1557fa920910262d51230e9998a3923627e6ad07ecf2bb516b21a4cd096c",
          "transactionIndex": "0x0",
          "logIndex": "0x0",
          "removed": false
        }
      ],
      "logsBloom": "0x00000000000000000000000000000000000000000000000000000000000000000000000000000010000000000000000000000000000000000000040000000000000000000000000000000000000000000000000000000000000000000000000000000000000000000020000000000000000000000000000000000000000000000000000000000000000000000000000000000000000000000000000000000000000000000000000000200000000000000000000000000000000000000000000000000000000000000000000000000000000000000000004000000000000000000000000000000000010000000000000000000000000000000000000000000000",
      "type": "0x2",
      "transactionHash": "0xa8be1557fa920910262d51230e9998a3923627e6ad07ecf2bb516b21a4cd096c",
      "transactionIndex": "0x0",
      "blockHash": "0x800224b67f853dd0440a3d570c5224909b6c8ecd0e89a3620dc3ae7acedf3685",
      "blockNumber": "0x19",
      "gasUsed": "0x6fa7",
      "effectiveGasPrice": "0x2cff76c",
      "blobGasPrice": "0x1",
      "from": "0xf39fd6e51aad88f6f4ce6ab8827279cfffb92266",
      "to": "0x959922be3caee4b8cd9a407cc3ac1c251c2007b1",
      "contractAddress": null
    },
    {
      "status": "0x1",
      "cumulativeGasUsed": "0x6fec",
      "logs": [
        {
          "address": "0x959922be3caee4b8cd9a407cc3ac1c251c2007b1",
          "topics": [
            "0x12c9dccd129ff783f1c8228eacdfa8e334ddecb7ec5c9a79ec662a4aed3d012a"
          ],
          "data": "0x00000000000000000000000000000000000000000000000000000000000000400000000000000000000000000000000000000000000000056bc75e2d63100000000000000000000000000000000000000000000000000000000000000000000c62617365466565466f6375730000000000000000000000000000000000000000",
          "blockHash": "0x92b08a5aa434c3c01b31733cbdea09e8ba0c1a582388fd1888582f1bbf767797",
          "blockNumber": "0x1a",
          "blockTimestamp": "0x68f48a60",
          "transactionHash": "0x24e3db297decedf32becb894f1395d7fdf74530acbe836909acd5f026d382710",
          "transactionIndex": "0x0",
          "logIndex": "0x0",
          "removed": false
        }
      ],
      "logsBloom": "0x00000000000000000000000000000000000000000000000000000000000000000000000000000010000000000000000000000000000000000000040000000000000000000000000000000000000000000000000000000000000000000000000000000000000000000020000000000000000000000000000000000000000000000000000000000000000000000000000000000000000000000000000000000000000000000000000000200000000000000000000000000000000000000000000000000000000000000000000000000000000000000000004000000000000000000000000000000000010000000000000000000000000000000000000000000000",
      "type": "0x2",
      "transactionHash": "0x24e3db297decedf32becb894f1395d7fdf74530acbe836909acd5f026d382710",
      "transactionIndex": "0x0",
      "blockHash": "0x92b08a5aa434c3c01b31733cbdea09e8ba0c1a582388fd1888582f1bbf767797",
      "blockNumber": "0x1a",
      "gasUsed": "0x6fec",
      "effectiveGasPrice": "0x2762466",
      "blobGasPrice": "0x1",
      "from": "0xf39fd6e51aad88f6f4ce6ab8827279cfffb92266",
      "to": "0x959922be3caee4b8cd9a407cc3ac1c251c2007b1",
      "contractAddress": null
    }
  ],
  "libraries": [],
  "pending": [],
  "returns": {},
  "timestamp": 1760856672784,
  "chain": 31337,
  "commit": "f1f421e"
}