{
  "transactions": [
    {
      "hash": "0x787dfc386af4cb0d5db480bc73651e3ab56f364a486bb84e9fc26dd80cd95e52",
      "transactionType": "CALL",
      "contractName": "ETFRebalancerV1",
      "contractAddress": "0x797739ba3af7427066cef9dbbc755e33082bf26e",
      "function": "configureAssetPools(address[],address[],uint24[])",
      "arguments": [
        "[0x998367e7De460b309500E06cfDaBb0c94adB18De, 0xD20268cb7065d20307b0793f702febDDf5d24856, 0xd81e1AC7F2ccdd106701e484f12B842684719bd3, 0x8DcD14418995d376e40255dABf55CE58D994BfC4, 0xe9636149f4ebdA9e1D368385e39E74021d7Bf53f]",
        "[0xAA2EeCccc51f1F2716Fc531E19eC83d3094f437c, 0x757fb48255e0470035a95A28FB9F3Cec20a20e1F, 0xaB30c22eAf3AA69804b2eCa3CCCf2D1A2Ff434BD, 0x038Df8C35068B9322780f38C61015a6d34e84Fed, 0xEd441CCA35F387CEce32b9dc4a766E93f56f9F2B]",
        "[100, 500, 500, 2500, 2500]"
      ],
      "transaction": {
        "from": "0xb73ebe02d3a29d61cb3ee87a3eede73cb1a3c725",
        "to": "0x797739ba3af7427066cef9dbbc755e33082bf26e",
        "gas": "0x59acb",
        "value": "0x0",
        "input": "0x6f5dd9b60000000000000000000000000000000000000000000000000000000000000060000000000000000000000000000000000000000000000000000000000000012000000000000000000000000000000000000000000000000000000000000001e00000000000000000000000000000000000000000000000000000000000000005000000000000000000000000998367e7de460b309500e06cfdabb0c94adb18de000000000000000000000000d20268cb7065d20307b0793f702febddf5d24856000000000000000000000000d81e1ac7f2ccdd106701e484f12b842684719bd30000000000000000000000008dcd14418995d376e40255dabf55ce58d994bfc4000000000000000000000000e9636149f4ebda9e1d368385e39e74021d7bf53f0000000000000000000000000000000000000000000000000000000000000005000000000000000000000000aa2eecccc51f1f2716fc531e19ec83d3094f437c000000000000000000000000757fb48255e0470035a95a28fb9f3cec20a20e1f000000000000000000000000ab30c22eaf3aa69804b2eca3cccf2d1a2ff434bd000000000000000000000000038df8c35068b9322780f38c61015a6d34e84fed000000000000000000000000ed441cca35f387cece32b9dc4a766e93f56f9f2b0000000000000000000000000000000000000000000000000000000000000005000000000000000000000000000000000000000000000000000000000000006400000000000000000000000000000000000000000000000000000000000001f400000000000000000000000000000000000000000000000000000000000001f400000000000000000000000000000000000000000000000000000000000009c400000000000000000000000000000000000000000000000000000000000009c4",
        "nonce": "0x172",
        "chainId": "0x61"
      },
      "additionalContracts": [],
      "isFixedGasLimit": false
    }
  ],
  "receipts": [
    {
      "status": "0x1",
      "cumulativeGasUsed": "0x40ec4",
      "logs": [
        {
          "address": "0x797739ba3af7427066cef9dbbc755e33082bf26e",
          "topics": [
            "0xeccf2736a62b30bc933f326eb07305db7191cda6eedbdba001757d46b564a918",
            "0x000000000000000000000000998367e7de460b309500e06cfdabb0c94adb18de",
            "0x000000000000000000000000aa2eecccc51f1f2716fc531e19ec83d3094f437c"
          ],
          "data": "0x0000000000000000000000000000000000000000000000000000000000000064",
          "blockHash": "0x0fc2858b34bc2ee25616aec17065d08712b5ccac9835d6c2a045723106042c03",
          "blockNumber": "0x4142f77",
          "transactionHash": "0x787dfc386af4cb0d5db480bc73651e3ab56f364a486bb84e9fc26dd80cd95e52",
          "transactionIndex": "0x0",
          "logIndex": "0x0",
          "removed": false
        },
        {
          "address": "0x797739ba3af7427066cef9dbbc755e33082bf26e",
          "topics": [
            "0xeccf2736a62b30bc933f326eb07305db7191cda6eedbdba001757d46b564a918",
            "0x000000000000000000000000d20268cb7065d20307b0793f702febddf5d24856",
            "0x000000000000000000000000757fb48255e0470035a95a28fb9f3cec20a20e1f"
          ],
          "data": "0x00000000000000000000000000000000000000000000000000000000000001f4",
          "blockHash": "0x0fc2858b34bc2ee25616aec17065d08712b5ccac9835d6c2a045723106042c03",
          "blockNumber": "0x4142f77",
          "transactionHash": "0x787dfc386af4cb0d5db480bc73651e3ab56f364a486bb84e9fc26dd80cd95e52",
          "transactionIndex": "0x0",
          "logIndex": "0x1",
          "removed": false
        },
        {
          "address": "0x797739ba3af7427066cef9dbbc755e33082bf26e",
          "topics": [
            "0xeccf2736a62b30bc933f326eb07305db7191cda6eedbdba001757d46b564a918",
            "0x000000000000000000000000d81e1ac7f2ccdd106701e484f12b842684719bd3",
            "0x000000000000000000000000ab30c22eaf3aa69804b2eca3cccf2d1a2ff434bd"
          ],
          "data": "0x00000000000000000000000000000000000000000000000000000000000001f4",
          "blockHash": "0x0fc2858b34bc2ee25616aec17065d08712b5ccac9835d6c2a045723106042c03",
          "blockNumber": "0x4142f77",
          "transactionHash": "0x787dfc386af4cb0d5db480bc73651e3ab56f364a486bb84e9fc26dd80cd95e52",
          "transactionIndex": "0x0",
          "logIndex": "0x2",
          "removed": false
        },
        {
          "address": "0x797739ba3af7427066cef9dbbc755e33082bf26e",
          "topics": [
            "0xeccf2736a62b30bc933f326eb07305db7191cda6eedbdba001757d46b564a918",
            "0x0000000000000000000000008dcd14418995d376e40255dabf55ce58d994bfc4",
            "0x000000000000000000000000038df8c35068b9322780f38c61015a6d34e84fed"
          ],
          "data": "0x00000000000000000000000000000000000000000000000000000000000009c4",
          "blockHash": "0x0fc2858b34bc2ee25616aec17065d08712b5ccac9835d6c2a045723106042c03",
          "blockNumber": "0x4142f77",
          "transactionHash": "0x787dfc386af4cb0d5db480bc73651e3ab56f364a486bb84e9fc26dd80cd95e52",
          "transactionIndex": "0x0",
          "logIndex": "0x3",
          "removed": false
        },
        {
          "address": "0x797739ba3af7427066cef9dbbc755e33082bf26e",
          "topics": [
            "0xeccf2736a62b30bc933f326eb07305db7191cda6eedbdba001757d46b564a918",
            "0x000000000000000000000000e9636149f4ebda9e1d368385e39e74021d7bf53f",
            "0x000000000000000000000000ed441cca35f387cece32b9dc4a766e93f56f9f2b"
          ],
          "data": "0x00000000000000000000000000000000000000000000000000000000000009c4",
          "blockHash": "0x0fc2858b34bc2ee25616aec17065d08712b5ccac9835d6c2a045723106042c03",
          "blockNumber": "0x4142f77",
          "transactionHash": "0x787dfc386af4cb0d5db480bc73651e3ab56f364a486bb84e9fc26dd80cd95e52",
          "transactionIndex": "0x0",
          "logIndex": "0x4",
          "removed": false
        }
      ],
      "logsBloom": "0x00000000000000104000000000004200000000210000000000000000000020000020000000000000000000000000010000004000000000000000000000000000000000000000000000000000000000000000000000000000000000000000000000000002000010000000000000000200000000000000000000000000000000000000018004000080000000000208000000000000000000000000000000000000000000000001200000000000000000000000000002000000000400000040000000000000001000208401000200000010000000000000000000000000000000000000100000010000400000000000000000000000010080000000000000000000",
      "type": "0x2",
      "transactionHash": "0x787dfc386af4cb0d5db480bc73651e3ab56f364a486bb84e9fc26dd80cd95e52",
      "transactionIndex": "0x0",
      "blockHash": "0x0fc2858b34bc2ee25616aec17065d08712b5ccac9835d6c2a045723106042c03",
      "blockNumber": "0x4142f77",
      "gasUsed": "0x40ec4",
      "effectiveGasPrice": "0x20c85580",
      "from": "0xb73ebe02d3a29d61cb3ee87a3eede73cb1a3c725",
      "to": "0x797739ba3af7427066cef9dbbc755e33082bf26e",
      "contractAddress": null
    }
  ],
  "libraries": [],
  "pending": [],
  "returns": {},
  "timestamp": 1760169463753,
  "chain": 97,
  "commit": "38fed22"
}