{
  "transactions": [
    {
      "hash": "0x4f4afb10f9997712f5da1431b5e094c13663446e98ad95bea22299da23f34f0b",
      "transactionType": "CALL",
      "contractName": null,
      "contractAddress": "0xe364204ad025bbcdff6dcb4291f89f532b0a8c35",
      "function": "mint(address,uint256)",
      "arguments": [
        "0xB73Ebe02d3A29d61cb3Ee87A3EEdE73cb1A3c725",
        "50000000000000000000000000"
      ],
      "transaction": {
        "from": "0xb73ebe02d3a29d61cb3ee87a3eede73cb1a3c725",
        "to": "0xe364204ad025bbcdff6dcb4291f89f532b0a8c35",
        "gas": "0xce2c",
        "value": "0x0",
        "input": "0x40c10f19000000000000000000000000b73ebe02d3a29d61cb3ee87a3eede73cb1a3c725000000000000000000000000000000000000000000295be96e64066972000000",
        "nonce": "0x123",
        "chainId": "0x61"
      },
      "additionalContracts": [],
      "isFixedGasLimit": false
    },
    {
      "hash": "0x0d82417956514e502c36db41ba9aa2aecde18372845a179da1d2e94cb28e49ec",
      "transactionType": "CALL",
      "contractName": null,
      "contractAddress": "0xfadc475b03e3bd7813a71446369204271a0a9843",
      "function": "mint(address,uint256)",
      "arguments": [
        "0xB73Ebe02d3A29d61cb3Ee87A3EEdE73cb1A3c725",
        "39675283277272583381582"
      ],
      "transaction": {
        "from": "0xb73ebe02d3a29d61cb3ee87a3eede73cb1a3c725",
        "to": "0xfadc475b03e3bd7813a71446369204271a0a9843",
        "gas": "0xce4f",
        "value": "0x0",
        "input": "0x40c10f19000000000000000000000000b73ebe02d3a29d61cb3ee87a3eede73cb1a3c725000000000000000000000000000000000000000000000866cd299c04fc52224e",
        "nonce": "0x124",
        "chainId": "0x61"
      },
      "additionalContracts": [],
      "isFixedGasLimit": false
    },
    {
      "hash": "0x99ddb8def2bb89e929a93a851cbb5aa310c88366d586a1fe67f1661a50cf4674",
      "transactionType": "CALL",
      "contractName": null,
      "contractAddress": "0xe364204ad025bbcdff6dcb4291f89f532b0a8c35",
      "function": "approve(address,uint256)",
      "arguments": [
        "0x427bF5b37357632377eCbEC9de3626C71A5396c1",
        "115792089237316195423570985008687907853269984665640564039457584007913129639935"
      ],
      "transaction": {
        "from": "0xb73ebe02d3a29d61cb3ee87a3eede73cb1a3c725",
        "to": "0xe364204ad025bbcdff6dcb4291f89f532b0a8c35",
        "gas": "0x96a4",
        "value": "0x0",
        "input": "0x095ea7b3000000000000000000000000427bf5b37357632377ecbec9de3626c71a5396c1ffffffffffffffffffffffffffffffffffffffffffffffffffffffffffffffff",
        "nonce": "0x125",
        "chainId": "0x61"
      },
      "additionalContracts": [],
      "isFixedGasLimit": false
    },
    {
      "hash": "0x964675787883858652255cc7e9bacb56fcb175bb1806c25726e59e6690df1709",
      "transactionType": "CALL",
      "contractName": null,
      "contractAddress": "0xfadc475b03e3bd7813a71446369204271a0a9843",
      "function": "approve(address,uint256)",
      "arguments": [
        "0x427bF5b37357632377eCbEC9de3626C71A5396c1",
        "115792089237316195423570985008687907853269984665640564039457584007913129639935"
      ],
      "transaction": {
        "from": "0xb73ebe02d3a29d61cb3ee87a3eede73cb1a3c725",
        "to": "0xfadc475b03e3bd7813a71446369204271a0a9843",
        "gas": "0x96a4",
        "value": "0x0",
        "input": "0x095ea7b3000000000000000000000000427bf5b37357632377ecbec9de3626c71a5396c1ffffffffffffffffffffffffffffffffffffffffffffffffffffffffffffffff",
        "nonce": "0x126",
        "chainId": "0x61"
      },
      "additionalContracts": [],
      "isFixedGasLimit": false
    },
    {
      "hash": "0x1cf668e17c30876c4ba3f3a81c46d32f0e75289219178a0ed9ff387a7fb51ac4",
      "transactionType": "CALL",
      "contractName": null,
      "contractAddress": "0x427bf5b37357632377ecbec9de3626c71a5396c1",
      "function": "mint((address,address,uint24,int24,int24,uint256,uint256,uint256,uint256,address,uint256))",
      "arguments": [
        "(0xe364204ad025bbcDFF6DCb4291f89F532b0a8C35, 0xFaDc475b03E3bd7813a71446369204271a0a9843, 2500, -887200, 887200, 25000000000000000000000000, 19837641638636291690791, 0, 0, 0xB73Ebe02d3A29d61cb3Ee87A3EEdE73cb1A3c725, 1760072503)"
      ],
      "transaction": {
        "from": "0xb73ebe02d3a29d61cb3ee87a3eede73cb1a3c725",
        "to": "0x427bf5b37357632377ecbec9de3626c71a5396c1",
        "gas": "0xb0249",
        "value": "0x0",
        "input": "0x88316456000000000000000000000000e364204ad025bbcdff6dcb4291f89f532b0a8c35000000000000000000000000fadc475b03e3bd7813a71446369204271a0a984300000000000000000000000000000000000000000000000000000000000009c4fffffffffffffffffffffffffffffffffffffffffffffffffffffffffff2766000000000000000000000000000000000000000000000000000000000000d89a000000000000000000000000000000000000000000014adf4b7320334b90000000000000000000000000000000000000000000000000004336694ce027e29112700000000000000000000000000000000000000000000000000000000000000000000000000000000000000000000000000000000000000000000000000000000000000000000000000000000b73ebe02d3a29d61cb3ee87a3eede73cb1a3c7250000000000000000000000000000000000000000000000000000000068e89337",
        "nonce": "0x127",
        "chainId": "0x61"
      },
      "additionalContracts": [],
      "isFixedGasLimit": false
    }
  ],
  "receipts": [
    {
      "status": "0x1",
      "cumulativeGasUsed": "0x8cf9",
      "logs": [
        {
          "address": "0xe364204ad025bbcdff6dcb4291f89f532b0a8c35",
          "topics": [
            "0xddf252ad1be2c89b69c2b068fc378daa952ba7f163c4a11628f55a4df523b3ef",
            "0x0000000000000000000000000000000000000000000000000000000000000000",
            "0x000000000000000000000000b73ebe02d3a29d61cb3ee87a3eede73cb1a3c725"
          ],
          "data": "0x000000000000000000000000000000000000000000295be96e64066972000000",
          "blockHash": "0x8194499f0d0a31339f6ebe9632d1da426a0c9b84c3dc072c00d7eab46d0782c1",
          "blockNumber": "0x41223e7",
          "transactionHash": "0x4f4afb10f9997712f5da1431b5e094c13663446e98ad95bea22299da23f34f0b",
          "transactionIndex": "0x0",
          "logIndex": "0x0",
          "removed": false
        }
      ],
      "logsBloom": "0x00000000000000000000000000008000000000000000000000000000000000000000000000000000000000000000000000000000000000000000000000000000000000000040000000000008000000000000000000000000000000000000000000000000020000002000000000000800000000000000000000000010000400000000000000000020000000000000000000000000000000000000000000000000000000000000000000000000000000000000000000000000000000000000000000000002000000400000000000000000000000000000000000000000000020000000000000000000000000000000000000000000000000000000000000000000",
      "type": "0x2",
      "transactionHash": "0x4f4afb10f9997712f5da1431b5e094c13663446e98ad95bea22299da23f34f0b",
      "transactionIndex": "0x0",
      "blockHash": "0x8194499f0d0a31339f6ebe9632d1da426a0c9b84c3dc072c00d7eab46d0782c1",
      "blockNumber": "0x41223e7",
      "gasUsed": "0x8cf9",
      "effectiveGasPrice": "0x4190ab00",
      "from": "0xb73ebe02d3a29d61cb3ee87a3eede73cb1a3c725",
      "to": "0xe364204ad025bbcdff6dcb4291f89f532b0a8c35",
      "contractAddress": null
    },
    {
      "status": "0x1",
      "cumulativeGasUsed": "0x11a0a",
      "logs": [
        {
          "address": "0xfadc475b03e3bd7813a71446369204271a0a9843",
          "topics": [
            "0xddf252ad1be2c89b69c2b068fc378daa952ba7f163c4a11628f55a4df523b3ef",
            "0x0000000000000000000000000000000000000000000000000000000000000000",
            "0x000000000000000000000000b73ebe02d3a29d61cb3ee87a3eede73cb1a3c725"
          ],
          "data": "0x000000000000000000000000000000000000000000000866cd299c04fc52224e",
          "blockHash": "0x8194499f0d0a31339f6ebe9632d1da426a0c9b84c3dc072c00d7eab46d0782c1",
          "blockNumber": "0x41223e7",
          "transactionHash": "0x0d82417956514e502c36db41ba9aa2aecde18372845a179da1d2e94cb28e49ec",
          "transactionIndex": "0x1",
          "logIndex": "0x1",
          "removed": false
        }
      ],
      "logsBloom": "0x00000000000000000000000000008000000000000000000000000000000000000000000000000000000000000000000000000000000000000000000000000000000000000040000000000008000000000000000000000000000000000000000000000000020000002000000000000800400000000000000000000010000000000000000000000000000000000000000000000000000000000000000000000000000000000400800000000000000000000000000000000000000000000000000000000002000000000000000000000000000000000000000000000000000020000000000000000000000000000000000000000000000000000000000000000000",
      "type": "0x2",
      "transactionHash": "0x0d82417956514e502c36db41ba9aa2aecde18372845a179da1d2e94cb28e49ec",
      "transactionIndex": "0x1",
      "blockHash": "0x8194499f0d0a31339f6ebe9632d1da426a0c9b84c3dc072c00d7eab46d0782c1",
      "blockNumber": "0x41223e7",
      "gasUsed": "0x8d11",
      "effectiveGasPrice": "0x4190ab00",
      "from": "0xb73ebe02d3a29d61cb3ee87a3eede73cb1a3c725",
      "to": "0xfadc475b03e3bd7813a71446369204271a0a9843",
      "contractAddress": null
    },
    {
      "status": "0x1",
      "cumulativeGasUsed": "0x1810b",
      "logs": [
        {
          "address": "0xe364204ad025bbcdff6dcb4291f89f532b0a8c35",
          "topics": [
            "0x8c5be1e5ebec7d5bd14f71427d1e84f3dd0314c0f7b2291e5b200ac8c7c3b925",
            "0x000000000000000000000000b73ebe02d3a29d61cb3ee87a3eede73cb1a3c725",
            "0x000000000000000000000000427bf5b37357632377ecbec9de3626c71a5396c1"
          ],
          "data": "0xffffffffffffffffffffffffffffffffffffffffffffffffffffffffffffffff",
          "blockHash": "0x8194499f0d0a31339f6ebe9632d1da426a0c9b84c3dc072c00d7eab46d0782c1",
          "blockNumber": "0x41223e7",
          "transactionHash": "0x99ddb8def2bb89e929a93a851cbb5aa310c88366d586a1fe67f1661a50cf4674",
          "transactionIndex": "0x2",
          "logIndex": "0x2",
          "removed": false
        }
      ],
      "logsBloom": "0x00000000000000000000000000008000000000000000000000000000000000000000000000000000000000000000000000000000000000000000000000200000000000000040000800000000000000000000000000000000000000000000000000000000000000002000000000000000000000000000000000040000000400000000000000000020000000000001000000000000000000000000000000000000020000000000000000000000000000000000000000000000000000000000000000000000000000400000000000000000000000000000000000000000000000000010000000000000000000000000000000000000000000000000000000000000",
      "type": "0x2",
      "transactionHash": "0x99ddb8def2bb89e929a93a851cbb5aa310c88366d586a1fe67f1661a50cf4674",
      "transactionIndex": "0x2",
      "blockHash": "0x8194499f0d0a31339f6ebe9632d1da426a0c9b84c3dc072c00d7eab46d0782c1",
      "blockNumber": "0x41223e7",
      "gasUsed": "0x6701",
      "effectiveGasPrice": "0x4190ab00",
      "from": "0xb73ebe02d3a29d61cb3ee87a3eede73cb1a3c725",
      "to": "0xe364204ad025bbcdff6dcb4291f89f532b0a8c35",
      "contractAddress": null
    },
    {
      "status": "0x1",
      "cumulativeGasUsed": "0x1e80c",
      "logs": [
        {
          "address": "0xfadc475b03e3bd7813a71446369204271a0a9843",
          "topics": [
            "0x8c5be1e5ebec7d5bd14f71427d1e84f3dd0314c0f7b2291e5b200ac8c7c3b925",
            "0x000000000000000000000000b73ebe02d3a29d61cb3ee87a3eede73cb1a3c725",
            "0x000000000000000000000000427bf5b37357632377ecbec9de3626c71a5396c1"
          ],
          "data": "0xffffffffffffffffffffffffffffffffffffffffffffffffffffffffffffffff",
          "blockHash": "0x8194499f0d0a31339f6ebe9632d1da426a0c9b84c3dc072c00d7eab46d0782c1",
          "blockNumber": "0x41223e7",
          "transactionHash": "0x964675787883858652255cc7e9bacb56fcb175bb1806c25726e59e6690df1709",
          "transactionIndex": "0x3",
          "logIndex": "0x3",
          "removed": false
        }
      ],
      "logsBloom": "0x00000000000000000000000000008000000000000000000000000000000000000000000000000000000000000000000000000000000000000000000000200000000000000040000800000000000000000000000000000000000000000000000000000000000000002000000000000000400000000000000000040000000000000000000000000000000000000001000000000000000000000000000000000000020000000400800000000000000000000000000000000000000000000000000000000000000000000000000000000000000000000000000000000000000000000010000000000000000000000000000000000000000000000000000000000000",
      "type": "0x2",
      "transactionHash": "0x964675787883858652255cc7e9bacb56fcb175bb1806c25726e59e6690df1709",
      "transactionIndex": "0x3",
      "blockHash": "0x8194499f0d0a31339f6ebe9632d1da426a0c9b84c3dc072c00d7eab46d0782c1",
      "blockNumber": "0x41223e7",
      "gasUsed": "0x6701",
      "effectiveGasPrice": "0x4190ab00",
      "from": "0xb73ebe02d3a29d61cb3ee87a3eede73cb1a3c725",
      "to": "0xfadc475b03e3bd7813a71446369204271a0a9843",
      "contractAddress": null
    },
    {
      "status": "0x1",
      "cumulativeGasUsed": "0x96f15",
      "logs": [
        {
          "address": "0xe364204ad025bbcdff6dcb4291f89f532b0a8c35",
          "topics": [
            "0xddf252ad1be2c89b69c2b068fc378daa952ba7f163c4a11628f55a4df523b3ef",
            "0x000000000000000000000000b73ebe02d3a29d61cb3ee87a3eede73cb1a3c725",
            "0x000000000000000000000000c0abc31fef2747b54fbfb44c176ef3d775928fe7"
          ],
          "data": "0x000000000000000000000000000000000000000000000000d13b7e0b78d7d013",
          "blockHash": "0x8194499f0d0a31339f6ebe9632d1da426a0c9b84c3dc072c00d7eab46d0782c1",
          "blockNumber": "0x41223e7",
          "transactionHash": "0x1cf668e17c30876c4ba3f3a81c46d32f0e75289219178a0ed9ff387a7fb51ac4",
          "transactionIndex": "0x4",
          "logIndex": "0x4",
          "removed": false
        },
        {
          "address": "0xfadc475b03e3bd7813a71446369204271a0a9843",
          "topics": [
            "0xddf252ad1be2c89b69c2b068fc378daa952ba7f163c4a11628f55a4df523b3ef",
            "0x000000000000000000000000b73ebe02d3a29d61cb3ee87a3eede73cb1a3c725",
            "0x000000000000000000000000c0abc31fef2747b54fbfb44c176ef3d775928fe7"
          ],
          "data": "0x0000000000000000000000000000000000000000000004336694ce027e291109",
          "blockHash": "0x8194499f0d0a31339f6ebe9632d1da426a0c9b84c3dc072c00d7eab46d0782c1",
          "blockNumber": "0x41223e7",
          "transactionHash": "0x1cf668e17c30876c4ba3f3a81c46d32f0e75289219178a0ed9ff387a7fb51ac4",
          "transactionIndex": "0x4",
          "logIndex": "0x5",
          "removed": false
        },
        {
          "address": "0xc0abc31fef2747b54fbfb44c176ef3d775928fe7",
          "topics": [
            "0x7a53080ba414158be7ec69b987b5fb7d07dee101fe85488f0853ae16239d0bde",
            "0x000000000000000000000000427bf5b37357632377ecbec9de3626c71a5396c1",
            "0xfffffffffffffffffffffffffffffffffffffffffffffffffffffffffff27660",
            "0x00000000000000000000000000000000000000000000000000000000000d89a0"
          ],
          "data": "0x000000000000000000000000427bf5b37357632377ecbec9de3626c71a5396c100000000000000000000000000000000000000000000001da59ccb906ddef078000000000000000000000000000000000000000000000000d13b7e0b78d7d0130000000000000000000000000000000000000000000004336694ce027e291109",
          "blockHash": "0x8194499f0d0a31339f6ebe9632d1da426a0c9b84c3dc072c00d7eab46d0782c1",
          "blockNumber": "0x41223e7",
          "transactionHash": "0x1cf668e17c30876c4ba3f3a81c46d32f0e75289219178a0ed9ff387a7fb51ac4",
          "transactionIndex": "0x4",
          "logIndex": "0x6",
          "removed": false
        },
        {
          "address": "0x427bf5b37357632377ecbec9de3626c71a5396c1",
          "topics": [
            "0xddf252ad1be2c89b69c2b068fc378daa952ba7f163c4a11628f55a4df523b3ef",
            "0x0000000000000000000000000000000000000000000000000000000000000000",
            "0x000000000000000000000000b73ebe02d3a29d61cb3ee87a3eede73cb1a3c725",
            "0x000000000000000000000000000000000000000000000000000000000000607d"
          ],
          "data": "0x",
          "blockHash": "0x8194499f0d0a31339f6ebe9632d1da426a0c9b84c3dc072c00d7eab46d0782c1",
          "blockNumber": "0x41223e7",
          "transactionHash": "0x1cf668e17c30876c4ba3f3a81c46d32f0e75289219178a0ed9ff387a7fb51ac4",
          "transactionIndex": "0x4",
          "logIndex": "0x7",
          "removed": false
        },
        {
          "address": "0x427bf5b37357632377ecbec9de3626c71a5396c1",
          "topics": [
            "0x3067048beee31b25b2f1681f88dac838c8bba36af25bfb2b7cf7473a5847e35f",
            "0x000000000000000000000000000000000000000000000000000000000000607d"
          ],
          "data": "0x00000000000000000000000000000000000000000000001da59ccb906ddef078000000000000000000000000000000000000000000000000d13b7e0b78d7d0130000000000000000000000000000000000000000000004336694ce027e291109",
          "blockHash": "0x8194499f0d0a31339f6ebe9632d1da426a0c9b84c3dc072c00d7eab46d0782c1",
          "blockNumber": "0x41223e7",
          "transactionHash": "0x1cf668e17c30876c4ba3f3a81c46d32f0e75289219178a0ed9ff387a7fb51ac4",
          "transactionIndex": "0x4",
          "logIndex": "0x8",
          "removed": false
        }
      ],
      "logsBloom": "0x00000000000000090000100000008000000000000000000000000000000000000000000000000000000000000000000000000008000800040400000000000000000000008040000800000008000000000000000000000000000000000000000000000000020000002000000000000800400000000800000000040010000480010000000008000020000100000081000000002000200000000000000000000000000000000400800000000000001000000000000000000000000000040000000000000002000000400000080000000000000000000000000000000400000020000000000000000000000000000000010000000000000000400000000000000800",
      "type": "0x2",
      "transactionHash": "0x1cf668e17c30876c4ba3f3a81c46d32f0e75289219178a0ed9ff387a7fb51ac4",
      "transactionIndex": "0x4",
      "blockHash": "0x8194499f0d0a31339f6ebe9632d1da426a0c9b84c3dc072c00d7eab46d0782c1",
      "blockNumber": "0x41223e7",
      "gasUsed": "0x78709",
      "effectiveGasPrice": "0x4190ab00",
      "from": "0xb73ebe02d3a29d61cb3ee87a3eede73cb1a3c725",
      "to": "0x427bf5b37357632377ecbec9de3626c71a5396c1",
      "contractAddress": null
    }
  ],
  "libraries": [],
  "pending": [],
  "returns": {},
  "timestamp": 1760068921311,
  "chain": 97,
  "commit": "5797003"
}