{
  "transactions": [
    {
      "hash": "0xda828d013b5554ab7b88bb58f307d10b98953f692af8b375ad1f97ade6f435b9",
      "transactionType": "CALL",
      "contractName": null,
      "contractAddress": "0x9fe46736679d2d9a65f0992f2272de9f3c7fa6e0",
      "function": "setMinCompleteMinutes(uint16)",
      "arguments": [
        "1"
      ],
      "transaction": {
        "from": "0xf39fd6e51aad88f6f4ce6ab8827279cfffb92266",
        "to": "0x9fe46736679d2d9a65f0992f2272de9f3c7fa6e0",
        "gas": "0xb437",
        "value": "0x0",
        "input": "0xf7f2992c0000000000000000000000000000000000000000000000000000000000000001",
        "nonce": "0x7",
        "chainId": "0x7a69"
      },
      "additionalContracts": [],
      "isFixedGasLimit": false
    }
  ],
  "receipts": [
    {
      "status": "0x1",
      "cumulativeGasUsed": "0x7b3a",
      "logs": [
        {
          "address": "0x9fe46736679d2d9a65f0992f2272de9f3c7fa6e0",
          "topics": [
            "0x12c9dccd129ff783f1c8228eacdfa8e334ddecb7ec5c9a79ec662a4aed3d012a"
          ],
          "data": "0x0000000000000000000000000000000000000000000000000000000000000040000000000000000000000000000000000000000000000000000000000000000100000000000000000000000000000000000000000000000000000000000000126d696e436f6d706c6574654d696e757465730000000000000000000000000000",
          "blockHash": "0x7444cc86cc04af73cd060c760da564e76b06c163944d86fd7826c4318fca1ef8",
          "blockNumber": "0x5",
          "blockTimestamp": "0x68f48ff9",
          "transactionHash": "0xda828d013b5554ab7b88bb58f307d10b98953f692af8b375ad1f97ade6f435b9",
          "transactionIndex": "0x0",
          "logIndex": "0x0",
          "removed": false
        }
      ],
      "logsBloom": "0x00000000000000000000000000000000000000000000000000000000000000000000000000000010000000000000000000000000000040200000040000000000000000000000000000000000000000000000000000000000000000000000000000000000000000000000000000000000000000000000000000000000000000000000000000000000000000000000000000000000000000000000000000000000000000000000000000000000000000000000000000000000000000000000000000000000000000000000000000000000000000000000004000000000000000000000000000000000000000000000000000000000000000400000000000000000",
      "type": "0x2",
      "transactionHash": "0xda828d013b5554ab7b88bb58f307d10b98953f692af8b375ad1f97ade6f435b9",
      "transactionIndex": "0x0",
      "blockHash": "0x7444cc86cc04af73cd060c760da564e76b06c163944d86fd7826c4318fca1ef8",
      "blockNumber": "0x5",
      "gasUsed": "0x7b3a",
      "effectiveGasPrice": "0x259f26aa",
      "blobGasPrice": "0x1",
      "from": "0xf39fd6e51aad88f6f4ce6ab8827279cfffb92266",
      "to": "0x9fe46736679d2d9a65f0992f2272de9f3c7fa6e0",
      "contractAddress": null
    }
  ],
  "libraries": [],
  "pending": [],
  "returns": {},
  "timestamp": 1760858105741,
  "chain": 31337,
  "commit": "f1f421e"
}