{
  "transactions": [
    {
      "hash": "0x55d6856d2f911ede230a9def47655b370a7794692a69fbebb6fa3674376be49d",
      "transactionType": "CALL",
      "contractName": null,
      "contractAddress": "0x9e545e3c0baab3e08cdfd552c960a1050f373042",
      "function": "setMinCompleteMinutes(uint16)",
      "arguments": [
        "1"
      ],
      "transaction": {
        "from": "0xf39fd6e51aad88f6f4ce6ab8827279cfffb92266",
        "to": "0x9e545e3c0baab3e08cdfd552c960a1050f373042",
        "gas": "0xb437",
        "value": "0x0",
        "input": "0xf7f2992c0000000000000000000000000000000000000000000000000000000000000001",
        "nonce": "0x29",
        "chainId": "0x7a69"
      },
      "additionalContracts": [],
      "isFixedGasLimit": false
    }
  ],
  "receipts": [
    {
      "status": "0x1",
      "cumulativeGasUsed": "0x7b3a",
      "logs": [
        {
          "address": "0x9e545e3c0baab3e08cdfd552c960a1050f373042",
          "topics": [
            "0x12c9dccd129ff783f1c8228eacdfa8e334ddecb7ec5c9a79ec662a4aed3d012a"
          ],
          "data": "0x0000000000000000000000000000000000000000000000000000000000000040000000000000000000000000000000000000000000000000000000000000000100000000000000000000000000000000000000000000000000000000000000126d696e436f6d706c6574654d696e757465730000000000000000000000000000",
          "blockHash": "0xa046b3592fbdd21e551beef6bea4ff00df368699124be7df1440e057f2a578e3",
          "blockNumber": "0x28",
          "blockTimestamp": "0x68f48e87",
          "transactionHash": "0x55d6856d2f911ede230a9def47655b370a7794692a69fbebb6fa3674376be49d",
          "transactionIndex": "0x0",
          "logIndex": "0x0",
          "removed": false
        }
      ],
      "logsBloom": "0x00000000000000000000000000000000000000000000000000000000000000000000000000000010000000000000000000000000000000000000040000000000000000000000000000000000000001000000000000000000000000000000000000000000000000000000000000000000000000000000000000000000000000000000000000000000000000040000000000000000000000000000000000000000000000000000000000000000000000000000000000000000000000000000000000000000000000000000000000000000000000000000004000000000000000000000000000000000000000000000000000000000000000000000008000000000",
      "type": "0x2",
      "transactionHash": "0x55d6856d2f911ede230a9def47655b370a7794692a69fbebb6fa3674376be49d",
      "transactionIndex": "0x0",
      "blockHash": "0xa046b3592fbdd21e551beef6bea4ff00df368699124be7df1440e057f2a578e3",
      "blockNumber": "0x28",
      "gasUsed": "0x7b3a",
      "effectiveGasPrice": "0x691716",
      "blobGasPrice": "0x1",
      "from": "0xf39fd6e51aad88f6f4ce6ab8827279cfffb92266",
      "to": "0x9e545e3c0baab3e08cdfd552c960a1050f373042",
      "contractAddress": null
    }
  ],
  "libraries": [],
  "pending": [],
  "returns": {},
  "timestamp": 1760857735127,
  "chain": 31337,
  "commit": "f1f421e"
}