{
  "transactions": [
    {
      "hash": "0x994f6ade436b3dc0b00032fdbc43f016a899b69308cc504aac40da0c9a75627e",
      "transactionType": "CALL",
      "contractName": null,
      "contractAddress": "0x959922be3caee4b8cd9a407cc3ac1c251c2007b1",
      "function": "setMinCompleteMinutes(uint16)",
      "arguments": [
        "1"
      ],
      "transaction": {
        "from": "0xf39fd6e51aad88f6f4ce6ab8827279cfffb92266",
        "to": "0x959922be3caee4b8cd9a407cc3ac1c251c2007b1",
        "gas": "0xb437",
        "value": "0x0",
        "input": "0xf7f2992c0000000000000000000000000000000000000000000000000000000000000001",
        "nonce": "0x15",
        "chainId": "0x7a69"
      },
      "additionalContracts": [],
      "isFixedGasLimit": false
    }
  ],
  "receipts": [
    {
      "status": "0x1",
      "cumulativeGasUsed": "0x7b3a",
      "logs": [
        {
          "address": "0x959922be3caee4b8cd9a407cc3ac1c251c2007b1",
          "topics": [
            "0x12c9dccd129ff783f1c8228eacdfa8e334ddecb7ec5c9a79ec662a4aed3d012a"
          ],
          "data": "0x0000000000000000000000000000000000000000000000000000000000000040000000000000000000000000000000000000000000000000000000000000000100000000000000000000000000000000000000000000000000000000000000126d696e436f6d706c6574654d696e757465730000000000000000000000000000",
          "blockHash": "0x882192d9624a8a787b13767574a99e58ea5e6bbaa390fb1eb813943d2c660e5d",
          "blockNumber": "0x13",
          "blockTimestamp": "0x68f48934",
          "transactionHash": "0x994f6ade436b3dc0b00032fdbc43f016a899b69308cc504aac40da0c9a75627e",
          "transactionIndex": "0x0",
          "logIndex": "0x0",
          "removed": false
        }
      ],
      "logsBloom": "0x00000000000000000000000000000000000000000000000000000000000000000000000000000010000000000000000000000000000000000000040000000000000000000000000000000000000000000000000000000000000000000000000000000000000000000020000000000000000000000000000000000000000000000000000000000000000000000000000000000000000000000000000000000000000000000000000000200000000000000000000000000000000000000000000000000000000000000000000000000000000000000000004000000000000000000000000000000000010000000000000000000000000000000000000000000000",
      "type": "0x2",
      "transactionHash": "0x994f6ade436b3dc0b00032fdbc43f016a899b69308cc504aac40da0c9a75627e",
      "transactionIndex": "0x0",
      "blockHash": "0x882192d9624a8a787b13767574a99e58ea5e6bbaa390fb1eb813943d2c660e5d",
      "blockNumber": "0x13",
      "gasUsed": "0x7b3a",
      "effectiveGasPrice": "0x64034e1",
      "blobGasPrice": "0x1",
      "from": "0xf39fd6e51aad88f6f4ce6ab8827279cfffb92266",
      "to": "0x959922be3caee4b8cd9a407cc3ac1c251c2007b1",
      "contractAddress": null
    }
  ],
  "libraries": [],
  "pending": [],
  "returns": {},
  "timestamp": 1760856372982,
  "chain": 31337,
  "commit": "f1f421e"
}