{
  "transactions": [
    {
      "hash": "0x46556e957021f85099be2e1e802d659fbe69df2f678be4aa2c94276a7aeb1587",
      "transactionType": "CALL",
      "contractName": null,
      "contractAddress": "0x9fe46736679d2d9a65f0992f2272de9f3c7fa6e0",
      "function": "setMinCompleteMinutes(uint16)",
      "arguments": [
        "1"
      ],
      "transaction": {
        "from": "0xf39fd6e51aad88f6f4ce6ab8827279cfffb92266",
        "to": "0x9fe46736679d2d9a65f0992f2272de9f3c7fa6e0",
        "gas": "0xaa53",
        "value": "0x0",
        "input": "0xf7f2992c0000000000000000000000000000000000000000000000000000000000000001",
        "nonce": "0xa",
        "chainId": "0x7a69"
      },
      "additionalContracts": [],
      "isFixedGasLimit": false
    }
  ],
  "receipts": [
    {
      "status": "0x1",
      "cumulativeGasUsed": "0x7b50",
      "logs": [
        {
          "address": "0x9fe46736679d2d9a65f0992f2272de9f3c7fa6e0",
          "topics": [
            "0x12c9dccd129ff783f1c8228eacdfa8e334ddecb7ec5c9a79ec662a4aed3d012a"
          ],
          "data": "0x0000000000000000000000000000000000000000000000000000000000000040000000000000000000000000000000000000000000000000000000000000000100000000000000000000000000000000000000000000000000000000000000126d696e436f6d706c6574654d696e757465730000000000000000000000000000",
          "blockHash": "0xb3b5eac130e92780642862c7df95d4ba9448a3989fd2fb249686d4b8f9e80cf0",
          "blockNumber": "0x9",
          "blockTimestamp": "0x68f4722e",
          "transactionHash": "0x46556e957021f85099be2e1e802d659fbe69df2f678be4aa2c94276a7aeb1587",
          "transactionIndex": "0x0",
          "logIndex": "0x0",
          "removed": false
        }
      ],
      "logsBloom": "0x00000000000000000000000000000000000000000000000000000000000000000000000000000010000000000000000000000000000040200000040000000000000000000000000000000000000000000000000000000000000000000000000000000000000000000000000000000000000000000000000000000000000000000000000000000000000000000000000000000000000000000000000000000000000000000000000000000000000000000000000000000000000000000000000000000000000000000000000000000000000000000000004000000000000000000000000000000000000000000000000000000000000000400000000000000000",
      "type": "0x2",
      "transactionHash": "0x46556e957021f85099be2e1e802d659fbe69df2f678be4aa2c94276a7aeb1587",
      "transactionIndex": "0x0",
      "blockHash": "0xb3b5eac130e92780642862c7df95d4ba9448a3989fd2fb249686d4b8f9e80cf0",
      "blockNumber": "0x9",
      "gasUsed": "0x7b50",
      "effectiveGasPrice": "0x1608ae9e",
      "blobGasPrice": "0x1",
      "from": "0xf39fd6e51aad88f6f4ce6ab8827279cfffb92266",
      "to": "0x9fe46736679d2d9a65f0992f2272de9f3c7fa6e0",
      "contractAddress": null
    }
  ],
  "libraries": [],
  "pending": [],
  "returns": {},
  "timestamp": 1760850478516,
  "chain": 31337,
  "commit": "308cf96"
}