{
  "transactions": [
    {
      "hash": "0x39432ec54b7b439b394a572c97c55d28e5ca1004041169c44db940a8c3bfb565",
      "transactionType": "CALL",
      "contractName": null,
      "contractAddress": "0x5fbdb2315678afecb367f032d93f642f64180aa3",
      "function": "mint(address,uint256)",
      "arguments": [
        "0xf39Fd6e51aad88F6F4ce6aB8827279cffFb92266",
        "10000000000"
      ],
      "transaction": {
        "from": "0xf39fd6e51aad88f6f4ce6ab8827279cfffb92266",
        "to": "0x5fbdb2315678afecb367f032d93f642f64180aa3",
        "gas": "0xd88e",
        "value": "0x0",
        "input": "0x40c10f19000000000000000000000000f39fd6e51aad88f6f4ce6ab8827279cfffb9226600000000000000000000000000000000000000000000000000000002540be400",
        "nonce": "0x7",
        "chainId": "0x7a69"
      },
      "additionalContracts": [],
      "isFixedGasLimit": false
    },
    {
      "hash": "0xfbd9c59dcc14b78457b2863c5f8aa203cad15957add22230abb85b1d4b4c39b1",
      "transactionType": "CALL",
      "contractName": null,
      "contractAddress": "0xe7f1725e7734ce288f8367e1bb143e90bb3f0512",
      "function": "mint(address,uint256)",
      "arguments": [
        "0xf39Fd6e51aad88F6F4ce6aB8827279cffFb92266",
        "100000000000000000000000"
      ],
      "transaction": {
        "from": "0xf39fd6e51aad88f6f4ce6ab8827279cfffb92266",
        "to": "0xe7f1725e7734ce288f8367e1bb143e90bb3f0512",
        "gas": "0xc941",
        "value": "0x0",
        "input": "0x40c10f19000000000000000000000000f39fd6e51aad88f6f4ce6ab8827279cfffb9226600000000000000000000000000000000000000000000152d02c7e14af6800000",
        "nonce": "0x8",
        "chainId": "0x7a69"
      },
      "additionalContracts": [],
      "isFixedGasLimit": false
    },
    {
      "hash": "0x7315ad626a7e7bb4ec68a921f99a61ec8343773d91365ce0dade1ac5635a83db",
      "transactionType": "CALL",
      "contractName": null,
      "contractAddress": "0x5fbdb2315678afecb367f032d93f642f64180aa3",
      "function": "mint(address,uint256)",
      "arguments": [
        "0x891402c216Dbda3eD7BEB0f95Dd89b010523642A",
        "50000000000"
      ],
      "transaction": {
        "from": "0xf39fd6e51aad88f6f4ce6ab8827279cfffb92266",
        "to": "0x5fbdb2315678afecb367f032d93f642f64180aa3",
        "gas": "0x128c9",
        "value": "0x0",
        "input": "0x40c10f19000000000000000000000000891402c216dbda3ed7beb0f95dd89b010523642a0000000000000000000000000000000000000000000000000000000ba43b7400",
        "nonce": "0x9",
        "chainId": "0x7a69"
      },
      "additionalContracts": [],
      "isFixedGasLimit": false
    },
    {
      "hash": "0x54d03bc140048dcabee57157acd17a7fcde6c57b05c27caf1aa7129ab17665a3",
      "transactionType": "CALL",
      "contractName": null,
      "contractAddress": "0xe7f1725e7734ce288f8367e1bb143e90bb3f0512",
      "function": "mint(address,uint256)",
      "arguments": [
        "0x891402c216Dbda3eD7BEB0f95Dd89b010523642A",
        "500000000000000000000000"
      ],
      "transaction": {
        "from": "0xf39fd6e51aad88f6f4ce6ab8827279cfffb92266",
        "to": "0xe7f1725e7734ce288f8367e1bb143e90bb3f0512",
        "gas": "0x136c9",
        "value": "0x0",
        "input": "0x40c10f19000000000000000000000000891402c216dbda3ed7beb0f95dd89b010523642a0000000000000000000000000000000000000000000069e10de76676d0800000",
        "nonce": "0xa",
        "chainId": "0x7a69"
      },
      "additionalContracts": [],
      "isFixedGasLimit": false
    }
  ],
  "receipts": [
    {
      "status": "0x1",
      "cumulativeGasUsed": "0x9413",
      "logs": [
        {
          "address": "0x5fbdb2315678afecb367f032d93f642f64180aa3",
          "topics": [
            "0xddf252ad1be2c89b69c2b068fc378daa952ba7f163c4a11628f55a4df523b3ef",
            "0x0000000000000000000000000000000000000000000000000000000000000000",
            "0x000000000000000000000000f39fd6e51aad88f6f4ce6ab8827279cfffb92266"
          ],
          "data": "0x000000000000000000000000000000000000000000000000002386f26fc10000",
          "blockHash": "0x6f62e00c350fab4cb13c1ff160bab460cd8a6ad5fce90beae2bf75d082fd6c1c",
          "blockNumber": "0x5",
          "blockTimestamp": "0x68f47ddb",
          "transactionHash": "0x39432ec54b7b439b394a572c97c55d28e5ca1004041169c44db940a8c3bfb565",
          "transactionIndex": "0x0",
          "logIndex": "0x0",
          "removed": false
        }
      ],
      "logsBloom": "0x00000000000000000000000000000000000000000000000000000000000000000000000000000000000000000000000000000000000000000000000000000000000000000000000000000008000000000000000000000000000000000000000000000040020000000000000100000800000000000000000000000010000000000000000000000000000000000000000000000000000000000000000200000000000000000000000000000000000000000000000000000000000000000000000000000042000000200000000000000000000000002000000000000000000020000000000000000000000000000000000000000000000000000000000000000000",
      "type": "0x2",
      "transactionHash": "0x39432ec54b7b439b394a572c97c55d28e5ca1004041169c44db940a8c3bfb565",
      "transactionIndex": "0x0",
      "blockHash": "0x6f62e00c350fab4cb13c1ff160bab460cd8a6ad5fce90beae2bf75d082fd6c1c",
      "blockNumber": "0x5",
      "gasUsed": "0x9413",
      "effectiveGasPrice": "0x2580ff37",
      "blobGasPrice": "0x1",
      "from": "0xf39fd6e51aad88f6f4ce6ab8827279cfffb92266",
      "to": "0x5fbdb2315678afecb367f032d93f642f64180aa3",
      "contractAddress": null
    },
    {
      "status": "0x1",
      "cumulativeGasUsed": "0x91b5",
      "logs": [
        {
          "address": "0xe7f1725e7734ce288f8367e1bb143e90bb3f0512",
          "topics": [
            "0xddf252ad1be2c89b69c2b068fc378daa952ba7f163c4a11628f55a4df523b3ef",
            "0x0000000000000000000000000000000000000000000000000000000000000000",
            "0x000000000000000000000000f39fd6e51aad88f6f4ce6ab8827279cfffb92266"
          ],
          "data": "0x00000000000000000000000000000125dfa371a19e6f7cb54395ca0000000000",
          "blockHash": "0x4d7f3b9d8a73e2f3587f4df3d6912e5261c5613dab0fa6e3be4522e67abd5df0",
          "blockNumber": "0x6",
          "blockTimestamp": "0x68f47ddc",
          "transactionHash": "0xfbd9c59dcc14b78457b2863c5f8aa203cad15957add22230abb85b1d4b4c39b1",
          "transactionIndex": "0x0",
          "logIndex": "0x0",
          "removed": false
        }
      ],
      "logsBloom": "0x00000000000000000000000000000000000000000000000000000000000000000000000000000000000000000000000010000000000000000000000000000000000000000000000000000008000000000000000000000000000000000000000000000000020000000000000100000800000000000000000000000010000000000000000000000000000000000000000000000000000000000000000000000000000000000000000000000000000000000000000000000000000000000000000000000002000000200000000000001000000000002000000000000000000020000000000000000000000000000000000000000000000000800000000000000000",
      "type": "0x2",
      "transactionHash": "0xfbd9c59dcc14b78457b2863c5f8aa203cad15957add22230abb85b1d4b4c39b1",
      "transactionIndex": "0x0",
      "blockHash": "0x4d7f3b9d8a73e2f3587f4df3d6912e5261c5613dab0fa6e3be4522e67abd5df0",
      "blockNumber": "0x6",
      "gasUsed": "0x91b5",
      "effectiveGasPrice": "0x20d3e7bb",
      "blobGasPrice": "0x1",
      "from": "0xf39fd6e51aad88f6f4ce6ab8827279cfffb92266",
      "to": "0xe7f1725e7734ce288f8367e1bb143e90bb3f0512",
      "contractAddress": null
    },
    {
      "status": "0x1",
      "cumulativeGasUsed": "0xd6df",
      "logs": [
        {
          "address": "0x5fbdb2315678afecb367f032d93f642f64180aa3",
          "topics": [
            "0xddf252ad1be2c89b69c2b068fc378daa952ba7f163c4a11628f55a4df523b3ef",
            "0x0000000000000000000000000000000000000000000000000000000000000000",
            "0x000000000000000000000000891402c216dbda3ed7beb0f95dd89b010523642a"
          ],
          "data": "0x00000000000000000000000000000000000000000000000000b1a2bc2ec50000",
          "blockHash": "0x83a6b43854886edc57ee5f1305a205da90c2d50403818a0529fc86d555286e0a",
          "blockNumber": "0x7",
          "blockTimestamp": "0x68f47ddc",
          "transactionHash": "0x7315ad626a7e7bb4ec68a921f99a61ec8343773d91365ce0dade1ac5635a83db",
          "transactionIndex": "0x0",
          "logIndex": "0x0",
          "removed": false
        }
      ],
      "logsBloom": "0x00000000000000000000000000000000000000000000000000000000000000000000000000000000000000000000000000000000000000000000000000000000000000000000000000000008002080000000000000000000000000000020000000000040020000000000000000000800000000000000000000000010000000000000000000000000000000000000000000000000000000000000000200000000000000000000000000000000000000000000000000000000000000000000000000000042000000000000000000000000000000000000000000000000000020000000000000000000000000000000000000000000000000000000000000000000",
      "type": "0x2",
      "transactionHash": "0x7315ad626a7e7bb4ec68a921f99a61ec8343773d91365ce0dade1ac5635a83db",
      "transactionIndex": "0x0",
      "blockHash": "0x83a6b43854886edc57ee5f1305a205da90c2d50403818a0529fc86d555286e0a",
      "blockNumber": "0x7",
      "gasUsed": "0xd6df",
      "effectiveGasPrice": "0x1cbc0783",
      "blobGasPrice": "0x1",
      "from": "0xf39fd6e51aad88f6f4ce6ab8827279cfffb92266",
      "to": "0x5fbdb2315678afecb367f032d93f642f64180aa3",
      "contractAddress": null
    },
    {
      "status": "0x1",
      "cumulativeGasUsed": "0xd481",
      "logs": [
        {
          "address": "0xe7f1725e7734ce288f8367e1bb143e90bb3f0512",
          "topics": [
            "0xddf252ad1be2c89b69c2b068fc378daa952ba7f163c4a11628f55a4df523b3ef",
            "0x0000000000000000000000000000000000000000000000000000000000000000",
            "0x000000000000000000000000891402c216dbda3ed7beb0f95dd89b010523642a"
          ],
          "data": "0x000000000000000000000000000005bd5e313828182d6f8a51ecf20000000000",
          "blockHash": "0xd8cb3e44255af0a9cc8ff294a8eb22a53f4283ec4a60bf07ee752f97be59fcd2",
          "blockNumber": "0x8",
          "blockTimestamp": "0x68f47ddc",
          "transactionHash": "0x54d03bc140048dcabee57157acd17a7fcde6c57b05c27caf1aa7129ab17665a3",
          "transactionIndex": "0x0",
          "logIndex": "0x0",
          "removed": false
        }
      ],
      "logsBloom": "0x00000000000000000000000000000000000000000000000000000000000000000000000000000000000000000000000010000000000000000000000000000000000000000000000000000008002080000000000000000000000000000020000000000000020000000000000000000800000000000000000000000010000000000000000000000000000000000000000000000000000000000000000000000000000000000000000000000000000000000000000000000000000000000000000000000002000000000000000000001000000000000000000000000000000020000000000000000000000000000000000000000000000000800000000000000000",
      "type": "0x2",
      "transactionHash": "0x54d03bc140048dcabee57157acd17a7fcde6c57b05c27caf1aa7129ab17665a3",
      "transactionIndex": "0x0",
      "blockHash": "0xd8cb3e44255af0a9cc8ff294a8eb22a53f4283ec4a60bf07ee752f97be59fcd2",
      "blockNumber": "0x8",
      "gasUsed": "0xd481",
      "effectiveGasPrice": "0x1927e5cb",
      "blobGasPrice": "0x1",
      "from": "0xf39fd6e51aad88f6f4ce6ab8827279cfffb92266",
      "to": "0xe7f1725e7734ce288f8367e1bb143e90bb3f0512",
      "contractAddress": null
    }
  ],
  "libraries": [],
  "pending": [],
  "returns": {},
  "timestamp": 1760853468232,
  "chain": 31337,
  "commit": "f1f421e"
}