{
  "transactions": [
    {
      "hash": "0x6f6ff2be9eb8a64773bf55f2d362a0b23d8d8bda74666ec43477221d155a3e64",
      "transactionType": "CALL",
      "contractName": null,
      "contractAddress": "0x5fbdb2315678afecb367f032d93f642f64180aa3",
      "function": "mint(address,uint256)",
      "arguments": [
        "0xf39Fd6e51aad88F6F4ce6aB8827279cffFb92266",
        "10000000000"
      ],
      "transaction": {
        "from": "0xf39fd6e51aad88f6f4ce6ab8827279cfffb92266",
        "to": "0x5fbdb2315678afecb367f032d93f642f64180aa3",
        "gas": "0xd88e",
        "value": "0x0",
        "input": "0x40c10f19000000000000000000000000f39fd6e51aad88f6f4ce6ab8827279cfffb9226600000000000000000000000000000000000000000000000000000002540be400",
        "nonce": "0x7",
        "chainId": "0x7a69"
      },
      "additionalContracts": [],
      "isFixedGasLimit": false
    },
    {
      "hash": "0x53654a7325518413ac065274e1e26113f616e192b12bcf2e7d6d83303a2a90d7",
      "transactionType": "CALL",
      "contractName": null,
      "contractAddress": "0xe7f1725e7734ce288f8367e1bb143e90bb3f0512",
      "function": "mint(address,uint256)",
      "arguments": [
        "0xf39Fd6e51aad88F6F4ce6aB8827279cffFb92266",
        "100000000000000000000000"
      ],
      "transaction": {
        "from": "0xf39fd6e51aad88f6f4ce6ab8827279cfffb92266",
        "to": "0xe7f1725e7734ce288f8367e1bb143e90bb3f0512",
        "gas": "0xc941",
        "value": "0x0",
        "input": "0x40c10f19000000000000000000000000f39fd6e51aad88f6f4ce6ab8827279cfffb9226600000000000000000000000000000000000000000000152d02c7e14af6800000",
        "nonce": "0x8",
        "chainId": "0x7a69"
      },
      "additionalContracts": [],
      "isFixedGasLimit": false
    },
    {
      "hash": "0x2e5ea06bb40f5502a2470afc7bb7c715d16efdd00b3769ba92bde80ab7db6571",
      "transactionType": "CALL",
      "contractName": null,
      "contractAddress": "0x5fbdb2315678afecb367f032d93f642f64180aa3",
      "function": "mint(address,uint256)",
      "arguments": [
        "0x891402c216Dbda3eD7BEB0f95Dd89b010523642A",
        "50000000000"
      ],
      "transaction": {
        "from": "0xf39fd6e51aad88f6f4ce6ab8827279cfffb92266",
        "to": "0x5fbdb2315678afecb367f032d93f642f64180aa3",
        "gas": "0x128c9",
        "value": "0x0",
        "input": "0x40c10f19000000000000000000000000891402c216dbda3ed7beb0f95dd89b010523642a0000000000000000000000000000000000000000000000000000000ba43b7400",
        "nonce": "0x9",
        "chainId": "0x7a69"
      },
      "additionalContracts": [],
      "isFixedGasLimit": false
    },
    {
      "hash": "0xe675fa63391af09df19bfb9f86523107e0c4eec348e210941f79633d19c7177f",
      "transactionType": "CALL",
      "contractName": null,
      "contractAddress": "0xe7f1725e7734ce288f8367e1bb143e90bb3f0512",
      "function": "mint(address,uint256)",
      "arguments": [
        "0x891402c216Dbda3eD7BEB0f95Dd89b010523642A",
        "500000000000000000000000"
      ],
      "transaction": {
        "from": "0xf39fd6e51aad88f6f4ce6ab8827279cfffb92266",
        "to": "0xe7f1725e7734ce288f8367e1bb143e90bb3f0512",
        "gas": "0x136c9",
        "value": "0x0",
        "input": "0x40c10f19000000000000000000000000891402c216dbda3ed7beb0f95dd89b010523642a0000000000000000000000000000000000000000000069e10de76676d0800000",
        "nonce": "0xa",
        "chainId": "0x7a69"
      },
      "additionalContracts": [],
      "isFixedGasLimit": false
    }
  ],
  "receipts": [
    {
      "status": "0x1",
      "cumulativeGasUsed": "0x9413",
      "logs": [
        {
          "address": "0x5fbdb2315678afecb367f032d93f642f64180aa3",
          "topics": [
            "0xddf252ad1be2c89b69c2b068fc378daa952ba7f163c4a11628f55a4df523b3ef",
            "0x0000000000000000000000000000000000000000000000000000000000000000",
            "0x000000000000000000000000f39fd6e51aad88f6f4ce6ab8827279cfffb92266"
          ],
          "data": "0x000000000000000000000000000000000000000000000000002386f26fc10000",
          "blockHash": "0x46a8bd7274eceb1434b31067cd2b1796e7dcb172f15f3b26ea8c6ba31d187c39",
          "blockNumber": "0x6",
          "blockTimestamp": "0x68f47b8d",
          "transactionHash": "0x6f6ff2be9eb8a64773bf55f2d362a0b23d8d8bda74666ec43477221d155a3e64",
          "transactionIndex": "0x0",
          "logIndex": "0x0",
          "removed": false
        }
      ],
      "logsBloom": "0x00000000000000000000000000000000000000000000000000000000000000000000000000000000000000000000000000000000000000000000000000000000000000000000000000000008000000000000000000000000000000000000000000000040020000000000000100000800000000000000000000000010000000000000000000000000000000000000000000000000000000000000000200000000000000000000000000000000000000000000000000000000000000000000000000000042000000200000000000000000000000002000000000000000000020000000000000000000000000000000000000000000000000000000000000000000",
      "type": "0x2",
      "transactionHash": "0x6f6ff2be9eb8a64773bf55f2d362a0b23d8d8bda74666ec43477221d155a3e64",
      "transactionIndex": "0x0",
      "blockHash": "0x46a8bd7274eceb1434b31067cd2b1796e7dcb172f15f3b26ea8c6ba31d187c39",
      "blockNumber": "0x6",
      "gasUsed": "0x9413",
      "effectiveGasPrice": "0x20d0df51",
      "blobGasPrice": "0x1",
      "from": "0xf39fd6e51aad88f6f4ce6ab8827279cfffb92266",
      "to": "0x5fbdb2315678afecb367f032d93f642f64180aa3",
      "contractAddress": null
    },
    {
      "status": "0x1",
      "cumulativeGasUsed": "0x91b5",
      "logs": [
        {
          "address": "0xe7f1725e7734ce288f8367e1bb143e90bb3f0512",
          "topics": [
            "0xddf252ad1be2c89b69c2b068fc378daa952ba7f163c4a11628f55a4df523b3ef",
            "0x0000000000000000000000000000000000000000000000000000000000000000",
            "0x000000000000000000000000f39fd6e51aad88f6f4ce6ab8827279cfffb92266"
          ],
          "data": "0x00000000000000000000000000000125dfa371a19e6f7cb54395ca0000000000",
          "blockHash": "0x998fe4f23a440834dd04fa44ab4ed5277a96fb3019579aa0e25d8494f954362a",
          "blockNumber": "0x7",
          "blockTimestamp": "0x68f47b8e",
          "transactionHash": "0x53654a7325518413ac065274e1e26113f616e192b12bcf2e7d6d83303a2a90d7",
          "transactionIndex": "0x0",
          "logIndex": "0x0",
          "removed": false
        }
      ],
      "logsBloom": "0x00000000000000000000000000000000000000000000000000000000000000000000000000000000000000000000000010000000000000000000000000000000000000000000000000000008000000000000000000000000000000000000000000000000020000000000000100000800000000000000000000000010000000000000000000000000000000000000000000000000000000000000000000000000000000000000000000000000000000000000000000000000000000000000000000000002000000200000000000001000000000002000000000000000000020000000000000000000000000000000000000000000000000800000000000000000",
      "type": "0x2",
      "transactionHash": "0x53654a7325518413ac065274e1e26113f616e192b12bcf2e7d6d83303a2a90d7",
      "transactionIndex": "0x0",
      "blockHash": "0x998fe4f23a440834dd04fa44ab4ed5277a96fb3019579aa0e25d8494f954362a",
      "blockNumber": "0x7",
      "gasUsed": "0x91b5",
      "effectiveGasPrice": "0x1cb96ac5",
      "blobGasPrice": "0x1",
      "from": "0xf39fd6e51aad88f6f4ce6ab8827279cfffb92266",
      "to": "0xe7f1725e7734ce288f8367e1bb143e90bb3f0512",
      "contractAddress": null
    },
    {
      "status": "0x1",
      "cumulativeGasUsed": "0xd6df",
      "logs": [
        {
          "address": "0x5fbdb2315678afecb367f032d93f642f64180aa3",
          "topics": [
            "0xddf252ad1be2c89b69c2b068fc378daa952ba7f163c4a11628f55a4df523b3ef",
            "0x0000000000000000000000000000000000000000000000000000000000000000",
            "0x000000000000000000000000891402c216dbda3ed7beb0f95dd89b010523642a"
          ],
          "data": "0x00000000000000000000000000000000000000000000000000b1a2bc2ec50000",
          "blockHash": "0xe7321fc33dac6a02dc9517e5032f1604a5b5832a9168e934cb5ef39655de29ad",
          "blockNumber": "0x8",
          "blockTimestamp": "0x68f47b8e",
          "transactionHash": "0x2e5ea06bb40f5502a2470afc7bb7c715d16efdd00b3769ba92bde80ab7db6571",
          "transactionIndex": "0x0",
          "logIndex": "0x0",
          "removed": false
        }
      ],
      "logsBloom": "0x00000000000000000000000000000000000000000000000000000000000000000000000000000000000000000000000000000000000000000000000000000000000000000000000000000008002080000000000000000000000000000020000000000040020000000000000000000800000000000000000000000010000000000000000000000000000000000000000000000000000000000000000200000000000000000000000000000000000000000000000000000000000000000000000000000042000000000000000000000000000000000000000000000000000020000000000000000000000000000000000000000000000000000000000000000000",
      "type": "0x2",
      "transactionHash": "0x2e5ea06bb40f5502a2470afc7bb7c715d16efdd00b3769ba92bde80ab7db6571",
      "transactionIndex": "0x0",
      "blockHash": "0xe7321fc33dac6a02dc9517e5032f1604a5b5832a9168e934cb5ef39655de29ad",
      "blockNumber": "0x8",
      "gasUsed": "0xd6df",
      "effectiveGasPrice": "0x19248694",
      "blobGasPrice": "0x1",
      "from": "0xf39fd6e51aad88f6f4ce6ab8827279cfffb92266",
      "to": "0x5fbdb2315678afecb367f032d93f642f64180aa3",
      "contractAddress": null
    },
    {
      "status": "0x1",
      "cumulativeGasUsed": "0xd481",
      "logs": [
        {
          "address": "0xe7f1725e7734ce288f8367e1bb143e90bb3f0512",
          "topics": [
            "0xddf252ad1be2c89b69c2b068fc378daa952ba7f163c4a11628f55a4df523b3ef",
            "0x0000000000000000000000000000000000000000000000000000000000000000",
            "0x000000000000000000000000891402c216dbda3ed7beb0f95dd89b010523642a"
          ],
          "data": "0x000000000000000000000000000005bd5e313828182d6f8a51ecf20000000000",
          "blockHash": "0xe5768f082293b77ed82932d94e70bd18f9f7081f5a5c6f6ae2fc1b340bfa77a0",
          "blockNumber": "0x9",
          "blockTimestamp": "0x68f47b8e",
          "transactionHash": "0xe675fa63391af09df19bfb9f86523107e0c4eec348e210941f79633d19c7177f",
          "transactionIndex": "0x0",
          "logIndex": "0x0",
          "removed": false
        }
      ],
      "logsBloom": "0x00000000000000000000000000000000000000000000000000000000000000000000000000000000000000000000000010000000000000000000000000000000000000000000000000000008002080000000000000000000000000000020000000000000020000000000000000000800000000000000000000000010000000000000000000000000000000000000000000000000000000000000000000000000000000000000000000000000000000000000000000000000000000000000000000000002000000000000000000001000000000000000000000000000000020000000000000000000000000000000000000000000000000800000000000000000",
      "type": "0x2",
      "transactionHash": "0xe675fa63391af09df19bfb9f86523107e0c4eec348e210941f79633d19c7177f",
      "transactionIndex": "0x0",
      "blockHash": "0xe5768f082293b77ed82932d94e70bd18f9f7081f5a5c6f6ae2fc1b340bfa77a0",
      "blockNumber": "0x9",
      "gasUsed": "0xd481",
      "effectiveGasPrice": "0x1602e913",
      "blobGasPrice": "0x1",
      "from": "0xf39fd6e51aad88f6f4ce6ab8827279cfffb92266",
      "to": "0xe7f1725e7734ce288f8367e1bb143e90bb3f0512",
      "contractAddress": null
    }
  ],
  "libraries": [],
  "pending": [],
  "returns": {},
  "timestamp": 1760852878405,
  "chain": 31337,
  "commit": "f1f421e"
}