{
  "transactions": [
    {
      "hash": "0x1e85aedee4b551b257c9e3cb8183f802624bf875838e388f94333875bcdcca3a",
      "transactionType": "CALL",
      "contractName": null,
      "contractAddress": "0x5fbdb2315678afecb367f032d93f642f64180aa3",
      "function": "mint(address,uint256)",
      "arguments": [
        "0xf39Fd6e51aad88F6F4ce6aB8827279cffFb92266",
        "10000000000"
      ],
      "transaction": {
        "from": "0xf39fd6e51aad88f6f4ce6ab8827279cfffb92266",
        "to": "0x5fbdb2315678afecb367f032d93f642f64180aa3",
        "gas": "0xd88e",
        "value": "0x0",
        "input": "0x40c10f19000000000000000000000000f39fd6e51aad88f6f4ce6ab8827279cfffb9226600000000000000000000000000000000000000000000000000000002540be400",
        "nonce": "0xc",
        "chainId": "0x7a69"
      },
      "additionalContracts": [],
      "isFixedGasLimit": false
    },
    {
      "hash": "0x5a8bbc23086ed6948e71f820f8781299bea1cc880aa302becffb68af5d1e743f",
      "transactionType": "CALL",
      "contractName": null,
      "contractAddress": "0xe7f1725e7734ce288f8367e1bb143e90bb3f0512",
      "function": "mint(address,uint256)",
      "arguments": [
        "0xf39Fd6e51aad88F6F4ce6aB8827279cffFb92266",
        "100000000000000000000000"
      ],
      "transaction": {
        "from": "0xf39fd6e51aad88f6f4ce6ab8827279cfffb92266",
        "to": "0xe7f1725e7734ce288f8367e1bb143e90bb3f0512",
        "gas": "0x19f42",
        "value": "0x0",
        "input": "0x40c10f19000000000000000000000000f39fd6e51aad88f6f4ce6ab8827279cfffb9226600000000000000000000000000000000000000000000152d02c7e14af6800000",
        "nonce": "0xd",
        "chainId": "0x7a69"
      },
      "additionalContracts": [],
      "isFixedGasLimit": false
    },
    {
      "hash": "0x32ae9543200c9282627053f3fcddbe42a47e6085b1ffeab12030de9dda0954b7",
      "transactionType": "CALL",
      "contractName": null,
      "contractAddress": "0x5fbdb2315678afecb367f032d93f642f64180aa3",
      "function": "mint(address,uint256)",
      "arguments": [
        "0x891402c216Dbda3eD7BEB0f95Dd89b010523642A",
        "50000000000"
      ],
      "transaction": {
        "from": "0xf39fd6e51aad88f6f4ce6ab8827279cfffb92266",
        "to": "0x5fbdb2315678afecb367f032d93f642f64180aa3",
        "gas": "0x128c9",
        "value": "0x0",
        "input": "0x40c10f19000000000000000000000000891402c216dbda3ed7beb0f95dd89b010523642a0000000000000000000000000000000000000000000000000000000ba43b7400",
        "nonce": "0xe",
        "chainId": "0x7a69"
      },
      "additionalContracts": [],
      "isFixedGasLimit": false
    },
    {
      "hash": "0x29bc4d4b5650743779f4df640e76fc43578cdd686c1154091f108811bceb8a81",
      "transactionType": "CALL",
      "contractName": null,
      "contractAddress": "0xe7f1725e7734ce288f8367e1bb143e90bb3f0512",
      "function": "mint(address,uint256)",
      "arguments": [
        "0x891402c216Dbda3eD7BEB0f95Dd89b010523642A",
        "500000000000000000000000"
      ],
      "transaction": {
        "from": "0xf39fd6e51aad88f6f4ce6ab8827279cfffb92266",
        "to": "0xe7f1725e7734ce288f8367e1bb143e90bb3f0512",
        "gas": "0x142fe",
        "value": "0x0",
        "input": "0x40c10f19000000000000000000000000891402c216dbda3ed7beb0f95dd89b010523642a0000000000000000000000000000000000000000000069e10de76676d0800000",
        "nonce": "0xf",
        "chainId": "0x7a69"
      },
      "additionalContracts": [],
      "isFixedGasLimit": false
    }
  ],
  "receipts": [
    {
      "status": "0x1",
      "cumulativeGasUsed": "0x9413",
      "logs": [
        {
          "address": "0x5fbdb2315678afecb367f032d93f642f64180aa3",
          "topics": [
            "0xddf252ad1be2c89b69c2b068fc378daa952ba7f163c4a11628f55a4df523b3ef",
            "0x0000000000000000000000000000000000000000000000000000000000000000",
            "0x000000000000000000000000f39fd6e51aad88f6f4ce6ab8827279cfffb92266"
          ],
          "data": "0x000000000000000000000000000000000000000000000000002386f26fc10000",
          "blockHash": "0xe05d002aab7f042b48d95dc2965be9b493f0cdb3264b005c99ffe0503e883cb8",
          "blockNumber": "0x8",
          "blockTimestamp": "0x68f4a134",
          "transactionHash": "0x1e85aedee4b551b257c9e3cb8183f802624bf875838e388f94333875bcdcca3a",
          "transactionIndex": "0x0",
          "logIndex": "0x0",
          "removed": false
        }
      ],
      "logsBloom": "0x00000000000000000000000000000000000000000000000000000000000000000000000000000000000000000000000000000000000000000000000000000000000000000000000000000008000000000000000000000000000000000000000000000040020000000000000100000800000000000000000000000010000000000000000000000000000000000000000000000000000000000000000200000000000000000000000000000000000000000000000000000000000000000000000000000042000000200000000000000000000000002000000000000000000020000000000000000000000000000000000000000000000000000000000000000000",
      "type": "0x2",
      "transactionHash": "0x1e85aedee4b551b257c9e3cb8183f802624bf875838e388f94333875bcdcca3a",
      "transactionIndex": "0x0",
      "blockHash": "0xe05d002aab7f042b48d95dc2965be9b493f0cdb3264b005c99ffe0503e883cb8",
      "blockNumber": "0x8",
      "gasUsed": "0x9413",
      "effectiveGasPrice": "0x1b0c8558",
      "blobGasPrice": "0x1",
      "from": "0xf39fd6e51aad88f6f4ce6ab8827279cfffb92266",
      "to": "0x5fbdb2315678afecb367f032d93f642f64180aa3",
      "contractAddress": null
    },
    {
      "status": "0x1",
      "cumulativeGasUsed": "0x12ca4",
      "logs": [
        {
          "address": "0xe7f1725e7734ce288f8367e1bb143e90bb3f0512",
          "topics": [
            "0xddf252ad1be2c89b69c2b068fc378daa952ba7f163c4a11628f55a4df523b3ef",
            "0x0000000000000000000000000000000000000000000000000000000000000000",
            "0x000000000000000000000000f39fd6e51aad88f6f4ce6ab8827279cfffb92266"
          ],
          "data": "0x00000000000000000000000000000000000000000000152d02c7e14af6800000",
          "blockHash": "0xcd3a660a3f99721e4eed208e3e47c073c346bb1225732742598e0042f05a9cb4",
          "blockNumber": "0x9",
          "blockTimestamp": "0x68f4a134",
          "transactionHash": "0x5a8bbc23086ed6948e71f820f8781299bea1cc880aa302becffb68af5d1e743f",
          "transactionIndex": "0x0",
          "logIndex": "0x0",
          "removed": false
        },
        {
          "address": "0xe7f1725e7734ce288f8367e1bb143e90bb3f0512",
          "topics": [
            "0x71a0b5e69b14ab21bbc63a0462f14d5acbb5d4b2e03947672d7ade318000e8a6",
            "0x000000000000000000000000f39fd6e51aad88f6f4ce6ab8827279cfffb92266"
          ],
          "data": "0x00000000000000000000000000000000000000000000152d02c7e14af68000000000000000000000000000000000000000000000000000000000000000000040000000000000000000000000000000000000000000000000000000000000000c53797374656d204772616e740000000000000000000000000000000000000000",
          "blockHash": "0xcd3a660a3f99721e4eed208e3e47c073c346bb1225732742598e0042f05a9cb4",
          "blockNumber": "0x9",
          "blockTimestamp": "0x68f4a134",
          "transactionHash": "0x5a8bbc23086ed6948e71f820f8781299bea1cc880aa302becffb68af5d1e743f",
          "transactionIndex": "0x0",
          "logIndex": "0x1",
          "removed": false
        }
      ],
      "logsBloom": "0x00000000000000000000000000000000000000000000000000000000000000000000000000000000000000000000000010000000000000000000000000000000000000000000000000000008000000000000000000000000000000000000000000000000020000000000000100000800000000000000000000000010000000000000000000000000000000000000000000000000000000000000000000000000000000000000000000000000000000000000000000000000000000000000000000000002000000220000000000001000000000002000000000000000000020000000000000000000000000020000000000000000000000800000000000000000",
      "type": "0x2",
      "transactionHash": "0x5a8bbc23086ed6948e71f820f8781299bea1cc880aa302becffb68af5d1e743f",
      "transactionIndex": "0x0",
      "blockHash": "0xcd3a660a3f99721e4eed208e3e47c073c346bb1225732742598e0042f05a9cb4",
      "blockNumber": "0x9",
      "gasUsed": "0x12ca4",
      "effectiveGasPrice": "0x17ad24a7",
      "blobGasPrice": "0x1",
      "from": "0xf39fd6e51aad88f6f4ce6ab8827279cfffb92266",
      "to": "0xe7f1725e7734ce288f8367e1bb143e90bb3f0512",
      "contractAddress": null
    },
    {
      "status": "0x1",
      "cumulativeGasUsed": "0xd6df",
      "logs": [
        {
          "address": "0x5fbdb2315678afecb367f032d93f642f64180aa3",
          "topics": [
            "0xddf252ad1be2c89b69c2b068fc378daa952ba7f163c4a11628f55a4df523b3ef",
            "0x0000000000000000000000000000000000000000000000000000000000000000",
            "0x000000000000000000000000891402c216dbda3ed7beb0f95dd89b010523642a"
          ],
          "data": "0x00000000000000000000000000000000000000000000000000b1a2bc2ec50000",
          "blockHash": "0xf6367eac018a13adc2890942541169afa3ab885aacad75ad4e9e61b4b6bdeb19",
          "blockNumber": "0xa",
          "blockTimestamp": "0x68f4a134",
          "transactionHash": "0x32ae9543200c9282627053f3fcddbe42a47e6085b1ffeab12030de9dda0954b7",
          "transactionIndex": "0x0",
          "logIndex": "0x0",
          "removed": false
        }
      ],
      "logsBloom": "0x00000000000000000000000000000000000000000000000000000000000000000000000000000000000000000000000000000000000000000000000000000000000000000000000000000008002080000000000000000000000000000020000000000040020000000000000000000800000000000000000000000010000000000000000000000000000000000000000000000000000000000000000200000000000000000000000000000000000000000000000000000000000000000000000000000042000000000000000000000000000000000000000000000000000020000000000000000000000000000000000000000000000000000000000000000000",
      "type": "0x2",
      "transactionHash": "0x32ae9543200c9282627053f3fcddbe42a47e6085b1ffeab12030de9dda0954b7",
      "transactionIndex": "0x0",
      "blockHash": "0xf6367eac018a13adc2890942541169afa3ab885aacad75ad4e9e61b4b6bdeb19",
      "blockNumber": "0xa",
      "gasUsed": "0xd6df",
      "effectiveGasPrice": "0x14bb6340",
      "blobGasPrice": "0x1",
      "from": "0xf39fd6e51aad88f6f4ce6ab8827279cfffb92266",
      "to": "0x5fbdb2315678afecb367f032d93f642f64180aa3",
      "contractAddress": null
    },
    {
      "status": "0x1",
      "cumulativeGasUsed": "0xe9d8",
      "logs": [
        {
          "address": "0xe7f1725e7734ce288f8367e1bb143e90bb3f0512",
          "topics": [
            "0xddf252ad1be2c89b69c2b068fc378daa952ba7f163c4a11628f55a4df523b3ef",
            "0x0000000000000000000000000000000000000000000000000000000000000000",
            "0x000000000000000000000000891402c216dbda3ed7beb0f95dd89b010523642a"
          ],
          "data": "0x0000000000000000000000000000000000000000000069e10de76676d0800000",
          "blockHash": "0x41b00167db62924b9b639f132813a23fe69df8c6fc10268427586515ca649311",
          "blockNumber": "0xb",
          "blockTimestamp": "0x68f4a134",
          "transactionHash": "0x29bc4d4b5650743779f4df640e76fc43578cdd686c1154091f108811bceb8a81",
          "transactionIndex": "0x0",
          "logIndex": "0x0",
          "removed": false
        },
        {
          "address": "0xe7f1725e7734ce288f8367e1bb143e90bb3f0512",
          "topics": [
            "0x71a0b5e69b14ab21bbc63a0462f14d5acbb5d4b2e03947672d7ade318000e8a6",
            "0x000000000000000000000000891402c216dbda3ed7beb0f95dd89b010523642a"
          ],
          "data": "0x0000000000000000000000000000000000000000000069e10de76676d08000000000000000000000000000000000000000000000000000000000000000000040000000000000000000000000000000000000000000000000000000000000000c53797374656d204772616e740000000000000000000000000000000000000000",
          "blockHash": "0x41b00167db62924b9b639f132813a23fe69df8c6fc10268427586515ca649311",
          "blockNumber": "0xb",
          "blockTimestamp": "0x68f4a134",
          "transactionHash": "0x29bc4d4b5650743779f4df640e76fc43578cdd686c1154091f108811bceb8a81",
          "transactionIndex": "0x0",
          "logIndex": "0x1",
          "removed": false
        }
      ],
      "logsBloom": "0x00000000000000000000000000000000000000000000000000000000000000000000000000000000000000000000000010000000000000000000000000000000000000000000000000000008002080000000000000000000000000000020000000000000020000000000000000000800000000000000000000000010000000000000000000000000000000000000000000000000000000000000000000000000000000000000000000000000000000000000000000000000000000000000000000000002000000020000000000001000000000000000000000000000000020000000000000000000000000020000000000000000000000800000000000000000",
      "type": "0x2",
      "transactionHash": "0x29bc4d4b5650743779f4df640e76fc43578cdd686c1154091f108811bceb8a81",
      "transactionIndex": "0x0",
      "blockHash": "0x41b00167db62924b9b639f132813a23fe69df8c6fc10268427586515ca649311",
      "blockNumber": "0xb",
      "gasUsed": "0xe9d8",
      "effectiveGasPrice": "0x122665a9",
      "blobGasPrice": "0x1",
      "from": "0xf39fd6e51aad88f6f4ce6ab8827279cfffb92266",
      "to": "0xe7f1725e7734ce288f8367e1bb143e90bb3f0512",
      "contractAddress": null
    }
  ],
  "libraries": [],
  "pending": [],
  "returns": {},
  "timestamp": 1760862516484,
  "chain": 31337,
  "commit": "f1f421e"
}