{
  "transactions": [
    {
      "hash": "0xe4fb02ad4a8b71ec50afdb8d02b6d9c95f64ebda6a375bf1f43f6b4b589c0503",
      "transactionType": "CALL",
      "contractName": null,
      "contractAddress": "0x5fbdb2315678afecb367f032d93f642f64180aa3",
      "function": "mint(address,uint256)",
      "arguments": [
        "0xf39Fd6e51aad88F6F4ce6aB8827279cffFb92266",
        "10000000000"
      ],
      "transaction": {
        "from": "0xf39fd6e51aad88f6f4ce6ab8827279cfffb92266",
        "to": "0x5fbdb2315678afecb367f032d93f642f64180aa3",
        "gas": "0xd88e",
        "value": "0x0",
        "input": "0x40c10f19000000000000000000000000f39fd6e51aad88f6f4ce6ab8827279cfffb9226600000000000000000000000000000000000000000000000000000002540be400",
        "nonce": "0x7",
        "chainId": "0x7a69"
      },
      "additionalContracts": [],
      "isFixedGasLimit": false
    },
    {
      "hash": "0x182c13dab075473ee9eda526e0740694d889a2524dc7f5fec28d3c6bca9875aa",
      "transactionType": "CALL",
      "contractName": null,
      "contractAddress": "0xe7f1725e7734ce288f8367e1bb143e90bb3f0512",
      "function": "mint(address,uint256)",
      "arguments": [
        "0xf39Fd6e51aad88F6F4ce6aB8827279cffFb92266",
        "100000000000000000000000"
      ],
      "transaction": {
        "from": "0xf39fd6e51aad88f6f4ce6ab8827279cfffb92266",
        "to": "0xe7f1725e7734ce288f8367e1bb143e90bb3f0512",
        "gas": "0xc941",
        "value": "0x0",
        "input": "0x40c10f19000000000000000000000000f39fd6e51aad88f6f4ce6ab8827279cfffb9226600000000000000000000000000000000000000000000152d02c7e14af6800000",
        "nonce": "0x8",
        "chainId": "0x7a69"
      },
      "additionalContracts": [],
      "isFixedGasLimit": false
    },
    {
      "hash": "0xb67f2df5523e38e57a944efab7c25d8df1c7b199b6e21818f4f0c6030dfa7a85",
      "transactionType": "CALL",
      "contractName": null,
      "contractAddress": "0x5fbdb2315678afecb367f032d93f642f64180aa3",
      "function": "mint(address,uint256)",
      "arguments": [
        "0x891402c216Dbda3eD7BEB0f95Dd89b010523642A",
        "50000000000"
      ],
      "transaction": {
        "from": "0xf39fd6e51aad88f6f4ce6ab8827279cfffb92266",
        "to": "0x5fbdb2315678afecb367f032d93f642f64180aa3",
        "gas": "0x128c9",
        "value": "0x0",
        "input": "0x40c10f19000000000000000000000000891402c216dbda3ed7beb0f95dd89b010523642a0000000000000000000000000000000000000000000000000000000ba43b7400",
        "nonce": "0x9",
        "chainId": "0x7a69"
      },
      "additionalContracts": [],
      "isFixedGasLimit": false
    },
    {
      "hash": "0x75c33758575ed1acc0bdf9a581087d28904b6f13d48fe76128d3bedef25c7156",
      "transactionType": "CALL",
      "contractName": null,
      "contractAddress": "0xe7f1725e7734ce288f8367e1bb143e90bb3f0512",
      "function": "mint(address,uint256)",
      "arguments": [
        "0x891402c216Dbda3eD7BEB0f95Dd89b010523642A",
        "500000000000000000000000"
      ],
      "transaction": {
        "from": "0xf39fd6e51aad88f6f4ce6ab8827279cfffb92266",
        "to": "0xe7f1725e7734ce288f8367e1bb143e90bb3f0512",
        "gas": "0x136c9",
        "value": "0x0",
        "input": "0x40c10f19000000000000000000000000891402c216dbda3ed7beb0f95dd89b010523642a0000000000000000000000000000000000000000000069e10de76676d0800000",
        "nonce": "0xa",
        "chainId": "0x7a69"
      },
      "additionalContracts": [],
      "isFixedGasLimit": false
    }
  ],
  "receipts": [
    {
      "status": "0x1",
      "cumulativeGasUsed": "0x9413",
      "logs": [
        {
          "address": "0x5fbdb2315678afecb367f032d93f642f64180aa3",
          "topics": [
            "0xddf252ad1be2c89b69c2b068fc378daa952ba7f163c4a11628f55a4df523b3ef",
            "0x0000000000000000000000000000000000000000000000000000000000000000",
            "0x000000000000000000000000f39fd6e51aad88f6f4ce6ab8827279cfffb92266"
          ],
          "data": "0x000000000000000000000000000000000000000000000000002386f26fc10000",
          "blockHash": "0x6b9a4586f74e20135ce78042aebf270bef9651dc222eaab43cb6309855ae1152",
          "blockNumber": "0x6",
          "blockTimestamp": "0x68f480df",
          "transactionHash": "0xe4fb02ad4a8b71ec50afdb8d02b6d9c95f64ebda6a375bf1f43f6b4b589c0503",
          "transactionIndex": "0x0",
          "logIndex": "0x0",
          "removed": false
        }
      ],
      "logsBloom": "0x00000000000000000000000000000000000000000000000000000000000000000000000000000000000000000000000000000000000000000000000000000000000000000000000000000008000000000000000000000000000000000000000000000040020000000000000100000800000000000000000000000010000000000000000000000000000000000000000000000000000000000000000200000000000000000000000000000000000000000000000000000000000000000000000000000042000000200000000000000000000000002000000000000000000020000000000000000000000000000000000000000000000000000000000000000000",
      "type": "0x2",
      "transactionHash": "0xe4fb02ad4a8b71ec50afdb8d02b6d9c95f64ebda6a375bf1f43f6b4b589c0503",
      "transactionIndex": "0x0",
      "blockHash": "0x6b9a4586f74e20135ce78042aebf270bef9651dc222eaab43cb6309855ae1152",
      "blockNumber": "0x6",
      "gasUsed": "0x9413",
      "effectiveGasPrice": "0x20d5d162",
      "blobGasPrice": "0x1",
      "from": "0xf39fd6e51aad88f6f4ce6ab8827279cfffb92266",
      "to": "0x5fbdb2315678afecb367f032d93f642f64180aa3",
      "contractAddress": null
    },
    {
      "status": "0x1",
      "cumulativeGasUsed": "0x91b5",
      "logs": [
        {
          "address": "0xe7f1725e7734ce288f8367e1bb143e90bb3f0512",
          "topics": [
            "0xddf252ad1be2c89b69c2b068fc378daa952ba7f163c4a11628f55a4df523b3ef",
            "0x0000000000000000000000000000000000000000000000000000000000000000",
            "0x000000000000000000000000f39fd6e51aad88f6f4ce6ab8827279cfffb92266"
          ],
          "data": "0x00000000000000000000000000000125dfa371a19e6f7cb54395ca0000000000",
          "blockHash": "0x0c16c0587391136cf75534099a91d3e6c6185bc2d02605cf9327163fe41857f9",
          "blockNumber": "0x7",
          "blockTimestamp": "0x68f480e0",
          "transactionHash": "0x182c13dab075473ee9eda526e0740694d889a2524dc7f5fec28d3c6bca9875aa",
          "transactionIndex": "0x0",
          "logIndex": "0x0",
          "removed": false
        }
      ],
      "logsBloom": "0x00000000000000000000000000000000000000000000000000000000000000000000000000000000000000000000000010000000000000000000000000000000000000000000000000000008000000000000000000000000000000000000000000000000020000000000000100000800000000000000000000000010000000000000000000000000000000000000000000000000000000000000000000000000000000000000000000000000000000000000000000000000000000000000000000000002000000200000000000001000000000002000000000000000000020000000000000000000000000000000000000000000000000800000000000000000",
      "type": "0x2",
      "transactionHash": "0x182c13dab075473ee9eda526e0740694d889a2524dc7f5fec28d3c6bca9875aa",
      "transactionIndex": "0x0",
      "blockHash": "0x0c16c0587391136cf75534099a91d3e6c6185bc2d02605cf9327163fe41857f9",
      "blockNumber": "0x7",
      "gasUsed": "0x91b5",
      "effectiveGasPrice": "0x1cbdbefa",
      "blobGasPrice": "0x1",
      "from": "0xf39fd6e51aad88f6f4ce6ab8827279cfffb92266",
      "to": "0xe7f1725e7734ce288f8367e1bb143e90bb3f0512",
      "contractAddress": null
    },
    {
      "status": "0x1",
      "cumulativeGasUsed": "0xd6df",
      "logs": [
        {
          "address": "0x5fbdb2315678afecb367f032d93f642f64180aa3",
          "topics": [
            "0xddf252ad1be2c89b69c2b068fc378daa952ba7f163c4a11628f55a4df523b3ef",
            "0x0000000000000000000000000000000000000000000000000000000000000000",
            "0x000000000000000000000000891402c216dbda3ed7beb0f95dd89b010523642a"
          ],
          "data": "0x00000000000000000000000000000000000000000000000000b1a2bc2ec50000",
          "blockHash": "0x38ae4fc610b17f1c52d71be8f74b886d66bbda9884fe1486ca0083e630096ac2",
          "blockNumber": "0x8",
          "blockTimestamp": "0x68f480e0",
          "transactionHash": "0xb67f2df5523e38e57a944efab7c25d8df1c7b199b6e21818f4f0c6030dfa7a85",
          "transactionIndex": "0x0",
          "logIndex": "0x0",
          "removed": false
        }
      ],
      "logsBloom": "0x00000000000000000000000000000000000000000000000000000000000000000000000000000000000000000000000000000000000000000000000000000000000000000000000000000008002080000000000000000000000000000020000000000040020000000000000000000800000000000000000000000010000000000000000000000000000000000000000000000000000000000000000200000000000000000000000000000000000000000000000000000000000000000000000000000042000000000000000000000000000000000000000000000000000020000000000000000000000000000000000000000000000000000000000000000000",
      "type": "0x2",
      "transactionHash": "0xb67f2df5523e38e57a944efab7c25d8df1c7b199b6e21818f4f0c6030dfa7a85",
      "transactionIndex": "0x0",
      "blockHash": "0x38ae4fc610b17f1c52d71be8f74b886d66bbda9884fe1486ca0083e630096ac2",
      "blockNumber": "0x8",
      "gasUsed": "0xd6df",
      "effectiveGasPrice": "0x1928509a",
      "blobGasPrice": "0x1",
      "from": "0xf39fd6e51aad88f6f4ce6ab8827279cfffb92266",
      "to": "0x5fbdb2315678afecb367f032d93f642f64180aa3",
      "contractAddress": null
    },
    {
      "status": "0x1",
      "cumulativeGasUsed": "0xd481",
      "logs": [
        {
          "address": "0xe7f1725e7734ce288f8367e1bb143e90bb3f0512",
          "topics": [
            "0xddf252ad1be2c89b69c2b068fc378daa952ba7f163c4a11628f55a4df523b3ef",
            "0x0000000000000000000000000000000000000000000000000000000000000000",
            "0x000000000000000000000000891402c216dbda3ed7beb0f95dd89b010523642a"
          ],
          "data": "0x000000000000000000000000000005bd5e313828182d6f8a51ecf20000000000",
          "blockHash": "0x827ac901974d0c85b6cb724b8d6766447aedee3482f0a600556b236efcb7a0df",
          "blockNumber": "0x9",
          "blockTimestamp": "0x68f480e0",
          "transactionHash": "0x75c33758575ed1acc0bdf9a581087d28904b6f13d48fe76128d3bedef25c7156",
          "transactionIndex": "0x0",
          "logIndex": "0x0",
          "removed": false
        }
      ],
      "logsBloom": "0x00000000000000000000000000000000000000000000000000000000000000000000000000000000000000000000000010000000000000000000000000000000000000000000000000000008002080000000000000000000000000000020000000000000020000000000000000000800000000000000000000000010000000000000000000000000000000000000000000000000000000000000000000000000000000000000000000000000000000000000000000000000000000000000000000000002000000000000000000001000000000000000000000000000000020000000000000000000000000000000000000000000000000800000000000000000",
      "type": "0x2",
      "transactionHash": "0x75c33758575ed1acc0bdf9a581087d28904b6f13d48fe76128d3bedef25c7156",
      "transactionIndex": "0x0",
      "blockHash": "0x827ac901974d0c85b6cb724b8d6766447aedee3482f0a600556b236efcb7a0df",
      "blockNumber": "0x9",
      "gasUsed": "0xd481",
      "effectiveGasPrice": "0x16063a4a",
      "blobGasPrice": "0x1",
      "from": "0xf39fd6e51aad88f6f4ce6ab8827279cfffb92266",
      "to": "0xe7f1725e7734ce288f8367e1bb143e90bb3f0512",
      "contractAddress": null
    }
  ],
  "libraries": [],
  "pending": [],
  "returns": {},
  "timestamp": 1760854240237,
  "chain": 31337,
  "commit": "f1f421e"
}