{
  "transactions": [
    {
      "hash": "0x2d695e0038ccac4c553d43baf9ed92a810be471d8265501184e4e1d4c3e30fcb",
      "transactionType": "CALL",
      "contractName": null,
      "contractAddress": "0x9a676e781a523b5d0c0e43731313a708cb607508",
      "function": "mint(address,uint256)",
      "arguments": [
        "0xf39Fd6e51aad88F6F4ce6aB8827279cffFb92266",
        "10000000000"
      ],
      "transaction": {
        "from": "0xf39fd6e51aad88f6f4ce6ab8827279cfffb92266",
        "to": "0x9a676e781a523b5d0c0e43731313a708cb607508",
        "gas": "0xd88e",
        "value": "0x0",
        "input": "0x40c10f19000000000000000000000000f39fd6e51aad88f6f4ce6ab8827279cfffb9226600000000000000000000000000000000000000000000000000000002540be400",
        "nonce": "0x18",
        "chainId": "0x7a69"
      },
      "additionalContracts": [],
      "isFixedGasLimit": false
    },
    {
      "hash": "0xb72957295c61e5c67dc913df9957db846d43d6b25b79d0cbac7ebdeb5331596a",
      "transactionType": "CALL",
      "contractName": null,
      "contractAddress": "0x0b306bf915c4d645ff596e518faf3f9669b97016",
      "function": "mint(address,uint256)",
      "arguments": [
        "0xf39Fd6e51aad88F6F4ce6aB8827279cffFb92266",
        "100000000000000000000000"
      ],
      "transaction": {
        "from": "0xf39fd6e51aad88f6f4ce6ab8827279cfffb92266",
        "to": "0x0b306bf915c4d645ff596e518faf3f9669b97016",
        "gas": "0xc941",
        "value": "0x0",
        "input": "0x40c10f19000000000000000000000000f39fd6e51aad88f6f4ce6ab8827279cfffb9226600000000000000000000000000000000000000000000152d02c7e14af6800000",
        "nonce": "0x19",
        "chainId": "0x7a69"
      },
      "additionalContracts": [],
      "isFixedGasLimit": false
    },
    {
      "hash": "0xf2790c324e394a9486a25d91ba1c727b18b150822de06f0d293ac81a4db242d5",
      "transactionType": "CALL",
      "contractName": null,
      "contractAddress": "0x9a676e781a523b5d0c0e43731313a708cb607508",
      "function": "mint(address,uint256)",
      "arguments": [
        "0x891402c216Dbda3eD7BEB0f95Dd89b010523642A",
        "50000000000"
      ],
      "transaction": {
        "from": "0xf39fd6e51aad88f6f4ce6ab8827279cfffb92266",
        "to": "0x9a676e781a523b5d0c0e43731313a708cb607508",
        "gas": "0x128c9",
        "value": "0x0",
        "input": "0x40c10f19000000000000000000000000891402c216dbda3ed7beb0f95dd89b010523642a0000000000000000000000000000000000000000000000000000000ba43b7400",
        "nonce": "0x1a",
        "chainId": "0x7a69"
      },
      "additionalContracts": [],
      "isFixedGasLimit": false
    },
    {
      "hash": "0x8b207db01ea9da0be2b1522cf96f5356e69cfebbe969b0ca2f24aa2c25786566",
      "transactionType": "CALL",
      "contractName": null,
      "contractAddress": "0x0b306bf915c4d645ff596e518faf3f9669b97016",
      "function": "mint(address,uint256)",
      "arguments": [
        "0x891402c216Dbda3eD7BEB0f95Dd89b010523642A",
        "500000000000000000000000"
      ],
      "transaction": {
        "from": "0xf39fd6e51aad88f6f4ce6ab8827279cfffb92266",
        "to": "0x0b306bf915c4d645ff596e518faf3f9669b97016",
        "gas": "0x136c9",
        "value": "0x0",
        "input": "0x40c10f19000000000000000000000000891402c216dbda3ed7beb0f95dd89b010523642a0000000000000000000000000000000000000000000069e10de76676d0800000",
        "nonce": "0x1b",
        "chainId": "0x7a69"
      },
      "additionalContracts": [],
      "isFixedGasLimit": false
    }
  ],
  "receipts": [
    {
      "status": "0x1",
      "cumulativeGasUsed": "0x9413",
      "logs": [
        {
          "address": "0x9a676e781a523b5d0c0e43731313a708cb607508",
          "topics": [
            "0xddf252ad1be2c89b69c2b068fc378daa952ba7f163c4a11628f55a4df523b3ef",
            "0x0000000000000000000000000000000000000000000000000000000000000000",
            "0x000000000000000000000000f39fd6e51aad88f6f4ce6ab8827279cfffb92266"
          ],
          "data": "0x000000000000000000000000000000000000000000000000002386f26fc10000",
          "blockHash": "0x9981469dfbefd26136992ddd45a09f367eba273a13204a1c4f825b1c1838b76c",
          "blockNumber": "0x16",
          "blockTimestamp": "0x68f48970",
          "transactionHash": "0x2d695e0038ccac4c553d43baf9ed92a810be471d8265501184e4e1d4c3e30fcb",
          "transactionIndex": "0x0",
          "logIndex": "0x0",
          "removed": false
        }
      ],
      "logsBloom": "0x00000000000080000000000000000000000000000000000000000000000000000000000000000000000000000000001000000000000000000000000000000000000000000000000000000008000000000000000000000000000000000000000000000000020000000000000100000800000000000000000000000010000000000000000000000000000000000000000000000000000000000000000000000000000000000000000000000000800000000000000000000000000000000000000000000002000000200000000000000000000000002000000000000000000020000000000000000000000000000000000000000000000000000000000000000000",
      "type": "0x2",
      "transactionHash": "0x2d695e0038ccac4c553d43baf9ed92a810be471d8265501184e4e1d4c3e30fcb",
      "transactionIndex": "0x0",
      "blockHash": "0x9981469dfbefd26136992ddd45a09f367eba273a13204a1c4f825b1c1838b76c",
      "blockNumber": "0x16",
      "gasUsed": "0x9413",
      "effectiveGasPrice": "0x430d09f",
      "blobGasPrice": "0x1",
      "from": "0xf39fd6e51aad88f6f4ce6ab8827279cfffb92266",
      "to": "0x9a676e781a523b5d0c0e43731313a708cb607508",
      "contractAddress": null
    },
    {
      "status": "0x1",
      "cumulativeGasUsed": "0x91b5",
      "logs": [
        {
          "address": "0x0b306bf915c4d645ff596e518faf3f9669b97016",
          "topics": [
            "0xddf252ad1be2c89b69c2b068fc378daa952ba7f163c4a11628f55a4df523b3ef",
            "0x0000000000000000000000000000000000000000000000000000000000000000",
            "0x000000000000000000000000f39fd6e51aad88f6f4ce6ab8827279cfffb92266"
          ],
          "data": "0x00000000000000000000000000000125dfa371a19e6f7cb54395ca0000000000",
          "blockHash": "0x9d7d660320fbe35a595dd2b975b46f057d693600026233b41b2d693f7edf785e",
          "blockNumber": "0x17",
          "blockTimestamp": "0x68f48970",
          "transactionHash": "0xb72957295c61e5c67dc913df9957db846d43d6b25b79d0cbac7ebdeb5331596a",
          "transactionIndex": "0x0",
          "logIndex": "0x0",
          "removed": false
        }
      ],
      "logsBloom": "0x00000000000000001000000000000000000000000000000000000000000000000000000000000000000000000000000000000000000000000000000000000000000000000000000000000008000000000000000000000000000000000000000000000000020000000000000100000800000000000000000000000010000000000000000000000000000000000000000000000000008000000000000000000000000000000000000000000000000000000000000000000000000000000000000000000002000000200000000000000000000000002000000000000000000020000000000000000000000000000000010000000000000000000000000000000000",
      "type": "0x2",
      "transactionHash": "0xb72957295c61e5c67dc913df9957db846d43d6b25b79d0cbac7ebdeb5331596a",
      "transactionIndex": "0x0",
      "blockHash": "0x9d7d660320fbe35a595dd2b975b46f057d693600026233b41b2d693f7edf785e",
      "blockNumber": "0x17",
      "gasUsed": "0x91b5",
      "effectiveGasPrice": "0x3ab0d4d",
      "blobGasPrice": "0x1",
      "from": "0xf39fd6e51aad88f6f4ce6ab8827279cfffb92266",
      "to": "0x0b306bf915c4d645ff596e518faf3f9669b97016",
      "contractAddress": null
    },
    {
      "status": "0x1",
      "cumulativeGasUsed": "0xd6df",
      "logs": [
        {
          "address": "0x9a676e781a523b5d0c0e43731313a708cb607508",
          "topics": [
            "0xddf252ad1be2c89b69c2b068fc378daa952ba7f163c4a11628f55a4df523b3ef",
            "0x0000000000000000000000000000000000000000000000000000000000000000",
            "0x000000000000000000000000891402c216dbda3ed7beb0f95dd89b010523642a"
          ],
          "data": "0x00000000000000000000000000000000000000000000000000b1a2bc2ec50000",
          "blockHash": "0xebc22400267a6ea85f6bfdbe92d76477efd9f908dfb1638932f26784f1d820a5",
          "blockNumber": "0x18",
          "blockTimestamp": "0x68f48971",
          "transactionHash": "0xf2790c324e394a9486a25d91ba1c727b18b150822de06f0d293ac81a4db242d5",
          "transactionIndex": "0x0",
          "logIndex": "0x0",
          "removed": false
        }
      ],
      "logsBloom": "0x00000000000080000000000000000000000000000000000000000000000000000000000000000000000000000000001000000000000000000000000000000000000000000000000000000008002080000000000000000000000000000020000000000000020000000000000000000800000000000000000000000010000000000000000000000000000000000000000000000000000000000000000000000000000000000000000000000000800000000000000000000000000000000000000000000002000000000000000000000000000000000000000000000000000020000000000000000000000000000000000000000000000000000000000000000000",
      "type": "0x2",
      "transactionHash": "0xf2790c324e394a9486a25d91ba1c727b18b150822de06f0d293ac81a4db242d5",
      "transactionIndex": "0x0",
      "blockHash": "0xebc22400267a6ea85f6bfdbe92d76477efd9f908dfb1638932f26784f1d820a5",
      "blockNumber": "0x18",
      "gasUsed": "0xd6df",
      "effectiveGasPrice": "0x335f65e",
      "blobGasPrice": "0x1",
      "from": "0xf39fd6e51aad88f6f4ce6ab8827279cfffb92266",
      "to": "0x9a676e781a523b5d0c0e43731313a708cb607508",
      "contractAddress": null
    },
    {
      "status": "0x1",
      "cumulativeGasUsed": "0x1ab60",
      "logs": [
        {
          "address": "0x0b306bf915c4d645ff596e518faf3f9669b97016",
          "topics": [
            "0xddf252ad1be2c89b69c2b068fc378daa952ba7f163c4a11628f55a4df523b3ef",
            "0x0000000000000000000000000000000000000000000000000000000000000000",
            "0x000000000000000000000000891402c216dbda3ed7beb0f95dd89b010523642a"
          ],
          "data": "0x000000000000000000000000000005bd5e313828182d6f8a51ecf20000000000",
          "blockHash": "0xebc22400267a6ea85f6bfdbe92d76477efd9f908dfb1638932f26784f1d820a5",
          "blockNumber": "0x18",
          "blockTimestamp": "0x68f48971",
          "transactionHash": "0x8b207db01ea9da0be2b1522cf96f5356e69cfebbe969b0ca2f24aa2c25786566",
          "transactionIndex": "0x1",
          "logIndex": "0x1",
          "removed": false
        }
      ],
      "logsBloom": "0x00000000000000001000000000000000000000000000000000000000000000000000000000000000000000000000000000000000000000000000000000000000000000000000000000000008002080000000000000000000000000000020000000000000020000000000000000000800000000000000000000000010000000000000000000000000000000000000000000000000008000000000000000000000000000000000000000000000000000000000000000000000000000000000000000000002000000000000000000000000000000000000000000000000000020000000000000000000000000000000010000000000000000000000000000000000",
      "type": "0x2",
      "transactionHash": "0x8b207db01ea9da0be2b1522cf96f5356e69cfebbe969b0ca2f24aa2c25786566",
      "transactionIndex": "0x1",
      "blockHash": "0xebc22400267a6ea85f6bfdbe92d76477efd9f908dfb1638932f26784f1d820a5",
      "blockNumber": "0x18",
      "gasUsed": "0xd481",
      "effectiveGasPrice": "0x335f65e",
      "blobGasPrice": "0x1",
      "from": "0xf39fd6e51aad88f6f4ce6ab8827279cfffb92266",
      "to": "0x0b306bf915c4d645ff596e518faf3f9669b97016",
      "contractAddress": null
    }
  ],
  "libraries": [],
  "pending": [],
  "returns": {},
  "timestamp": 1760856433089,
  "chain": 31337,
  "commit": "f1f421e"
}