{
  "transactions": [
    {
      "hash": "0xfdaa9bd86c4d9aeb793aa6a1304710b0ba3270f76d7be4cd7a76b0880b172dcb",
      "transactionType": "CALL",
      "contractName": null,
      "contractAddress": "0x68b1d87f95878fe05b998f19b66f4baba5de1aed",
      "function": "setMinCompleteMinutes(uint16)",
      "arguments": [
        "1"
      ],
      "transaction": {
        "from": "0xf39fd6e51aad88f6f4ce6ab8827279cfffb92266",
        "to": "0x68b1d87f95878fe05b998f19b66f4baba5de1aed",
        "gas": "0xb437",
        "value": "0x0",
        "input": "0xf7f2992c0000000000000000000000000000000000000000000000000000000000000001",
        "nonce": "0x17",
        "chainId": "0x7a69"
      },
      "additionalContracts": [],
      "isFixedGasLimit": false
    }
  ],
  "receipts": [
    {
      "status": "0x1",
      "cumulativeGasUsed": "0x7b3a",
      "logs": [
        {
          "address": "0x68b1d87f95878fe05b998f19b66f4baba5de1aed",
          "topics": [
            "0x12c9dccd129ff783f1c8228eacdfa8e334ddecb7ec5c9a79ec662a4aed3d012a"
          ],
          "data": "0x0000000000000000000000000000000000000000000000000000000000000040000000000000000000000000000000000000000000000000000000000000000100000000000000000000000000000000000000000000000000000000000000126d696e436f6d706c6574654d696e757465730000000000000000000000000000",
          "blockHash": "0xd95ad9a5bae78deda2c8c41a2b13804e8099059604ae49169033a859256c7e91",
          "blockNumber": "0x13",
          "blockTimestamp": "0x68f4996c",
          "transactionHash": "0xfdaa9bd86c4d9aeb793aa6a1304710b0ba3270f76d7be4cd7a76b0880b172dcb",
          "transactionIndex": "0x0",
          "logIndex": "0x0",
          "removed": false
        }
      ],
      "logsBloom": "0x00000000000000000000000000000000000000000000000000000000000000000000000000000010000000020000000000000000000000000000040000000000000000000000000000000000000000000000000000000000000000000000000000000000000000000000000000000000000000000000000000000000000000000000000000000000000000000000000000000000000000000000000000000000000000000000000008000000000000000000000000000000000000000000000000000000000000000000000000000000000000000000004000000000000000000000000000000000000000000000000000000000000000000100000000000000",
      "type": "0x2",
      "transactionHash": "0xfdaa9bd86c4d9aeb793aa6a1304710b0ba3270f76d7be4cd7a76b0880b172dcb",
      "transactionIndex": "0x0",
      "blockHash": "0xd95ad9a5bae78deda2c8c41a2b13804e8099059604ae49169033a859256c7e91",
      "blockNumber": "0x13",
      "gasUsed": "0x7b3a",
      "effectiveGasPrice": "0x6434ee8",
      "blobGasPrice": "0x1",
      "from": "0xf39fd6e51aad88f6f4ce6ab8827279cfffb92266",
      "to": "0x68b1d87f95878fe05b998f19b66f4baba5de1aed",
      "contractAddress": null
    }
  ],
  "libraries": [],
  "pending": [],
  "returns": {},
  "timestamp": 1760860524705,
  "chain": 31337,
  "commit": "f1f421e"
}