{
  "transactions": [
    {
      "hash": "0xa773171a7a518be8e453b0b65a4c75314a435a1ca713d266da1eae63244b7e17",
      "transactionType": "CREATE",
      "contractName": "PriceOracle",
      "contractAddress": "0x33bfb48f9f7203259247f6a12265fcb8571e1951",
      "function": null,
      "arguments": null,
      "transaction": {
        "from": "0xb73ebe02d3a29d61cb3ee87a3eede73cb1a3c725",
        "gas": "0xc3d6d",
        "value": "0x0",
        "input": "0x6080806040523460775733156064575f8054336001600160a01b0319821681178355916001600160a01b03909116907f8be0079c531659141344cd1fd0a4f28419497f9722a3daafe3b4186f6b6457e09080a3610e10600155610954908161007c8239f35b631e4fbdf760e01b5f525f60045260245ffd5b5f80fdfe60806040526004361015610011575f80fd5b5f3560e01c806341976e0914610734578063715018a6146106dd57806376e11286146106535780638da5cb5b1461062c5780638fb5a482146104d757806392aeb53a146103be5780639dcb511a1461037e578063a84f6ebb14610361578063bd58fe561461019a578063f2fde38b146101155763fb01e7f214610092575f80fd5b34610111576020366003190112610111576004356100ae6108f8565b603c81108015610105575b6100f65760407f2cfed7ac4be4a0009ef1af32ea2de149e0122938cb9aa4b3f7df3be6da1055e991600154908060015582519182526020820152a1005b63aabd5a0960e01b5f5260045ffd5b506201518081116100b9565b5f80fd5b346101115760203660031901126101115761012e61075f565b6101366108f8565b6001600160a01b03168015610187575f80546001600160a01b03198116831782556001600160a01b0316907f8be0079c531659141344cd1fd0a4f28419497f9722a3daafe3b4186f6b6457e09080a3005b631e4fbdf760e01b5f525f60045260245ffd5b34610111576020366003190112610111576101b361075f565b604051633fabe5a360e21b8152906001600160a01b031660a082600481845afa9081156102f2575f925f9261030b575b505f8313156102fd5760206004916040519283809263313ce56760e01b82525afa80156102f2575f906102b5575b60ff16905060128110156102695760120360ff811161025557610233906108e7565b9182810292818404149015171561025557604091905b82519182526020820152f35b634e487b7160e01b5f52601160045260245ffd5b60128111156102ab576011190160ff811161025557610287906108e7565b8015610297576040920490610249565b634e487b7160e01b5f52601260045260245ffd5b5060409190610249565b506020813d6020116102ea575b816102cf602093836107a6565b81010312610111575160ff811681036101115760ff90610211565b3d91506102c2565b6040513d5f823e3d90fd5b62bfc92160e01b5f5260045ffd5b9250905060a0823d60a011610359575b8161032860a093836107a6565b8101031261011157610339826108d0565b5060208201516103506080606085015194016108d0565b509190836101e3565b3d915061031b565b34610111575f366003190112610111576020600154604051908152f35b34610111576020366003190112610111576001600160a01b0361039f61075f565b165f526002602052602060018060a01b0360405f205416604051908152f35b346101115760403660031901126101115760043567ffffffffffffffff8111610111576103ef903690600401610775565b60243567ffffffffffffffff81116101115761040f903690600401610775565b926104186108f8565b8383036102fd575f5b83811061042a57005b8061044061043b60019388876108ac565b6108bc565b828060a01b0361045461043b8489886108ac565b165f52600260205260405f2090838060a01b03166bffffffffffffffffffffffff60a01b82541617905561048c61043b8287866108ac565b7fd2d8394cf7549a5ddbc2ba3dd7b2de8d53c891472d1f2907008ed6a10045fdae60206104bd61043b858b8a6108ac565b60405160a087901b8790039182168152931692a201610421565b346101115760203660031901126101115760043567ffffffffffffffff811161011157610508903690600401610775565b61051181610894565b9161051f60405193846107a6565b81835261052b82610894565b602084019290601f19013684375f5b818110610585578385604051918291602083019060208452518091526040830191905f5b81811061056c575050500390f35b825184528594506020938401939092019160010161055e565b61059361043b8284866108ac565b6040516341976e0960e01b81526001600160a01b03909116600482015290602082602481305afa9182156102f2575f926105f9575b5085518110156105e55760019160208260051b880101520161053a565b634e487b7160e01b5f52603260045260245ffd5b9091506020813d8211610624575b81610614602093836107a6565b81010312610111575190866105c8565b3d9150610607565b34610111575f366003190112610111575f546040516001600160a01b039091168152602090f35b346101115760403660031901126101115761066c61075f565b6024356001600160a01b03811691908290036101115760207fd2d8394cf7549a5ddbc2ba3dd7b2de8d53c891472d1f2907008ed6a10045fdae916106ae6108f8565b6001600160a01b03165f8181526002835260409081902080546001600160a01b031916861790555193845292a2005b34610111575f366003190112610111576106f56108f8565b5f80546001600160a01b0319811682556001600160a01b03167f8be0079c531659141344cd1fd0a4f28419497f9722a3daafe3b4186f6b6457e08280a3005b3461011157602036600319011261011157602061075761075261075f565b6107dc565b604051908152f35b600435906001600160a01b038216820361011157565b9181601f840112156101115782359167ffffffffffffffff8311610111576020808501948460051b01011161011157565b90601f8019910116810190811067ffffffffffffffff8211176107c857604052565b634e487b7160e01b5f52604160045260245ffd5b6001600160a01b039081165f908152600260205260409020541680156102fd5760405190635eac7f2b60e11b82526004820152604081602481305afa805f925f92610859575b506108355762bfc92160e01b5f5260045ffd5b600154810180911161025557421161084a5790565b630cd5fa0760e11b5f5260045ffd5b925090506040823d60401161088c575b81610876604093836107a6565b810103126101115760208251920151905f610822565b3d9150610869565b67ffffffffffffffff81116107c85760051b60200190565b91908110156105e55760051b0190565b356001600160a01b03811681036101115790565b519069ffffffffffffffffffff8216820361011157565b60ff16604d811161025557600a0a90565b5f546001600160a01b0316330361090b57565b63118cdaa760e01b5f523360045260245ffdfea2646970667358221220c57dac9691dbc664f8401799d4986900df151420ba162f41d58d0592c70781e064736f6c634300081c0033",
        "nonce": "0xbf",
        "chainId": "0x61"
      },
      "additionalContracts": [],
      "isFixedGasLimit": false
    },
    {
      "hash": "0x3c57eabf4a9229493253df54a7542a1650c3f4530aaa9359c1b79a7bf70c8eb4",
      "transactionType": "CALL",
      "contractName": "PriceOracle",
      "contractAddress": "0x33bfb48f9f7203259247f6a12265fcb8571e1951",
      "function": "setPriceFeeds(address[],address[])",
      "arguments": [
        "[0xFaDc475b03E3bd7813a71446369204271a0a9843, 0x15Ab97353bfb6C6F07B3354A2ea1615eB2F45941, 0x1cd44EC6CFb99132531793a397220C84216C5eeD, 0xBE1Bf5C613C64B2a5F2dEd08B4A26dd2082Fa2cB, 0x1aB580a59da516F068F43EFCac10CC33862A7E88, 0xe364204ad025bbcDFF6DCb4291f89F532b0a8C35]",
        "[0x2514895c72f50D8bd4B4F9b1110F0D6bD2c97526, 0x5741306c21795FdCBb9b265Ea0255F499DFe515C, 0x635780E5D02Ab29d7aE14d266936A38d3D5B0CC5, 0x5e66a1775BbC249b5D51C13d29245522582E671C, 0x887f177CBED2cf555a64e7bF125E1825EB69dB82, 0x9331b55D9830EF609A2aBCfAc0FBCE050A52fdEa]"
      ],
      "transaction": {
        "from": "0xb73ebe02d3a29d61cb3ee87a3eede73cb1a3c725",
        "to": "0x33bfb48f9f7203259247f6a12265fcb8571e1951",
        "gas": "0x3e4ee",
        "value": "0x0",
        "input": "0x92aeb53a000000000000000000000000000000000000000000000000000000000000004000000000000000000000000000000000000000000000000000000000000001200000000000000000000000000000000000000000000000000000000000000006000000000000000000000000fadc475b03e3bd7813a71446369204271a0a984300000000000000000000000015ab97353bfb6c6f07b3354a2ea1615eb2f459410000000000000000000000001cd44ec6cfb99132531793a397220c84216c5eed000000000000000000000000be1bf5c613c64b2a5f2ded08b4a26dd2082fa2cb0000000000000000000000001ab580a59da516f068f43efcac10cc33862a7e88000000000000000000000000e364204ad025bbcdff6dcb4291f89f532b0a8c3500000000000000000000000000000000000000000000000000000000000000060000000000000000000000002514895c72f50d8bd4b4f9b1110f0d6bd2c975260000000000000000000000005741306c21795fdcbb9b265ea0255f499dfe515c000000000000000000000000635780e5d02ab29d7ae14d266936a38d3d5b0cc50000000000000000000000005e66a1775bbc249b5d51c13d29245522582e671c000000000000000000000000887f177cbed2cf555a64e7bf125e1825eb69db820000000000000000000000009331b55d9830ef609a2abcfac0fbce050a52fdea",
        "nonce": "0xc0",
        "chainId": "0x61"
      },
      "additionalContracts": [],
      "isFixedGasLimit": false
    }
  ],
  "receipts": [
    {
      "status": "0x1",
      "cumulativeGasUsed": "0x96a54",
      "logs": [
        {
          "address": "0x33bfb48f9f7203259247f6a12265fcb8571e1951",
          "topics": [
            "0x8be0079c531659141344cd1fd0a4f28419497f9722a3daafe3b4186f6b6457e0",
            "0x0000000000000000000000000000000000000000000000000000000000000000",
            "0x000000000000000000000000b73ebe02d3a29d61cb3ee87a3eede73cb1a3c725"
          ],
          "data": "0x",
          "blockHash": "0x912c0ca8afe08270c1d2f3f545a3c7171cd8c1bdc63f489e06fb41da034db9f8",
          "blockNumber": "0x40ef90e",
          "transactionHash": "0xa773171a7a518be8e453b0b65a4c75314a435a1ca713d266da1eae63244b7e17",
          "transactionIndex": "0x0",
          "logIndex": "0x0",
          "removed": false
        }
      ],
      "logsBloom": "0x00000000000000000000000000008000000000000000000000800000000000000000000000000000000000000000000000000000000000000000000000000000000000000040000000000000000000000001000000000000000000000000010000000000020000002000000000000800000000000000000000000000000000400000000000000000000000000000000000000000000400000000000000000000000000000000000000000000000000000000000000000000000000000000000000000000000000000000000000000000000000000000000001000000000020000000000000000000000000000000000000000000000000000000000000000000",
      "type": "0x2",
      "transactionHash": "0xa773171a7a518be8e453b0b65a4c75314a435a1ca713d266da1eae63244b7e17",
      "transactionIndex": "0x0",
      "blockHash": "0x912c0ca8afe08270c1d2f3f545a3c7171cd8c1bdc63f489e06fb41da034db9f8",
      "blockNumber": "0x40ef90e",
      "gasUsed": "0x96a54",
      "effectiveGasPrice": "0x3b9aca00",
      "from": "0xb73ebe02d3a29d61cb3ee87a3eede73cb1a3c725",
      "to": null,
      "contractAddress": "0x33bfb48f9f7203259247f6a12265fcb8571e1951"
    },
    {
      "status": "0x1",
      "cumulativeGasUsed": "0xc13fe",
      "logs": [
        {
          "address": "0x33bfb48f9f7203259247f6a12265fcb8571e1951",
          "topics": [
            "0xd2d8394cf7549a5ddbc2ba3dd7b2de8d53c891472d1f2907008ed6a10045fdae",
            "0x000000000000000000000000fadc475b03e3bd7813a71446369204271a0a9843"
          ],
          "data": "0x0000000000000000000000002514895c72f50d8bd4b4f9b1110f0d6bd2c97526",
          "blockHash": "0x912c0ca8afe08270c1d2f3f545a3c7171cd8c1bdc63f489e06fb41da034db9f8",
          "blockNumber": "0x40ef90e",
          "transactionHash": "0x3c57eabf4a9229493253df54a7542a1650c3f4530aaa9359c1b79a7bf70c8eb4",
          "transactionIndex": "0x1",
          "logIndex": "0x1",
          "removed": false
        },
        {
          "address": "0x33bfb48f9f7203259247f6a12265fcb8571e1951",
          "topics": [
            "0xd2d8394cf7549a5ddbc2ba3dd7b2de8d53c891472d1f2907008ed6a10045fdae",
            "0x00000000000000000000000015ab97353bfb6c6f07b3354a2ea1615eb2f45941"
          ],
          "data": "0x0000000000000000000000005741306c21795fdcbb9b265ea0255f499dfe515c",
          "blockHash": "0x912c0ca8afe08270c1d2f3f545a3c7171cd8c1bdc63f489e06fb41da034db9f8",
          "blockNumber": "0x40ef90e",
          "transactionHash": "0x3c57eabf4a9229493253df54a7542a1650c3f4530aaa9359c1b79a7bf70c8eb4",
          "transactionIndex": "0x1",
          "logIndex": "0x2",
          "removed": false
        },
        {
          "address": "0x33bfb48f9f7203259247f6a12265fcb8571e1951",
          "topics": [
            "0xd2d8394cf7549a5ddbc2ba3dd7b2de8d53c891472d1f2907008ed6a10045fdae",
            "0x0000000000000000000000001cd44ec6cfb99132531793a397220c84216c5eed"
          ],
          "data": "0x000000000000000000000000635780e5d02ab29d7ae14d266936a38d3d5b0cc5",
          "blockHash": "0x912c0ca8afe08270c1d2f3f545a3c7171cd8c1bdc63f489e06fb41da034db9f8",
          "blockNumber": "0x40ef90e",
          "transactionHash": "0x3c57eabf4a9229493253df54a7542a1650c3f4530aaa9359c1b79a7bf70c8eb4",
          "transactionIndex": "0x1",
          "logIndex": "0x3",
          "removed": false
        },
        {
          "address": "0x33bfb48f9f7203259247f6a12265fcb8571e1951",
          "topics": [
            "0xd2d8394cf7549a5ddbc2ba3dd7b2de8d53c891472d1f2907008ed6a10045fdae",
            "0x000000000000000000000000be1bf5c613c64b2a5f2ded08b4a26dd2082fa2cb"
          ],
          "data": "0x0000000000000000000000005e66a1775bbc249b5d51c13d29245522582e671c",
          "blockHash": "0x912c0ca8afe08270c1d2f3f545a3c7171cd8c1bdc63f489e06fb41da034db9f8",
          "blockNumber": "0x40ef90e",
          "transactionHash": "0x3c57eabf4a9229493253df54a7542a1650c3f4530aaa9359c1b79a7bf70c8eb4",
          "transactionIndex": "0x1",
          "logIndex": "0x4",
          "removed": false
        },
        {
          "address": "0x33bfb48f9f7203259247f6a12265fcb8571e1951",
          "topics": [
            "0xd2d8394cf7549a5ddbc2ba3dd7b2de8d53c891472d1f2907008ed6a10045fdae",
            "0x0000000000000000000000001ab580a59da516f068f43efcac10cc33862a7e88"
          ],
          "data": "0x000000000000000000000000887f177cbed2cf555a64e7bf125e1825eb69db82",
          "blockHash": "0x912c0ca8afe08270c1d2f3f545a3c7171cd8c1bdc63f489e06fb41da034db9f8",
          "blockNumber": "0x40ef90e",
          "transactionHash": "0x3c57eabf4a9229493253df54a7542a1650c3f4530aaa9359c1b79a7bf70c8eb4",
          "transactionIndex": "0x1",
          "logIndex": "0x5",
          "removed": false
        },
        {
          "address": "0x33bfb48f9f7203259247f6a12265fcb8571e1951",
          "topics": [
            "0xd2d8394cf7549a5ddbc2ba3dd7b2de8d53c891472d1f2907008ed6a10045fdae",
            "0x000000000000000000000000e364204ad025bbcdff6dcb4291f89f532b0a8c35"
          ],
          "data": "0x0000000000000000000000009331b55d9830ef609a2abcfac0fbce050a52fdea",
          "blockHash": "0x912c0ca8afe08270c1d2f3f545a3c7171cd8c1bdc63f489e06fb41da034db9f8",
          "blockNumber": "0x40ef90e",
          "transactionHash": "0x3c57eabf4a9229493253df54a7542a1650c3f4530aaa9359c1b79a7bf70c8eb4",
          "transactionIndex": "0x1",
          "logIndex": "0x6",
          "removed": false
        }
      ],
      "logsBloom": "0x00000000000000000000000000000000000000800080000000000000000000000000000000000000000000000000000000000000000000000000100000000800100000000000000000000000008010000000000000000000004000000100010000000000000000000000000000000000000000000000000000100000000000080000000080000000080000000000000000000000000400000000000000000000000000000000000000000000080000000040000100000000000000000200000000000010000000000000000000000000000000000000000001001000000000000000000000000000000000000000021000000000000000000000000000000000",
      "type": "0x2",
      "transactionHash": "0x3c57eabf4a9229493253df54a7542a1650c3f4530aaa9359c1b79a7bf70c8eb4",
      "transactionIndex": "0x1",
      "blockHash": "0x912c0ca8afe08270c1d2f3f545a3c7171cd8c1bdc63f489e06fb41da034db9f8",
      "blockNumber": "0x40ef90e",
      "gasUsed": "0x2a9aa",
      "effectiveGasPrice": "0x3b9aca00",
      "from": "0xb73ebe02d3a29d61cb3ee87a3eede73cb1a3c725",
      "to": "0x33bfb48f9f7203259247f6a12265fcb8571e1951",
      "contractAddress": null
    }
  ],
  "libraries": [],
  "pending": [],
  "returns": {},
  "timestamp": 1759913257261,
  "chain": 97,
  "commit": "fcea0fe"
}