{
  "transactions": [
    {
      "hash": "0x08ccb174ebe96c00ea97f19b943447b0227c7002b6f655df897eedc008c5ce81",
      "transactionType": "CREATE",
      "contractName": "PriceOracle",
      "contractAddress": "0x81b037f800a49f835171bc098e53b114001f3423",
      "function": null,
      "arguments": null,
      "transaction": {
        "from": "0xb73ebe02d3a29d61cb3ee87a3eede73cb1a3c725",
        "gas": "0xc3d6d",
        "value": "0x0",
        "input": "0x6080806040523460775733156064575f8054336001600160a01b0319821681178355916001600160a01b03909116907f8be0079c531659141344cd1fd0a4f28419497f9722a3daafe3b4186f6b6457e09080a3610e10600155610954908161007c8239f35b631e4fbdf760e01b5f525f60045260245ffd5b5f80fdfe60806040526004361015610011575f80fd5b5f3560e01c806341976e0914610734578063715018a6146106dd57806376e11286146106535780638da5cb5b1461062c5780638fb5a482146104d757806392aeb53a146103be5780639dcb511a1461037e578063a84f6ebb14610361578063bd58fe561461019a578063f2fde38b146101155763fb01e7f214610092575f80fd5b34610111576020366003190112610111576004356100ae6108f8565b603c81108015610105575b6100f65760407f2cfed7ac4be4a0009ef1af32ea2de149e0122938cb9aa4b3f7df3be6da1055e991600154908060015582519182526020820152a1005b63aabd5a0960e01b5f5260045ffd5b506201518081116100b9565b5f80fd5b346101115760203660031901126101115761012e61075f565b6101366108f8565b6001600160a01b03168015610187575f80546001600160a01b03198116831782556001600160a01b0316907f8be0079c531659141344cd1fd0a4f28419497f9722a3daafe3b4186f6b6457e09080a3005b631e4fbdf760e01b5f525f60045260245ffd5b34610111576020366003190112610111576101b361075f565b604051633fabe5a360e21b8152906001600160a01b031660a082600481845afa9081156102f2575f925f9261030b575b505f8313156102fd5760206004916040519283809263313ce56760e01b82525afa80156102f2575f906102b5575b60ff16905060128110156102695760120360ff811161025557610233906108e7565b9182810292818404149015171561025557604091905b82519182526020820152f35b634e487b7160e01b5f52601160045260245ffd5b60128111156102ab576011190160ff811161025557610287906108e7565b8015610297576040920490610249565b634e487b7160e01b5f52601260045260245ffd5b5060409190610249565b506020813d6020116102ea575b816102cf602093836107a6565b81010312610111575160ff811681036101115760ff90610211565b3d91506102c2565b6040513d5f823e3d90fd5b62bfc92160e01b5f5260045ffd5b9250905060a0823d60a011610359575b8161032860a093836107a6565b8101031261011157610339826108d0565b5060208201516103506080606085015194016108d0565b509190836101e3565b3d915061031b565b34610111575f366003190112610111576020600154604051908152f35b34610111576020366003190112610111576001600160a01b0361039f61075f565b165f526002602052602060018060a01b0360405f205416604051908152f35b346101115760403660031901126101115760043567ffffffffffffffff8111610111576103ef903690600401610775565b60243567ffffffffffffffff81116101115761040f903690600401610775565b926104186108f8565b8383036102fd575f5b83811061042a57005b8061044061043b60019388876108ac565b6108bc565b828060a01b0361045461043b8489886108ac565b165f52600260205260405f2090838060a01b03166bffffffffffffffffffffffff60a01b82541617905561048c61043b8287866108ac565b7fd2d8394cf7549a5ddbc2ba3dd7b2de8d53c891472d1f2907008ed6a10045fdae60206104bd61043b858b8a6108ac565b60405160a087901b8790039182168152931692a201610421565b346101115760203660031901126101115760043567ffffffffffffffff811161011157610508903690600401610775565b61051181610894565b9161051f60405193846107a6565b81835261052b82610894565b602084019290601f19013684375f5b818110610585578385604051918291602083019060208452518091526040830191905f5b81811061056c575050500390f35b825184528594506020938401939092019160010161055e565b61059361043b8284866108ac565b6040516341976e0960e01b81526001600160a01b03909116600482015290602082602481305afa9182156102f2575f926105f9575b5085518110156105e55760019160208260051b880101520161053a565b634e487b7160e01b5f52603260045260245ffd5b9091506020813d8211610624575b81610614602093836107a6565b81010312610111575190866105c8565b3d9150610607565b34610111575f366003190112610111575f546040516001600160a01b039091168152602090f35b346101115760403660031901126101115761066c61075f565b6024356001600160a01b03811691908290036101115760207fd2d8394cf7549a5ddbc2ba3dd7b2de8d53c891472d1f2907008ed6a10045fdae916106ae6108f8565b6001600160a01b03165f8181526002835260409081902080546001600160a01b031916861790555193845292a2005b34610111575f366003190112610111576106f56108f8565b5f80546001600160a01b0319811682556001600160a01b03167f8be0079c531659141344cd1fd0a4f28419497f9722a3daafe3b4186f6b6457e08280a3005b3461011157602036600319011261011157602061075761075261075f565b6107dc565b604051908152f35b600435906001600160a01b038216820361011157565b9181601f840112156101115782359167ffffffffffffffff8311610111576020808501948460051b01011161011157565b90601f8019910116810190811067ffffffffffffffff8211176107c857604052565b634e487b7160e01b5f52604160045260245ffd5b6001600160a01b039081165f908152600260205260409020541680156102fd5760405190635eac7f2b60e11b82526004820152604081602481305afa805f925f92610859575b506108355762bfc92160e01b5f5260045ffd5b600154810180911161025557421161084a5790565b630cd5fa0760e11b5f5260045ffd5b925090506040823d60401161088c575b81610876604093836107a6565b810103126101115760208251920151905f610822565b3d9150610869565b67ffffffffffffffff81116107c85760051b60200190565b91908110156105e55760051b0190565b356001600160a01b03811681036101115790565b519069ffffffffffffffffffff8216820361011157565b60ff16604d811161025557600a0a90565b5f546001600160a01b0316330361090b57565b63118cdaa760e01b5f523360045260245ffdfea2646970667358221220c57dac9691dbc664f8401799d4986900df151420ba162f41d58d0592c70781e064736f6c634300081c0033",
        "nonce": "0xa8",
        "chainId": "0x61"
      },
      "additionalContracts": [],
      "isFixedGasLimit": false
    },
    {
      "hash": "0x39cf83077997bd6d15a8762d1b4c8184cf00cbc4a2cdca5aafecd686cbb0a5df",
      "transactionType": "CALL",
      "contractName": "PriceOracle",
      "contractAddress": "0x81b037f800a49f835171bc098e53b114001f3423",
      "function": "setPriceFeeds(address[],address[])",
      "arguments": [
        "[0x2213C47AF15f5F4cf4BeDc33AaC6362f1669Fcb2, 0x650B1D054C8a5A42A306D4dd43efc9077c11A26d, 0xc5B16CEBeC6BbB91398056C8dEd5d4A4e90f21F2, 0xb5fD81a624796aA82041181E7DCf46C554CCc1dA, 0x6101df7948eE4b8DEfa087ED30Bca81Cb14D6de6, 0x8868cD0b06210a7cdFc974c6231Aae8563C48a56]",
        "[0x2514895c72f50D8bd4B4F9b1110F0D6bD2c97526, 0x5741306c21795FdCBb9b265Ea0255F499DFe515C, 0x635780E5D02Ab29d7aE14d266936A38d3D5B0CC5, 0x8540e3255640Ab929F6Ec593cb8C569a2c1d04EE, 0xf46ea8F3328622dC2Ec7058D5Dcc62C5bF26b503, 0x22f15736aB9A5b944B6ec41bAeE2782e0f1B7724]"
      ],
      "transaction": {
        "from": "0xb73ebe02d3a29d61cb3ee87a3eede73cb1a3c725",
        "to": "0x81b037f800a49f835171bc098e53b114001f3423",
        "gas": "0x3e4ee",
        "value": "0x0",
        "input": "0x92aeb53a0000000000000000000000000000000000000000000000000000000000000040000000000000000000000000000000000000000000000000000000000000012000000000000000000000000000000000000000000000000000000000000000060000000000000000000000002213c47af15f5f4cf4bedc33aac6362f1669fcb2000000000000000000000000650b1d054c8a5a42a306d4dd43efc9077c11a26d000000000000000000000000c5b16cebec6bbb91398056c8ded5d4a4e90f21f2000000000000000000000000b5fd81a624796aa82041181e7dcf46c554ccc1da0000000000000000000000006101df7948ee4b8defa087ed30bca81cb14d6de60000000000000000000000008868cd0b06210a7cdfc974c6231aae8563c48a5600000000000000000000000000000000000000000000000000000000000000060000000000000000000000002514895c72f50d8bd4b4f9b1110f0d6bd2c975260000000000000000000000005741306c21795fdcbb9b265ea0255f499dfe515c000000000000000000000000635780e5d02ab29d7ae14d266936a38d3d5b0cc50000000000000000000000008540e3255640ab929f6ec593cb8c569a2c1d04ee000000000000000000000000f46ea8f3328622dc2ec7058d5dcc62c5bf26b50300000000000000000000000022f15736ab9a5b944b6ec41baee2782e0f1b7724",
        "nonce": "0xa9",
        "chainId": "0x61"
      },
      "additionalContracts": [],
      "isFixedGasLimit": false
    }
  ],
  "receipts": [
    {
      "status": "0x1",
      "cumulativeGasUsed": "0xcd260",
      "logs": [
        {
          "address": "0x81b037f800a49f835171bc098e53b114001f3423",
          "topics": [
            "0x8be0079c531659141344cd1fd0a4f28419497f9722a3daafe3b4186f6b6457e0",
            "0x0000000000000000000000000000000000000000000000000000000000000000",
            "0x000000000000000000000000b73ebe02d3a29d61cb3ee87a3eede73cb1a3c725"
          ],
          "data": "0x",
          "blockHash": "0xbd84bc897c3a8a4bcb3758c0f25a4f4c7df8642df4c8f8e2aac0d9ebe710bd78",
          "blockNumber": "0x40e9076",
          "transactionHash": "0x08ccb174ebe96c00ea97f19b943447b0227c7002b6f655df897eedc008c5ce81",
          "transactionIndex": "0x2",
          "logIndex": "0x8",
          "removed": false
        }
      ],
      "logsBloom": "0x00000000000000000000000000008000000000000000000000800000000000000000000000000000000000008000000000000000000000000000000000000000000000000040000000000000000080000001000000000000000000000000000000000000020000002000000000000800000000000000000000000000000000400000000000000000000000000000000000000000000000000000000000000000000000000000000000000000000000000000000000000000000000000000000000000000000000000000000000000000000000000000000000000000000020000000000000200000000000000000000000000000000000000000000000000000",
      "type": "0x2",
      "transactionHash": "0x08ccb174ebe96c00ea97f19b943447b0227c7002b6f655df897eedc008c5ce81",
      "transactionIndex": "0x2",
      "blockHash": "0xbd84bc897c3a8a4bcb3758c0f25a4f4c7df8642df4c8f8e2aac0d9ebe710bd78",
      "blockNumber": "0x40e9076",
      "gasUsed": "0x96a54",
      "effectiveGasPrice": "0x5f5e100",
      "from": "0xb73ebe02d3a29d61cb3ee87a3eede73cb1a3c725",
      "to": null,
      "contractAddress": "0x81b037f800a49f835171bc098e53b114001f3423"
    },
    {
      "status": "0x1",
      "cumulativeGasUsed": "0xf7c0a",
      "logs": [
        {
          "address": "0x81b037f800a49f835171bc098e53b114001f3423",
          "topics": [
            "0xd2d8394cf7549a5ddbc2ba3dd7b2de8d53c891472d1f2907008ed6a10045fdae",
            "0x0000000000000000000000002213c47af15f5f4cf4bedc33aac6362f1669fcb2"
          ],
          "data": "0x0000000000000000000000002514895c72f50d8bd4b4f9b1110f0d6bd2c97526",
          "blockHash": "0xbd84bc897c3a8a4bcb3758c0f25a4f4c7df8642df4c8f8e2aac0d9ebe710bd78",
          "blockNumber": "0x40e9076",
          "transactionHash": "0x39cf83077997bd6d15a8762d1b4c8184cf00cbc4a2cdca5aafecd686cbb0a5df",
          "transactionIndex": "0x3",
          "logIndex": "0x9",
          "removed": false
        },
        {
          "address": "0x81b037f800a49f835171bc098e53b114001f3423",
          "topics": [
            "0xd2d8394cf7549a5ddbc2ba3dd7b2de8d53c891472d1f2907008ed6a10045fdae",
            "0x000000000000000000000000650b1d054c8a5a42a306d4dd43efc9077c11a26d"
          ],
          "data": "0x0000000000000000000000005741306c21795fdcbb9b265ea0255f499dfe515c",
          "blockHash": "0xbd84bc897c3a8a4bcb3758c0f25a4f4c7df8642df4c8f8e2aac0d9ebe710bd78",
          "blockNumber": "0x40e9076",
          "transactionHash": "0x39cf83077997bd6d15a8762d1b4c8184cf00cbc4a2cdca5aafecd686cbb0a5df",
          "transactionIndex": "0x3",
          "logIndex": "0xa",
          "removed": false
        },
        {
          "address": "0x81b037f800a49f835171bc098e53b114001f3423",
          "topics": [
            "0xd2d8394cf7549a5ddbc2ba3dd7b2de8d53c891472d1f2907008ed6a10045fdae",
            "0x000000000000000000000000c5b16cebec6bbb91398056c8ded5d4a4e90f21f2"
          ],
          "data": "0x000000000000000000000000635780e5d02ab29d7ae14d266936a38d3d5b0cc5",
          "blockHash": "0xbd84bc897c3a8a4bcb3758c0f25a4f4c7df8642df4c8f8e2aac0d9ebe710bd78",
          "blockNumber": "0x40e9076",
          "transactionHash": "0x39cf83077997bd6d15a8762d1b4c8184cf00cbc4a2cdca5aafecd686cbb0a5df",
          "transactionIndex": "0x3",
          "logIndex": "0xb",
          "removed": false
        },
        {
          "address": "0x81b037f800a49f835171bc098e53b114001f3423",
          "topics": [
            "0xd2d8394cf7549a5ddbc2ba3dd7b2de8d53c891472d1f2907008ed6a10045fdae",
            "0x000000000000000000000000b5fd81a624796aa82041181e7dcf46c554ccc1da"
          ],
          "data": "0x0000000000000000000000008540e3255640ab929f6ec593cb8c569a2c1d04ee",
          "blockHash": "0xbd84bc897c3a8a4bcb3758c0f25a4f4c7df8642df4c8f8e2aac0d9ebe710bd78",
          "blockNumber": "0x40e9076",
          "transactionHash": "0x39cf83077997bd6d15a8762d1b4c8184cf00cbc4a2cdca5aafecd686cbb0a5df",
          "transactionIndex": "0x3",
          "logIndex": "0xc",
          "removed": false
        },
        {
          "address": "0x81b037f800a49f835171bc098e53b114001f3423",
          "topics": [
            "0xd2d8394cf7549a5ddbc2ba3dd7b2de8d53c891472d1f2907008ed6a10045fdae",
            "0x0000000000000000000000006101df7948ee4b8defa087ed30bca81cb14d6de6"
          ],
          "data": "0x000000000000000000000000f46ea8f3328622dc2ec7058d5dcc62c5bf26b503",
          "blockHash": "0xbd84bc897c3a8a4bcb3758c0f25a4f4c7df8642df4c8f8e2aac0d9ebe710bd78",
          "blockNumber": "0x40e9076",
          "transactionHash": "0x39cf83077997bd6d15a8762d1b4c8184cf00cbc4a2cdca5aafecd686cbb0a5df",
          "transactionIndex": "0x3",
          "logIndex": "0xd",
          "removed": false
        },
        {
          "address": "0x81b037f800a49f835171bc098e53b114001f3423",
          "topics": [
            "0xd2d8394cf7549a5ddbc2ba3dd7b2de8d53c891472d1f2907008ed6a10045fdae",
            "0x0000000000000000000000008868cd0b06210a7cdfc974c6231aae8563c48a56"
          ],
          "data": "0x00000000000000000000000022f15736ab9a5b944b6ec41baee2782e0f1b7724",
          "blockHash": "0xbd84bc897c3a8a4bcb3758c0f25a4f4c7df8642df4c8f8e2aac0d9ebe710bd78",
          "blockNumber": "0x40e9076",
          "transactionHash": "0x39cf83077997bd6d15a8762d1b4c8184cf00cbc4a2cdca5aafecd686cbb0a5df",
          "transactionIndex": "0x3",
          "logIndex": "0xe",
          "removed": false
        }
      ],
      "logsBloom": "0x00000000000000000000000110000000000000080080000000000000001000000000000000000000000000008000000000000008000000000020000000000000108000000000008000000000040080000000000000000080000000000000000000000000008480000200000100000000000002000000000000100000000000000000000000000000000000000000000000000000000000000000000000000000000000000000000000000000000000000000000000000000000000000000000000000000000000000000000000002000000000000000000000000000000000000000000000200000000000000000004000000000000000000000000000000000",
      "type": "0x2",
      "transactionHash": "0x39cf83077997bd6d15a8762d1b4c8184cf00cbc4a2cdca5aafecd686cbb0a5df",
      "transactionIndex": "0x3",
      "blockHash": "0xbd84bc897c3a8a4bcb3758c0f25a4f4c7df8642df4c8f8e2aac0d9ebe710bd78",
      "blockNumber": "0x40e9076",
      "gasUsed": "0x2a9aa",
      "effectiveGasPrice": "0x5f5e100",
      "from": "0xb73ebe02d3a29d61cb3ee87a3eede73cb1a3c725",
      "to": "0x81b037f800a49f835171bc098e53b114001f3423",
      "contractAddress": null
    }
  ],
  "libraries": [],
  "pending": [],
  "returns": {},
  "timestamp": 1759893165148,
  "chain": 97,
  "commit": "d939628"
}